{
	"contracts/FIR.sol": {
		"Fir": {
			"abi": [
				{
					"inputs": [
						{
							"internalType": "string",
							"name": "firNumber",
							"type": "string"
						},
						{
							"components": [
								{
									"internalType": "string",
									"name": "name",
									"type": "string"
								},
								{
									"internalType": "string",
									"name": "district",
									"type": "string"
								},
								{
									"internalType": "string",
									"name": "state",
									"type": "string"
								}
							],
							"internalType": "struct Fir.PoliceStation",
							"name": "station",
							"type": "tuple"
						},
						{
							"components": [
								{
									"internalType": "string",
									"name": "fullName",
									"type": "string"
								},
								{
									"internalType": "string",
									"name": "parentName",
									"type": "string"
								},
								{
									"internalType": "uint256",
									"name": "age",
									"type": "uint256"
								},
								{
									"internalType": "string",
									"name": "gender",
									"type": "string"
								},
								{
									"internalType": "string",
									"name": "dob",
									"type": "string"
								},
								{
									"internalType": "string",
									"name": "nationality",
									"type": "string"
								},
								{
									"internalType": "string",
									"name": "occupation",
									"type": "string"
								},
								{
									"internalType": "string",
									"name": "addr",
									"type": "string"
								},
								{
									"internalType": "string",
									"name": "phoneNumber",
									"type": "string"
								},
								{
									"internalType": "string",
									"name": "email",
									"type": "string"
								},
								{
									"components": [
										{
											"internalType": "string",
											"name": "idType",
											"type": "string"
										},
										{
											"internalType": "string",
											"name": "idNumber",
											"type": "string"
										}
									],
									"internalType": "struct Fir.IDProof",
									"name": "idProof",
									"type": "tuple"
								}
							],
							"internalType": "struct Fir.Complainant",
							"name": "complainant",
							"type": "tuple"
						},
						{
							"components": [
								{
									"internalType": "uint256",
									"name": "occurrenceStart",
									"type": "uint256"
								},
								{
									"internalType": "uint256",
									"name": "occurrenceEnd",
									"type": "uint256"
								},
								{
									"internalType": "string",
									"name": "place",
									"type": "string"
								},
								{
									"internalType": "string",
									"name": "distanceFromStation",
									"type": "string"
								},
								{
									"internalType": "string",
									"name": "offenceType",
									"type": "string"
								},
								{
									"internalType": "string",
									"name": "description",
									"type": "string"
								},
								{
									"internalType": "string",
									"name": "actSections",
									"type": "string"
								}
							],
							"internalType": "struct Fir.Incident",
							"name": "incident",
							"type": "tuple"
						},
						{
							"components": [
								{
									"internalType": "string",
									"name": "name",
									"type": "string"
								},
								{
									"internalType": "string",
									"name": "aliasName",
									"type": "string"
								},
								{
									"internalType": "string",
									"name": "addr",
									"type": "string"
								},
								{
									"internalType": "uint256",
									"name": "age",
									"type": "uint256"
								},
								{
									"internalType": "string",
									"name": "gender",
									"type": "string"
								},
								{
									"internalType": "string",
									"name": "relationWithComplainant",
									"type": "string"
								}
							],
							"internalType": "struct Fir.Accused[]",
							"name": "accused",
							"type": "tuple[]"
						},
						{
							"components": [
								{
									"internalType": "string",
									"name": "name",
									"type": "string"
								},
								{
									"internalType": "string",
									"name": "addr",
									"type": "string"
								},
								{
									"internalType": "string",
									"name": "contactInfo",
									"type": "string"
								}
							],
							"internalType": "struct Fir.Witness[]",
							"name": "witnesses",
							"type": "tuple[]"
						},
						{
							"components": [
								{
									"internalType": "string[]",
									"name": "documents",
									"type": "string[]"
								},
								{
									"internalType": "string",
									"name": "mediaType",
									"type": "string"
								},
								{
									"internalType": "string",
									"name": "mediaDescription",
									"type": "string"
								},
								{
									"internalType": "string",
									"name": "physicalDescription",
									"type": "string"
								}
							],
							"internalType": "struct Fir.Evidence",
							"name": "evidence",
							"type": "tuple"
						},
						{
							"components": [
								{
									"internalType": "bool",
									"name": "started",
									"type": "bool"
								},
								{
									"internalType": "string",
									"name": "ioName",
									"type": "string"
								},
								{
									"internalType": "string",
									"name": "ioRank",
									"type": "string"
								},
								{
									"internalType": "string",
									"name": "ioBadgeNumber",
									"type": "string"
								},
								{
									"internalType": "string",
									"name": "dispatchDate",
									"type": "string"
								}
							],
							"internalType": "struct Fir.Investigation",
							"name": "investigation",
							"type": "tuple"
						}
					],
					"name": "fileFIR",
					"outputs": [],
					"stateMutability": "nonpayable",
					"type": "function"
				},
				{
					"inputs": [],
					"name": "firCount",
					"outputs": [
						{
							"internalType": "uint256",
							"name": "",
							"type": "uint256"
						}
					],
					"stateMutability": "view",
					"type": "function"
				},
				{
					"inputs": [
						{
							"internalType": "uint256",
							"name": "",
							"type": "uint256"
						}
					],
					"name": "firs",
					"outputs": [
						{
							"internalType": "uint256",
							"name": "firId",
							"type": "uint256"
						},
						{
							"internalType": "string",
							"name": "firNumber",
							"type": "string"
						},
						{
							"internalType": "uint256",
							"name": "filingDateTime",
							"type": "uint256"
						},
						{
							"components": [
								{
									"internalType": "string",
									"name": "name",
									"type": "string"
								},
								{
									"internalType": "string",
									"name": "district",
									"type": "string"
								},
								{
									"internalType": "string",
									"name": "state",
									"type": "string"
								}
							],
							"internalType": "struct Fir.PoliceStation",
							"name": "station",
							"type": "tuple"
						},
						{
							"components": [
								{
									"internalType": "string",
									"name": "fullName",
									"type": "string"
								},
								{
									"internalType": "string",
									"name": "parentName",
									"type": "string"
								},
								{
									"internalType": "uint256",
									"name": "age",
									"type": "uint256"
								},
								{
									"internalType": "string",
									"name": "gender",
									"type": "string"
								},
								{
									"internalType": "string",
									"name": "dob",
									"type": "string"
								},
								{
									"internalType": "string",
									"name": "nationality",
									"type": "string"
								},
								{
									"internalType": "string",
									"name": "occupation",
									"type": "string"
								},
								{
									"internalType": "string",
									"name": "addr",
									"type": "string"
								},
								{
									"internalType": "string",
									"name": "phoneNumber",
									"type": "string"
								},
								{
									"internalType": "string",
									"name": "email",
									"type": "string"
								},
								{
									"components": [
										{
											"internalType": "string",
											"name": "idType",
											"type": "string"
										},
										{
											"internalType": "string",
											"name": "idNumber",
											"type": "string"
										}
									],
									"internalType": "struct Fir.IDProof",
									"name": "idProof",
									"type": "tuple"
								}
							],
							"internalType": "struct Fir.Complainant",
							"name": "complainant",
							"type": "tuple"
						},
						{
							"components": [
								{
									"internalType": "uint256",
									"name": "occurrenceStart",
									"type": "uint256"
								},
								{
									"internalType": "uint256",
									"name": "occurrenceEnd",
									"type": "uint256"
								},
								{
									"internalType": "string",
									"name": "place",
									"type": "string"
								},
								{
									"internalType": "string",
									"name": "distanceFromStation",
									"type": "string"
								},
								{
									"internalType": "string",
									"name": "offenceType",
									"type": "string"
								},
								{
									"internalType": "string",
									"name": "description",
									"type": "string"
								},
								{
									"internalType": "string",
									"name": "actSections",
									"type": "string"
								}
							],
							"internalType": "struct Fir.Incident",
							"name": "incident",
							"type": "tuple"
						},
						{
							"components": [
								{
									"internalType": "string[]",
									"name": "documents",
									"type": "string[]"
								},
								{
									"internalType": "string",
									"name": "mediaType",
									"type": "string"
								},
								{
									"internalType": "string",
									"name": "mediaDescription",
									"type": "string"
								},
								{
									"internalType": "string",
									"name": "physicalDescription",
									"type": "string"
								}
							],
							"internalType": "struct Fir.Evidence",
							"name": "evidence",
							"type": "tuple"
						},
						{
							"components": [
								{
									"internalType": "bool",
									"name": "started",
									"type": "bool"
								},
								{
									"internalType": "string",
									"name": "ioName",
									"type": "string"
								},
								{
									"internalType": "string",
									"name": "ioRank",
									"type": "string"
								},
								{
									"internalType": "string",
									"name": "ioBadgeNumber",
									"type": "string"
								},
								{
									"internalType": "string",
									"name": "dispatchDate",
									"type": "string"
								}
							],
							"internalType": "struct Fir.Investigation",
							"name": "investigation",
							"type": "tuple"
						}
					],
					"stateMutability": "view",
					"type": "function"
				}
			],
			"devdoc": {
				"kind": "dev",
				"methods": {},
				"version": 1
			},
			"evm": {
				"assembly": "    /* \"contracts/FIR.sol\":61:2690  contract Fir {... */\n  mstore(0x40, 0x80)\n    /* \"contracts/FIR.sol\":1811:1812  0 */\n  0x00\n    /* \"contracts/FIR.sol\":1788:1812  uint public firCount = 0 */\n  0x00\n  sstore\n    /* \"contracts/FIR.sol\":61:2690  contract Fir {... */\n  callvalue\n  dup1\n  iszero\n  tag_1\n  jumpi\n  revert(0x00, 0x00)\ntag_1:\n  pop\n  dataSize(sub_0)\n  dup1\n  dataOffset(sub_0)\n  0x00\n  codecopy\n  0x00\n  return\nstop\n\nsub_0: assembly {\n        /* \"contracts/FIR.sol\":61:2690  contract Fir {... */\n      mstore(0x40, 0x80)\n      callvalue\n      dup1\n      iszero\n      tag_1\n      jumpi\n      revert(0x00, 0x00)\n    tag_1:\n      pop\n      jumpi(tag_2, lt(calldatasize, 0x04))\n      shr(0xe0, calldataload(0x00))\n      dup1\n      0xa4de172d\n      eq\n      tag_3\n      jumpi\n      dup1\n      0xd1c45a92\n      eq\n      tag_4\n      jumpi\n      dup1\n      0xf5a4b1e7\n      eq\n      tag_5\n      jumpi\n    tag_2:\n      revert(0x00, 0x00)\n        /* \"contracts/FIR.sol\":1819:1851  mapping(uint => FIR) public firs */\n    tag_3:\n      tag_6\n      0x04\n      dup1\n      calldatasize\n      sub\n      dup2\n      add\n      swap1\n      tag_7\n      swap2\n      swap1\n      tag_8\n      jump\t// in\n    tag_7:\n      tag_9\n      jump\t// in\n    tag_6:\n      mload(0x40)\n      tag_10\n      swap9\n      swap8\n      swap7\n      swap6\n      swap5\n      swap4\n      swap3\n      swap2\n      swap1\n      tag_11\n      jump\t// in\n    tag_10:\n      mload(0x40)\n      dup1\n      swap2\n      sub\n      swap1\n      return\n        /* \"contracts/FIR.sol\":1788:1812  uint public firCount = 0 */\n    tag_4:\n      tag_12\n      tag_13\n      jump\t// in\n    tag_12:\n      mload(0x40)\n      tag_14\n      swap2\n      swap1\n      tag_15\n      jump\t// in\n    tag_14:\n      mload(0x40)\n      dup1\n      swap2\n      sub\n      swap1\n      return\n        /* \"contracts/FIR.sol\":1867:2645  function fileFIR(... */\n    tag_5:\n      tag_16\n      0x04\n      dup1\n      calldatasize\n      sub\n      dup2\n      add\n      swap1\n      tag_17\n      swap2\n      swap1\n      tag_18\n      jump\t// in\n    tag_17:\n      tag_19\n      jump\t// in\n    tag_16:\n      stop\n        /* \"contracts/FIR.sol\":1819:1851  mapping(uint => FIR) public firs */\n    tag_9:\n      mstore(0x20, 0x01)\n      dup1\n      0x00\n      mstore\n      keccak256(0x00, 0x40)\n      0x00\n      swap2\n      pop\n      swap1\n      pop\n      dup1\n      0x00\n      add\n      sload\n      swap1\n      dup1\n      0x01\n      add\n      dup1\n      sload\n      tag_20\n      swap1\n      tag_21\n      jump\t// in\n    tag_20:\n      dup1\n      0x1f\n      add\n      0x20\n      dup1\n      swap2\n      div\n      mul\n      0x20\n      add\n      mload(0x40)\n      swap1\n      dup2\n      add\n      0x40\n      mstore\n      dup1\n      swap3\n      swap2\n      swap1\n      dup2\n      dup2\n      mstore\n      0x20\n      add\n      dup3\n      dup1\n      sload\n      tag_22\n      swap1\n      tag_21\n      jump\t// in\n    tag_22:\n      dup1\n      iszero\n      tag_23\n      jumpi\n      dup1\n      0x1f\n      lt\n      tag_24\n      jumpi\n      0x0100\n      dup1\n      dup4\n      sload\n      div\n      mul\n      dup4\n      mstore\n      swap2\n      0x20\n      add\n      swap2\n      jump(tag_23)\n    tag_24:\n      dup3\n      add\n      swap2\n      swap1\n      0x00\n      mstore\n      keccak256(0x00, 0x20)\n      swap1\n    tag_25:\n      dup2\n      sload\n      dup2\n      mstore\n      swap1\n      0x01\n      add\n      swap1\n      0x20\n      add\n      dup1\n      dup4\n      gt\n      tag_25\n      jumpi\n      dup3\n      swap1\n      sub\n      0x1f\n      and\n      dup3\n      add\n      swap2\n    tag_23:\n      pop\n      pop\n      pop\n      pop\n      pop\n      swap1\n      dup1\n      0x02\n      add\n      sload\n      swap1\n      dup1\n      0x03\n      add\n      mload(0x40)\n      dup1\n      0x60\n      add\n      0x40\n      mstore\n      swap1\n      dup2\n      0x00\n      dup3\n      add\n      dup1\n      sload\n      tag_26\n      swap1\n      tag_21\n      jump\t// in\n    tag_26:\n      dup1\n      0x1f\n      add\n      0x20\n      dup1\n      swap2\n      div\n      mul\n      0x20\n      add\n      mload(0x40)\n      swap1\n      dup2\n      add\n      0x40\n      mstore\n      dup1\n      swap3\n      swap2\n      swap1\n      dup2\n      dup2\n      mstore\n      0x20\n      add\n      dup3\n      dup1\n      sload\n      tag_27\n      swap1\n      tag_21\n      jump\t// in\n    tag_27:\n      dup1\n      iszero\n      tag_28\n      jumpi\n      dup1\n      0x1f\n      lt\n      tag_29\n      jumpi\n      0x0100\n      dup1\n      dup4\n      sload\n      div\n      mul\n      dup4\n      mstore\n      swap2\n      0x20\n      add\n      swap2\n      jump(tag_28)\n    tag_29:\n      dup3\n      add\n      swap2\n      swap1\n      0x00\n      mstore\n      keccak256(0x00, 0x20)\n      swap1\n    tag_30:\n      dup2\n      sload\n      dup2\n      mstore\n      swap1\n      0x01\n      add\n      swap1\n      0x20\n      add\n      dup1\n      dup4\n      gt\n      tag_30\n      jumpi\n      dup3\n      swap1\n      sub\n      0x1f\n      and\n      dup3\n      add\n      swap2\n    tag_28:\n      pop\n      pop\n      pop\n      pop\n      pop\n      dup2\n      mstore\n      0x20\n      add\n      0x01\n      dup3\n      add\n      dup1\n      sload\n      tag_31\n      swap1\n      tag_21\n      jump\t// in\n    tag_31:\n      dup1\n      0x1f\n      add\n      0x20\n      dup1\n      swap2\n      div\n      mul\n      0x20\n      add\n      mload(0x40)\n      swap1\n      dup2\n      add\n      0x40\n      mstore\n      dup1\n      swap3\n      swap2\n      swap1\n      dup2\n      dup2\n      mstore\n      0x20\n      add\n      dup3\n      dup1\n      sload\n      tag_32\n      swap1\n      tag_21\n      jump\t// in\n    tag_32:\n      dup1\n      iszero\n      tag_33\n      jumpi\n      dup1\n      0x1f\n      lt\n      tag_34\n      jumpi\n      0x0100\n      dup1\n      dup4\n      sload\n      div\n      mul\n      dup4\n      mstore\n      swap2\n      0x20\n      add\n      swap2\n      jump(tag_33)\n    tag_34:\n      dup3\n      add\n      swap2\n      swap1\n      0x00\n      mstore\n      keccak256(0x00, 0x20)\n      swap1\n    tag_35:\n      dup2\n      sload\n      dup2\n      mstore\n      swap1\n      0x01\n      add\n      swap1\n      0x20\n      add\n      dup1\n      dup4\n      gt\n      tag_35\n      jumpi\n      dup3\n      swap1\n      sub\n      0x1f\n      and\n      dup3\n      add\n      swap2\n    tag_33:\n      pop\n      pop\n      pop\n      pop\n      pop\n      dup2\n      mstore\n      0x20\n      add\n      0x02\n      dup3\n      add\n      dup1\n      sload\n      tag_36\n      swap1\n      tag_21\n      jump\t// in\n    tag_36:\n      dup1\n      0x1f\n      add\n      0x20\n      dup1\n      swap2\n      div\n      mul\n      0x20\n      add\n      mload(0x40)\n      swap1\n      dup2\n      add\n      0x40\n      mstore\n      dup1\n      swap3\n      swap2\n      swap1\n      dup2\n      dup2\n      mstore\n      0x20\n      add\n      dup3\n      dup1\n      sload\n      tag_37\n      swap1\n      tag_21\n      jump\t// in\n    tag_37:\n      dup1\n      iszero\n      tag_38\n      jumpi\n      dup1\n      0x1f\n      lt\n      tag_39\n      jumpi\n      0x0100\n      dup1\n      dup4\n      sload\n      div\n      mul\n      dup4\n      mstore\n      swap2\n      0x20\n      add\n      swap2\n      jump(tag_38)\n    tag_39:\n      dup3\n      add\n      swap2\n      swap1\n      0x00\n      mstore\n      keccak256(0x00, 0x20)\n      swap1\n    tag_40:\n      dup2\n      sload\n      dup2\n      mstore\n      swap1\n      0x01\n      add\n      swap1\n      0x20\n      add\n      dup1\n      dup4\n      gt\n      tag_40\n      jumpi\n      dup3\n      swap1\n      sub\n      0x1f\n      and\n      dup3\n      add\n      swap2\n    tag_38:\n      pop\n      pop\n      pop\n      pop\n      pop\n      dup2\n      mstore\n      pop\n      pop\n      swap1\n      dup1\n      0x06\n      add\n      mload(0x40)\n      dup1\n      0x0160\n      add\n      0x40\n      mstore\n      swap1\n      dup2\n      0x00\n      dup3\n      add\n      dup1\n      sload\n      tag_41\n      swap1\n      tag_21\n      jump\t// in\n    tag_41:\n      dup1\n      0x1f\n      add\n      0x20\n      dup1\n      swap2\n      div\n      mul\n      0x20\n      add\n      mload(0x40)\n      swap1\n      dup2\n      add\n      0x40\n      mstore\n      dup1\n      swap3\n      swap2\n      swap1\n      dup2\n      dup2\n      mstore\n      0x20\n      add\n      dup3\n      dup1\n      sload\n      tag_42\n      swap1\n      tag_21\n      jump\t// in\n    tag_42:\n      dup1\n      iszero\n      tag_43\n      jumpi\n      dup1\n      0x1f\n      lt\n      tag_44\n      jumpi\n      0x0100\n      dup1\n      dup4\n      sload\n      div\n      mul\n      dup4\n      mstore\n      swap2\n      0x20\n      add\n      swap2\n      jump(tag_43)\n    tag_44:\n      dup3\n      add\n      swap2\n      swap1\n      0x00\n      mstore\n      keccak256(0x00, 0x20)\n      swap1\n    tag_45:\n      dup2\n      sload\n      dup2\n      mstore\n      swap1\n      0x01\n      add\n      swap1\n      0x20\n      add\n      dup1\n      dup4\n      gt\n      tag_45\n      jumpi\n      dup3\n      swap1\n      sub\n      0x1f\n      and\n      dup3\n      add\n      swap2\n    tag_43:\n      pop\n      pop\n      pop\n      pop\n      pop\n      dup2\n      mstore\n      0x20\n      add\n      0x01\n      dup3\n      add\n      dup1\n      sload\n      tag_46\n      swap1\n      tag_21\n      jump\t// in\n    tag_46:\n      dup1\n      0x1f\n      add\n      0x20\n      dup1\n      swap2\n      div\n      mul\n      0x20\n      add\n      mload(0x40)\n      swap1\n      dup2\n      add\n      0x40\n      mstore\n      dup1\n      swap3\n      swap2\n      swap1\n      dup2\n      dup2\n      mstore\n      0x20\n      add\n      dup3\n      dup1\n      sload\n      tag_47\n      swap1\n      tag_21\n      jump\t// in\n    tag_47:\n      dup1\n      iszero\n      tag_48\n      jumpi\n      dup1\n      0x1f\n      lt\n      tag_49\n      jumpi\n      0x0100\n      dup1\n      dup4\n      sload\n      div\n      mul\n      dup4\n      mstore\n      swap2\n      0x20\n      add\n      swap2\n      jump(tag_48)\n    tag_49:\n      dup3\n      add\n      swap2\n      swap1\n      0x00\n      mstore\n      keccak256(0x00, 0x20)\n      swap1\n    tag_50:\n      dup2\n      sload\n      dup2\n      mstore\n      swap1\n      0x01\n      add\n      swap1\n      0x20\n      add\n      dup1\n      dup4\n      gt\n      tag_50\n      jumpi\n      dup3\n      swap1\n      sub\n      0x1f\n      and\n      dup3\n      add\n      swap2\n    tag_48:\n      pop\n      pop\n      pop\n      pop\n      pop\n      dup2\n      mstore\n      0x20\n      add\n      0x02\n      dup3\n      add\n      sload\n      dup2\n      mstore\n      0x20\n      add\n      0x03\n      dup3\n      add\n      dup1\n      sload\n      tag_51\n      swap1\n      tag_21\n      jump\t// in\n    tag_51:\n      dup1\n      0x1f\n      add\n      0x20\n      dup1\n      swap2\n      div\n      mul\n      0x20\n      add\n      mload(0x40)\n      swap1\n      dup2\n      add\n      0x40\n      mstore\n      dup1\n      swap3\n      swap2\n      swap1\n      dup2\n      dup2\n      mstore\n      0x20\n      add\n      dup3\n      dup1\n      sload\n      tag_52\n      swap1\n      tag_21\n      jump\t// in\n    tag_52:\n      dup1\n      iszero\n      tag_53\n      jumpi\n      dup1\n      0x1f\n      lt\n      tag_54\n      jumpi\n      0x0100\n      dup1\n      dup4\n      sload\n      div\n      mul\n      dup4\n      mstore\n      swap2\n      0x20\n      add\n      swap2\n      jump(tag_53)\n    tag_54:\n      dup3\n      add\n      swap2\n      swap1\n      0x00\n      mstore\n      keccak256(0x00, 0x20)\n      swap1\n    tag_55:\n      dup2\n      sload\n      dup2\n      mstore\n      swap1\n      0x01\n      add\n      swap1\n      0x20\n      add\n      dup1\n      dup4\n      gt\n      tag_55\n      jumpi\n      dup3\n      swap1\n      sub\n      0x1f\n      and\n      dup3\n      add\n      swap2\n    tag_53:\n      pop\n      pop\n      pop\n      pop\n      pop\n      dup2\n      mstore\n      0x20\n      add\n      0x04\n      dup3\n      add\n      dup1\n      sload\n      tag_56\n      swap1\n      tag_21\n      jump\t// in\n    tag_56:\n      dup1\n      0x1f\n      add\n      0x20\n      dup1\n      swap2\n      div\n      mul\n      0x20\n      add\n      mload(0x40)\n      swap1\n      dup2\n      add\n      0x40\n      mstore\n      dup1\n      swap3\n      swap2\n      swap1\n      dup2\n      dup2\n      mstore\n      0x20\n      add\n      dup3\n      dup1\n      sload\n      tag_57\n      swap1\n      tag_21\n      jump\t// in\n    tag_57:\n      dup1\n      iszero\n      tag_58\n      jumpi\n      dup1\n      0x1f\n      lt\n      tag_59\n      jumpi\n      0x0100\n      dup1\n      dup4\n      sload\n      div\n      mul\n      dup4\n      mstore\n      swap2\n      0x20\n      add\n      swap2\n      jump(tag_58)\n    tag_59:\n      dup3\n      add\n      swap2\n      swap1\n      0x00\n      mstore\n      keccak256(0x00, 0x20)\n      swap1\n    tag_60:\n      dup2\n      sload\n      dup2\n      mstore\n      swap1\n      0x01\n      add\n      swap1\n      0x20\n      add\n      dup1\n      dup4\n      gt\n      tag_60\n      jumpi\n      dup3\n      swap1\n      sub\n      0x1f\n      and\n      dup3\n      add\n      swap2\n    tag_58:\n      pop\n      pop\n      pop\n      pop\n      pop\n      dup2\n      mstore\n      0x20\n      add\n      0x05\n      dup3\n      add\n      dup1\n      sload\n      tag_61\n      swap1\n      tag_21\n      jump\t// in\n    tag_61:\n      dup1\n      0x1f\n      add\n      0x20\n      dup1\n      swap2\n      div\n      mul\n      0x20\n      add\n      mload(0x40)\n      swap1\n      dup2\n      add\n      0x40\n      mstore\n      dup1\n      swap3\n      swap2\n      swap1\n      dup2\n      dup2\n      mstore\n      0x20\n      add\n      dup3\n      dup1\n      sload\n      tag_62\n      swap1\n      tag_21\n      jump\t// in\n    tag_62:\n      dup1\n      iszero\n      tag_63\n      jumpi\n      dup1\n      0x1f\n      lt\n      tag_64\n      jumpi\n      0x0100\n      dup1\n      dup4\n      sload\n      div\n      mul\n      dup4\n      mstore\n      swap2\n      0x20\n      add\n      swap2\n      jump(tag_63)\n    tag_64:\n      dup3\n      add\n      swap2\n      swap1\n      0x00\n      mstore\n      keccak256(0x00, 0x20)\n      swap1\n    tag_65:\n      dup2\n      sload\n      dup2\n      mstore\n      swap1\n      0x01\n      add\n      swap1\n      0x20\n      add\n      dup1\n      dup4\n      gt\n      tag_65\n      jumpi\n      dup3\n      swap1\n      sub\n      0x1f\n      and\n      dup3\n      add\n      swap2\n    tag_63:\n      pop\n      pop\n      pop\n      pop\n      pop\n      dup2\n      mstore\n      0x20\n      add\n      0x06\n      dup3\n      add\n      dup1\n      sload\n      tag_66\n      swap1\n      tag_21\n      jump\t// in\n    tag_66:\n      dup1\n      0x1f\n      add\n      0x20\n      dup1\n      swap2\n      div\n      mul\n      0x20\n      add\n      mload(0x40)\n      swap1\n      dup2\n      add\n      0x40\n      mstore\n      dup1\n      swap3\n      swap2\n      swap1\n      dup2\n      dup2\n      mstore\n      0x20\n      add\n      dup3\n      dup1\n      sload\n      tag_67\n      swap1\n      tag_21\n      jump\t// in\n    tag_67:\n      dup1\n      iszero\n      tag_68\n      jumpi\n      dup1\n      0x1f\n      lt\n      tag_69\n      jumpi\n      0x0100\n      dup1\n      dup4\n      sload\n      div\n      mul\n      dup4\n      mstore\n      swap2\n      0x20\n      add\n      swap2\n      jump(tag_68)\n    tag_69:\n      dup3\n      add\n      swap2\n      swap1\n      0x00\n      mstore\n      keccak256(0x00, 0x20)\n      swap1\n    tag_70:\n      dup2\n      sload\n      dup2\n      mstore\n      swap1\n      0x01\n      add\n      swap1\n      0x20\n      add\n      dup1\n      dup4\n      gt\n      tag_70\n      jumpi\n      dup3\n      swap1\n      sub\n      0x1f\n      and\n      dup3\n      add\n      swap2\n    tag_68:\n      pop\n      pop\n      pop\n      pop\n      pop\n      dup2\n      mstore\n      0x20\n      add\n      0x07\n      dup3\n      add\n      dup1\n      sload\n      tag_71\n      swap1\n      tag_21\n      jump\t// in\n    tag_71:\n      dup1\n      0x1f\n      add\n      0x20\n      dup1\n      swap2\n      div\n      mul\n      0x20\n      add\n      mload(0x40)\n      swap1\n      dup2\n      add\n      0x40\n      mstore\n      dup1\n      swap3\n      swap2\n      swap1\n      dup2\n      dup2\n      mstore\n      0x20\n      add\n      dup3\n      dup1\n      sload\n      tag_72\n      swap1\n      tag_21\n      jump\t// in\n    tag_72:\n      dup1\n      iszero\n      tag_73\n      jumpi\n      dup1\n      0x1f\n      lt\n      tag_74\n      jumpi\n      0x0100\n      dup1\n      dup4\n      sload\n      div\n      mul\n      dup4\n      mstore\n      swap2\n      0x20\n      add\n      swap2\n      jump(tag_73)\n    tag_74:\n      dup3\n      add\n      swap2\n      swap1\n      0x00\n      mstore\n      keccak256(0x00, 0x20)\n      swap1\n    tag_75:\n      dup2\n      sload\n      dup2\n      mstore\n      swap1\n      0x01\n      add\n      swap1\n      0x20\n      add\n      dup1\n      dup4\n      gt\n      tag_75\n      jumpi\n      dup3\n      swap1\n      sub\n      0x1f\n      and\n      dup3\n      add\n      swap2\n    tag_73:\n      pop\n      pop\n      pop\n      pop\n      pop\n      dup2\n      mstore\n      0x20\n      add\n      0x08\n      dup3\n      add\n      dup1\n      sload\n      tag_76\n      swap1\n      tag_21\n      jump\t// in\n    tag_76:\n      dup1\n      0x1f\n      add\n      0x20\n      dup1\n      swap2\n      div\n      mul\n      0x20\n      add\n      mload(0x40)\n      swap1\n      dup2\n      add\n      0x40\n      mstore\n      dup1\n      swap3\n      swap2\n      swap1\n      dup2\n      dup2\n      mstore\n      0x20\n      add\n      dup3\n      dup1\n      sload\n      tag_77\n      swap1\n      tag_21\n      jump\t// in\n    tag_77:\n      dup1\n      iszero\n      tag_78\n      jumpi\n      dup1\n      0x1f\n      lt\n      tag_79\n      jumpi\n      0x0100\n      dup1\n      dup4\n      sload\n      div\n      mul\n      dup4\n      mstore\n      swap2\n      0x20\n      add\n      swap2\n      jump(tag_78)\n    tag_79:\n      dup3\n      add\n      swap2\n      swap1\n      0x00\n      mstore\n      keccak256(0x00, 0x20)\n      swap1\n    tag_80:\n      dup2\n      sload\n      dup2\n      mstore\n      swap1\n      0x01\n      add\n      swap1\n      0x20\n      add\n      dup1\n      dup4\n      gt\n      tag_80\n      jumpi\n      dup3\n      swap1\n      sub\n      0x1f\n      and\n      dup3\n      add\n      swap2\n    tag_78:\n      pop\n      pop\n      pop\n      pop\n      pop\n      dup2\n      mstore\n      0x20\n      add\n      0x09\n      dup3\n      add\n      dup1\n      sload\n      tag_81\n      swap1\n      tag_21\n      jump\t// in\n    tag_81:\n      dup1\n      0x1f\n      add\n      0x20\n      dup1\n      swap2\n      div\n      mul\n      0x20\n      add\n      mload(0x40)\n      swap1\n      dup2\n      add\n      0x40\n      mstore\n      dup1\n      swap3\n      swap2\n      swap1\n      dup2\n      dup2\n      mstore\n      0x20\n      add\n      dup3\n      dup1\n      sload\n      tag_82\n      swap1\n      tag_21\n      jump\t// in\n    tag_82:\n      dup1\n      iszero\n      tag_83\n      jumpi\n      dup1\n      0x1f\n      lt\n      tag_84\n      jumpi\n      0x0100\n      dup1\n      dup4\n      sload\n      div\n      mul\n      dup4\n      mstore\n      swap2\n      0x20\n      add\n      swap2\n      jump(tag_83)\n    tag_84:\n      dup3\n      add\n      swap2\n      swap1\n      0x00\n      mstore\n      keccak256(0x00, 0x20)\n      swap1\n    tag_85:\n      dup2\n      sload\n      dup2\n      mstore\n      swap1\n      0x01\n      add\n      swap1\n      0x20\n      add\n      dup1\n      dup4\n      gt\n      tag_85\n      jumpi\n      dup3\n      swap1\n      sub\n      0x1f\n      and\n      dup3\n      add\n      swap2\n    tag_83:\n      pop\n      pop\n      pop\n      pop\n      pop\n      dup2\n      mstore\n      0x20\n      add\n      0x0a\n      dup3\n      add\n      mload(0x40)\n      dup1\n      0x40\n      add\n      0x40\n      mstore\n      swap1\n      dup2\n      0x00\n      dup3\n      add\n      dup1\n      sload\n      tag_86\n      swap1\n      tag_21\n      jump\t// in\n    tag_86:\n      dup1\n      0x1f\n      add\n      0x20\n      dup1\n      swap2\n      div\n      mul\n      0x20\n      add\n      mload(0x40)\n      swap1\n      dup2\n      add\n      0x40\n      mstore\n      dup1\n      swap3\n      swap2\n      swap1\n      dup2\n      dup2\n      mstore\n      0x20\n      add\n      dup3\n      dup1\n      sload\n      tag_87\n      swap1\n      tag_21\n      jump\t// in\n    tag_87:\n      dup1\n      iszero\n      tag_88\n      jumpi\n      dup1\n      0x1f\n      lt\n      tag_89\n      jumpi\n      0x0100\n      dup1\n      dup4\n      sload\n      div\n      mul\n      dup4\n      mstore\n      swap2\n      0x20\n      add\n      swap2\n      jump(tag_88)\n    tag_89:\n      dup3\n      add\n      swap2\n      swap1\n      0x00\n      mstore\n      keccak256(0x00, 0x20)\n      swap1\n    tag_90:\n      dup2\n      sload\n      dup2\n      mstore\n      swap1\n      0x01\n      add\n      swap1\n      0x20\n      add\n      dup1\n      dup4\n      gt\n      tag_90\n      jumpi\n      dup3\n      swap1\n      sub\n      0x1f\n      and\n      dup3\n      add\n      swap2\n    tag_88:\n      pop\n      pop\n      pop\n      pop\n      pop\n      dup2\n      mstore\n      0x20\n      add\n      0x01\n      dup3\n      add\n      dup1\n      sload\n      tag_91\n      swap1\n      tag_21\n      jump\t// in\n    tag_91:\n      dup1\n      0x1f\n      add\n      0x20\n      dup1\n      swap2\n      div\n      mul\n      0x20\n      add\n      mload(0x40)\n      swap1\n      dup2\n      add\n      0x40\n      mstore\n      dup1\n      swap3\n      swap2\n      swap1\n      dup2\n      dup2\n      mstore\n      0x20\n      add\n      dup3\n      dup1\n      sload\n      tag_92\n      swap1\n      tag_21\n      jump\t// in\n    tag_92:\n      dup1\n      iszero\n      tag_93\n      jumpi\n      dup1\n      0x1f\n      lt\n      tag_94\n      jumpi\n      0x0100\n      dup1\n      dup4\n      sload\n      div\n      mul\n      dup4\n      mstore\n      swap2\n      0x20\n      add\n      swap2\n      jump(tag_93)\n    tag_94:\n      dup3\n      add\n      swap2\n      swap1\n      0x00\n      mstore\n      keccak256(0x00, 0x20)\n      swap1\n    tag_95:\n      dup2\n      sload\n      dup2\n      mstore\n      swap1\n      0x01\n      add\n      swap1\n      0x20\n      add\n      dup1\n      dup4\n      gt\n      tag_95\n      jumpi\n      dup3\n      swap1\n      sub\n      0x1f\n      and\n      dup3\n      add\n      swap2\n    tag_93:\n      pop\n      pop\n      pop\n      pop\n      pop\n      dup2\n      mstore\n      pop\n      pop\n      dup2\n      mstore\n      pop\n      pop\n      swap1\n      dup1\n      0x12\n      add\n      mload(0x40)\n      dup1\n      0xe0\n      add\n      0x40\n      mstore\n      swap1\n      dup2\n      0x00\n      dup3\n      add\n      sload\n      dup2\n      mstore\n      0x20\n      add\n      0x01\n      dup3\n      add\n      sload\n      dup2\n      mstore\n      0x20\n      add\n      0x02\n      dup3\n      add\n      dup1\n      sload\n      tag_96\n      swap1\n      tag_21\n      jump\t// in\n    tag_96:\n      dup1\n      0x1f\n      add\n      0x20\n      dup1\n      swap2\n      div\n      mul\n      0x20\n      add\n      mload(0x40)\n      swap1\n      dup2\n      add\n      0x40\n      mstore\n      dup1\n      swap3\n      swap2\n      swap1\n      dup2\n      dup2\n      mstore\n      0x20\n      add\n      dup3\n      dup1\n      sload\n      tag_97\n      swap1\n      tag_21\n      jump\t// in\n    tag_97:\n      dup1\n      iszero\n      tag_98\n      jumpi\n      dup1\n      0x1f\n      lt\n      tag_99\n      jumpi\n      0x0100\n      dup1\n      dup4\n      sload\n      div\n      mul\n      dup4\n      mstore\n      swap2\n      0x20\n      add\n      swap2\n      jump(tag_98)\n    tag_99:\n      dup3\n      add\n      swap2\n      swap1\n      0x00\n      mstore\n      keccak256(0x00, 0x20)\n      swap1\n    tag_100:\n      dup2\n      sload\n      dup2\n      mstore\n      swap1\n      0x01\n      add\n      swap1\n      0x20\n      add\n      dup1\n      dup4\n      gt\n      tag_100\n      jumpi\n      dup3\n      swap1\n      sub\n      0x1f\n      and\n      dup3\n      add\n      swap2\n    tag_98:\n      pop\n      pop\n      pop\n      pop\n      pop\n      dup2\n      mstore\n      0x20\n      add\n      0x03\n      dup3\n      add\n      dup1\n      sload\n      tag_101\n      swap1\n      tag_21\n      jump\t// in\n    tag_101:\n      dup1\n      0x1f\n      add\n      0x20\n      dup1\n      swap2\n      div\n      mul\n      0x20\n      add\n      mload(0x40)\n      swap1\n      dup2\n      add\n      0x40\n      mstore\n      dup1\n      swap3\n      swap2\n      swap1\n      dup2\n      dup2\n      mstore\n      0x20\n      add\n      dup3\n      dup1\n      sload\n      tag_102\n      swap1\n      tag_21\n      jump\t// in\n    tag_102:\n      dup1\n      iszero\n      tag_103\n      jumpi\n      dup1\n      0x1f\n      lt\n      tag_104\n      jumpi\n      0x0100\n      dup1\n      dup4\n      sload\n      div\n      mul\n      dup4\n      mstore\n      swap2\n      0x20\n      add\n      swap2\n      jump(tag_103)\n    tag_104:\n      dup3\n      add\n      swap2\n      swap1\n      0x00\n      mstore\n      keccak256(0x00, 0x20)\n      swap1\n    tag_105:\n      dup2\n      sload\n      dup2\n      mstore\n      swap1\n      0x01\n      add\n      swap1\n      0x20\n      add\n      dup1\n      dup4\n      gt\n      tag_105\n      jumpi\n      dup3\n      swap1\n      sub\n      0x1f\n      and\n      dup3\n      add\n      swap2\n    tag_103:\n      pop\n      pop\n      pop\n      pop\n      pop\n      dup2\n      mstore\n      0x20\n      add\n      0x04\n      dup3\n      add\n      dup1\n      sload\n      tag_106\n      swap1\n      tag_21\n      jump\t// in\n    tag_106:\n      dup1\n      0x1f\n      add\n      0x20\n      dup1\n      swap2\n      div\n      mul\n      0x20\n      add\n      mload(0x40)\n      swap1\n      dup2\n      add\n      0x40\n      mstore\n      dup1\n      swap3\n      swap2\n      swap1\n      dup2\n      dup2\n      mstore\n      0x20\n      add\n      dup3\n      dup1\n      sload\n      tag_107\n      swap1\n      tag_21\n      jump\t// in\n    tag_107:\n      dup1\n      iszero\n      tag_108\n      jumpi\n      dup1\n      0x1f\n      lt\n      tag_109\n      jumpi\n      0x0100\n      dup1\n      dup4\n      sload\n      div\n      mul\n      dup4\n      mstore\n      swap2\n      0x20\n      add\n      swap2\n      jump(tag_108)\n    tag_109:\n      dup3\n      add\n      swap2\n      swap1\n      0x00\n      mstore\n      keccak256(0x00, 0x20)\n      swap1\n    tag_110:\n      dup2\n      sload\n      dup2\n      mstore\n      swap1\n      0x01\n      add\n      swap1\n      0x20\n      add\n      dup1\n      dup4\n      gt\n      tag_110\n      jumpi\n      dup3\n      swap1\n      sub\n      0x1f\n      and\n      dup3\n      add\n      swap2\n    tag_108:\n      pop\n      pop\n      pop\n      pop\n      pop\n      dup2\n      mstore\n      0x20\n      add\n      0x05\n      dup3\n      add\n      dup1\n      sload\n      tag_111\n      swap1\n      tag_21\n      jump\t// in\n    tag_111:\n      dup1\n      0x1f\n      add\n      0x20\n      dup1\n      swap2\n      div\n      mul\n      0x20\n      add\n      mload(0x40)\n      swap1\n      dup2\n      add\n      0x40\n      mstore\n      dup1\n      swap3\n      swap2\n      swap1\n      dup2\n      dup2\n      mstore\n      0x20\n      add\n      dup3\n      dup1\n      sload\n      tag_112\n      swap1\n      tag_21\n      jump\t// in\n    tag_112:\n      dup1\n      iszero\n      tag_113\n      jumpi\n      dup1\n      0x1f\n      lt\n      tag_114\n      jumpi\n      0x0100\n      dup1\n      dup4\n      sload\n      div\n      mul\n      dup4\n      mstore\n      swap2\n      0x20\n      add\n      swap2\n      jump(tag_113)\n    tag_114:\n      dup3\n      add\n      swap2\n      swap1\n      0x00\n      mstore\n      keccak256(0x00, 0x20)\n      swap1\n    tag_115:\n      dup2\n      sload\n      dup2\n      mstore\n      swap1\n      0x01\n      add\n      swap1\n      0x20\n      add\n      dup1\n      dup4\n      gt\n      tag_115\n      jumpi\n      dup3\n      swap1\n      sub\n      0x1f\n      and\n      dup3\n      add\n      swap2\n    tag_113:\n      pop\n      pop\n      pop\n      pop\n      pop\n      dup2\n      mstore\n      0x20\n      add\n      0x06\n      dup3\n      add\n      dup1\n      sload\n      tag_116\n      swap1\n      tag_21\n      jump\t// in\n    tag_116:\n      dup1\n      0x1f\n      add\n      0x20\n      dup1\n      swap2\n      div\n      mul\n      0x20\n      add\n      mload(0x40)\n      swap1\n      dup2\n      add\n      0x40\n      mstore\n      dup1\n      swap3\n      swap2\n      swap1\n      dup2\n      dup2\n      mstore\n      0x20\n      add\n      dup3\n      dup1\n      sload\n      tag_117\n      swap1\n      tag_21\n      jump\t// in\n    tag_117:\n      dup1\n      iszero\n      tag_118\n      jumpi\n      dup1\n      0x1f\n      lt\n      tag_119\n      jumpi\n      0x0100\n      dup1\n      dup4\n      sload\n      div\n      mul\n      dup4\n      mstore\n      swap2\n      0x20\n      add\n      swap2\n      jump(tag_118)\n    tag_119:\n      dup3\n      add\n      swap2\n      swap1\n      0x00\n      mstore\n      keccak256(0x00, 0x20)\n      swap1\n    tag_120:\n      dup2\n      sload\n      dup2\n      mstore\n      swap1\n      0x01\n      add\n      swap1\n      0x20\n      add\n      dup1\n      dup4\n      gt\n      tag_120\n      jumpi\n      dup3\n      swap1\n      sub\n      0x1f\n      and\n      dup3\n      add\n      swap2\n    tag_118:\n      pop\n      pop\n      pop\n      pop\n      pop\n      dup2\n      mstore\n      pop\n      pop\n      swap1\n      dup1\n      0x1b\n      add\n      mload(0x40)\n      dup1\n      0x80\n      add\n      0x40\n      mstore\n      swap1\n      dup2\n      0x00\n      dup3\n      add\n      dup1\n      sload\n      dup1\n      0x20\n      mul\n      0x20\n      add\n      mload(0x40)\n      swap1\n      dup2\n      add\n      0x40\n      mstore\n      dup1\n      swap3\n      swap2\n      swap1\n      dup2\n      dup2\n      mstore\n      0x20\n      add\n      0x00\n      swap1\n    tag_121:\n      dup3\n      dup3\n      lt\n      iszero\n      tag_122\n      jumpi\n      dup4\n      dup3\n      swap1\n      0x00\n      mstore\n      keccak256(0x00, 0x20)\n      add\n      dup1\n      sload\n      tag_124\n      swap1\n      tag_21\n      jump\t// in\n    tag_124:\n      dup1\n      0x1f\n      add\n      0x20\n      dup1\n      swap2\n      div\n      mul\n      0x20\n      add\n      mload(0x40)\n      swap1\n      dup2\n      add\n      0x40\n      mstore\n      dup1\n      swap3\n      swap2\n      swap1\n      dup2\n      dup2\n      mstore\n      0x20\n      add\n      dup3\n      dup1\n      sload\n      tag_125\n      swap1\n      tag_21\n      jump\t// in\n    tag_125:\n      dup1\n      iszero\n      tag_126\n      jumpi\n      dup1\n      0x1f\n      lt\n      tag_127\n      jumpi\n      0x0100\n      dup1\n      dup4\n      sload\n      div\n      mul\n      dup4\n      mstore\n      swap2\n      0x20\n      add\n      swap2\n      jump(tag_126)\n    tag_127:\n      dup3\n      add\n      swap2\n      swap1\n      0x00\n      mstore\n      keccak256(0x00, 0x20)\n      swap1\n    tag_128:\n      dup2\n      sload\n      dup2\n      mstore\n      swap1\n      0x01\n      add\n      swap1\n      0x20\n      add\n      dup1\n      dup4\n      gt\n      tag_128\n      jumpi\n      dup3\n      swap1\n      sub\n      0x1f\n      and\n      dup3\n      add\n      swap2\n    tag_126:\n      pop\n      pop\n      pop\n      pop\n      pop\n      dup2\n      mstore\n      0x20\n      add\n      swap1\n      0x01\n      add\n      swap1\n      jump(tag_121)\n    tag_122:\n      pop\n      pop\n      pop\n      pop\n      dup2\n      mstore\n      0x20\n      add\n      0x01\n      dup3\n      add\n      dup1\n      sload\n      tag_129\n      swap1\n      tag_21\n      jump\t// in\n    tag_129:\n      dup1\n      0x1f\n      add\n      0x20\n      dup1\n      swap2\n      div\n      mul\n      0x20\n      add\n      mload(0x40)\n      swap1\n      dup2\n      add\n      0x40\n      mstore\n      dup1\n      swap3\n      swap2\n      swap1\n      dup2\n      dup2\n      mstore\n      0x20\n      add\n      dup3\n      dup1\n      sload\n      tag_130\n      swap1\n      tag_21\n      jump\t// in\n    tag_130:\n      dup1\n      iszero\n      tag_131\n      jumpi\n      dup1\n      0x1f\n      lt\n      tag_132\n      jumpi\n      0x0100\n      dup1\n      dup4\n      sload\n      div\n      mul\n      dup4\n      mstore\n      swap2\n      0x20\n      add\n      swap2\n      jump(tag_131)\n    tag_132:\n      dup3\n      add\n      swap2\n      swap1\n      0x00\n      mstore\n      keccak256(0x00, 0x20)\n      swap1\n    tag_133:\n      dup2\n      sload\n      dup2\n      mstore\n      swap1\n      0x01\n      add\n      swap1\n      0x20\n      add\n      dup1\n      dup4\n      gt\n      tag_133\n      jumpi\n      dup3\n      swap1\n      sub\n      0x1f\n      and\n      dup3\n      add\n      swap2\n    tag_131:\n      pop\n      pop\n      pop\n      pop\n      pop\n      dup2\n      mstore\n      0x20\n      add\n      0x02\n      dup3\n      add\n      dup1\n      sload\n      tag_134\n      swap1\n      tag_21\n      jump\t// in\n    tag_134:\n      dup1\n      0x1f\n      add\n      0x20\n      dup1\n      swap2\n      div\n      mul\n      0x20\n      add\n      mload(0x40)\n      swap1\n      dup2\n      add\n      0x40\n      mstore\n      dup1\n      swap3\n      swap2\n      swap1\n      dup2\n      dup2\n      mstore\n      0x20\n      add\n      dup3\n      dup1\n      sload\n      tag_135\n      swap1\n      tag_21\n      jump\t// in\n    tag_135:\n      dup1\n      iszero\n      tag_136\n      jumpi\n      dup1\n      0x1f\n      lt\n      tag_137\n      jumpi\n      0x0100\n      dup1\n      dup4\n      sload\n      div\n      mul\n      dup4\n      mstore\n      swap2\n      0x20\n      add\n      swap2\n      jump(tag_136)\n    tag_137:\n      dup3\n      add\n      swap2\n      swap1\n      0x00\n      mstore\n      keccak256(0x00, 0x20)\n      swap1\n    tag_138:\n      dup2\n      sload\n      dup2\n      mstore\n      swap1\n      0x01\n      add\n      swap1\n      0x20\n      add\n      dup1\n      dup4\n      gt\n      tag_138\n      jumpi\n      dup3\n      swap1\n      sub\n      0x1f\n      and\n      dup3\n      add\n      swap2\n    tag_136:\n      pop\n      pop\n      pop\n      pop\n      pop\n      dup2\n      mstore\n      0x20\n      add\n      0x03\n      dup3\n      add\n      dup1\n      sload\n      tag_139\n      swap1\n      tag_21\n      jump\t// in\n    tag_139:\n      dup1\n      0x1f\n      add\n      0x20\n      dup1\n      swap2\n      div\n      mul\n      0x20\n      add\n      mload(0x40)\n      swap1\n      dup2\n      add\n      0x40\n      mstore\n      dup1\n      swap3\n      swap2\n      swap1\n      dup2\n      dup2\n      mstore\n      0x20\n      add\n      dup3\n      dup1\n      sload\n      tag_140\n      swap1\n      tag_21\n      jump\t// in\n    tag_140:\n      dup1\n      iszero\n      tag_141\n      jumpi\n      dup1\n      0x1f\n      lt\n      tag_142\n      jumpi\n      0x0100\n      dup1\n      dup4\n      sload\n      div\n      mul\n      dup4\n      mstore\n      swap2\n      0x20\n      add\n      swap2\n      jump(tag_141)\n    tag_142:\n      dup3\n      add\n      swap2\n      swap1\n      0x00\n      mstore\n      keccak256(0x00, 0x20)\n      swap1\n    tag_143:\n      dup2\n      sload\n      dup2\n      mstore\n      swap1\n      0x01\n      add\n      swap1\n      0x20\n      add\n      dup1\n      dup4\n      gt\n      tag_143\n      jumpi\n      dup3\n      swap1\n      sub\n      0x1f\n      and\n      dup3\n      add\n      swap2\n    tag_141:\n      pop\n      pop\n      pop\n      pop\n      pop\n      dup2\n      mstore\n      pop\n      pop\n      swap1\n      dup1\n      0x1f\n      add\n      mload(0x40)\n      dup1\n      0xa0\n      add\n      0x40\n      mstore\n      swap1\n      dup2\n      0x00\n      dup3\n      add\n      0x00\n      swap1\n      sload\n      swap1\n      0x0100\n      exp\n      swap1\n      div\n      0xff\n      and\n      iszero\n      iszero\n      iszero\n      iszero\n      dup2\n      mstore\n      0x20\n      add\n      0x01\n      dup3\n      add\n      dup1\n      sload\n      tag_144\n      swap1\n      tag_21\n      jump\t// in\n    tag_144:\n      dup1\n      0x1f\n      add\n      0x20\n      dup1\n      swap2\n      div\n      mul\n      0x20\n      add\n      mload(0x40)\n      swap1\n      dup2\n      add\n      0x40\n      mstore\n      dup1\n      swap3\n      swap2\n      swap1\n      dup2\n      dup2\n      mstore\n      0x20\n      add\n      dup3\n      dup1\n      sload\n      tag_145\n      swap1\n      tag_21\n      jump\t// in\n    tag_145:\n      dup1\n      iszero\n      tag_146\n      jumpi\n      dup1\n      0x1f\n      lt\n      tag_147\n      jumpi\n      0x0100\n      dup1\n      dup4\n      sload\n      div\n      mul\n      dup4\n      mstore\n      swap2\n      0x20\n      add\n      swap2\n      jump(tag_146)\n    tag_147:\n      dup3\n      add\n      swap2\n      swap1\n      0x00\n      mstore\n      keccak256(0x00, 0x20)\n      swap1\n    tag_148:\n      dup2\n      sload\n      dup2\n      mstore\n      swap1\n      0x01\n      add\n      swap1\n      0x20\n      add\n      dup1\n      dup4\n      gt\n      tag_148\n      jumpi\n      dup3\n      swap1\n      sub\n      0x1f\n      and\n      dup3\n      add\n      swap2\n    tag_146:\n      pop\n      pop\n      pop\n      pop\n      pop\n      dup2\n      mstore\n      0x20\n      add\n      0x02\n      dup3\n      add\n      dup1\n      sload\n      tag_149\n      swap1\n      tag_21\n      jump\t// in\n    tag_149:\n      dup1\n      0x1f\n      add\n      0x20\n      dup1\n      swap2\n      div\n      mul\n      0x20\n      add\n      mload(0x40)\n      swap1\n      dup2\n      add\n      0x40\n      mstore\n      dup1\n      swap3\n      swap2\n      swap1\n      dup2\n      dup2\n      mstore\n      0x20\n      add\n      dup3\n      dup1\n      sload\n      tag_150\n      swap1\n      tag_21\n      jump\t// in\n    tag_150:\n      dup1\n      iszero\n      tag_151\n      jumpi\n      dup1\n      0x1f\n      lt\n      tag_152\n      jumpi\n      0x0100\n      dup1\n      dup4\n      sload\n      div\n      mul\n      dup4\n      mstore\n      swap2\n      0x20\n      add\n      swap2\n      jump(tag_151)\n    tag_152:\n      dup3\n      add\n      swap2\n      swap1\n      0x00\n      mstore\n      keccak256(0x00, 0x20)\n      swap1\n    tag_153:\n      dup2\n      sload\n      dup2\n      mstore\n      swap1\n      0x01\n      add\n      swap1\n      0x20\n      add\n      dup1\n      dup4\n      gt\n      tag_153\n      jumpi\n      dup3\n      swap1\n      sub\n      0x1f\n      and\n      dup3\n      add\n      swap2\n    tag_151:\n      pop\n      pop\n      pop\n      pop\n      pop\n      dup2\n      mstore\n      0x20\n      add\n      0x03\n      dup3\n      add\n      dup1\n      sload\n      tag_154\n      swap1\n      tag_21\n      jump\t// in\n    tag_154:\n      dup1\n      0x1f\n      add\n      0x20\n      dup1\n      swap2\n      div\n      mul\n      0x20\n      add\n      mload(0x40)\n      swap1\n      dup2\n      add\n      0x40\n      mstore\n      dup1\n      swap3\n      swap2\n      swap1\n      dup2\n      dup2\n      mstore\n      0x20\n      add\n      dup3\n      dup1\n      sload\n      tag_155\n      swap1\n      tag_21\n      jump\t// in\n    tag_155:\n      dup1\n      iszero\n      tag_156\n      jumpi\n      dup1\n      0x1f\n      lt\n      tag_157\n      jumpi\n      0x0100\n      dup1\n      dup4\n      sload\n      div\n      mul\n      dup4\n      mstore\n      swap2\n      0x20\n      add\n      swap2\n      jump(tag_156)\n    tag_157:\n      dup3\n      add\n      swap2\n      swap1\n      0x00\n      mstore\n      keccak256(0x00, 0x20)\n      swap1\n    tag_158:\n      dup2\n      sload\n      dup2\n      mstore\n      swap1\n      0x01\n      add\n      swap1\n      0x20\n      add\n      dup1\n      dup4\n      gt\n      tag_158\n      jumpi\n      dup3\n      swap1\n      sub\n      0x1f\n      and\n      dup3\n      add\n      swap2\n    tag_156:\n      pop\n      pop\n      pop\n      pop\n      pop\n      dup2\n      mstore\n      0x20\n      add\n      0x04\n      dup3\n      add\n      dup1\n      sload\n      tag_159\n      swap1\n      tag_21\n      jump\t// in\n    tag_159:\n      dup1\n      0x1f\n      add\n      0x20\n      dup1\n      swap2\n      div\n      mul\n      0x20\n      add\n      mload(0x40)\n      swap1\n      dup2\n      add\n      0x40\n      mstore\n      dup1\n      swap3\n      swap2\n      swap1\n      dup2\n      dup2\n      mstore\n      0x20\n      add\n      dup3\n      dup1\n      sload\n      tag_160\n      swap1\n      tag_21\n      jump\t// in\n    tag_160:\n      dup1\n      iszero\n      tag_161\n      jumpi\n      dup1\n      0x1f\n      lt\n      tag_162\n      jumpi\n      0x0100\n      dup1\n      dup4\n      sload\n      div\n      mul\n      dup4\n      mstore\n      swap2\n      0x20\n      add\n      swap2\n      jump(tag_161)\n    tag_162:\n      dup3\n      add\n      swap2\n      swap1\n      0x00\n      mstore\n      keccak256(0x00, 0x20)\n      swap1\n    tag_163:\n      dup2\n      sload\n      dup2\n      mstore\n      swap1\n      0x01\n      add\n      swap1\n      0x20\n      add\n      dup1\n      dup4\n      gt\n      tag_163\n      jumpi\n      dup3\n      swap1\n      sub\n      0x1f\n      and\n      dup3\n      add\n      swap2\n    tag_161:\n      pop\n      pop\n      pop\n      pop\n      pop\n      dup2\n      mstore\n      pop\n      pop\n      swap1\n      pop\n      dup9\n      jump\t// out\n        /* \"contracts/FIR.sol\":1788:1812  uint public firCount = 0 */\n    tag_13:\n      sload(0x00)\n      dup2\n      jump\t// out\n        /* \"contracts/FIR.sol\":1867:2645  function fileFIR(... */\n    tag_19:\n        /* \"contracts/FIR.sol\":2210:2225  FIR storage fir */\n      0x00\n        /* \"contracts/FIR.sol\":2228:2232  firs */\n      0x01\n        /* \"contracts/FIR.sol\":2228:2244  firs[firCount++] */\n      0x00\n        /* \"contracts/FIR.sol\":2233:2241  firCount */\n      0x00\n      0x00\n        /* \"contracts/FIR.sol\":2233:2243  firCount++ */\n      dup2\n      sload\n      dup1\n      swap3\n      swap2\n      swap1\n      tag_165\n      swap1\n      tag_166\n      jump\t// in\n    tag_165:\n      swap2\n      swap1\n      pop\n      sstore\n        /* \"contracts/FIR.sol\":2228:2244  firs[firCount++] */\n      dup2\n      mstore\n      0x20\n      add\n      swap1\n      dup2\n      mstore\n      0x20\n      add\n      0x00\n      keccak256\n        /* \"contracts/FIR.sol\":2210:2244  FIR storage fir = firs[firCount++] */\n      swap1\n      pop\n        /* \"contracts/FIR.sol\":2270:2279  firNumber */\n      dup9\n        /* \"contracts/FIR.sol\":2254:2257  fir */\n      dup2\n        /* \"contracts/FIR.sol\":2254:2267  fir.firNumber */\n      0x01\n      add\n        /* \"contracts/FIR.sol\":2254:2279  fir.firNumber = firNumber */\n      swap1\n      dup2\n      tag_167\n      swap2\n      swap1\n      tag_168\n      jump\t// in\n    tag_167:\n      pop\n        /* \"contracts/FIR.sol\":2303:2310  station */\n      dup8\n        /* \"contracts/FIR.sol\":2289:2292  fir */\n      dup2\n        /* \"contracts/FIR.sol\":2289:2300  fir.station */\n      0x03\n      add\n        /* \"contracts/FIR.sol\":2289:2310  fir.station = station */\n      0x00\n      dup3\n      add\n      mload\n      dup2\n      0x00\n      add\n      swap1\n      dup2\n      tag_169\n      swap2\n      swap1\n      tag_168\n      jump\t// in\n    tag_169:\n      pop\n      0x20\n      dup3\n      add\n      mload\n      dup2\n      0x01\n      add\n      swap1\n      dup2\n      tag_170\n      swap2\n      swap1\n      tag_168\n      jump\t// in\n    tag_170:\n      pop\n      0x40\n      dup3\n      add\n      mload\n      dup2\n      0x02\n      add\n      swap1\n      dup2\n      tag_171\n      swap2\n      swap1\n      tag_168\n      jump\t// in\n    tag_171:\n      pop\n      swap1\n      pop\n      pop\n        /* \"contracts/FIR.sol\":2338:2349  complainant */\n      dup7\n        /* \"contracts/FIR.sol\":2320:2323  fir */\n      dup2\n        /* \"contracts/FIR.sol\":2320:2335  fir.complainant */\n      0x06\n      add\n        /* \"contracts/FIR.sol\":2320:2349  fir.complainant = complainant */\n      0x00\n      dup3\n      add\n      mload\n      dup2\n      0x00\n      add\n      swap1\n      dup2\n      tag_172\n      swap2\n      swap1\n      tag_168\n      jump\t// in\n    tag_172:\n      pop\n      0x20\n      dup3\n      add\n      mload\n      dup2\n      0x01\n      add\n      swap1\n      dup2\n      tag_173\n      swap2\n      swap1\n      tag_168\n      jump\t// in\n    tag_173:\n      pop\n      0x40\n      dup3\n      add\n      mload\n      dup2\n      0x02\n      add\n      sstore\n      0x60\n      dup3\n      add\n      mload\n      dup2\n      0x03\n      add\n      swap1\n      dup2\n      tag_174\n      swap2\n      swap1\n      tag_168\n      jump\t// in\n    tag_174:\n      pop\n      0x80\n      dup3\n      add\n      mload\n      dup2\n      0x04\n      add\n      swap1\n      dup2\n      tag_175\n      swap2\n      swap1\n      tag_168\n      jump\t// in\n    tag_175:\n      pop\n      0xa0\n      dup3\n      add\n      mload\n      dup2\n      0x05\n      add\n      swap1\n      dup2\n      tag_176\n      swap2\n      swap1\n      tag_168\n      jump\t// in\n    tag_176:\n      pop\n      0xc0\n      dup3\n      add\n      mload\n      dup2\n      0x06\n      add\n      swap1\n      dup2\n      tag_177\n      swap2\n      swap1\n      tag_168\n      jump\t// in\n    tag_177:\n      pop\n      0xe0\n      dup3\n      add\n      mload\n      dup2\n      0x07\n      add\n      swap1\n      dup2\n      tag_178\n      swap2\n      swap1\n      tag_168\n      jump\t// in\n    tag_178:\n      pop\n      0x0100\n      dup3\n      add\n      mload\n      dup2\n      0x08\n      add\n      swap1\n      dup2\n      tag_179\n      swap2\n      swap1\n      tag_168\n      jump\t// in\n    tag_179:\n      pop\n      0x0120\n      dup3\n      add\n      mload\n      dup2\n      0x09\n      add\n      swap1\n      dup2\n      tag_180\n      swap2\n      swap1\n      tag_168\n      jump\t// in\n    tag_180:\n      pop\n      0x0140\n      dup3\n      add\n      mload\n      dup2\n      0x0a\n      add\n      0x00\n      dup3\n      add\n      mload\n      dup2\n      0x00\n      add\n      swap1\n      dup2\n      tag_181\n      swap2\n      swap1\n      tag_168\n      jump\t// in\n    tag_181:\n      pop\n      0x20\n      dup3\n      add\n      mload\n      dup2\n      0x01\n      add\n      swap1\n      dup2\n      tag_182\n      swap2\n      swap1\n      tag_168\n      jump\t// in\n    tag_182:\n      pop\n      pop\n      pop\n      swap1\n      pop\n      pop\n        /* \"contracts/FIR.sol\":2374:2382  incident */\n      dup6\n        /* \"contracts/FIR.sol\":2359:2362  fir */\n      dup2\n        /* \"contracts/FIR.sol\":2359:2371  fir.incident */\n      0x12\n      add\n        /* \"contracts/FIR.sol\":2359:2382  fir.incident = incident */\n      0x00\n      dup3\n      add\n      mload\n      dup2\n      0x00\n      add\n      sstore\n      0x20\n      dup3\n      add\n      mload\n      dup2\n      0x01\n      add\n      sstore\n      0x40\n      dup3\n      add\n      mload\n      dup2\n      0x02\n      add\n      swap1\n      dup2\n      tag_183\n      swap2\n      swap1\n      tag_168\n      jump\t// in\n    tag_183:\n      pop\n      0x60\n      dup3\n      add\n      mload\n      dup2\n      0x03\n      add\n      swap1\n      dup2\n      tag_184\n      swap2\n      swap1\n      tag_168\n      jump\t// in\n    tag_184:\n      pop\n      0x80\n      dup3\n      add\n      mload\n      dup2\n      0x04\n      add\n      swap1\n      dup2\n      tag_185\n      swap2\n      swap1\n      tag_168\n      jump\t// in\n    tag_185:\n      pop\n      0xa0\n      dup3\n      add\n      mload\n      dup2\n      0x05\n      add\n      swap1\n      dup2\n      tag_186\n      swap2\n      swap1\n      tag_168\n      jump\t// in\n    tag_186:\n      pop\n      0xc0\n      dup3\n      add\n      mload\n      dup2\n      0x06\n      add\n      swap1\n      dup2\n      tag_187\n      swap2\n      swap1\n      tag_168\n      jump\t// in\n    tag_187:\n      pop\n      swap1\n      pop\n      pop\n        /* \"contracts/FIR.sol\":2396:2402  uint i */\n      0x00\n        /* \"contracts/FIR.sol\":2403:2404  0 */\n      0x00\n        /* \"contracts/FIR.sol\":2396:2404  uint i=0 */\n      swap1\n      pop\n        /* \"contracts/FIR.sol\":2392:2468  for(uint i=0;i<accused.length;i++)... */\n    tag_188:\n        /* \"contracts/FIR.sol\":2407:2414  accused */\n      dup6\n        /* \"contracts/FIR.sol\":2407:2421  accused.length */\n      mload\n        /* \"contracts/FIR.sol\":2405:2406  i */\n      dup2\n        /* \"contracts/FIR.sol\":2405:2421  i<accused.length */\n      lt\n        /* \"contracts/FIR.sol\":2392:2468  for(uint i=0;i<accused.length;i++)... */\n      iszero\n      tag_189\n      jumpi\n        /* \"contracts/FIR.sol\":2440:2443  fir */\n      dup2\n        /* \"contracts/FIR.sol\":2440:2451  fir.accused */\n      0x19\n      add\n        /* \"contracts/FIR.sol\":2457:2464  accused */\n      dup7\n        /* \"contracts/FIR.sol\":2465:2466  i */\n      dup3\n        /* \"contracts/FIR.sol\":2457:2467  accused[i] */\n      dup2\n      mload\n      dup2\n      lt\n      tag_191\n      jumpi\n      tag_192\n      tag_193\n      jump\t// in\n    tag_192:\n    tag_191:\n      0x20\n      mul\n      0x20\n      add\n      add\n      mload\n        /* \"contracts/FIR.sol\":2440:2468  fir.accused.push(accused[i]) */\n      swap1\n      dup1\n      0x01\n      dup2\n      sload\n      add\n      dup1\n      dup3\n      sstore\n      dup1\n      swap2\n      pop\n      pop\n      0x01\n      swap1\n      sub\n      swap1\n      0x00\n      mstore\n      keccak256(0x00, 0x20)\n      swap1\n      0x06\n      mul\n      add\n      0x00\n      swap1\n      swap2\n      swap1\n      swap2\n      swap1\n      swap2\n      pop\n      0x00\n      dup3\n      add\n      mload\n      dup2\n      0x00\n      add\n      swap1\n      dup2\n      tag_195\n      swap2\n      swap1\n      tag_168\n      jump\t// in\n    tag_195:\n      pop\n      0x20\n      dup3\n      add\n      mload\n      dup2\n      0x01\n      add\n      swap1\n      dup2\n      tag_196\n      swap2\n      swap1\n      tag_168\n      jump\t// in\n    tag_196:\n      pop\n      0x40\n      dup3\n      add\n      mload\n      dup2\n      0x02\n      add\n      swap1\n      dup2\n      tag_197\n      swap2\n      swap1\n      tag_168\n      jump\t// in\n    tag_197:\n      pop\n      0x60\n      dup3\n      add\n      mload\n      dup2\n      0x03\n      add\n      sstore\n      0x80\n      dup3\n      add\n      mload\n      dup2\n      0x04\n      add\n      swap1\n      dup2\n      tag_198\n      swap2\n      swap1\n      tag_168\n      jump\t// in\n    tag_198:\n      pop\n      0xa0\n      dup3\n      add\n      mload\n      dup2\n      0x05\n      add\n      swap1\n      dup2\n      tag_199\n      swap2\n      swap1\n      tag_168\n      jump\t// in\n    tag_199:\n      pop\n      pop\n      pop\n        /* \"contracts/FIR.sol\":2422:2425  i++ */\n      dup1\n      dup1\n      0x01\n      add\n      swap2\n      pop\n      pop\n        /* \"contracts/FIR.sol\":2392:2468  for(uint i=0;i<accused.length;i++)... */\n      jump(tag_188)\n    tag_189:\n      pop\n        /* \"contracts/FIR.sol\":2483:2489  uint i */\n      0x00\n        /* \"contracts/FIR.sol\":2490:2491  0 */\n      0x00\n        /* \"contracts/FIR.sol\":2483:2491  uint i=0 */\n      swap1\n      pop\n        /* \"contracts/FIR.sol\":2479:2561  for(uint i=0;i<witnesses.length;i++)... */\n    tag_200:\n        /* \"contracts/FIR.sol\":2494:2503  witnesses */\n      dup5\n        /* \"contracts/FIR.sol\":2494:2510  witnesses.length */\n      mload\n        /* \"contracts/FIR.sol\":2492:2493  i */\n      dup2\n        /* \"contracts/FIR.sol\":2492:2510  i<witnesses.length */\n      lt\n        /* \"contracts/FIR.sol\":2479:2561  for(uint i=0;i<witnesses.length;i++)... */\n      iszero\n      tag_201\n      jumpi\n        /* \"contracts/FIR.sol\":2529:2532  fir */\n      dup2\n        /* \"contracts/FIR.sol\":2529:2542  fir.witnesses */\n      0x1a\n      add\n        /* \"contracts/FIR.sol\":2548:2557  witnesses */\n      dup6\n        /* \"contracts/FIR.sol\":2558:2559  i */\n      dup3\n        /* \"contracts/FIR.sol\":2548:2560  witnesses[i] */\n      dup2\n      mload\n      dup2\n      lt\n      tag_203\n      jumpi\n      tag_204\n      tag_193\n      jump\t// in\n    tag_204:\n    tag_203:\n      0x20\n      mul\n      0x20\n      add\n      add\n      mload\n        /* \"contracts/FIR.sol\":2529:2561  fir.witnesses.push(witnesses[i]) */\n      swap1\n      dup1\n      0x01\n      dup2\n      sload\n      add\n      dup1\n      dup3\n      sstore\n      dup1\n      swap2\n      pop\n      pop\n      0x01\n      swap1\n      sub\n      swap1\n      0x00\n      mstore\n      keccak256(0x00, 0x20)\n      swap1\n      0x03\n      mul\n      add\n      0x00\n      swap1\n      swap2\n      swap1\n      swap2\n      swap1\n      swap2\n      pop\n      0x00\n      dup3\n      add\n      mload\n      dup2\n      0x00\n      add\n      swap1\n      dup2\n      tag_206\n      swap2\n      swap1\n      tag_168\n      jump\t// in\n    tag_206:\n      pop\n      0x20\n      dup3\n      add\n      mload\n      dup2\n      0x01\n      add\n      swap1\n      dup2\n      tag_207\n      swap2\n      swap1\n      tag_168\n      jump\t// in\n    tag_207:\n      pop\n      0x40\n      dup3\n      add\n      mload\n      dup2\n      0x02\n      add\n      swap1\n      dup2\n      tag_208\n      swap2\n      swap1\n      tag_168\n      jump\t// in\n    tag_208:\n      pop\n      pop\n      pop\n        /* \"contracts/FIR.sol\":2511:2514  i++ */\n      dup1\n      dup1\n      0x01\n      add\n      swap2\n      pop\n      pop\n        /* \"contracts/FIR.sol\":2479:2561  for(uint i=0;i<witnesses.length;i++)... */\n      jump(tag_200)\n    tag_201:\n      pop\n        /* \"contracts/FIR.sol\":2586:2594  evidence */\n      dup3\n        /* \"contracts/FIR.sol\":2571:2574  fir */\n      dup2\n        /* \"contracts/FIR.sol\":2571:2583  fir.evidence */\n      0x1b\n      add\n        /* \"contracts/FIR.sol\":2571:2594  fir.evidence = evidence */\n      0x00\n      dup3\n      add\n      mload\n      dup2\n      0x00\n      add\n      swap1\n      dup1\n      mload\n      swap1\n      0x20\n      add\n      swap1\n      tag_209\n      swap3\n      swap2\n      swap1\n      tag_210\n      jump\t// in\n    tag_209:\n      pop\n      0x20\n      dup3\n      add\n      mload\n      dup2\n      0x01\n      add\n      swap1\n      dup2\n      tag_211\n      swap2\n      swap1\n      tag_168\n      jump\t// in\n    tag_211:\n      pop\n      0x40\n      dup3\n      add\n      mload\n      dup2\n      0x02\n      add\n      swap1\n      dup2\n      tag_212\n      swap2\n      swap1\n      tag_168\n      jump\t// in\n    tag_212:\n      pop\n      0x60\n      dup3\n      add\n      mload\n      dup2\n      0x03\n      add\n      swap1\n      dup2\n      tag_213\n      swap2\n      swap1\n      tag_168\n      jump\t// in\n    tag_213:\n      pop\n      swap1\n      pop\n      pop\n        /* \"contracts/FIR.sol\":2624:2637  investigation */\n      dup2\n        /* \"contracts/FIR.sol\":2604:2607  fir */\n      dup2\n        /* \"contracts/FIR.sol\":2604:2621  fir.investigation */\n      0x1f\n      add\n        /* \"contracts/FIR.sol\":2604:2637  fir.investigation = investigation */\n      0x00\n      dup3\n      add\n      mload\n      dup2\n      0x00\n      add\n      exp(0x0100, 0x00)\n      dup2\n      sload\n      dup2\n      0xff\n      mul\n      not\n      and\n      swap1\n      dup4\n      iszero\n      iszero\n      mul\n      or\n      swap1\n      sstore\n      pop\n      0x20\n      dup3\n      add\n      mload\n      dup2\n      0x01\n      add\n      swap1\n      dup2\n      tag_214\n      swap2\n      swap1\n      tag_168\n      jump\t// in\n    tag_214:\n      pop\n      0x40\n      dup3\n      add\n      mload\n      dup2\n      0x02\n      add\n      swap1\n      dup2\n      tag_215\n      swap2\n      swap1\n      tag_168\n      jump\t// in\n    tag_215:\n      pop\n      0x60\n      dup3\n      add\n      mload\n      dup2\n      0x03\n      add\n      swap1\n      dup2\n      tag_216\n      swap2\n      swap1\n      tag_168\n      jump\t// in\n    tag_216:\n      pop\n      0x80\n      dup3\n      add\n      mload\n      dup2\n      0x04\n      add\n      swap1\n      dup2\n      tag_217\n      swap2\n      swap1\n      tag_168\n      jump\t// in\n    tag_217:\n      pop\n      swap1\n      pop\n      pop\n        /* \"contracts/FIR.sol\":2200:2645  {... */\n      pop\n        /* \"contracts/FIR.sol\":1867:2645  function fileFIR(... */\n      pop\n      pop\n      pop\n      pop\n      pop\n      pop\n      pop\n      pop\n      jump\t// out\n    tag_210:\n      dup3\n      dup1\n      sload\n      dup3\n      dup3\n      sstore\n      swap1\n      0x00\n      mstore\n      keccak256(0x00, 0x20)\n      swap1\n      dup2\n      add\n      swap3\n      dup3\n      iszero\n      tag_218\n      jumpi\n      swap2\n      0x20\n      mul\n      dup3\n      add\n    tag_219:\n      dup3\n      dup2\n      gt\n      iszero\n      tag_220\n      jumpi\n      dup3\n      mload\n      dup3\n      swap1\n      dup2\n      tag_221\n      swap2\n      swap1\n      tag_168\n      jump\t// in\n    tag_221:\n      pop\n      swap2\n      0x20\n      add\n      swap2\n      swap1\n      0x01\n      add\n      swap1\n      jump(tag_219)\n    tag_220:\n    tag_218:\n      pop\n      swap1\n      pop\n      tag_222\n      swap2\n      swap1\n      tag_223\n      jump\t// in\n    tag_222:\n      pop\n      swap1\n      jump\t// out\n    tag_223:\n    tag_224:\n      dup1\n      dup3\n      gt\n      iszero\n      tag_225\n      jumpi\n      0x00\n      dup2\n      dup2\n      tag_226\n      swap2\n      swap1\n      tag_227\n      jump\t// in\n    tag_226:\n      pop\n      0x01\n      add\n      jump(tag_224)\n    tag_225:\n      pop\n      swap1\n      jump\t// out\n    tag_227:\n      pop\n      dup1\n      sload\n      tag_228\n      swap1\n      tag_21\n      jump\t// in\n    tag_228:\n      0x00\n      dup3\n      sstore\n      dup1\n      0x1f\n      lt\n      tag_230\n      jumpi\n      pop\n      jump(tag_229)\n    tag_230:\n      0x1f\n      add\n      0x20\n      swap1\n      div\n      swap1\n      0x00\n      mstore\n      keccak256(0x00, 0x20)\n      swap1\n      dup2\n      add\n      swap1\n      tag_231\n      swap2\n      swap1\n      tag_232\n      jump\t// in\n    tag_231:\n    tag_229:\n      pop\n      jump\t// out\n    tag_232:\n    tag_233:\n      dup1\n      dup3\n      gt\n      iszero\n      tag_234\n      jumpi\n      0x00\n      dup2\n      0x00\n      swap1\n      sstore\n      pop\n      0x01\n      add\n      jump(tag_233)\n    tag_234:\n      pop\n      swap1\n      jump\t// out\n        /* \"#utility.yul\":7:82   */\n    tag_235:\n        /* \"#utility.yul\":40:46   */\n      0x00\n        /* \"#utility.yul\":73:75   */\n      0x40\n        /* \"#utility.yul\":67:76   */\n      mload\n        /* \"#utility.yul\":57:76   */\n      swap1\n      pop\n        /* \"#utility.yul\":7:82   */\n      swap1\n      jump\t// out\n        /* \"#utility.yul\":88:205   */\n    tag_236:\n        /* \"#utility.yul\":197:198   */\n      0x00\n        /* \"#utility.yul\":194:195   */\n      0x00\n        /* \"#utility.yul\":187:199   */\n      revert\n        /* \"#utility.yul\":211:328   */\n    tag_237:\n        /* \"#utility.yul\":320:321   */\n      0x00\n        /* \"#utility.yul\":317:318   */\n      0x00\n        /* \"#utility.yul\":310:322   */\n      revert\n        /* \"#utility.yul\":334:411   */\n    tag_238:\n        /* \"#utility.yul\":371:378   */\n      0x00\n        /* \"#utility.yul\":400:405   */\n      dup2\n        /* \"#utility.yul\":389:405   */\n      swap1\n      pop\n        /* \"#utility.yul\":334:411   */\n      swap2\n      swap1\n      pop\n      jump\t// out\n        /* \"#utility.yul\":417:539   */\n    tag_239:\n        /* \"#utility.yul\":490:514   */\n      tag_318\n        /* \"#utility.yul\":508:513   */\n      dup2\n        /* \"#utility.yul\":490:514   */\n      tag_238\n      jump\t// in\n    tag_318:\n        /* \"#utility.yul\":483:488   */\n      dup2\n        /* \"#utility.yul\":480:515   */\n      eq\n        /* \"#utility.yul\":470:533   */\n      tag_319\n      jumpi\n        /* \"#utility.yul\":529:530   */\n      0x00\n        /* \"#utility.yul\":526:527   */\n      0x00\n        /* \"#utility.yul\":519:531   */\n      revert\n        /* \"#utility.yul\":470:533   */\n    tag_319:\n        /* \"#utility.yul\":417:539   */\n      pop\n      jump\t// out\n        /* \"#utility.yul\":545:684   */\n    tag_240:\n        /* \"#utility.yul\":591:596   */\n      0x00\n        /* \"#utility.yul\":629:635   */\n      dup2\n        /* \"#utility.yul\":616:636   */\n      calldataload\n        /* \"#utility.yul\":607:636   */\n      swap1\n      pop\n        /* \"#utility.yul\":645:678   */\n      tag_321\n        /* \"#utility.yul\":672:677   */\n      dup2\n        /* \"#utility.yul\":645:678   */\n      tag_239\n      jump\t// in\n    tag_321:\n        /* \"#utility.yul\":545:684   */\n      swap3\n      swap2\n      pop\n      pop\n      jump\t// out\n        /* \"#utility.yul\":690:1019   */\n    tag_8:\n        /* \"#utility.yul\":749:755   */\n      0x00\n        /* \"#utility.yul\":798:800   */\n      0x20\n        /* \"#utility.yul\":786:795   */\n      dup3\n        /* \"#utility.yul\":777:784   */\n      dup5\n        /* \"#utility.yul\":773:796   */\n      sub\n        /* \"#utility.yul\":769:801   */\n      slt\n        /* \"#utility.yul\":766:885   */\n      iszero\n      tag_323\n      jumpi\n        /* \"#utility.yul\":804:883   */\n      tag_324\n      tag_236\n      jump\t// in\n    tag_324:\n        /* \"#utility.yul\":766:885   */\n    tag_323:\n        /* \"#utility.yul\":924:925   */\n      0x00\n        /* \"#utility.yul\":949:1002   */\n      tag_325\n        /* \"#utility.yul\":994:1001   */\n      dup5\n        /* \"#utility.yul\":985:991   */\n      dup3\n        /* \"#utility.yul\":974:983   */\n      dup6\n        /* \"#utility.yul\":970:992   */\n      add\n        /* \"#utility.yul\":949:1002   */\n      tag_240\n      jump\t// in\n    tag_325:\n        /* \"#utility.yul\":939:1002   */\n      swap2\n      pop\n        /* \"#utility.yul\":895:1012   */\n      pop\n        /* \"#utility.yul\":690:1019   */\n      swap3\n      swap2\n      pop\n      pop\n      jump\t// out\n        /* \"#utility.yul\":1025:1143   */\n    tag_241:\n        /* \"#utility.yul\":1112:1136   */\n      tag_327\n        /* \"#utility.yul\":1130:1135   */\n      dup2\n        /* \"#utility.yul\":1112:1136   */\n      tag_238\n      jump\t// in\n    tag_327:\n        /* \"#utility.yul\":1107:1110   */\n      dup3\n        /* \"#utility.yul\":1100:1137   */\n      mstore\n        /* \"#utility.yul\":1025:1143   */\n      pop\n      pop\n      jump\t// out\n        /* \"#utility.yul\":1149:1248   */\n    tag_242:\n        /* \"#utility.yul\":1201:1207   */\n      0x00\n        /* \"#utility.yul\":1235:1240   */\n      dup2\n        /* \"#utility.yul\":1229:1241   */\n      mload\n        /* \"#utility.yul\":1219:1241   */\n      swap1\n      pop\n        /* \"#utility.yul\":1149:1248   */\n      swap2\n      swap1\n      pop\n      jump\t// out\n        /* \"#utility.yul\":1254:1423   */\n    tag_243:\n        /* \"#utility.yul\":1338:1349   */\n      0x00\n        /* \"#utility.yul\":1372:1378   */\n      dup3\n        /* \"#utility.yul\":1367:1370   */\n      dup3\n        /* \"#utility.yul\":1360:1379   */\n      mstore\n        /* \"#utility.yul\":1412:1416   */\n      0x20\n        /* \"#utility.yul\":1407:1410   */\n      dup3\n        /* \"#utility.yul\":1403:1417   */\n      add\n        /* \"#utility.yul\":1388:1417   */\n      swap1\n      pop\n        /* \"#utility.yul\":1254:1423   */\n      swap3\n      swap2\n      pop\n      pop\n      jump\t// out\n        /* \"#utility.yul\":1429:1568   */\n    tag_244:\n        /* \"#utility.yul\":1518:1524   */\n      dup3\n        /* \"#utility.yul\":1513:1516   */\n      dup2\n        /* \"#utility.yul\":1508:1511   */\n      dup4\n        /* \"#utility.yul\":1502:1525   */\n      mcopy\n        /* \"#utility.yul\":1559:1560   */\n      0x00\n        /* \"#utility.yul\":1550:1556   */\n      dup4\n        /* \"#utility.yul\":1545:1548   */\n      dup4\n        /* \"#utility.yul\":1541:1557   */\n      add\n        /* \"#utility.yul\":1534:1561   */\n      mstore\n        /* \"#utility.yul\":1429:1568   */\n      pop\n      pop\n      pop\n      jump\t// out\n        /* \"#utility.yul\":1574:1676   */\n    tag_245:\n        /* \"#utility.yul\":1615:1621   */\n      0x00\n        /* \"#utility.yul\":1666:1668   */\n      0x1f\n        /* \"#utility.yul\":1662:1669   */\n      not\n        /* \"#utility.yul\":1657:1659   */\n      0x1f\n        /* \"#utility.yul\":1650:1655   */\n      dup4\n        /* \"#utility.yul\":1646:1660   */\n      add\n        /* \"#utility.yul\":1642:1670   */\n      and\n        /* \"#utility.yul\":1632:1670   */\n      swap1\n      pop\n        /* \"#utility.yul\":1574:1676   */\n      swap2\n      swap1\n      pop\n      jump\t// out\n        /* \"#utility.yul\":1682:2059   */\n    tag_246:\n        /* \"#utility.yul\":1770:1773   */\n      0x00\n        /* \"#utility.yul\":1798:1837   */\n      tag_333\n        /* \"#utility.yul\":1831:1836   */\n      dup3\n        /* \"#utility.yul\":1798:1837   */\n      tag_242\n      jump\t// in\n    tag_333:\n        /* \"#utility.yul\":1853:1924   */\n      tag_334\n        /* \"#utility.yul\":1917:1923   */\n      dup2\n        /* \"#utility.yul\":1912:1915   */\n      dup6\n        /* \"#utility.yul\":1853:1924   */\n      tag_243\n      jump\t// in\n    tag_334:\n        /* \"#utility.yul\":1846:1924   */\n      swap4\n      pop\n        /* \"#utility.yul\":1933:1998   */\n      tag_335\n        /* \"#utility.yul\":1991:1997   */\n      dup2\n        /* \"#utility.yul\":1986:1989   */\n      dup6\n        /* \"#utility.yul\":1979:1983   */\n      0x20\n        /* \"#utility.yul\":1972:1977   */\n      dup7\n        /* \"#utility.yul\":1968:1984   */\n      add\n        /* \"#utility.yul\":1933:1998   */\n      tag_244\n      jump\t// in\n    tag_335:\n        /* \"#utility.yul\":2023:2052   */\n      tag_336\n        /* \"#utility.yul\":2045:2051   */\n      dup2\n        /* \"#utility.yul\":2023:2052   */\n      tag_245\n      jump\t// in\n    tag_336:\n        /* \"#utility.yul\":2018:2021   */\n      dup5\n        /* \"#utility.yul\":2014:2053   */\n      add\n        /* \"#utility.yul\":2007:2053   */\n      swap2\n      pop\n        /* \"#utility.yul\":1774:2059   */\n      pop\n        /* \"#utility.yul\":1682:2059   */\n      swap3\n      swap2\n      pop\n      pop\n      jump\t// out\n        /* \"#utility.yul\":2065:2224   */\n    tag_247:\n        /* \"#utility.yul\":2139:2150   */\n      0x00\n        /* \"#utility.yul\":2173:2179   */\n      dup3\n        /* \"#utility.yul\":2168:2171   */\n      dup3\n        /* \"#utility.yul\":2161:2180   */\n      mstore\n        /* \"#utility.yul\":2213:2217   */\n      0x20\n        /* \"#utility.yul\":2208:2211   */\n      dup3\n        /* \"#utility.yul\":2204:2218   */\n      add\n        /* \"#utility.yul\":2189:2218   */\n      swap1\n      pop\n        /* \"#utility.yul\":2065:2224   */\n      swap3\n      swap2\n      pop\n      pop\n      jump\t// out\n        /* \"#utility.yul\":2230:2587   */\n    tag_248:\n        /* \"#utility.yul\":2308:2311   */\n      0x00\n        /* \"#utility.yul\":2336:2375   */\n      tag_339\n        /* \"#utility.yul\":2369:2374   */\n      dup3\n        /* \"#utility.yul\":2336:2375   */\n      tag_242\n      jump\t// in\n    tag_339:\n        /* \"#utility.yul\":2391:2452   */\n      tag_340\n        /* \"#utility.yul\":2445:2451   */\n      dup2\n        /* \"#utility.yul\":2440:2443   */\n      dup6\n        /* \"#utility.yul\":2391:2452   */\n      tag_247\n      jump\t// in\n    tag_340:\n        /* \"#utility.yul\":2384:2452   */\n      swap4\n      pop\n        /* \"#utility.yul\":2461:2526   */\n      tag_341\n        /* \"#utility.yul\":2519:2525   */\n      dup2\n        /* \"#utility.yul\":2514:2517   */\n      dup6\n        /* \"#utility.yul\":2507:2511   */\n      0x20\n        /* \"#utility.yul\":2500:2505   */\n      dup7\n        /* \"#utility.yul\":2496:2512   */\n      add\n        /* \"#utility.yul\":2461:2526   */\n      tag_244\n      jump\t// in\n    tag_341:\n        /* \"#utility.yul\":2551:2580   */\n      tag_342\n        /* \"#utility.yul\":2573:2579   */\n      dup2\n        /* \"#utility.yul\":2551:2580   */\n      tag_245\n      jump\t// in\n    tag_342:\n        /* \"#utility.yul\":2546:2549   */\n      dup5\n        /* \"#utility.yul\":2542:2581   */\n      add\n        /* \"#utility.yul\":2535:2581   */\n      swap2\n      pop\n        /* \"#utility.yul\":2312:2587   */\n      pop\n        /* \"#utility.yul\":2230:2587   */\n      swap3\n      swap2\n      pop\n      pop\n      jump\t// out\n        /* \"#utility.yul\":2653:3588   */\n    tag_249:\n        /* \"#utility.yul\":2780:2783   */\n      0x00\n        /* \"#utility.yul\":2816:2820   */\n      0x60\n        /* \"#utility.yul\":2811:2814   */\n      dup4\n        /* \"#utility.yul\":2807:2821   */\n      add\n        /* \"#utility.yul\":2903:2907   */\n      0x00\n        /* \"#utility.yul\":2896:2901   */\n      dup4\n        /* \"#utility.yul\":2892:2908   */\n      add\n        /* \"#utility.yul\":2886:2909   */\n      mload\n        /* \"#utility.yul\":2956:2959   */\n      dup5\n        /* \"#utility.yul\":2950:2954   */\n      dup3\n        /* \"#utility.yul\":2946:2960   */\n      sub\n        /* \"#utility.yul\":2939:2943   */\n      0x00\n        /* \"#utility.yul\":2934:2937   */\n      dup7\n        /* \"#utility.yul\":2930:2944   */\n      add\n        /* \"#utility.yul\":2923:2961   */\n      mstore\n        /* \"#utility.yul\":2982:3055   */\n      tag_344\n        /* \"#utility.yul\":3050:3054   */\n      dup3\n        /* \"#utility.yul\":3036:3048   */\n      dup3\n        /* \"#utility.yul\":2982:3055   */\n      tag_248\n      jump\t// in\n    tag_344:\n        /* \"#utility.yul\":2974:3055   */\n      swap2\n      pop\n        /* \"#utility.yul\":2831:3066   */\n      pop\n        /* \"#utility.yul\":3152:3156   */\n      0x20\n        /* \"#utility.yul\":3145:3150   */\n      dup4\n        /* \"#utility.yul\":3141:3157   */\n      add\n        /* \"#utility.yul\":3135:3158   */\n      mload\n        /* \"#utility.yul\":3205:3208   */\n      dup5\n        /* \"#utility.yul\":3199:3203   */\n      dup3\n        /* \"#utility.yul\":3195:3209   */\n      sub\n        /* \"#utility.yul\":3188:3192   */\n      0x20\n        /* \"#utility.yul\":3183:3186   */\n      dup7\n        /* \"#utility.yul\":3179:3193   */\n      add\n        /* \"#utility.yul\":3172:3210   */\n      mstore\n        /* \"#utility.yul\":3231:3304   */\n      tag_345\n        /* \"#utility.yul\":3299:3303   */\n      dup3\n        /* \"#utility.yul\":3285:3297   */\n      dup3\n        /* \"#utility.yul\":3231:3304   */\n      tag_248\n      jump\t// in\n    tag_345:\n        /* \"#utility.yul\":3223:3304   */\n      swap2\n      pop\n        /* \"#utility.yul\":3076:3315   */\n      pop\n        /* \"#utility.yul\":3398:3402   */\n      0x40\n        /* \"#utility.yul\":3391:3396   */\n      dup4\n        /* \"#utility.yul\":3387:3403   */\n      add\n        /* \"#utility.yul\":3381:3404   */\n      mload\n        /* \"#utility.yul\":3451:3454   */\n      dup5\n        /* \"#utility.yul\":3445:3449   */\n      dup3\n        /* \"#utility.yul\":3441:3455   */\n      sub\n        /* \"#utility.yul\":3434:3438   */\n      0x40\n        /* \"#utility.yul\":3429:3432   */\n      dup7\n        /* \"#utility.yul\":3425:3439   */\n      add\n        /* \"#utility.yul\":3418:3456   */\n      mstore\n        /* \"#utility.yul\":3477:3550   */\n      tag_346\n        /* \"#utility.yul\":3545:3549   */\n      dup3\n        /* \"#utility.yul\":3531:3543   */\n      dup3\n        /* \"#utility.yul\":3477:3550   */\n      tag_248\n      jump\t// in\n    tag_346:\n        /* \"#utility.yul\":3469:3550   */\n      swap2\n      pop\n        /* \"#utility.yul\":3325:3561   */\n      pop\n        /* \"#utility.yul\":3578:3582   */\n      dup1\n        /* \"#utility.yul\":3571:3582   */\n      swap2\n      pop\n        /* \"#utility.yul\":2785:3588   */\n      pop\n        /* \"#utility.yul\":2653:3588   */\n      swap3\n      swap2\n      pop\n      pop\n      jump\t// out\n        /* \"#utility.yul\":3594:3702   */\n    tag_250:\n        /* \"#utility.yul\":3671:3695   */\n      tag_348\n        /* \"#utility.yul\":3689:3694   */\n      dup2\n        /* \"#utility.yul\":3671:3695   */\n      tag_238\n      jump\t// in\n    tag_348:\n        /* \"#utility.yul\":3666:3669   */\n      dup3\n        /* \"#utility.yul\":3659:3696   */\n      mstore\n        /* \"#utility.yul\":3594:3702   */\n      pop\n      pop\n      jump\t// out\n        /* \"#utility.yul\":3756:4423   */\n    tag_251:\n        /* \"#utility.yul\":3859:3862   */\n      0x00\n        /* \"#utility.yul\":3895:3899   */\n      0x40\n        /* \"#utility.yul\":3890:3893   */\n      dup4\n        /* \"#utility.yul\":3886:3900   */\n      add\n        /* \"#utility.yul\":3984:3988   */\n      0x00\n        /* \"#utility.yul\":3977:3982   */\n      dup4\n        /* \"#utility.yul\":3973:3989   */\n      add\n        /* \"#utility.yul\":3967:3990   */\n      mload\n        /* \"#utility.yul\":4037:4040   */\n      dup5\n        /* \"#utility.yul\":4031:4035   */\n      dup3\n        /* \"#utility.yul\":4027:4041   */\n      sub\n        /* \"#utility.yul\":4020:4024   */\n      0x00\n        /* \"#utility.yul\":4015:4018   */\n      dup7\n        /* \"#utility.yul\":4011:4025   */\n      add\n        /* \"#utility.yul\":4004:4042   */\n      mstore\n        /* \"#utility.yul\":4063:4136   */\n      tag_350\n        /* \"#utility.yul\":4131:4135   */\n      dup3\n        /* \"#utility.yul\":4117:4129   */\n      dup3\n        /* \"#utility.yul\":4063:4136   */\n      tag_248\n      jump\t// in\n    tag_350:\n        /* \"#utility.yul\":4055:4136   */\n      swap2\n      pop\n        /* \"#utility.yul\":3910:4147   */\n      pop\n        /* \"#utility.yul\":4233:4237   */\n      0x20\n        /* \"#utility.yul\":4226:4231   */\n      dup4\n        /* \"#utility.yul\":4222:4238   */\n      add\n        /* \"#utility.yul\":4216:4239   */\n      mload\n        /* \"#utility.yul\":4286:4289   */\n      dup5\n        /* \"#utility.yul\":4280:4284   */\n      dup3\n        /* \"#utility.yul\":4276:4290   */\n      sub\n        /* \"#utility.yul\":4269:4273   */\n      0x20\n        /* \"#utility.yul\":4264:4267   */\n      dup7\n        /* \"#utility.yul\":4260:4274   */\n      add\n        /* \"#utility.yul\":4253:4291   */\n      mstore\n        /* \"#utility.yul\":4312:4385   */\n      tag_351\n        /* \"#utility.yul\":4380:4384   */\n      dup3\n        /* \"#utility.yul\":4366:4378   */\n      dup3\n        /* \"#utility.yul\":4312:4385   */\n      tag_248\n      jump\t// in\n    tag_351:\n        /* \"#utility.yul\":4304:4385   */\n      swap2\n      pop\n        /* \"#utility.yul\":4157:4396   */\n      pop\n        /* \"#utility.yul\":4413:4417   */\n      dup1\n        /* \"#utility.yul\":4406:4417   */\n      swap2\n      pop\n        /* \"#utility.yul\":3864:4423   */\n      pop\n        /* \"#utility.yul\":3756:4423   */\n      swap3\n      swap2\n      pop\n      pop\n      jump\t// out\n        /* \"#utility.yul\":4485:7372   */\n    tag_252:\n        /* \"#utility.yul\":4608:4611   */\n      0x00\n        /* \"#utility.yul\":4644:4650   */\n      0x0160\n        /* \"#utility.yul\":4639:4642   */\n      dup4\n        /* \"#utility.yul\":4635:4651   */\n      add\n        /* \"#utility.yul\":4737:4741   */\n      0x00\n        /* \"#utility.yul\":4730:4735   */\n      dup4\n        /* \"#utility.yul\":4726:4742   */\n      add\n        /* \"#utility.yul\":4720:4743   */\n      mload\n        /* \"#utility.yul\":4790:4793   */\n      dup5\n        /* \"#utility.yul\":4784:4788   */\n      dup3\n        /* \"#utility.yul\":4780:4794   */\n      sub\n        /* \"#utility.yul\":4773:4777   */\n      0x00\n        /* \"#utility.yul\":4768:4771   */\n      dup7\n        /* \"#utility.yul\":4764:4778   */\n      add\n        /* \"#utility.yul\":4757:4795   */\n      mstore\n        /* \"#utility.yul\":4816:4889   */\n      tag_353\n        /* \"#utility.yul\":4884:4888   */\n      dup3\n        /* \"#utility.yul\":4870:4882   */\n      dup3\n        /* \"#utility.yul\":4816:4889   */\n      tag_248\n      jump\t// in\n    tag_353:\n        /* \"#utility.yul\":4808:4889   */\n      swap2\n      pop\n        /* \"#utility.yul\":4661:4900   */\n      pop\n        /* \"#utility.yul\":4988:4992   */\n      0x20\n        /* \"#utility.yul\":4981:4986   */\n      dup4\n        /* \"#utility.yul\":4977:4993   */\n      add\n        /* \"#utility.yul\":4971:4994   */\n      mload\n        /* \"#utility.yul\":5041:5044   */\n      dup5\n        /* \"#utility.yul\":5035:5039   */\n      dup3\n        /* \"#utility.yul\":5031:5045   */\n      sub\n        /* \"#utility.yul\":5024:5028   */\n      0x20\n        /* \"#utility.yul\":5019:5022   */\n      dup7\n        /* \"#utility.yul\":5015:5029   */\n      add\n        /* \"#utility.yul\":5008:5046   */\n      mstore\n        /* \"#utility.yul\":5067:5140   */\n      tag_354\n        /* \"#utility.yul\":5135:5139   */\n      dup3\n        /* \"#utility.yul\":5121:5133   */\n      dup3\n        /* \"#utility.yul\":5067:5140   */\n      tag_248\n      jump\t// in\n    tag_354:\n        /* \"#utility.yul\":5059:5140   */\n      swap2\n      pop\n        /* \"#utility.yul\":4910:5151   */\n      pop\n        /* \"#utility.yul\":5232:5236   */\n      0x40\n        /* \"#utility.yul\":5225:5230   */\n      dup4\n        /* \"#utility.yul\":5221:5237   */\n      add\n        /* \"#utility.yul\":5215:5238   */\n      mload\n        /* \"#utility.yul\":5251:5314   */\n      tag_355\n        /* \"#utility.yul\":5308:5312   */\n      0x40\n        /* \"#utility.yul\":5303:5306   */\n      dup7\n        /* \"#utility.yul\":5299:5313   */\n      add\n        /* \"#utility.yul\":5285:5297   */\n      dup3\n        /* \"#utility.yul\":5251:5314   */\n      tag_250\n      jump\t// in\n    tag_355:\n        /* \"#utility.yul\":5161:5324   */\n      pop\n        /* \"#utility.yul\":5408:5412   */\n      0x60\n        /* \"#utility.yul\":5401:5406   */\n      dup4\n        /* \"#utility.yul\":5397:5413   */\n      add\n        /* \"#utility.yul\":5391:5414   */\n      mload\n        /* \"#utility.yul\":5461:5464   */\n      dup5\n        /* \"#utility.yul\":5455:5459   */\n      dup3\n        /* \"#utility.yul\":5451:5465   */\n      sub\n        /* \"#utility.yul\":5444:5448   */\n      0x60\n        /* \"#utility.yul\":5439:5442   */\n      dup7\n        /* \"#utility.yul\":5435:5449   */\n      add\n        /* \"#utility.yul\":5428:5466   */\n      mstore\n        /* \"#utility.yul\":5487:5560   */\n      tag_356\n        /* \"#utility.yul\":5555:5559   */\n      dup3\n        /* \"#utility.yul\":5541:5553   */\n      dup3\n        /* \"#utility.yul\":5487:5560   */\n      tag_248\n      jump\t// in\n    tag_356:\n        /* \"#utility.yul\":5479:5560   */\n      swap2\n      pop\n        /* \"#utility.yul\":5334:5571   */\n      pop\n        /* \"#utility.yul\":5652:5656   */\n      0x80\n        /* \"#utility.yul\":5645:5650   */\n      dup4\n        /* \"#utility.yul\":5641:5657   */\n      add\n        /* \"#utility.yul\":5635:5658   */\n      mload\n        /* \"#utility.yul\":5705:5708   */\n      dup5\n        /* \"#utility.yul\":5699:5703   */\n      dup3\n        /* \"#utility.yul\":5695:5709   */\n      sub\n        /* \"#utility.yul\":5688:5692   */\n      0x80\n        /* \"#utility.yul\":5683:5686   */\n      dup7\n        /* \"#utility.yul\":5679:5693   */\n      add\n        /* \"#utility.yul\":5672:5710   */\n      mstore\n        /* \"#utility.yul\":5731:5804   */\n      tag_357\n        /* \"#utility.yul\":5799:5803   */\n      dup3\n        /* \"#utility.yul\":5785:5797   */\n      dup3\n        /* \"#utility.yul\":5731:5804   */\n      tag_248\n      jump\t// in\n    tag_357:\n        /* \"#utility.yul\":5723:5804   */\n      swap2\n      pop\n        /* \"#utility.yul\":5581:5815   */\n      pop\n        /* \"#utility.yul\":5904:5908   */\n      0xa0\n        /* \"#utility.yul\":5897:5902   */\n      dup4\n        /* \"#utility.yul\":5893:5909   */\n      add\n        /* \"#utility.yul\":5887:5910   */\n      mload\n        /* \"#utility.yul\":5957:5960   */\n      dup5\n        /* \"#utility.yul\":5951:5955   */\n      dup3\n        /* \"#utility.yul\":5947:5961   */\n      sub\n        /* \"#utility.yul\":5940:5944   */\n      0xa0\n        /* \"#utility.yul\":5935:5938   */\n      dup7\n        /* \"#utility.yul\":5931:5945   */\n      add\n        /* \"#utility.yul\":5924:5962   */\n      mstore\n        /* \"#utility.yul\":5983:6056   */\n      tag_358\n        /* \"#utility.yul\":6051:6055   */\n      dup3\n        /* \"#utility.yul\":6037:6049   */\n      dup3\n        /* \"#utility.yul\":5983:6056   */\n      tag_248\n      jump\t// in\n    tag_358:\n        /* \"#utility.yul\":5975:6056   */\n      swap2\n      pop\n        /* \"#utility.yul\":5825:6067   */\n      pop\n        /* \"#utility.yul\":6155:6159   */\n      0xc0\n        /* \"#utility.yul\":6148:6153   */\n      dup4\n        /* \"#utility.yul\":6144:6160   */\n      add\n        /* \"#utility.yul\":6138:6161   */\n      mload\n        /* \"#utility.yul\":6208:6211   */\n      dup5\n        /* \"#utility.yul\":6202:6206   */\n      dup3\n        /* \"#utility.yul\":6198:6212   */\n      sub\n        /* \"#utility.yul\":6191:6195   */\n      0xc0\n        /* \"#utility.yul\":6186:6189   */\n      dup7\n        /* \"#utility.yul\":6182:6196   */\n      add\n        /* \"#utility.yul\":6175:6213   */\n      mstore\n        /* \"#utility.yul\":6234:6307   */\n      tag_359\n        /* \"#utility.yul\":6302:6306   */\n      dup3\n        /* \"#utility.yul\":6288:6300   */\n      dup3\n        /* \"#utility.yul\":6234:6307   */\n      tag_248\n      jump\t// in\n    tag_359:\n        /* \"#utility.yul\":6226:6307   */\n      swap2\n      pop\n        /* \"#utility.yul\":6077:6318   */\n      pop\n        /* \"#utility.yul\":6400:6404   */\n      0xe0\n        /* \"#utility.yul\":6393:6398   */\n      dup4\n        /* \"#utility.yul\":6389:6405   */\n      add\n        /* \"#utility.yul\":6383:6406   */\n      mload\n        /* \"#utility.yul\":6453:6456   */\n      dup5\n        /* \"#utility.yul\":6447:6451   */\n      dup3\n        /* \"#utility.yul\":6443:6457   */\n      sub\n        /* \"#utility.yul\":6436:6440   */\n      0xe0\n        /* \"#utility.yul\":6431:6434   */\n      dup7\n        /* \"#utility.yul\":6427:6441   */\n      add\n        /* \"#utility.yul\":6420:6458   */\n      mstore\n        /* \"#utility.yul\":6479:6552   */\n      tag_360\n        /* \"#utility.yul\":6547:6551   */\n      dup3\n        /* \"#utility.yul\":6533:6545   */\n      dup3\n        /* \"#utility.yul\":6479:6552   */\n      tag_248\n      jump\t// in\n    tag_360:\n        /* \"#utility.yul\":6471:6552   */\n      swap2\n      pop\n        /* \"#utility.yul\":6328:6563   */\n      pop\n        /* \"#utility.yul\":6652:6658   */\n      0x0100\n        /* \"#utility.yul\":6645:6650   */\n      dup4\n        /* \"#utility.yul\":6641:6659   */\n      add\n        /* \"#utility.yul\":6635:6660   */\n      mload\n        /* \"#utility.yul\":6709:6712   */\n      dup5\n        /* \"#utility.yul\":6703:6707   */\n      dup3\n        /* \"#utility.yul\":6699:6713   */\n      sub\n        /* \"#utility.yul\":6690:6696   */\n      0x0100\n        /* \"#utility.yul\":6685:6688   */\n      dup7\n        /* \"#utility.yul\":6681:6697   */\n      add\n        /* \"#utility.yul\":6674:6714   */\n      mstore\n        /* \"#utility.yul\":6735:6808   */\n      tag_361\n        /* \"#utility.yul\":6803:6807   */\n      dup3\n        /* \"#utility.yul\":6789:6801   */\n      dup3\n        /* \"#utility.yul\":6735:6808   */\n      tag_248\n      jump\t// in\n    tag_361:\n        /* \"#utility.yul\":6727:6808   */\n      swap2\n      pop\n        /* \"#utility.yul\":6573:6819   */\n      pop\n        /* \"#utility.yul\":6902:6908   */\n      0x0120\n        /* \"#utility.yul\":6895:6900   */\n      dup4\n        /* \"#utility.yul\":6891:6909   */\n      add\n        /* \"#utility.yul\":6885:6910   */\n      mload\n        /* \"#utility.yul\":6959:6962   */\n      dup5\n        /* \"#utility.yul\":6953:6957   */\n      dup3\n        /* \"#utility.yul\":6949:6963   */\n      sub\n        /* \"#utility.yul\":6940:6946   */\n      0x0120\n        /* \"#utility.yul\":6935:6938   */\n      dup7\n        /* \"#utility.yul\":6931:6947   */\n      add\n        /* \"#utility.yul\":6924:6964   */\n      mstore\n        /* \"#utility.yul\":6985:7058   */\n      tag_362\n        /* \"#utility.yul\":7053:7057   */\n      dup3\n        /* \"#utility.yul\":7039:7051   */\n      dup3\n        /* \"#utility.yul\":6985:7058   */\n      tag_248\n      jump\t// in\n    tag_362:\n        /* \"#utility.yul\":6977:7058   */\n      swap2\n      pop\n        /* \"#utility.yul\":6829:7069   */\n      pop\n        /* \"#utility.yul\":7154:7160   */\n      0x0140\n        /* \"#utility.yul\":7147:7152   */\n      dup4\n        /* \"#utility.yul\":7143:7161   */\n      add\n        /* \"#utility.yul\":7137:7162   */\n      mload\n        /* \"#utility.yul\":7211:7214   */\n      dup5\n        /* \"#utility.yul\":7205:7209   */\n      dup3\n        /* \"#utility.yul\":7201:7215   */\n      sub\n        /* \"#utility.yul\":7192:7198   */\n      0x0140\n        /* \"#utility.yul\":7187:7190   */\n      dup7\n        /* \"#utility.yul\":7183:7199   */\n      add\n        /* \"#utility.yul\":7176:7216   */\n      mstore\n        /* \"#utility.yul\":7237:7334   */\n      tag_363\n        /* \"#utility.yul\":7329:7333   */\n      dup3\n        /* \"#utility.yul\":7315:7327   */\n      dup3\n        /* \"#utility.yul\":7237:7334   */\n      tag_251\n      jump\t// in\n    tag_363:\n        /* \"#utility.yul\":7229:7334   */\n      swap2\n      pop\n        /* \"#utility.yul\":7079:7345   */\n      pop\n        /* \"#utility.yul\":7362:7366   */\n      dup1\n        /* \"#utility.yul\":7355:7366   */\n      swap2\n      pop\n        /* \"#utility.yul\":4613:7372   */\n      pop\n        /* \"#utility.yul\":4485:7372   */\n      swap3\n      swap2\n      pop\n      pop\n      jump\t// out\n        /* \"#utility.yul\":7428:9243   */\n    tag_253:\n        /* \"#utility.yul\":7545:7548   */\n      0x00\n        /* \"#utility.yul\":7581:7585   */\n      0xe0\n        /* \"#utility.yul\":7576:7579   */\n      dup4\n        /* \"#utility.yul\":7572:7586   */\n      add\n        /* \"#utility.yul\":7679:7683   */\n      0x00\n        /* \"#utility.yul\":7672:7677   */\n      dup4\n        /* \"#utility.yul\":7668:7684   */\n      add\n        /* \"#utility.yul\":7662:7685   */\n      mload\n        /* \"#utility.yul\":7698:7761   */\n      tag_365\n        /* \"#utility.yul\":7755:7759   */\n      0x00\n        /* \"#utility.yul\":7750:7753   */\n      dup7\n        /* \"#utility.yul\":7746:7760   */\n      add\n        /* \"#utility.yul\":7732:7744   */\n      dup3\n        /* \"#utility.yul\":7698:7761   */\n      tag_250\n      jump\t// in\n    tag_365:\n        /* \"#utility.yul\":7596:7771   */\n      pop\n        /* \"#utility.yul\":7862:7866   */\n      0x20\n        /* \"#utility.yul\":7855:7860   */\n      dup4\n        /* \"#utility.yul\":7851:7867   */\n      add\n        /* \"#utility.yul\":7845:7868   */\n      mload\n        /* \"#utility.yul\":7881:7944   */\n      tag_366\n        /* \"#utility.yul\":7938:7942   */\n      0x20\n        /* \"#utility.yul\":7933:7936   */\n      dup7\n        /* \"#utility.yul\":7929:7943   */\n      add\n        /* \"#utility.yul\":7915:7927   */\n      dup3\n        /* \"#utility.yul\":7881:7944   */\n      tag_250\n      jump\t// in\n    tag_366:\n        /* \"#utility.yul\":7781:7954   */\n      pop\n        /* \"#utility.yul\":8037:8041   */\n      0x40\n        /* \"#utility.yul\":8030:8035   */\n      dup4\n        /* \"#utility.yul\":8026:8042   */\n      add\n        /* \"#utility.yul\":8020:8043   */\n      mload\n        /* \"#utility.yul\":8090:8093   */\n      dup5\n        /* \"#utility.yul\":8084:8088   */\n      dup3\n        /* \"#utility.yul\":8080:8094   */\n      sub\n        /* \"#utility.yul\":8073:8077   */\n      0x40\n        /* \"#utility.yul\":8068:8071   */\n      dup7\n        /* \"#utility.yul\":8064:8078   */\n      add\n        /* \"#utility.yul\":8057:8095   */\n      mstore\n        /* \"#utility.yul\":8116:8189   */\n      tag_367\n        /* \"#utility.yul\":8184:8188   */\n      dup3\n        /* \"#utility.yul\":8170:8182   */\n      dup3\n        /* \"#utility.yul\":8116:8189   */\n      tag_248\n      jump\t// in\n    tag_367:\n        /* \"#utility.yul\":8108:8189   */\n      swap2\n      pop\n        /* \"#utility.yul\":7964:8200   */\n      pop\n        /* \"#utility.yul\":8297:8301   */\n      0x60\n        /* \"#utility.yul\":8290:8295   */\n      dup4\n        /* \"#utility.yul\":8286:8302   */\n      add\n        /* \"#utility.yul\":8280:8303   */\n      mload\n        /* \"#utility.yul\":8350:8353   */\n      dup5\n        /* \"#utility.yul\":8344:8348   */\n      dup3\n        /* \"#utility.yul\":8340:8354   */\n      sub\n        /* \"#utility.yul\":8333:8337   */\n      0x60\n        /* \"#utility.yul\":8328:8331   */\n      dup7\n        /* \"#utility.yul\":8324:8338   */\n      add\n        /* \"#utility.yul\":8317:8355   */\n      mstore\n        /* \"#utility.yul\":8376:8449   */\n      tag_368\n        /* \"#utility.yul\":8444:8448   */\n      dup3\n        /* \"#utility.yul\":8430:8442   */\n      dup3\n        /* \"#utility.yul\":8376:8449   */\n      tag_248\n      jump\t// in\n    tag_368:\n        /* \"#utility.yul\":8368:8449   */\n      swap2\n      pop\n        /* \"#utility.yul\":8210:8460   */\n      pop\n        /* \"#utility.yul\":8549:8553   */\n      0x80\n        /* \"#utility.yul\":8542:8547   */\n      dup4\n        /* \"#utility.yul\":8538:8554   */\n      add\n        /* \"#utility.yul\":8532:8555   */\n      mload\n        /* \"#utility.yul\":8602:8605   */\n      dup5\n        /* \"#utility.yul\":8596:8600   */\n      dup3\n        /* \"#utility.yul\":8592:8606   */\n      sub\n        /* \"#utility.yul\":8585:8589   */\n      0x80\n        /* \"#utility.yul\":8580:8583   */\n      dup7\n        /* \"#utility.yul\":8576:8590   */\n      add\n        /* \"#utility.yul\":8569:8607   */\n      mstore\n        /* \"#utility.yul\":8628:8701   */\n      tag_369\n        /* \"#utility.yul\":8696:8700   */\n      dup3\n        /* \"#utility.yul\":8682:8694   */\n      dup3\n        /* \"#utility.yul\":8628:8701   */\n      tag_248\n      jump\t// in\n    tag_369:\n        /* \"#utility.yul\":8620:8701   */\n      swap2\n      pop\n        /* \"#utility.yul\":8470:8712   */\n      pop\n        /* \"#utility.yul\":8801:8805   */\n      0xa0\n        /* \"#utility.yul\":8794:8799   */\n      dup4\n        /* \"#utility.yul\":8790:8806   */\n      add\n        /* \"#utility.yul\":8784:8807   */\n      mload\n        /* \"#utility.yul\":8854:8857   */\n      dup5\n        /* \"#utility.yul\":8848:8852   */\n      dup3\n        /* \"#utility.yul\":8844:8858   */\n      sub\n        /* \"#utility.yul\":8837:8841   */\n      0xa0\n        /* \"#utility.yul\":8832:8835   */\n      dup7\n        /* \"#utility.yul\":8828:8842   */\n      add\n        /* \"#utility.yul\":8821:8859   */\n      mstore\n        /* \"#utility.yul\":8880:8953   */\n      tag_370\n        /* \"#utility.yul\":8948:8952   */\n      dup3\n        /* \"#utility.yul\":8934:8946   */\n      dup3\n        /* \"#utility.yul\":8880:8953   */\n      tag_248\n      jump\t// in\n    tag_370:\n        /* \"#utility.yul\":8872:8953   */\n      swap2\n      pop\n        /* \"#utility.yul\":8722:8964   */\n      pop\n        /* \"#utility.yul\":9053:9057   */\n      0xc0\n        /* \"#utility.yul\":9046:9051   */\n      dup4\n        /* \"#utility.yul\":9042:9058   */\n      add\n        /* \"#utility.yul\":9036:9059   */\n      mload\n        /* \"#utility.yul\":9106:9109   */\n      dup5\n        /* \"#utility.yul\":9100:9104   */\n      dup3\n        /* \"#utility.yul\":9096:9110   */\n      sub\n        /* \"#utility.yul\":9089:9093   */\n      0xc0\n        /* \"#utility.yul\":9084:9087   */\n      dup7\n        /* \"#utility.yul\":9080:9094   */\n      add\n        /* \"#utility.yul\":9073:9111   */\n      mstore\n        /* \"#utility.yul\":9132:9205   */\n      tag_371\n        /* \"#utility.yul\":9200:9204   */\n      dup3\n        /* \"#utility.yul\":9186:9198   */\n      dup3\n        /* \"#utility.yul\":9132:9205   */\n      tag_248\n      jump\t// in\n    tag_371:\n        /* \"#utility.yul\":9124:9205   */\n      swap2\n      pop\n        /* \"#utility.yul\":8974:9216   */\n      pop\n        /* \"#utility.yul\":9233:9237   */\n      dup1\n        /* \"#utility.yul\":9226:9237   */\n      swap2\n      pop\n        /* \"#utility.yul\":7550:9243   */\n      pop\n        /* \"#utility.yul\":7428:9243   */\n      swap3\n      swap2\n      pop\n      pop\n      jump\t// out\n        /* \"#utility.yul\":9249:9373   */\n    tag_254:\n        /* \"#utility.yul\":9326:9332   */\n      0x00\n        /* \"#utility.yul\":9360:9365   */\n      dup2\n        /* \"#utility.yul\":9354:9366   */\n      mload\n        /* \"#utility.yul\":9344:9366   */\n      swap1\n      pop\n        /* \"#utility.yul\":9249:9373   */\n      swap2\n      swap1\n      pop\n      jump\t// out\n        /* \"#utility.yul\":9379:9563   */\n    tag_255:\n        /* \"#utility.yul\":9478:9489   */\n      0x00\n        /* \"#utility.yul\":9512:9518   */\n      dup3\n        /* \"#utility.yul\":9507:9510   */\n      dup3\n        /* \"#utility.yul\":9500:9519   */\n      mstore\n        /* \"#utility.yul\":9552:9556   */\n      0x20\n        /* \"#utility.yul\":9547:9550   */\n      dup3\n        /* \"#utility.yul\":9543:9557   */\n      add\n        /* \"#utility.yul\":9528:9557   */\n      swap1\n      pop\n        /* \"#utility.yul\":9379:9563   */\n      swap3\n      swap2\n      pop\n      pop\n      jump\t// out\n        /* \"#utility.yul\":9569:9711   */\n    tag_256:\n        /* \"#utility.yul\":9646:9650   */\n      0x00\n        /* \"#utility.yul\":9669:9672   */\n      dup2\n        /* \"#utility.yul\":9661:9672   */\n      swap1\n      pop\n        /* \"#utility.yul\":9699:9703   */\n      0x20\n        /* \"#utility.yul\":9694:9697   */\n      dup3\n        /* \"#utility.yul\":9690:9704   */\n      add\n        /* \"#utility.yul\":9682:9704   */\n      swap1\n      pop\n        /* \"#utility.yul\":9569:9711   */\n      swap2\n      swap1\n      pop\n      jump\t// out\n        /* \"#utility.yul\":9717:9913   */\n    tag_257:\n        /* \"#utility.yul\":9806:9816   */\n      0x00\n        /* \"#utility.yul\":9841:9907   */\n      tag_376\n        /* \"#utility.yul\":9903:9906   */\n      dup4\n        /* \"#utility.yul\":9895:9901   */\n      dup4\n        /* \"#utility.yul\":9841:9907   */\n      tag_248\n      jump\t// in\n    tag_376:\n        /* \"#utility.yul\":9827:9907   */\n      swap1\n      pop\n        /* \"#utility.yul\":9717:9913   */\n      swap3\n      swap2\n      pop\n      pop\n      jump\t// out\n        /* \"#utility.yul\":9919:10042   */\n    tag_258:\n        /* \"#utility.yul\":9999:10003   */\n      0x00\n        /* \"#utility.yul\":10031:10035   */\n      0x20\n        /* \"#utility.yul\":10026:10029   */\n      dup3\n        /* \"#utility.yul\":10022:10036   */\n      add\n        /* \"#utility.yul\":10014:10036   */\n      swap1\n      pop\n        /* \"#utility.yul\":9919:10042   */\n      swap2\n      swap1\n      pop\n      jump\t// out\n        /* \"#utility.yul\":10076:11047   */\n    tag_259:\n        /* \"#utility.yul\":10205:10208   */\n      0x00\n        /* \"#utility.yul\":10234:10298   */\n      tag_379\n        /* \"#utility.yul\":10292:10297   */\n      dup3\n        /* \"#utility.yul\":10234:10298   */\n      tag_254\n      jump\t// in\n    tag_379:\n        /* \"#utility.yul\":10314:10400   */\n      tag_380\n        /* \"#utility.yul\":10393:10399   */\n      dup2\n        /* \"#utility.yul\":10388:10391   */\n      dup6\n        /* \"#utility.yul\":10314:10400   */\n      tag_255\n      jump\t// in\n    tag_380:\n        /* \"#utility.yul\":10307:10400   */\n      swap4\n      pop\n        /* \"#utility.yul\":10426:10429   */\n      dup4\n        /* \"#utility.yul\":10471:10475   */\n      0x20\n        /* \"#utility.yul\":10463:10469   */\n      dup3\n        /* \"#utility.yul\":10459:10476   */\n      mul\n        /* \"#utility.yul\":10454:10457   */\n      dup6\n        /* \"#utility.yul\":10450:10477   */\n      add\n        /* \"#utility.yul\":10501:10567   */\n      tag_381\n        /* \"#utility.yul\":10561:10566   */\n      dup6\n        /* \"#utility.yul\":10501:10567   */\n      tag_256\n      jump\t// in\n    tag_381:\n        /* \"#utility.yul\":10590:10597   */\n      dup1\n        /* \"#utility.yul\":10621:10622   */\n      0x00\n        /* \"#utility.yul\":10606:11002   */\n    tag_382:\n        /* \"#utility.yul\":10631:10637   */\n      dup6\n        /* \"#utility.yul\":10628:10629   */\n      dup2\n        /* \"#utility.yul\":10625:10638   */\n      lt\n        /* \"#utility.yul\":10606:11002   */\n      iszero\n      tag_384\n      jumpi\n        /* \"#utility.yul\":10702:10711   */\n      dup5\n        /* \"#utility.yul\":10696:10700   */\n      dup5\n        /* \"#utility.yul\":10692:10712   */\n      sub\n        /* \"#utility.yul\":10687:10690   */\n      dup10\n        /* \"#utility.yul\":10680:10713   */\n      mstore\n        /* \"#utility.yul\":10753:10759   */\n      dup2\n        /* \"#utility.yul\":10747:10760   */\n      mload\n        /* \"#utility.yul\":10781:10865   */\n      tag_385\n        /* \"#utility.yul\":10860:10864   */\n      dup6\n        /* \"#utility.yul\":10845:10858   */\n      dup3\n        /* \"#utility.yul\":10781:10865   */\n      tag_257\n      jump\t// in\n    tag_385:\n        /* \"#utility.yul\":10773:10865   */\n      swap5\n      pop\n        /* \"#utility.yul\":10888:10958   */\n      tag_386\n        /* \"#utility.yul\":10951:10957   */\n      dup4\n        /* \"#utility.yul\":10888:10958   */\n      tag_258\n      jump\t// in\n    tag_386:\n        /* \"#utility.yul\":10878:10958   */\n      swap3\n      pop\n        /* \"#utility.yul\":10987:10991   */\n      0x20\n        /* \"#utility.yul\":10982:10985   */\n      dup11\n        /* \"#utility.yul\":10978:10992   */\n      add\n        /* \"#utility.yul\":10971:10992   */\n      swap10\n      pop\n        /* \"#utility.yul\":10666:11002   */\n      pop\n        /* \"#utility.yul\":10653:10654   */\n      0x01\n        /* \"#utility.yul\":10650:10651   */\n      dup2\n        /* \"#utility.yul\":10646:10655   */\n      add\n        /* \"#utility.yul\":10641:10655   */\n      swap1\n      pop\n        /* \"#utility.yul\":10606:11002   */\n      jump(tag_382)\n    tag_384:\n        /* \"#utility.yul\":10610:10624   */\n      pop\n        /* \"#utility.yul\":11018:11022   */\n      dup3\n        /* \"#utility.yul\":11011:11022   */\n      swap8\n      pop\n        /* \"#utility.yul\":11038:11041   */\n      dup8\n        /* \"#utility.yul\":11031:11041   */\n      swap6\n      pop\n        /* \"#utility.yul\":10210:11047   */\n      pop\n      pop\n      pop\n      pop\n      pop\n        /* \"#utility.yul\":10076:11047   */\n      swap3\n      swap2\n      pop\n      pop\n      jump\t// out\n        /* \"#utility.yul\":11103:12355   */\n    tag_260:\n        /* \"#utility.yul\":11220:11223   */\n      0x00\n        /* \"#utility.yul\":11256:11260   */\n      0x80\n        /* \"#utility.yul\":11251:11254   */\n      dup4\n        /* \"#utility.yul\":11247:11261   */\n      add\n        /* \"#utility.yul\":11348:11352   */\n      0x00\n        /* \"#utility.yul\":11341:11346   */\n      dup4\n        /* \"#utility.yul\":11337:11353   */\n      add\n        /* \"#utility.yul\":11331:11354   */\n      mload\n        /* \"#utility.yul\":11401:11404   */\n      dup5\n        /* \"#utility.yul\":11395:11399   */\n      dup3\n        /* \"#utility.yul\":11391:11405   */\n      sub\n        /* \"#utility.yul\":11384:11388   */\n      0x00\n        /* \"#utility.yul\":11379:11382   */\n      dup7\n        /* \"#utility.yul\":11375:11389   */\n      add\n        /* \"#utility.yul\":11368:11406   */\n      mstore\n        /* \"#utility.yul\":11427:11550   */\n      tag_388\n        /* \"#utility.yul\":11545:11549   */\n      dup3\n        /* \"#utility.yul\":11531:11543   */\n      dup3\n        /* \"#utility.yul\":11427:11550   */\n      tag_259\n      jump\t// in\n    tag_388:\n        /* \"#utility.yul\":11419:11550   */\n      swap2\n      pop\n        /* \"#utility.yul\":11271:11561   */\n      pop\n        /* \"#utility.yul\":11648:11652   */\n      0x20\n        /* \"#utility.yul\":11641:11646   */\n      dup4\n        /* \"#utility.yul\":11637:11653   */\n      add\n        /* \"#utility.yul\":11631:11654   */\n      mload\n        /* \"#utility.yul\":11701:11704   */\n      dup5\n        /* \"#utility.yul\":11695:11699   */\n      dup3\n        /* \"#utility.yul\":11691:11705   */\n      sub\n        /* \"#utility.yul\":11684:11688   */\n      0x20\n        /* \"#utility.yul\":11679:11682   */\n      dup7\n        /* \"#utility.yul\":11675:11689   */\n      add\n        /* \"#utility.yul\":11668:11706   */\n      mstore\n        /* \"#utility.yul\":11727:11800   */\n      tag_389\n        /* \"#utility.yul\":11795:11799   */\n      dup3\n        /* \"#utility.yul\":11781:11793   */\n      dup3\n        /* \"#utility.yul\":11727:11800   */\n      tag_248\n      jump\t// in\n    tag_389:\n        /* \"#utility.yul\":11719:11800   */\n      swap2\n      pop\n        /* \"#utility.yul\":11571:11811   */\n      pop\n        /* \"#utility.yul\":11905:11909   */\n      0x40\n        /* \"#utility.yul\":11898:11903   */\n      dup4\n        /* \"#utility.yul\":11894:11910   */\n      add\n        /* \"#utility.yul\":11888:11911   */\n      mload\n        /* \"#utility.yul\":11958:11961   */\n      dup5\n        /* \"#utility.yul\":11952:11956   */\n      dup3\n        /* \"#utility.yul\":11948:11962   */\n      sub\n        /* \"#utility.yul\":11941:11945   */\n      0x40\n        /* \"#utility.yul\":11936:11939   */\n      dup7\n        /* \"#utility.yul\":11932:11946   */\n      add\n        /* \"#utility.yul\":11925:11963   */\n      mstore\n        /* \"#utility.yul\":11984:12057   */\n      tag_390\n        /* \"#utility.yul\":12052:12056   */\n      dup3\n        /* \"#utility.yul\":12038:12050   */\n      dup3\n        /* \"#utility.yul\":11984:12057   */\n      tag_248\n      jump\t// in\n    tag_390:\n        /* \"#utility.yul\":11976:12057   */\n      swap2\n      pop\n        /* \"#utility.yul\":11821:12068   */\n      pop\n        /* \"#utility.yul\":12165:12169   */\n      0x60\n        /* \"#utility.yul\":12158:12163   */\n      dup4\n        /* \"#utility.yul\":12154:12170   */\n      add\n        /* \"#utility.yul\":12148:12171   */\n      mload\n        /* \"#utility.yul\":12218:12221   */\n      dup5\n        /* \"#utility.yul\":12212:12216   */\n      dup3\n        /* \"#utility.yul\":12208:12222   */\n      sub\n        /* \"#utility.yul\":12201:12205   */\n      0x60\n        /* \"#utility.yul\":12196:12199   */\n      dup7\n        /* \"#utility.yul\":12192:12206   */\n      add\n        /* \"#utility.yul\":12185:12223   */\n      mstore\n        /* \"#utility.yul\":12244:12317   */\n      tag_391\n        /* \"#utility.yul\":12312:12316   */\n      dup3\n        /* \"#utility.yul\":12298:12310   */\n      dup3\n        /* \"#utility.yul\":12244:12317   */\n      tag_248\n      jump\t// in\n    tag_391:\n        /* \"#utility.yul\":12236:12317   */\n      swap2\n      pop\n        /* \"#utility.yul\":12078:12328   */\n      pop\n        /* \"#utility.yul\":12345:12349   */\n      dup1\n        /* \"#utility.yul\":12338:12349   */\n      swap2\n      pop\n        /* \"#utility.yul\":11225:12355   */\n      pop\n        /* \"#utility.yul\":11103:12355   */\n      swap3\n      swap2\n      pop\n      pop\n      jump\t// out\n        /* \"#utility.yul\":12361:12451   */\n    tag_261:\n        /* \"#utility.yul\":12395:12402   */\n      0x00\n        /* \"#utility.yul\":12438:12443   */\n      dup2\n        /* \"#utility.yul\":12431:12444   */\n      iszero\n        /* \"#utility.yul\":12424:12445   */\n      iszero\n        /* \"#utility.yul\":12413:12445   */\n      swap1\n      pop\n        /* \"#utility.yul\":12361:12451   */\n      swap2\n      swap1\n      pop\n      jump\t// out\n        /* \"#utility.yul\":12457:12556   */\n    tag_262:\n        /* \"#utility.yul\":12528:12549   */\n      tag_394\n        /* \"#utility.yul\":12543:12548   */\n      dup2\n        /* \"#utility.yul\":12528:12549   */\n      tag_261\n      jump\t// in\n    tag_394:\n        /* \"#utility.yul\":12523:12526   */\n      dup3\n        /* \"#utility.yul\":12516:12550   */\n      mstore\n        /* \"#utility.yul\":12457:12556   */\n      pop\n      pop\n      jump\t// out\n        /* \"#utility.yul\":12622:13989   */\n    tag_263:\n        /* \"#utility.yul\":12749:12752   */\n      0x00\n        /* \"#utility.yul\":12785:12789   */\n      0xa0\n        /* \"#utility.yul\":12780:12783   */\n      dup4\n        /* \"#utility.yul\":12776:12790   */\n      add\n        /* \"#utility.yul\":12875:12879   */\n      0x00\n        /* \"#utility.yul\":12868:12873   */\n      dup4\n        /* \"#utility.yul\":12864:12880   */\n      add\n        /* \"#utility.yul\":12858:12881   */\n      mload\n        /* \"#utility.yul\":12894:12951   */\n      tag_396\n        /* \"#utility.yul\":12945:12949   */\n      0x00\n        /* \"#utility.yul\":12940:12943   */\n      dup7\n        /* \"#utility.yul\":12936:12950   */\n      add\n        /* \"#utility.yul\":12922:12934   */\n      dup3\n        /* \"#utility.yul\":12894:12951   */\n      tag_262\n      jump\t// in\n    tag_396:\n        /* \"#utility.yul\":12800:12961   */\n      pop\n        /* \"#utility.yul\":13045:13049   */\n      0x20\n        /* \"#utility.yul\":13038:13043   */\n      dup4\n        /* \"#utility.yul\":13034:13050   */\n      add\n        /* \"#utility.yul\":13028:13051   */\n      mload\n        /* \"#utility.yul\":13098:13101   */\n      dup5\n        /* \"#utility.yul\":13092:13096   */\n      dup3\n        /* \"#utility.yul\":13088:13102   */\n      sub\n        /* \"#utility.yul\":13081:13085   */\n      0x20\n        /* \"#utility.yul\":13076:13079   */\n      dup7\n        /* \"#utility.yul\":13072:13086   */\n      add\n        /* \"#utility.yul\":13065:13103   */\n      mstore\n        /* \"#utility.yul\":13124:13197   */\n      tag_397\n        /* \"#utility.yul\":13192:13196   */\n      dup3\n        /* \"#utility.yul\":13178:13190   */\n      dup3\n        /* \"#utility.yul\":13124:13197   */\n      tag_248\n      jump\t// in\n    tag_397:\n        /* \"#utility.yul\":13116:13197   */\n      swap2\n      pop\n        /* \"#utility.yul\":12971:13208   */\n      pop\n        /* \"#utility.yul\":13292:13296   */\n      0x40\n        /* \"#utility.yul\":13285:13290   */\n      dup4\n        /* \"#utility.yul\":13281:13297   */\n      add\n        /* \"#utility.yul\":13275:13298   */\n      mload\n        /* \"#utility.yul\":13345:13348   */\n      dup5\n        /* \"#utility.yul\":13339:13343   */\n      dup3\n        /* \"#utility.yul\":13335:13349   */\n      sub\n        /* \"#utility.yul\":13328:13332   */\n      0x40\n        /* \"#utility.yul\":13323:13326   */\n      dup7\n        /* \"#utility.yul\":13319:13333   */\n      add\n        /* \"#utility.yul\":13312:13350   */\n      mstore\n        /* \"#utility.yul\":13371:13444   */\n      tag_398\n        /* \"#utility.yul\":13439:13443   */\n      dup3\n        /* \"#utility.yul\":13425:13437   */\n      dup3\n        /* \"#utility.yul\":13371:13444   */\n      tag_248\n      jump\t// in\n    tag_398:\n        /* \"#utility.yul\":13363:13444   */\n      swap2\n      pop\n        /* \"#utility.yul\":13218:13455   */\n      pop\n        /* \"#utility.yul\":13546:13550   */\n      0x60\n        /* \"#utility.yul\":13539:13544   */\n      dup4\n        /* \"#utility.yul\":13535:13551   */\n      add\n        /* \"#utility.yul\":13529:13552   */\n      mload\n        /* \"#utility.yul\":13599:13602   */\n      dup5\n        /* \"#utility.yul\":13593:13597   */\n      dup3\n        /* \"#utility.yul\":13589:13603   */\n      sub\n        /* \"#utility.yul\":13582:13586   */\n      0x60\n        /* \"#utility.yul\":13577:13580   */\n      dup7\n        /* \"#utility.yul\":13573:13587   */\n      add\n        /* \"#utility.yul\":13566:13604   */\n      mstore\n        /* \"#utility.yul\":13625:13698   */\n      tag_399\n        /* \"#utility.yul\":13693:13697   */\n      dup3\n        /* \"#utility.yul\":13679:13691   */\n      dup3\n        /* \"#utility.yul\":13625:13698   */\n      tag_248\n      jump\t// in\n    tag_399:\n        /* \"#utility.yul\":13617:13698   */\n      swap2\n      pop\n        /* \"#utility.yul\":13465:13709   */\n      pop\n        /* \"#utility.yul\":13799:13803   */\n      0x80\n        /* \"#utility.yul\":13792:13797   */\n      dup4\n        /* \"#utility.yul\":13788:13804   */\n      add\n        /* \"#utility.yul\":13782:13805   */\n      mload\n        /* \"#utility.yul\":13852:13855   */\n      dup5\n        /* \"#utility.yul\":13846:13850   */\n      dup3\n        /* \"#utility.yul\":13842:13856   */\n      sub\n        /* \"#utility.yul\":13835:13839   */\n      0x80\n        /* \"#utility.yul\":13830:13833   */\n      dup7\n        /* \"#utility.yul\":13826:13840   */\n      add\n        /* \"#utility.yul\":13819:13857   */\n      mstore\n        /* \"#utility.yul\":13878:13951   */\n      tag_400\n        /* \"#utility.yul\":13946:13950   */\n      dup3\n        /* \"#utility.yul\":13932:13944   */\n      dup3\n        /* \"#utility.yul\":13878:13951   */\n      tag_248\n      jump\t// in\n    tag_400:\n        /* \"#utility.yul\":13870:13951   */\n      swap2\n      pop\n        /* \"#utility.yul\":13719:13962   */\n      pop\n        /* \"#utility.yul\":13979:13983   */\n      dup1\n        /* \"#utility.yul\":13972:13983   */\n      swap2\n      pop\n        /* \"#utility.yul\":12754:13989   */\n      pop\n        /* \"#utility.yul\":12622:13989   */\n      swap3\n      swap2\n      pop\n      pop\n      jump\t// out\n        /* \"#utility.yul\":13995:15870   */\n    tag_11:\n        /* \"#utility.yul\":14570:14574   */\n      0x00\n        /* \"#utility.yul\":14608:14611   */\n      0x0100\n        /* \"#utility.yul\":14597:14606   */\n      dup3\n        /* \"#utility.yul\":14593:14612   */\n      add\n        /* \"#utility.yul\":14585:14612   */\n      swap1\n      pop\n        /* \"#utility.yul\":14622:14693   */\n      tag_402\n        /* \"#utility.yul\":14690:14691   */\n      0x00\n        /* \"#utility.yul\":14679:14688   */\n      dup4\n        /* \"#utility.yul\":14675:14692   */\n      add\n        /* \"#utility.yul\":14666:14672   */\n      dup12\n        /* \"#utility.yul\":14622:14693   */\n      tag_241\n      jump\t// in\n    tag_402:\n        /* \"#utility.yul\":14740:14749   */\n      dup2\n        /* \"#utility.yul\":14734:14738   */\n      dup2\n        /* \"#utility.yul\":14730:14750   */\n      sub\n        /* \"#utility.yul\":14725:14727   */\n      0x20\n        /* \"#utility.yul\":14714:14723   */\n      dup4\n        /* \"#utility.yul\":14710:14728   */\n      add\n        /* \"#utility.yul\":14703:14751   */\n      mstore\n        /* \"#utility.yul\":14768:14846   */\n      tag_403\n        /* \"#utility.yul\":14841:14845   */\n      dup2\n        /* \"#utility.yul\":14832:14838   */\n      dup11\n        /* \"#utility.yul\":14768:14846   */\n      tag_246\n      jump\t// in\n    tag_403:\n        /* \"#utility.yul\":14760:14846   */\n      swap1\n      pop\n        /* \"#utility.yul\":14856:14928   */\n      tag_404\n        /* \"#utility.yul\":14924:14926   */\n      0x40\n        /* \"#utility.yul\":14913:14922   */\n      dup4\n        /* \"#utility.yul\":14909:14927   */\n      add\n        /* \"#utility.yul\":14900:14906   */\n      dup10\n        /* \"#utility.yul\":14856:14928   */\n      tag_241\n      jump\t// in\n    tag_404:\n        /* \"#utility.yul\":14975:14984   */\n      dup2\n        /* \"#utility.yul\":14969:14973   */\n      dup2\n        /* \"#utility.yul\":14965:14985   */\n      sub\n        /* \"#utility.yul\":14960:14962   */\n      0x60\n        /* \"#utility.yul\":14949:14958   */\n      dup4\n        /* \"#utility.yul\":14945:14963   */\n      add\n        /* \"#utility.yul\":14938:14986   */\n      mstore\n        /* \"#utility.yul\":15003:15119   */\n      tag_405\n        /* \"#utility.yul\":15114:15118   */\n      dup2\n        /* \"#utility.yul\":15105:15111   */\n      dup9\n        /* \"#utility.yul\":15003:15119   */\n      tag_249\n      jump\t// in\n    tag_405:\n        /* \"#utility.yul\":14995:15119   */\n      swap1\n      pop\n        /* \"#utility.yul\":15167:15176   */\n      dup2\n        /* \"#utility.yul\":15161:15165   */\n      dup2\n        /* \"#utility.yul\":15157:15177   */\n      sub\n        /* \"#utility.yul\":15151:15154   */\n      0x80\n        /* \"#utility.yul\":15140:15149   */\n      dup4\n        /* \"#utility.yul\":15136:15155   */\n      add\n        /* \"#utility.yul\":15129:15178   */\n      mstore\n        /* \"#utility.yul\":15195:15307   */\n      tag_406\n        /* \"#utility.yul\":15302:15306   */\n      dup2\n        /* \"#utility.yul\":15293:15299   */\n      dup8\n        /* \"#utility.yul\":15195:15307   */\n      tag_252\n      jump\t// in\n    tag_406:\n        /* \"#utility.yul\":15187:15307   */\n      swap1\n      pop\n        /* \"#utility.yul\":15355:15364   */\n      dup2\n        /* \"#utility.yul\":15349:15353   */\n      dup2\n        /* \"#utility.yul\":15345:15365   */\n      sub\n        /* \"#utility.yul\":15339:15342   */\n      0xa0\n        /* \"#utility.yul\":15328:15337   */\n      dup4\n        /* \"#utility.yul\":15324:15343   */\n      add\n        /* \"#utility.yul\":15317:15366   */\n      mstore\n        /* \"#utility.yul\":15383:15489   */\n      tag_407\n        /* \"#utility.yul\":15484:15488   */\n      dup2\n        /* \"#utility.yul\":15475:15481   */\n      dup7\n        /* \"#utility.yul\":15383:15489   */\n      tag_253\n      jump\t// in\n    tag_407:\n        /* \"#utility.yul\":15375:15489   */\n      swap1\n      pop\n        /* \"#utility.yul\":15537:15546   */\n      dup2\n        /* \"#utility.yul\":15531:15535   */\n      dup2\n        /* \"#utility.yul\":15527:15547   */\n      sub\n        /* \"#utility.yul\":15521:15524   */\n      0xc0\n        /* \"#utility.yul\":15510:15519   */\n      dup4\n        /* \"#utility.yul\":15506:15525   */\n      add\n        /* \"#utility.yul\":15499:15548   */\n      mstore\n        /* \"#utility.yul\":15565:15671   */\n      tag_408\n        /* \"#utility.yul\":15666:15670   */\n      dup2\n        /* \"#utility.yul\":15657:15663   */\n      dup6\n        /* \"#utility.yul\":15565:15671   */\n      tag_260\n      jump\t// in\n    tag_408:\n        /* \"#utility.yul\":15557:15671   */\n      swap1\n      pop\n        /* \"#utility.yul\":15719:15728   */\n      dup2\n        /* \"#utility.yul\":15713:15717   */\n      dup2\n        /* \"#utility.yul\":15709:15729   */\n      sub\n        /* \"#utility.yul\":15703:15706   */\n      0xe0\n        /* \"#utility.yul\":15692:15701   */\n      dup4\n        /* \"#utility.yul\":15688:15707   */\n      add\n        /* \"#utility.yul\":15681:15730   */\n      mstore\n        /* \"#utility.yul\":15747:15863   */\n      tag_409\n        /* \"#utility.yul\":15858:15862   */\n      dup2\n        /* \"#utility.yul\":15849:15855   */\n      dup5\n        /* \"#utility.yul\":15747:15863   */\n      tag_263\n      jump\t// in\n    tag_409:\n        /* \"#utility.yul\":15739:15863   */\n      swap1\n      pop\n        /* \"#utility.yul\":13995:15870   */\n      swap10\n      swap9\n      pop\n      pop\n      pop\n      pop\n      pop\n      pop\n      pop\n      pop\n      pop\n      jump\t// out\n        /* \"#utility.yul\":15876:16098   */\n    tag_15:\n        /* \"#utility.yul\":15969:15973   */\n      0x00\n        /* \"#utility.yul\":16007:16009   */\n      0x20\n        /* \"#utility.yul\":15996:16005   */\n      dup3\n        /* \"#utility.yul\":15992:16010   */\n      add\n        /* \"#utility.yul\":15984:16010   */\n      swap1\n      pop\n        /* \"#utility.yul\":16020:16091   */\n      tag_411\n        /* \"#utility.yul\":16088:16089   */\n      0x00\n        /* \"#utility.yul\":16077:16086   */\n      dup4\n        /* \"#utility.yul\":16073:16090   */\n      add\n        /* \"#utility.yul\":16064:16070   */\n      dup5\n        /* \"#utility.yul\":16020:16091   */\n      tag_241\n      jump\t// in\n    tag_411:\n        /* \"#utility.yul\":15876:16098   */\n      swap3\n      swap2\n      pop\n      pop\n      jump\t// out\n        /* \"#utility.yul\":16104:16221   */\n    tag_264:\n        /* \"#utility.yul\":16213:16214   */\n      0x00\n        /* \"#utility.yul\":16210:16211   */\n      0x00\n        /* \"#utility.yul\":16203:16215   */\n      revert\n        /* \"#utility.yul\":16227:16344   */\n    tag_265:\n        /* \"#utility.yul\":16336:16337   */\n      0x00\n        /* \"#utility.yul\":16333:16334   */\n      0x00\n        /* \"#utility.yul\":16326:16338   */\n      revert\n        /* \"#utility.yul\":16350:16530   */\n    tag_266:\n        /* \"#utility.yul\":16398:16475   */\n      0x4e487b7100000000000000000000000000000000000000000000000000000000\n        /* \"#utility.yul\":16395:16396   */\n      0x00\n        /* \"#utility.yul\":16388:16476   */\n      mstore\n        /* \"#utility.yul\":16495:16499   */\n      0x41\n        /* \"#utility.yul\":16492:16493   */\n      0x04\n        /* \"#utility.yul\":16485:16500   */\n      mstore\n        /* \"#utility.yul\":16519:16523   */\n      0x24\n        /* \"#utility.yul\":16516:16517   */\n      0x00\n        /* \"#utility.yul\":16509:16524   */\n      revert\n        /* \"#utility.yul\":16536:16817   */\n    tag_267:\n        /* \"#utility.yul\":16619:16646   */\n      tag_416\n        /* \"#utility.yul\":16641:16645   */\n      dup3\n        /* \"#utility.yul\":16619:16646   */\n      tag_245\n      jump\t// in\n    tag_416:\n        /* \"#utility.yul\":16611:16617   */\n      dup2\n        /* \"#utility.yul\":16607:16647   */\n      add\n        /* \"#utility.yul\":16749:16755   */\n      dup2\n        /* \"#utility.yul\":16737:16747   */\n      dup2\n        /* \"#utility.yul\":16734:16756   */\n      lt\n        /* \"#utility.yul\":16713:16731   */\n      0xffffffffffffffff\n        /* \"#utility.yul\":16701:16711   */\n      dup3\n        /* \"#utility.yul\":16698:16732   */\n      gt\n        /* \"#utility.yul\":16695:16757   */\n      or\n        /* \"#utility.yul\":16692:16780   */\n      iszero\n      tag_417\n      jumpi\n        /* \"#utility.yul\":16760:16778   */\n      tag_418\n      tag_266\n      jump\t// in\n    tag_418:\n        /* \"#utility.yul\":16692:16780   */\n    tag_417:\n        /* \"#utility.yul\":16800:16810   */\n      dup1\n        /* \"#utility.yul\":16796:16798   */\n      0x40\n        /* \"#utility.yul\":16789:16811   */\n      mstore\n        /* \"#utility.yul\":16579:16817   */\n      pop\n        /* \"#utility.yul\":16536:16817   */\n      pop\n      pop\n      jump\t// out\n        /* \"#utility.yul\":16823:16952   */\n    tag_268:\n        /* \"#utility.yul\":16857:16863   */\n      0x00\n        /* \"#utility.yul\":16884:16904   */\n      tag_420\n      tag_235\n      jump\t// in\n    tag_420:\n        /* \"#utility.yul\":16874:16904   */\n      swap1\n      pop\n        /* \"#utility.yul\":16913:16946   */\n      tag_421\n        /* \"#utility.yul\":16941:16945   */\n      dup3\n        /* \"#utility.yul\":16933:16939   */\n      dup3\n        /* \"#utility.yul\":16913:16946   */\n      tag_267\n      jump\t// in\n    tag_421:\n        /* \"#utility.yul\":16823:16952   */\n      swap2\n      swap1\n      pop\n      jump\t// out\n        /* \"#utility.yul\":16958:17266   */\n    tag_269:\n        /* \"#utility.yul\":17020:17024   */\n      0x00\n        /* \"#utility.yul\":17110:17128   */\n      0xffffffffffffffff\n        /* \"#utility.yul\":17102:17108   */\n      dup3\n        /* \"#utility.yul\":17099:17129   */\n      gt\n        /* \"#utility.yul\":17096:17152   */\n      iszero\n      tag_423\n      jumpi\n        /* \"#utility.yul\":17132:17150   */\n      tag_424\n      tag_266\n      jump\t// in\n    tag_424:\n        /* \"#utility.yul\":17096:17152   */\n    tag_423:\n        /* \"#utility.yul\":17170:17199   */\n      tag_425\n        /* \"#utility.yul\":17192:17198   */\n      dup3\n        /* \"#utility.yul\":17170:17199   */\n      tag_245\n      jump\t// in\n    tag_425:\n        /* \"#utility.yul\":17162:17199   */\n      swap1\n      pop\n        /* \"#utility.yul\":17254:17258   */\n      0x20\n        /* \"#utility.yul\":17248:17252   */\n      dup2\n        /* \"#utility.yul\":17244:17259   */\n      add\n        /* \"#utility.yul\":17236:17259   */\n      swap1\n      pop\n        /* \"#utility.yul\":16958:17266   */\n      swap2\n      swap1\n      pop\n      jump\t// out\n        /* \"#utility.yul\":17272:17420   */\n    tag_270:\n        /* \"#utility.yul\":17370:17376   */\n      dup3\n        /* \"#utility.yul\":17365:17368   */\n      dup2\n        /* \"#utility.yul\":17360:17363   */\n      dup4\n        /* \"#utility.yul\":17347:17377   */\n      calldatacopy\n        /* \"#utility.yul\":17411:17412   */\n      0x00\n        /* \"#utility.yul\":17402:17408   */\n      dup4\n        /* \"#utility.yul\":17397:17400   */\n      dup4\n        /* \"#utility.yul\":17393:17409   */\n      add\n        /* \"#utility.yul\":17386:17413   */\n      mstore\n        /* \"#utility.yul\":17272:17420   */\n      pop\n      pop\n      pop\n      jump\t// out\n        /* \"#utility.yul\":17426:17851   */\n    tag_271:\n        /* \"#utility.yul\":17504:17509   */\n      0x00\n        /* \"#utility.yul\":17529:17595   */\n      tag_428\n        /* \"#utility.yul\":17545:17594   */\n      tag_429\n        /* \"#utility.yul\":17587:17593   */\n      dup5\n        /* \"#utility.yul\":17545:17594   */\n      tag_269\n      jump\t// in\n    tag_429:\n        /* \"#utility.yul\":17529:17595   */\n      tag_268\n      jump\t// in\n    tag_428:\n        /* \"#utility.yul\":17520:17595   */\n      swap1\n      pop\n        /* \"#utility.yul\":17618:17624   */\n      dup3\n        /* \"#utility.yul\":17611:17616   */\n      dup2\n        /* \"#utility.yul\":17604:17625   */\n      mstore\n        /* \"#utility.yul\":17656:17660   */\n      0x20\n        /* \"#utility.yul\":17649:17654   */\n      dup2\n        /* \"#utility.yul\":17645:17661   */\n      add\n        /* \"#utility.yul\":17694:17697   */\n      dup5\n        /* \"#utility.yul\":17685:17691   */\n      dup5\n        /* \"#utility.yul\":17680:17683   */\n      dup5\n        /* \"#utility.yul\":17676:17692   */\n      add\n        /* \"#utility.yul\":17673:17698   */\n      gt\n        /* \"#utility.yul\":17670:17782   */\n      iszero\n      tag_430\n      jumpi\n        /* \"#utility.yul\":17701:17780   */\n      tag_431\n      tag_265\n      jump\t// in\n    tag_431:\n        /* \"#utility.yul\":17670:17782   */\n    tag_430:\n        /* \"#utility.yul\":17791:17845   */\n      tag_432\n        /* \"#utility.yul\":17838:17844   */\n      dup5\n        /* \"#utility.yul\":17833:17836   */\n      dup3\n        /* \"#utility.yul\":17828:17831   */\n      dup6\n        /* \"#utility.yul\":17791:17845   */\n      tag_270\n      jump\t// in\n    tag_432:\n        /* \"#utility.yul\":17510:17851   */\n      pop\n        /* \"#utility.yul\":17426:17851   */\n      swap4\n      swap3\n      pop\n      pop\n      pop\n      jump\t// out\n        /* \"#utility.yul\":17871:18211   */\n    tag_272:\n        /* \"#utility.yul\":17927:17932   */\n      0x00\n        /* \"#utility.yul\":17976:17979   */\n      dup3\n        /* \"#utility.yul\":17969:17973   */\n      0x1f\n        /* \"#utility.yul\":17961:17967   */\n      dup4\n        /* \"#utility.yul\":17957:17974   */\n      add\n        /* \"#utility.yul\":17953:17980   */\n      slt\n        /* \"#utility.yul\":17943:18065   */\n      tag_434\n      jumpi\n        /* \"#utility.yul\":17984:18063   */\n      tag_435\n      tag_264\n      jump\t// in\n    tag_435:\n        /* \"#utility.yul\":17943:18065   */\n    tag_434:\n        /* \"#utility.yul\":18101:18107   */\n      dup2\n        /* \"#utility.yul\":18088:18108   */\n      calldataload\n        /* \"#utility.yul\":18126:18205   */\n      tag_436\n        /* \"#utility.yul\":18201:18204   */\n      dup5\n        /* \"#utility.yul\":18193:18199   */\n      dup3\n        /* \"#utility.yul\":18186:18190   */\n      0x20\n        /* \"#utility.yul\":18178:18184   */\n      dup7\n        /* \"#utility.yul\":18174:18191   */\n      add\n        /* \"#utility.yul\":18126:18205   */\n      tag_271\n      jump\t// in\n    tag_436:\n        /* \"#utility.yul\":18117:18205   */\n      swap2\n      pop\n        /* \"#utility.yul\":17933:18211   */\n      pop\n        /* \"#utility.yul\":17871:18211   */\n      swap3\n      swap2\n      pop\n      pop\n      jump\t// out\n        /* \"#utility.yul\":18217:18334   */\n    tag_273:\n        /* \"#utility.yul\":18326:18327   */\n      0x00\n        /* \"#utility.yul\":18323:18324   */\n      0x00\n        /* \"#utility.yul\":18316:18328   */\n      revert\n        /* \"#utility.yul\":18340:18457   */\n    tag_274:\n        /* \"#utility.yul\":18449:18450   */\n      0x00\n        /* \"#utility.yul\":18446:18447   */\n      0x00\n        /* \"#utility.yul\":18439:18451   */\n      revert\n        /* \"#utility.yul\":18495:19749   */\n    tag_275:\n        /* \"#utility.yul\":18573:18578   */\n      0x00\n        /* \"#utility.yul\":18617:18621   */\n      0x60\n        /* \"#utility.yul\":18605:18614   */\n      dup3\n        /* \"#utility.yul\":18600:18603   */\n      dup5\n        /* \"#utility.yul\":18596:18615   */\n      sub\n        /* \"#utility.yul\":18592:18622   */\n      slt\n        /* \"#utility.yul\":18589:18706   */\n      iszero\n      tag_440\n      jumpi\n        /* \"#utility.yul\":18625:18704   */\n      tag_441\n      tag_273\n      jump\t// in\n    tag_441:\n        /* \"#utility.yul\":18589:18706   */\n    tag_440:\n        /* \"#utility.yul\":18724:18745   */\n      tag_442\n        /* \"#utility.yul\":18740:18744   */\n      0x60\n        /* \"#utility.yul\":18724:18745   */\n      tag_268\n      jump\t// in\n    tag_442:\n        /* \"#utility.yul\":18715:18745   */\n      swap1\n      pop\n        /* \"#utility.yul\":18832:18833   */\n      0x00\n        /* \"#utility.yul\":18821:18830   */\n      dup3\n        /* \"#utility.yul\":18817:18834   */\n      add\n        /* \"#utility.yul\":18804:18835   */\n      calldataload\n        /* \"#utility.yul\":18862:18880   */\n      0xffffffffffffffff\n        /* \"#utility.yul\":18854:18860   */\n      dup2\n        /* \"#utility.yul\":18851:18881   */\n      gt\n        /* \"#utility.yul\":18848:18965   */\n      iszero\n      tag_443\n      jumpi\n        /* \"#utility.yul\":18884:18963   */\n      tag_444\n      tag_274\n      jump\t// in\n    tag_444:\n        /* \"#utility.yul\":18848:18965   */\n    tag_443:\n        /* \"#utility.yul\":19004:19063   */\n      tag_445\n        /* \"#utility.yul\":19059:19062   */\n      dup5\n        /* \"#utility.yul\":19050:19056   */\n      dup3\n        /* \"#utility.yul\":19039:19048   */\n      dup6\n        /* \"#utility.yul\":19035:19057   */\n      add\n        /* \"#utility.yul\":19004:19063   */\n      tag_272\n      jump\t// in\n    tag_445:\n        /* \"#utility.yul\":18997:19001   */\n      0x00\n        /* \"#utility.yul\":18990:18995   */\n      dup4\n        /* \"#utility.yul\":18986:19002   */\n      add\n        /* \"#utility.yul\":18979:19064   */\n      mstore\n        /* \"#utility.yul\":18755:19075   */\n      pop\n        /* \"#utility.yul\":19166:19168   */\n      0x20\n        /* \"#utility.yul\":19155:19164   */\n      dup3\n        /* \"#utility.yul\":19151:19169   */\n      add\n        /* \"#utility.yul\":19138:19170   */\n      calldataload\n        /* \"#utility.yul\":19197:19215   */\n      0xffffffffffffffff\n        /* \"#utility.yul\":19189:19195   */\n      dup2\n        /* \"#utility.yul\":19186:19216   */\n      gt\n        /* \"#utility.yul\":19183:19300   */\n      iszero\n      tag_446\n      jumpi\n        /* \"#utility.yul\":19219:19298   */\n      tag_447\n      tag_274\n      jump\t// in\n    tag_447:\n        /* \"#utility.yul\":19183:19300   */\n    tag_446:\n        /* \"#utility.yul\":19339:19398   */\n      tag_448\n        /* \"#utility.yul\":19394:19397   */\n      dup5\n        /* \"#utility.yul\":19385:19391   */\n      dup3\n        /* \"#utility.yul\":19374:19383   */\n      dup6\n        /* \"#utility.yul\":19370:19392   */\n      add\n        /* \"#utility.yul\":19339:19398   */\n      tag_272\n      jump\t// in\n    tag_448:\n        /* \"#utility.yul\":19332:19336   */\n      0x20\n        /* \"#utility.yul\":19325:19330   */\n      dup4\n        /* \"#utility.yul\":19321:19337   */\n      add\n        /* \"#utility.yul\":19314:19399   */\n      mstore\n        /* \"#utility.yul\":19085:19410   */\n      pop\n        /* \"#utility.yul\":19498:19500   */\n      0x40\n        /* \"#utility.yul\":19487:19496   */\n      dup3\n        /* \"#utility.yul\":19483:19501   */\n      add\n        /* \"#utility.yul\":19470:19502   */\n      calldataload\n        /* \"#utility.yul\":19529:19547   */\n      0xffffffffffffffff\n        /* \"#utility.yul\":19521:19527   */\n      dup2\n        /* \"#utility.yul\":19518:19548   */\n      gt\n        /* \"#utility.yul\":19515:19632   */\n      iszero\n      tag_449\n      jumpi\n        /* \"#utility.yul\":19551:19630   */\n      tag_450\n      tag_274\n      jump\t// in\n    tag_450:\n        /* \"#utility.yul\":19515:19632   */\n    tag_449:\n        /* \"#utility.yul\":19671:19730   */\n      tag_451\n        /* \"#utility.yul\":19726:19729   */\n      dup5\n        /* \"#utility.yul\":19717:19723   */\n      dup3\n        /* \"#utility.yul\":19706:19715   */\n      dup6\n        /* \"#utility.yul\":19702:19724   */\n      add\n        /* \"#utility.yul\":19671:19730   */\n      tag_272\n      jump\t// in\n    tag_451:\n        /* \"#utility.yul\":19664:19668   */\n      0x40\n        /* \"#utility.yul\":19657:19662   */\n      dup4\n        /* \"#utility.yul\":19653:19669   */\n      add\n        /* \"#utility.yul\":19646:19731   */\n      mstore\n        /* \"#utility.yul\":19420:19742   */\n      pop\n        /* \"#utility.yul\":18495:19749   */\n      swap3\n      swap2\n      pop\n      pop\n      jump\t// out\n        /* \"#utility.yul\":19781:20698   */\n    tag_276:\n        /* \"#utility.yul\":19852:19857   */\n      0x00\n        /* \"#utility.yul\":19896:19900   */\n      0x40\n        /* \"#utility.yul\":19884:19893   */\n      dup3\n        /* \"#utility.yul\":19879:19882   */\n      dup5\n        /* \"#utility.yul\":19875:19894   */\n      sub\n        /* \"#utility.yul\":19871:19901   */\n      slt\n        /* \"#utility.yul\":19868:19985   */\n      iszero\n      tag_453\n      jumpi\n        /* \"#utility.yul\":19904:19983   */\n      tag_454\n      tag_273\n      jump\t// in\n    tag_454:\n        /* \"#utility.yul\":19868:19985   */\n    tag_453:\n        /* \"#utility.yul\":20003:20024   */\n      tag_455\n        /* \"#utility.yul\":20019:20023   */\n      0x40\n        /* \"#utility.yul\":20003:20024   */\n      tag_268\n      jump\t// in\n    tag_455:\n        /* \"#utility.yul\":19994:20024   */\n      swap1\n      pop\n        /* \"#utility.yul\":20113:20114   */\n      0x00\n        /* \"#utility.yul\":20102:20111   */\n      dup3\n        /* \"#utility.yul\":20098:20115   */\n      add\n        /* \"#utility.yul\":20085:20116   */\n      calldataload\n        /* \"#utility.yul\":20143:20161   */\n      0xffffffffffffffff\n        /* \"#utility.yul\":20135:20141   */\n      dup2\n        /* \"#utility.yul\":20132:20162   */\n      gt\n        /* \"#utility.yul\":20129:20246   */\n      iszero\n      tag_456\n      jumpi\n        /* \"#utility.yul\":20165:20244   */\n      tag_457\n      tag_274\n      jump\t// in\n    tag_457:\n        /* \"#utility.yul\":20129:20246   */\n    tag_456:\n        /* \"#utility.yul\":20285:20344   */\n      tag_458\n        /* \"#utility.yul\":20340:20343   */\n      dup5\n        /* \"#utility.yul\":20331:20337   */\n      dup3\n        /* \"#utility.yul\":20320:20329   */\n      dup6\n        /* \"#utility.yul\":20316:20338   */\n      add\n        /* \"#utility.yul\":20285:20344   */\n      tag_272\n      jump\t// in\n    tag_458:\n        /* \"#utility.yul\":20278:20282   */\n      0x00\n        /* \"#utility.yul\":20271:20276   */\n      dup4\n        /* \"#utility.yul\":20267:20283   */\n      add\n        /* \"#utility.yul\":20260:20345   */\n      mstore\n        /* \"#utility.yul\":20034:20356   */\n      pop\n        /* \"#utility.yul\":20447:20449   */\n      0x20\n        /* \"#utility.yul\":20436:20445   */\n      dup3\n        /* \"#utility.yul\":20432:20450   */\n      add\n        /* \"#utility.yul\":20419:20451   */\n      calldataload\n        /* \"#utility.yul\":20478:20496   */\n      0xffffffffffffffff\n        /* \"#utility.yul\":20470:20476   */\n      dup2\n        /* \"#utility.yul\":20467:20497   */\n      gt\n        /* \"#utility.yul\":20464:20581   */\n      iszero\n      tag_459\n      jumpi\n        /* \"#utility.yul\":20500:20579   */\n      tag_460\n      tag_274\n      jump\t// in\n    tag_460:\n        /* \"#utility.yul\":20464:20581   */\n    tag_459:\n        /* \"#utility.yul\":20620:20679   */\n      tag_461\n        /* \"#utility.yul\":20675:20678   */\n      dup5\n        /* \"#utility.yul\":20666:20672   */\n      dup3\n        /* \"#utility.yul\":20655:20664   */\n      dup6\n        /* \"#utility.yul\":20651:20673   */\n      add\n        /* \"#utility.yul\":20620:20679   */\n      tag_272\n      jump\t// in\n    tag_461:\n        /* \"#utility.yul\":20613:20617   */\n      0x20\n        /* \"#utility.yul\":20606:20611   */\n      dup4\n        /* \"#utility.yul\":20602:20618   */\n      add\n        /* \"#utility.yul\":20595:20680   */\n      mstore\n        /* \"#utility.yul\":20366:20691   */\n      pop\n        /* \"#utility.yul\":19781:20698   */\n      swap3\n      swap2\n      pop\n      pop\n      jump\t// out\n        /* \"#utility.yul\":20734:24522   */\n    tag_277:\n        /* \"#utility.yul\":20810:20815   */\n      0x00\n        /* \"#utility.yul\":20854:20860   */\n      0x0160\n        /* \"#utility.yul\":20842:20851   */\n      dup3\n        /* \"#utility.yul\":20837:20840   */\n      dup5\n        /* \"#utility.yul\":20833:20852   */\n      sub\n        /* \"#utility.yul\":20829:20861   */\n      slt\n        /* \"#utility.yul\":20826:20945   */\n      iszero\n      tag_463\n      jumpi\n        /* \"#utility.yul\":20864:20943   */\n      tag_464\n      tag_273\n      jump\t// in\n    tag_464:\n        /* \"#utility.yul\":20826:20945   */\n    tag_463:\n        /* \"#utility.yul\":20963:20986   */\n      tag_465\n        /* \"#utility.yul\":20979:20985   */\n      0x0160\n        /* \"#utility.yul\":20963:20986   */\n      tag_268\n      jump\t// in\n    tag_465:\n        /* \"#utility.yul\":20954:20986   */\n      swap1\n      pop\n        /* \"#utility.yul\":21077:21078   */\n      0x00\n        /* \"#utility.yul\":21066:21075   */\n      dup3\n        /* \"#utility.yul\":21062:21079   */\n      add\n        /* \"#utility.yul\":21049:21080   */\n      calldataload\n        /* \"#utility.yul\":21107:21125   */\n      0xffffffffffffffff\n        /* \"#utility.yul\":21099:21105   */\n      dup2\n        /* \"#utility.yul\":21096:21126   */\n      gt\n        /* \"#utility.yul\":21093:21210   */\n      iszero\n      tag_466\n      jumpi\n        /* \"#utility.yul\":21129:21208   */\n      tag_467\n      tag_274\n      jump\t// in\n    tag_467:\n        /* \"#utility.yul\":21093:21210   */\n    tag_466:\n        /* \"#utility.yul\":21249:21308   */\n      tag_468\n        /* \"#utility.yul\":21304:21307   */\n      dup5\n        /* \"#utility.yul\":21295:21301   */\n      dup3\n        /* \"#utility.yul\":21284:21293   */\n      dup6\n        /* \"#utility.yul\":21280:21302   */\n      add\n        /* \"#utility.yul\":21249:21308   */\n      tag_272\n      jump\t// in\n    tag_468:\n        /* \"#utility.yul\":21242:21246   */\n      0x00\n        /* \"#utility.yul\":21235:21240   */\n      dup4\n        /* \"#utility.yul\":21231:21247   */\n      add\n        /* \"#utility.yul\":21224:21309   */\n      mstore\n        /* \"#utility.yul\":20996:21320   */\n      pop\n        /* \"#utility.yul\":21413:21415   */\n      0x20\n        /* \"#utility.yul\":21402:21411   */\n      dup3\n        /* \"#utility.yul\":21398:21416   */\n      add\n        /* \"#utility.yul\":21385:21417   */\n      calldataload\n        /* \"#utility.yul\":21444:21462   */\n      0xffffffffffffffff\n        /* \"#utility.yul\":21436:21442   */\n      dup2\n        /* \"#utility.yul\":21433:21463   */\n      gt\n        /* \"#utility.yul\":21430:21547   */\n      iszero\n      tag_469\n      jumpi\n        /* \"#utility.yul\":21466:21545   */\n      tag_470\n      tag_274\n      jump\t// in\n    tag_470:\n        /* \"#utility.yul\":21430:21547   */\n    tag_469:\n        /* \"#utility.yul\":21586:21645   */\n      tag_471\n        /* \"#utility.yul\":21641:21644   */\n      dup5\n        /* \"#utility.yul\":21632:21638   */\n      dup3\n        /* \"#utility.yul\":21621:21630   */\n      dup6\n        /* \"#utility.yul\":21617:21639   */\n      add\n        /* \"#utility.yul\":21586:21645   */\n      tag_272\n      jump\t// in\n    tag_471:\n        /* \"#utility.yul\":21579:21583   */\n      0x20\n        /* \"#utility.yul\":21572:21577   */\n      dup4\n        /* \"#utility.yul\":21568:21584   */\n      add\n        /* \"#utility.yul\":21561:21646   */\n      mstore\n        /* \"#utility.yul\":21330:21657   */\n      pop\n        /* \"#utility.yul\":21715:21717   */\n      0x40\n        /* \"#utility.yul\":21756:21805   */\n      tag_472\n        /* \"#utility.yul\":21801:21804   */\n      dup5\n        /* \"#utility.yul\":21792:21798   */\n      dup3\n        /* \"#utility.yul\":21781:21790   */\n      dup6\n        /* \"#utility.yul\":21777:21799   */\n      add\n        /* \"#utility.yul\":21756:21805   */\n      tag_240\n      jump\t// in\n    tag_472:\n        /* \"#utility.yul\":21749:21753   */\n      0x40\n        /* \"#utility.yul\":21742:21747   */\n      dup4\n        /* \"#utility.yul\":21738:21754   */\n      add\n        /* \"#utility.yul\":21731:21806   */\n      mstore\n        /* \"#utility.yul\":21667:21817   */\n      pop\n        /* \"#utility.yul\":21906:21908   */\n      0x60\n        /* \"#utility.yul\":21895:21904   */\n      dup3\n        /* \"#utility.yul\":21891:21909   */\n      add\n        /* \"#utility.yul\":21878:21910   */\n      calldataload\n        /* \"#utility.yul\":21937:21955   */\n      0xffffffffffffffff\n        /* \"#utility.yul\":21929:21935   */\n      dup2\n        /* \"#utility.yul\":21926:21956   */\n      gt\n        /* \"#utility.yul\":21923:22040   */\n      iszero\n      tag_473\n      jumpi\n        /* \"#utility.yul\":21959:22038   */\n      tag_474\n      tag_274\n      jump\t// in\n    tag_474:\n        /* \"#utility.yul\":21923:22040   */\n    tag_473:\n        /* \"#utility.yul\":22079:22138   */\n      tag_475\n        /* \"#utility.yul\":22134:22137   */\n      dup5\n        /* \"#utility.yul\":22125:22131   */\n      dup3\n        /* \"#utility.yul\":22114:22123   */\n      dup6\n        /* \"#utility.yul\":22110:22132   */\n      add\n        /* \"#utility.yul\":22079:22138   */\n      tag_272\n      jump\t// in\n    tag_475:\n        /* \"#utility.yul\":22072:22076   */\n      0x60\n        /* \"#utility.yul\":22065:22070   */\n      dup4\n        /* \"#utility.yul\":22061:22077   */\n      add\n        /* \"#utility.yul\":22054:22139   */\n      mstore\n        /* \"#utility.yul\":21827:22150   */\n      pop\n        /* \"#utility.yul\":22236:22239   */\n      0x80\n        /* \"#utility.yul\":22225:22234   */\n      dup3\n        /* \"#utility.yul\":22221:22240   */\n      add\n        /* \"#utility.yul\":22208:22241   */\n      calldataload\n        /* \"#utility.yul\":22268:22286   */\n      0xffffffffffffffff\n        /* \"#utility.yul\":22260:22266   */\n      dup2\n        /* \"#utility.yul\":22257:22287   */\n      gt\n        /* \"#utility.yul\":22254:22371   */\n      iszero\n      tag_476\n      jumpi\n        /* \"#utility.yul\":22290:22369   */\n      tag_477\n      tag_274\n      jump\t// in\n    tag_477:\n        /* \"#utility.yul\":22254:22371   */\n    tag_476:\n        /* \"#utility.yul\":22410:22469   */\n      tag_478\n        /* \"#utility.yul\":22465:22468   */\n      dup5\n        /* \"#utility.yul\":22456:22462   */\n      dup3\n        /* \"#utility.yul\":22445:22454   */\n      dup6\n        /* \"#utility.yul\":22441:22463   */\n      add\n        /* \"#utility.yul\":22410:22469   */\n      tag_272\n      jump\t// in\n    tag_478:\n        /* \"#utility.yul\":22403:22407   */\n      0x80\n        /* \"#utility.yul\":22396:22401   */\n      dup4\n        /* \"#utility.yul\":22392:22408   */\n      add\n        /* \"#utility.yul\":22385:22470   */\n      mstore\n        /* \"#utility.yul\":22160:22481   */\n      pop\n        /* \"#utility.yul\":22575:22578   */\n      0xa0\n        /* \"#utility.yul\":22564:22573   */\n      dup3\n        /* \"#utility.yul\":22560:22579   */\n      add\n        /* \"#utility.yul\":22547:22580   */\n      calldataload\n        /* \"#utility.yul\":22607:22625   */\n      0xffffffffffffffff\n        /* \"#utility.yul\":22599:22605   */\n      dup2\n        /* \"#utility.yul\":22596:22626   */\n      gt\n        /* \"#utility.yul\":22593:22710   */\n      iszero\n      tag_479\n      jumpi\n        /* \"#utility.yul\":22629:22708   */\n      tag_480\n      tag_274\n      jump\t// in\n    tag_480:\n        /* \"#utility.yul\":22593:22710   */\n    tag_479:\n        /* \"#utility.yul\":22749:22808   */\n      tag_481\n        /* \"#utility.yul\":22804:22807   */\n      dup5\n        /* \"#utility.yul\":22795:22801   */\n      dup3\n        /* \"#utility.yul\":22784:22793   */\n      dup6\n        /* \"#utility.yul\":22780:22802   */\n      add\n        /* \"#utility.yul\":22749:22808   */\n      tag_272\n      jump\t// in\n    tag_481:\n        /* \"#utility.yul\":22742:22746   */\n      0xa0\n        /* \"#utility.yul\":22735:22740   */\n      dup4\n        /* \"#utility.yul\":22731:22747   */\n      add\n        /* \"#utility.yul\":22724:22809   */\n      mstore\n        /* \"#utility.yul\":22491:22820   */\n      pop\n        /* \"#utility.yul\":22913:22916   */\n      0xc0\n        /* \"#utility.yul\":22902:22911   */\n      dup3\n        /* \"#utility.yul\":22898:22917   */\n      add\n        /* \"#utility.yul\":22885:22918   */\n      calldataload\n        /* \"#utility.yul\":22945:22963   */\n      0xffffffffffffffff\n        /* \"#utility.yul\":22937:22943   */\n      dup2\n        /* \"#utility.yul\":22934:22964   */\n      gt\n        /* \"#utility.yul\":22931:23048   */\n      iszero\n      tag_482\n      jumpi\n        /* \"#utility.yul\":22967:23046   */\n      tag_483\n      tag_274\n      jump\t// in\n    tag_483:\n        /* \"#utility.yul\":22931:23048   */\n    tag_482:\n        /* \"#utility.yul\":23087:23146   */\n      tag_484\n        /* \"#utility.yul\":23142:23145   */\n      dup5\n        /* \"#utility.yul\":23133:23139   */\n      dup3\n        /* \"#utility.yul\":23122:23131   */\n      dup6\n        /* \"#utility.yul\":23118:23140   */\n      add\n        /* \"#utility.yul\":23087:23146   */\n      tag_272\n      jump\t// in\n    tag_484:\n        /* \"#utility.yul\":23080:23084   */\n      0xc0\n        /* \"#utility.yul\":23073:23078   */\n      dup4\n        /* \"#utility.yul\":23069:23085   */\n      add\n        /* \"#utility.yul\":23062:23147   */\n      mstore\n        /* \"#utility.yul\":22830:23158   */\n      pop\n        /* \"#utility.yul\":23245:23248   */\n      0xe0\n        /* \"#utility.yul\":23234:23243   */\n      dup3\n        /* \"#utility.yul\":23230:23249   */\n      add\n        /* \"#utility.yul\":23217:23250   */\n      calldataload\n        /* \"#utility.yul\":23277:23295   */\n      0xffffffffffffffff\n        /* \"#utility.yul\":23269:23275   */\n      dup2\n        /* \"#utility.yul\":23266:23296   */\n      gt\n        /* \"#utility.yul\":23263:23380   */\n      iszero\n      tag_485\n      jumpi\n        /* \"#utility.yul\":23299:23378   */\n      tag_486\n      tag_274\n      jump\t// in\n    tag_486:\n        /* \"#utility.yul\":23263:23380   */\n    tag_485:\n        /* \"#utility.yul\":23419:23478   */\n      tag_487\n        /* \"#utility.yul\":23474:23477   */\n      dup5\n        /* \"#utility.yul\":23465:23471   */\n      dup3\n        /* \"#utility.yul\":23454:23463   */\n      dup6\n        /* \"#utility.yul\":23450:23472   */\n      add\n        /* \"#utility.yul\":23419:23478   */\n      tag_272\n      jump\t// in\n    tag_487:\n        /* \"#utility.yul\":23412:23416   */\n      0xe0\n        /* \"#utility.yul\":23405:23410   */\n      dup4\n        /* \"#utility.yul\":23401:23417   */\n      add\n        /* \"#utility.yul\":23394:23479   */\n      mstore\n        /* \"#utility.yul\":23168:23490   */\n      pop\n        /* \"#utility.yul\":23584:23587   */\n      0x0100\n        /* \"#utility.yul\":23573:23582   */\n      dup3\n        /* \"#utility.yul\":23569:23588   */\n      add\n        /* \"#utility.yul\":23556:23589   */\n      calldataload\n        /* \"#utility.yul\":23616:23634   */\n      0xffffffffffffffff\n        /* \"#utility.yul\":23608:23614   */\n      dup2\n        /* \"#utility.yul\":23605:23635   */\n      gt\n        /* \"#utility.yul\":23602:23719   */\n      iszero\n      tag_488\n      jumpi\n        /* \"#utility.yul\":23638:23717   */\n      tag_489\n      tag_274\n      jump\t// in\n    tag_489:\n        /* \"#utility.yul\":23602:23719   */\n    tag_488:\n        /* \"#utility.yul\":23760:23819   */\n      tag_490\n        /* \"#utility.yul\":23815:23818   */\n      dup5\n        /* \"#utility.yul\":23806:23812   */\n      dup3\n        /* \"#utility.yul\":23795:23804   */\n      dup6\n        /* \"#utility.yul\":23791:23813   */\n      add\n        /* \"#utility.yul\":23760:23819   */\n      tag_272\n      jump\t// in\n    tag_490:\n        /* \"#utility.yul\":23751:23757   */\n      0x0100\n        /* \"#utility.yul\":23744:23749   */\n      dup4\n        /* \"#utility.yul\":23740:23758   */\n      add\n        /* \"#utility.yul\":23733:23820   */\n      mstore\n        /* \"#utility.yul\":23500:23831   */\n      pop\n        /* \"#utility.yul\":23919:23922   */\n      0x0120\n        /* \"#utility.yul\":23908:23917   */\n      dup3\n        /* \"#utility.yul\":23904:23923   */\n      add\n        /* \"#utility.yul\":23891:23924   */\n      calldataload\n        /* \"#utility.yul\":23951:23969   */\n      0xffffffffffffffff\n        /* \"#utility.yul\":23943:23949   */\n      dup2\n        /* \"#utility.yul\":23940:23970   */\n      gt\n        /* \"#utility.yul\":23937:24054   */\n      iszero\n      tag_491\n      jumpi\n        /* \"#utility.yul\":23973:24052   */\n      tag_492\n      tag_274\n      jump\t// in\n    tag_492:\n        /* \"#utility.yul\":23937:24054   */\n    tag_491:\n        /* \"#utility.yul\":24095:24154   */\n      tag_493\n        /* \"#utility.yul\":24150:24153   */\n      dup5\n        /* \"#utility.yul\":24141:24147   */\n      dup3\n        /* \"#utility.yul\":24130:24139   */\n      dup6\n        /* \"#utility.yul\":24126:24148   */\n      add\n        /* \"#utility.yul\":24095:24154   */\n      tag_272\n      jump\t// in\n    tag_493:\n        /* \"#utility.yul\":24086:24092   */\n      0x0120\n        /* \"#utility.yul\":24079:24084   */\n      dup4\n        /* \"#utility.yul\":24075:24093   */\n      add\n        /* \"#utility.yul\":24068:24155   */\n      mstore\n        /* \"#utility.yul\":23841:24166   */\n      pop\n        /* \"#utility.yul\":24256:24259   */\n      0x0140\n        /* \"#utility.yul\":24245:24254   */\n      dup3\n        /* \"#utility.yul\":24241:24260   */\n      add\n        /* \"#utility.yul\":24228:24261   */\n      calldataload\n        /* \"#utility.yul\":24288:24306   */\n      0xffffffffffffffff\n        /* \"#utility.yul\":24280:24286   */\n      dup2\n        /* \"#utility.yul\":24277:24307   */\n      gt\n        /* \"#utility.yul\":24274:24391   */\n      iszero\n      tag_494\n      jumpi\n        /* \"#utility.yul\":24310:24389   */\n      tag_495\n      tag_274\n      jump\t// in\n    tag_495:\n        /* \"#utility.yul\":24274:24391   */\n    tag_494:\n        /* \"#utility.yul\":24432:24503   */\n      tag_496\n        /* \"#utility.yul\":24499:24502   */\n      dup5\n        /* \"#utility.yul\":24490:24496   */\n      dup3\n        /* \"#utility.yul\":24479:24488   */\n      dup6\n        /* \"#utility.yul\":24475:24497   */\n      add\n        /* \"#utility.yul\":24432:24503   */\n      tag_276\n      jump\t// in\n    tag_496:\n        /* \"#utility.yul\":24423:24429   */\n      0x0140\n        /* \"#utility.yul\":24416:24421   */\n      dup4\n        /* \"#utility.yul\":24412:24430   */\n      add\n        /* \"#utility.yul\":24405:24504   */\n      mstore\n        /* \"#utility.yul\":24176:24515   */\n      pop\n        /* \"#utility.yul\":20734:24522   */\n      swap3\n      swap2\n      pop\n      pop\n      jump\t// out\n        /* \"#utility.yul\":24555:26843   */\n    tag_278:\n        /* \"#utility.yul\":24628:24633   */\n      0x00\n        /* \"#utility.yul\":24672:24676   */\n      0xe0\n        /* \"#utility.yul\":24660:24669   */\n      dup3\n        /* \"#utility.yul\":24655:24658   */\n      dup5\n        /* \"#utility.yul\":24651:24670   */\n      sub\n        /* \"#utility.yul\":24647:24677   */\n      slt\n        /* \"#utility.yul\":24644:24761   */\n      iszero\n      tag_498\n      jumpi\n        /* \"#utility.yul\":24680:24759   */\n      tag_499\n      tag_273\n      jump\t// in\n    tag_499:\n        /* \"#utility.yul\":24644:24761   */\n    tag_498:\n        /* \"#utility.yul\":24779:24800   */\n      tag_500\n        /* \"#utility.yul\":24795:24799   */\n      0xe0\n        /* \"#utility.yul\":24779:24800   */\n      tag_268\n      jump\t// in\n    tag_500:\n        /* \"#utility.yul\":24770:24800   */\n      swap1\n      pop\n        /* \"#utility.yul\":24870:24871   */\n      0x00\n        /* \"#utility.yul\":24910:24959   */\n      tag_501\n        /* \"#utility.yul\":24955:24958   */\n      dup5\n        /* \"#utility.yul\":24946:24952   */\n      dup3\n        /* \"#utility.yul\":24935:24944   */\n      dup6\n        /* \"#utility.yul\":24931:24953   */\n      add\n        /* \"#utility.yul\":24910:24959   */\n      tag_240\n      jump\t// in\n    tag_501:\n        /* \"#utility.yul\":24903:24907   */\n      0x00\n        /* \"#utility.yul\":24896:24901   */\n      dup4\n        /* \"#utility.yul\":24892:24908   */\n      add\n        /* \"#utility.yul\":24885:24960   */\n      mstore\n        /* \"#utility.yul\":24810:24971   */\n      pop\n        /* \"#utility.yul\":25039:25041   */\n      0x20\n        /* \"#utility.yul\":25080:25129   */\n      tag_502\n        /* \"#utility.yul\":25125:25128   */\n      dup5\n        /* \"#utility.yul\":25116:25122   */\n      dup3\n        /* \"#utility.yul\":25105:25114   */\n      dup6\n        /* \"#utility.yul\":25101:25123   */\n      add\n        /* \"#utility.yul\":25080:25129   */\n      tag_240\n      jump\t// in\n    tag_502:\n        /* \"#utility.yul\":25073:25077   */\n      0x20\n        /* \"#utility.yul\":25066:25071   */\n      dup4\n        /* \"#utility.yul\":25062:25078   */\n      add\n        /* \"#utility.yul\":25055:25130   */\n      mstore\n        /* \"#utility.yul\":24981:25141   */\n      pop\n        /* \"#utility.yul\":25229:25231   */\n      0x40\n        /* \"#utility.yul\":25218:25227   */\n      dup3\n        /* \"#utility.yul\":25214:25232   */\n      add\n        /* \"#utility.yul\":25201:25233   */\n      calldataload\n        /* \"#utility.yul\":25260:25278   */\n      0xffffffffffffffff\n        /* \"#utility.yul\":25252:25258   */\n      dup2\n        /* \"#utility.yul\":25249:25279   */\n      gt\n        /* \"#utility.yul\":25246:25363   */\n      iszero\n      tag_503\n      jumpi\n        /* \"#utility.yul\":25282:25361   */\n      tag_504\n      tag_274\n      jump\t// in\n    tag_504:\n        /* \"#utility.yul\":25246:25363   */\n    tag_503:\n        /* \"#utility.yul\":25402:25461   */\n      tag_505\n        /* \"#utility.yul\":25457:25460   */\n      dup5\n        /* \"#utility.yul\":25448:25454   */\n      dup3\n        /* \"#utility.yul\":25437:25446   */\n      dup6\n        /* \"#utility.yul\":25433:25455   */\n      add\n        /* \"#utility.yul\":25402:25461   */\n      tag_272\n      jump\t// in\n    tag_505:\n        /* \"#utility.yul\":25395:25399   */\n      0x40\n        /* \"#utility.yul\":25388:25393   */\n      dup4\n        /* \"#utility.yul\":25384:25400   */\n      add\n        /* \"#utility.yul\":25377:25462   */\n      mstore\n        /* \"#utility.yul\":25151:25473   */\n      pop\n        /* \"#utility.yul\":25575:25577   */\n      0x60\n        /* \"#utility.yul\":25564:25573   */\n      dup3\n        /* \"#utility.yul\":25560:25578   */\n      add\n        /* \"#utility.yul\":25547:25579   */\n      calldataload\n        /* \"#utility.yul\":25606:25624   */\n      0xffffffffffffffff\n        /* \"#utility.yul\":25598:25604   */\n      dup2\n        /* \"#utility.yul\":25595:25625   */\n      gt\n        /* \"#utility.yul\":25592:25709   */\n      iszero\n      tag_506\n      jumpi\n        /* \"#utility.yul\":25628:25707   */\n      tag_507\n      tag_274\n      jump\t// in\n    tag_507:\n        /* \"#utility.yul\":25592:25709   */\n    tag_506:\n        /* \"#utility.yul\":25748:25807   */\n      tag_508\n        /* \"#utility.yul\":25803:25806   */\n      dup5\n        /* \"#utility.yul\":25794:25800   */\n      dup3\n        /* \"#utility.yul\":25783:25792   */\n      dup6\n        /* \"#utility.yul\":25779:25801   */\n      add\n        /* \"#utility.yul\":25748:25807   */\n      tag_272\n      jump\t// in\n    tag_508:\n        /* \"#utility.yul\":25741:25745   */\n      0x60\n        /* \"#utility.yul\":25734:25739   */\n      dup4\n        /* \"#utility.yul\":25730:25746   */\n      add\n        /* \"#utility.yul\":25723:25808   */\n      mstore\n        /* \"#utility.yul\":25483:25819   */\n      pop\n        /* \"#utility.yul\":25913:25916   */\n      0x80\n        /* \"#utility.yul\":25902:25911   */\n      dup3\n        /* \"#utility.yul\":25898:25917   */\n      add\n        /* \"#utility.yul\":25885:25918   */\n      calldataload\n        /* \"#utility.yul\":25945:25963   */\n      0xffffffffffffffff\n        /* \"#utility.yul\":25937:25943   */\n      dup2\n        /* \"#utility.yul\":25934:25964   */\n      gt\n        /* \"#utility.yul\":25931:26048   */\n      iszero\n      tag_509\n      jumpi\n        /* \"#utility.yul\":25967:26046   */\n      tag_510\n      tag_274\n      jump\t// in\n    tag_510:\n        /* \"#utility.yul\":25931:26048   */\n    tag_509:\n        /* \"#utility.yul\":26087:26146   */\n      tag_511\n        /* \"#utility.yul\":26142:26145   */\n      dup5\n        /* \"#utility.yul\":26133:26139   */\n      dup3\n        /* \"#utility.yul\":26122:26131   */\n      dup6\n        /* \"#utility.yul\":26118:26140   */\n      add\n        /* \"#utility.yul\":26087:26146   */\n      tag_272\n      jump\t// in\n    tag_511:\n        /* \"#utility.yul\":26080:26084   */\n      0x80\n        /* \"#utility.yul\":26073:26078   */\n      dup4\n        /* \"#utility.yul\":26069:26085   */\n      add\n        /* \"#utility.yul\":26062:26147   */\n      mstore\n        /* \"#utility.yul\":25829:26158   */\n      pop\n        /* \"#utility.yul\":26252:26255   */\n      0xa0\n        /* \"#utility.yul\":26241:26250   */\n      dup3\n        /* \"#utility.yul\":26237:26256   */\n      add\n        /* \"#utility.yul\":26224:26257   */\n      calldataload\n        /* \"#utility.yul\":26284:26302   */\n      0xffffffffffffffff\n        /* \"#utility.yul\":26276:26282   */\n      dup2\n        /* \"#utility.yul\":26273:26303   */\n      gt\n        /* \"#utility.yul\":26270:26387   */\n      iszero\n      tag_512\n      jumpi\n        /* \"#utility.yul\":26306:26385   */\n      tag_513\n      tag_274\n      jump\t// in\n    tag_513:\n        /* \"#utility.yul\":26270:26387   */\n    tag_512:\n        /* \"#utility.yul\":26426:26485   */\n      tag_514\n        /* \"#utility.yul\":26481:26484   */\n      dup5\n        /* \"#utility.yul\":26472:26478   */\n      dup3\n        /* \"#utility.yul\":26461:26470   */\n      dup6\n        /* \"#utility.yul\":26457:26479   */\n      add\n        /* \"#utility.yul\":26426:26485   */\n      tag_272\n      jump\t// in\n    tag_514:\n        /* \"#utility.yul\":26419:26423   */\n      0xa0\n        /* \"#utility.yul\":26412:26417   */\n      dup4\n        /* \"#utility.yul\":26408:26424   */\n      add\n        /* \"#utility.yul\":26401:26486   */\n      mstore\n        /* \"#utility.yul\":26168:26497   */\n      pop\n        /* \"#utility.yul\":26591:26594   */\n      0xc0\n        /* \"#utility.yul\":26580:26589   */\n      dup3\n        /* \"#utility.yul\":26576:26595   */\n      add\n        /* \"#utility.yul\":26563:26596   */\n      calldataload\n        /* \"#utility.yul\":26623:26641   */\n      0xffffffffffffffff\n        /* \"#utility.yul\":26615:26621   */\n      dup2\n        /* \"#utility.yul\":26612:26642   */\n      gt\n        /* \"#utility.yul\":26609:26726   */\n      iszero\n      tag_515\n      jumpi\n        /* \"#utility.yul\":26645:26724   */\n      tag_516\n      tag_274\n      jump\t// in\n    tag_516:\n        /* \"#utility.yul\":26609:26726   */\n    tag_515:\n        /* \"#utility.yul\":26765:26824   */\n      tag_517\n        /* \"#utility.yul\":26820:26823   */\n      dup5\n        /* \"#utility.yul\":26811:26817   */\n      dup3\n        /* \"#utility.yul\":26800:26809   */\n      dup6\n        /* \"#utility.yul\":26796:26818   */\n      add\n        /* \"#utility.yul\":26765:26824   */\n      tag_272\n      jump\t// in\n    tag_517:\n        /* \"#utility.yul\":26758:26762   */\n      0xc0\n        /* \"#utility.yul\":26751:26756   */\n      dup4\n        /* \"#utility.yul\":26747:26763   */\n      add\n        /* \"#utility.yul\":26740:26825   */\n      mstore\n        /* \"#utility.yul\":26507:26836   */\n      pop\n        /* \"#utility.yul\":24555:26843   */\n      swap3\n      swap2\n      pop\n      pop\n      jump\t// out\n        /* \"#utility.yul\":26849:27183   */\n    tag_279:\n        /* \"#utility.yul\":26949:26953   */\n      0x00\n        /* \"#utility.yul\":27039:27057   */\n      0xffffffffffffffff\n        /* \"#utility.yul\":27031:27037   */\n      dup3\n        /* \"#utility.yul\":27028:27058   */\n      gt\n        /* \"#utility.yul\":27025:27081   */\n      iszero\n      tag_519\n      jumpi\n        /* \"#utility.yul\":27061:27079   */\n      tag_520\n      tag_266\n      jump\t// in\n    tag_520:\n        /* \"#utility.yul\":27025:27081   */\n    tag_519:\n        /* \"#utility.yul\":27111:27115   */\n      0x20\n        /* \"#utility.yul\":27103:27109   */\n      dup3\n        /* \"#utility.yul\":27099:27116   */\n      mul\n        /* \"#utility.yul\":27091:27116   */\n      swap1\n      pop\n        /* \"#utility.yul\":27171:27175   */\n      0x20\n        /* \"#utility.yul\":27165:27169   */\n      dup2\n        /* \"#utility.yul\":27161:27176   */\n      add\n        /* \"#utility.yul\":27153:27176   */\n      swap1\n      pop\n        /* \"#utility.yul\":26849:27183   */\n      swap2\n      swap1\n      pop\n      jump\t// out\n        /* \"#utility.yul\":27189:27306   */\n    tag_280:\n        /* \"#utility.yul\":27298:27299   */\n      0x00\n        /* \"#utility.yul\":27295:27296   */\n      0x00\n        /* \"#utility.yul\":27288:27300   */\n      revert\n        /* \"#utility.yul\":27338:29431   */\n    tag_281:\n        /* \"#utility.yul\":27410:27415   */\n      0x00\n        /* \"#utility.yul\":27454:27458   */\n      0xc0\n        /* \"#utility.yul\":27442:27451   */\n      dup3\n        /* \"#utility.yul\":27437:27440   */\n      dup5\n        /* \"#utility.yul\":27433:27452   */\n      sub\n        /* \"#utility.yul\":27429:27459   */\n      slt\n        /* \"#utility.yul\":27426:27543   */\n      iszero\n      tag_523\n      jumpi\n        /* \"#utility.yul\":27462:27541   */\n      tag_524\n      tag_273\n      jump\t// in\n    tag_524:\n        /* \"#utility.yul\":27426:27543   */\n    tag_523:\n        /* \"#utility.yul\":27561:27582   */\n      tag_525\n        /* \"#utility.yul\":27577:27581   */\n      0xc0\n        /* \"#utility.yul\":27561:27582   */\n      tag_268\n      jump\t// in\n    tag_525:\n        /* \"#utility.yul\":27552:27582   */\n      swap1\n      pop\n        /* \"#utility.yul\":27669:27670   */\n      0x00\n        /* \"#utility.yul\":27658:27667   */\n      dup3\n        /* \"#utility.yul\":27654:27671   */\n      add\n        /* \"#utility.yul\":27641:27672   */\n      calldataload\n        /* \"#utility.yul\":27699:27717   */\n      0xffffffffffffffff\n        /* \"#utility.yul\":27691:27697   */\n      dup2\n        /* \"#utility.yul\":27688:27718   */\n      gt\n        /* \"#utility.yul\":27685:27802   */\n      iszero\n      tag_526\n      jumpi\n        /* \"#utility.yul\":27721:27800   */\n      tag_527\n      tag_274\n      jump\t// in\n    tag_527:\n        /* \"#utility.yul\":27685:27802   */\n    tag_526:\n        /* \"#utility.yul\":27841:27900   */\n      tag_528\n        /* \"#utility.yul\":27896:27899   */\n      dup5\n        /* \"#utility.yul\":27887:27893   */\n      dup3\n        /* \"#utility.yul\":27876:27885   */\n      dup6\n        /* \"#utility.yul\":27872:27894   */\n      add\n        /* \"#utility.yul\":27841:27900   */\n      tag_272\n      jump\t// in\n    tag_528:\n        /* \"#utility.yul\":27834:27838   */\n      0x00\n        /* \"#utility.yul\":27827:27832   */\n      dup4\n        /* \"#utility.yul\":27823:27839   */\n      add\n        /* \"#utility.yul\":27816:27901   */\n      mstore\n        /* \"#utility.yul\":27592:27912   */\n      pop\n        /* \"#utility.yul\":28004:28006   */\n      0x20\n        /* \"#utility.yul\":27993:28002   */\n      dup3\n        /* \"#utility.yul\":27989:28007   */\n      add\n        /* \"#utility.yul\":27976:28008   */\n      calldataload\n        /* \"#utility.yul\":28035:28053   */\n      0xffffffffffffffff\n        /* \"#utility.yul\":28027:28033   */\n      dup2\n        /* \"#utility.yul\":28024:28054   */\n      gt\n        /* \"#utility.yul\":28021:28138   */\n      iszero\n      tag_529\n      jumpi\n        /* \"#utility.yul\":28057:28136   */\n      tag_530\n      tag_274\n      jump\t// in\n    tag_530:\n        /* \"#utility.yul\":28021:28138   */\n    tag_529:\n        /* \"#utility.yul\":28177:28236   */\n      tag_531\n        /* \"#utility.yul\":28232:28235   */\n      dup5\n        /* \"#utility.yul\":28223:28229   */\n      dup3\n        /* \"#utility.yul\":28212:28221   */\n      dup6\n        /* \"#utility.yul\":28208:28230   */\n      add\n        /* \"#utility.yul\":28177:28236   */\n      tag_272\n      jump\t// in\n    tag_531:\n        /* \"#utility.yul\":28170:28174   */\n      0x20\n        /* \"#utility.yul\":28163:28168   */\n      dup4\n        /* \"#utility.yul\":28159:28175   */\n      add\n        /* \"#utility.yul\":28152:28237   */\n      mstore\n        /* \"#utility.yul\":27922:28248   */\n      pop\n        /* \"#utility.yul\":28335:28337   */\n      0x40\n        /* \"#utility.yul\":28324:28333   */\n      dup3\n        /* \"#utility.yul\":28320:28338   */\n      add\n        /* \"#utility.yul\":28307:28339   */\n      calldataload\n        /* \"#utility.yul\":28366:28384   */\n      0xffffffffffffffff\n        /* \"#utility.yul\":28358:28364   */\n      dup2\n        /* \"#utility.yul\":28355:28385   */\n      gt\n        /* \"#utility.yul\":28352:28469   */\n      iszero\n      tag_532\n      jumpi\n        /* \"#utility.yul\":28388:28467   */\n      tag_533\n      tag_274\n      jump\t// in\n    tag_533:\n        /* \"#utility.yul\":28352:28469   */\n    tag_532:\n        /* \"#utility.yul\":28508:28567   */\n      tag_534\n        /* \"#utility.yul\":28563:28566   */\n      dup5\n        /* \"#utility.yul\":28554:28560   */\n      dup3\n        /* \"#utility.yul\":28543:28552   */\n      dup6\n        /* \"#utility.yul\":28539:28561   */\n      add\n        /* \"#utility.yul\":28508:28567   */\n      tag_272\n      jump\t// in\n    tag_534:\n        /* \"#utility.yul\":28501:28505   */\n      0x40\n        /* \"#utility.yul\":28494:28499   */\n      dup4\n        /* \"#utility.yul\":28490:28506   */\n      add\n        /* \"#utility.yul\":28483:28568   */\n      mstore\n        /* \"#utility.yul\":28258:28579   */\n      pop\n        /* \"#utility.yul\":28637:28639   */\n      0x60\n        /* \"#utility.yul\":28678:28727   */\n      tag_535\n        /* \"#utility.yul\":28723:28726   */\n      dup5\n        /* \"#utility.yul\":28714:28720   */\n      dup3\n        /* \"#utility.yul\":28703:28712   */\n      dup6\n        /* \"#utility.yul\":28699:28721   */\n      add\n        /* \"#utility.yul\":28678:28727   */\n      tag_240\n      jump\t// in\n    tag_535:\n        /* \"#utility.yul\":28671:28675   */\n      0x60\n        /* \"#utility.yul\":28664:28669   */\n      dup4\n        /* \"#utility.yul\":28660:28676   */\n      add\n        /* \"#utility.yul\":28653:28728   */\n      mstore\n        /* \"#utility.yul\":28589:28739   */\n      pop\n        /* \"#utility.yul\":28828:28831   */\n      0x80\n        /* \"#utility.yul\":28817:28826   */\n      dup3\n        /* \"#utility.yul\":28813:28832   */\n      add\n        /* \"#utility.yul\":28800:28833   */\n      calldataload\n        /* \"#utility.yul\":28860:28878   */\n      0xffffffffffffffff\n        /* \"#utility.yul\":28852:28858   */\n      dup2\n        /* \"#utility.yul\":28849:28879   */\n      gt\n        /* \"#utility.yul\":28846:28963   */\n      iszero\n      tag_536\n      jumpi\n        /* \"#utility.yul\":28882:28961   */\n      tag_537\n      tag_274\n      jump\t// in\n    tag_537:\n        /* \"#utility.yul\":28846:28963   */\n    tag_536:\n        /* \"#utility.yul\":29002:29061   */\n      tag_538\n        /* \"#utility.yul\":29057:29060   */\n      dup5\n        /* \"#utility.yul\":29048:29054   */\n      dup3\n        /* \"#utility.yul\":29037:29046   */\n      dup6\n        /* \"#utility.yul\":29033:29055   */\n      add\n        /* \"#utility.yul\":29002:29061   */\n      tag_272\n      jump\t// in\n    tag_538:\n        /* \"#utility.yul\":28995:28999   */\n      0x80\n        /* \"#utility.yul\":28988:28993   */\n      dup4\n        /* \"#utility.yul\":28984:29000   */\n      add\n        /* \"#utility.yul\":28977:29062   */\n      mstore\n        /* \"#utility.yul\":28749:29073   */\n      pop\n        /* \"#utility.yul\":29179:29182   */\n      0xa0\n        /* \"#utility.yul\":29168:29177   */\n      dup3\n        /* \"#utility.yul\":29164:29183   */\n      add\n        /* \"#utility.yul\":29151:29184   */\n      calldataload\n        /* \"#utility.yul\":29211:29229   */\n      0xffffffffffffffff\n        /* \"#utility.yul\":29203:29209   */\n      dup2\n        /* \"#utility.yul\":29200:29230   */\n      gt\n        /* \"#utility.yul\":29197:29314   */\n      iszero\n      tag_539\n      jumpi\n        /* \"#utility.yul\":29233:29312   */\n      tag_540\n      tag_274\n      jump\t// in\n    tag_540:\n        /* \"#utility.yul\":29197:29314   */\n    tag_539:\n        /* \"#utility.yul\":29353:29412   */\n      tag_541\n        /* \"#utility.yul\":29408:29411   */\n      dup5\n        /* \"#utility.yul\":29399:29405   */\n      dup3\n        /* \"#utility.yul\":29388:29397   */\n      dup6\n        /* \"#utility.yul\":29384:29406   */\n      add\n        /* \"#utility.yul\":29353:29412   */\n      tag_272\n      jump\t// in\n    tag_541:\n        /* \"#utility.yul\":29346:29350   */\n      0xa0\n        /* \"#utility.yul\":29339:29344   */\n      dup4\n        /* \"#utility.yul\":29335:29351   */\n      add\n        /* \"#utility.yul\":29328:29413   */\n      mstore\n        /* \"#utility.yul\":29083:29424   */\n      pop\n        /* \"#utility.yul\":27338:29431   */\n      swap3\n      swap2\n      pop\n      pop\n      jump\t// out\n        /* \"#utility.yul\":29465:30449   */\n    tag_282:\n        /* \"#utility.yul\":29584:29589   */\n      0x00\n        /* \"#utility.yul\":29609:29713   */\n      tag_543\n        /* \"#utility.yul\":29625:29712   */\n      tag_544\n        /* \"#utility.yul\":29705:29711   */\n      dup5\n        /* \"#utility.yul\":29625:29712   */\n      tag_279\n      jump\t// in\n    tag_544:\n        /* \"#utility.yul\":29609:29713   */\n      tag_268\n      jump\t// in\n    tag_543:\n        /* \"#utility.yul\":29600:29713   */\n      swap1\n      pop\n        /* \"#utility.yul\":29733:29738   */\n      dup1\n        /* \"#utility.yul\":29762:29768   */\n      dup4\n        /* \"#utility.yul\":29755:29760   */\n      dup3\n        /* \"#utility.yul\":29748:29769   */\n      mstore\n        /* \"#utility.yul\":29796:29800   */\n      0x20\n        /* \"#utility.yul\":29789:29794   */\n      dup3\n        /* \"#utility.yul\":29785:29801   */\n      add\n        /* \"#utility.yul\":29778:29801   */\n      swap1\n      pop\n        /* \"#utility.yul\":29849:29853   */\n      0x20\n        /* \"#utility.yul\":29841:29847   */\n      dup5\n        /* \"#utility.yul\":29837:29854   */\n      mul\n        /* \"#utility.yul\":29829:29835   */\n      dup4\n        /* \"#utility.yul\":29825:29855   */\n      add\n        /* \"#utility.yul\":29878:29881   */\n      dup6\n        /* \"#utility.yul\":29870:29876   */\n      dup2\n        /* \"#utility.yul\":29867:29882   */\n      gt\n        /* \"#utility.yul\":29864:29986   */\n      iszero\n      tag_545\n      jumpi\n        /* \"#utility.yul\":29897:29976   */\n      tag_546\n      tag_280\n      jump\t// in\n    tag_546:\n        /* \"#utility.yul\":29864:29986   */\n    tag_545:\n        /* \"#utility.yul\":30012:30018   */\n      dup4\n        /* \"#utility.yul\":29995:30443   */\n    tag_547:\n        /* \"#utility.yul\":30029:30035   */\n      dup2\n        /* \"#utility.yul\":30024:30027   */\n      dup2\n        /* \"#utility.yul\":30021:30036   */\n      lt\n        /* \"#utility.yul\":29995:30443   */\n      iszero\n      tag_549\n      jumpi\n        /* \"#utility.yul\":30118:30121   */\n      dup1\n        /* \"#utility.yul\":30105:30122   */\n      calldataload\n        /* \"#utility.yul\":30154:30172   */\n      0xffffffffffffffff\n        /* \"#utility.yul\":30141:30152   */\n      dup2\n        /* \"#utility.yul\":30138:30173   */\n      gt\n        /* \"#utility.yul\":30135:30257   */\n      iszero\n      tag_550\n      jumpi\n        /* \"#utility.yul\":30176:30255   */\n      tag_551\n      tag_264\n      jump\t// in\n    tag_551:\n        /* \"#utility.yul\":30135:30257   */\n    tag_550:\n        /* \"#utility.yul\":30300:30311   */\n      dup1\n        /* \"#utility.yul\":30292:30298   */\n      dup7\n        /* \"#utility.yul\":30288:30312   */\n      add\n        /* \"#utility.yul\":30338:30398   */\n      tag_552\n        /* \"#utility.yul\":30394:30397   */\n      dup10\n        /* \"#utility.yul\":30382:30392   */\n      dup3\n        /* \"#utility.yul\":30338:30398   */\n      tag_281\n      jump\t// in\n    tag_552:\n        /* \"#utility.yul\":30333:30336   */\n      dup6\n        /* \"#utility.yul\":30326:30399   */\n      mstore\n        /* \"#utility.yul\":30428:30432   */\n      0x20\n        /* \"#utility.yul\":30423:30426   */\n      dup6\n        /* \"#utility.yul\":30419:30433   */\n      add\n        /* \"#utility.yul\":30412:30433   */\n      swap5\n      pop\n        /* \"#utility.yul\":30071:30443   */\n      pop\n      pop\n        /* \"#utility.yul\":30055:30059   */\n      0x20\n        /* \"#utility.yul\":30050:30053   */\n      dup2\n        /* \"#utility.yul\":30046:30060   */\n      add\n        /* \"#utility.yul\":30039:30060   */\n      swap1\n      pop\n        /* \"#utility.yul\":29995:30443   */\n      jump(tag_547)\n    tag_549:\n        /* \"#utility.yul\":29999:30020   */\n      pop\n        /* \"#utility.yul\":29590:30449   */\n      pop\n      pop\n        /* \"#utility.yul\":29465:30449   */\n      swap4\n      swap3\n      pop\n      pop\n      pop\n      jump\t// out\n        /* \"#utility.yul\":30483:30899   */\n    tag_283:\n        /* \"#utility.yul\":30577:30582   */\n      0x00\n        /* \"#utility.yul\":30626:30629   */\n      dup3\n        /* \"#utility.yul\":30619:30623   */\n      0x1f\n        /* \"#utility.yul\":30611:30617   */\n      dup4\n        /* \"#utility.yul\":30607:30624   */\n      add\n        /* \"#utility.yul\":30603:30630   */\n      slt\n        /* \"#utility.yul\":30593:30715   */\n      tag_554\n      jumpi\n        /* \"#utility.yul\":30634:30713   */\n      tag_555\n      tag_264\n      jump\t// in\n    tag_555:\n        /* \"#utility.yul\":30593:30715   */\n    tag_554:\n        /* \"#utility.yul\":30751:30757   */\n      dup2\n        /* \"#utility.yul\":30738:30758   */\n      calldataload\n        /* \"#utility.yul\":30776:30893   */\n      tag_556\n        /* \"#utility.yul\":30889:30892   */\n      dup5\n        /* \"#utility.yul\":30881:30887   */\n      dup3\n        /* \"#utility.yul\":30874:30878   */\n      0x20\n        /* \"#utility.yul\":30866:30872   */\n      dup7\n        /* \"#utility.yul\":30862:30879   */\n      add\n        /* \"#utility.yul\":30776:30893   */\n      tag_282\n      jump\t// in\n    tag_556:\n        /* \"#utility.yul\":30767:30893   */\n      swap2\n      pop\n        /* \"#utility.yul\":30583:30899   */\n      pop\n        /* \"#utility.yul\":30483:30899   */\n      swap3\n      swap2\n      pop\n      pop\n      jump\t// out\n        /* \"#utility.yul\":30905:31239   */\n    tag_284:\n        /* \"#utility.yul\":31005:31009   */\n      0x00\n        /* \"#utility.yul\":31095:31113   */\n      0xffffffffffffffff\n        /* \"#utility.yul\":31087:31093   */\n      dup3\n        /* \"#utility.yul\":31084:31114   */\n      gt\n        /* \"#utility.yul\":31081:31137   */\n      iszero\n      tag_558\n      jumpi\n        /* \"#utility.yul\":31117:31135   */\n      tag_559\n      tag_266\n      jump\t// in\n    tag_559:\n        /* \"#utility.yul\":31081:31137   */\n    tag_558:\n        /* \"#utility.yul\":31167:31171   */\n      0x20\n        /* \"#utility.yul\":31159:31165   */\n      dup3\n        /* \"#utility.yul\":31155:31172   */\n      mul\n        /* \"#utility.yul\":31147:31172   */\n      swap1\n      pop\n        /* \"#utility.yul\":31227:31231   */\n      0x20\n        /* \"#utility.yul\":31221:31225   */\n      dup2\n        /* \"#utility.yul\":31217:31232   */\n      add\n        /* \"#utility.yul\":31209:31232   */\n      swap1\n      pop\n        /* \"#utility.yul\":30905:31239   */\n      swap2\n      swap1\n      pop\n      jump\t// out\n        /* \"#utility.yul\":31271:32521   */\n    tag_285:\n        /* \"#utility.yul\":31343:31348   */\n      0x00\n        /* \"#utility.yul\":31387:31391   */\n      0x60\n        /* \"#utility.yul\":31375:31384   */\n      dup3\n        /* \"#utility.yul\":31370:31373   */\n      dup5\n        /* \"#utility.yul\":31366:31385   */\n      sub\n        /* \"#utility.yul\":31362:31392   */\n      slt\n        /* \"#utility.yul\":31359:31476   */\n      iszero\n      tag_561\n      jumpi\n        /* \"#utility.yul\":31395:31474   */\n      tag_562\n      tag_273\n      jump\t// in\n    tag_562:\n        /* \"#utility.yul\":31359:31476   */\n    tag_561:\n        /* \"#utility.yul\":31494:31515   */\n      tag_563\n        /* \"#utility.yul\":31510:31514   */\n      0x60\n        /* \"#utility.yul\":31494:31515   */\n      tag_268\n      jump\t// in\n    tag_563:\n        /* \"#utility.yul\":31485:31515   */\n      swap1\n      pop\n        /* \"#utility.yul\":31602:31603   */\n      0x00\n        /* \"#utility.yul\":31591:31600   */\n      dup3\n        /* \"#utility.yul\":31587:31604   */\n      add\n        /* \"#utility.yul\":31574:31605   */\n      calldataload\n        /* \"#utility.yul\":31632:31650   */\n      0xffffffffffffffff\n        /* \"#utility.yul\":31624:31630   */\n      dup2\n        /* \"#utility.yul\":31621:31651   */\n      gt\n        /* \"#utility.yul\":31618:31735   */\n      iszero\n      tag_564\n      jumpi\n        /* \"#utility.yul\":31654:31733   */\n      tag_565\n      tag_274\n      jump\t// in\n    tag_565:\n        /* \"#utility.yul\":31618:31735   */\n    tag_564:\n        /* \"#utility.yul\":31774:31833   */\n      tag_566\n        /* \"#utility.yul\":31829:31832   */\n      dup5\n        /* \"#utility.yul\":31820:31826   */\n      dup3\n        /* \"#utility.yul\":31809:31818   */\n      dup6\n        /* \"#utility.yul\":31805:31827   */\n      add\n        /* \"#utility.yul\":31774:31833   */\n      tag_272\n      jump\t// in\n    tag_566:\n        /* \"#utility.yul\":31767:31771   */\n      0x00\n        /* \"#utility.yul\":31760:31765   */\n      dup4\n        /* \"#utility.yul\":31756:31772   */\n      add\n        /* \"#utility.yul\":31749:31834   */\n      mstore\n        /* \"#utility.yul\":31525:31845   */\n      pop\n        /* \"#utility.yul\":31932:31934   */\n      0x20\n        /* \"#utility.yul\":31921:31930   */\n      dup3\n        /* \"#utility.yul\":31917:31935   */\n      add\n        /* \"#utility.yul\":31904:31936   */\n      calldataload\n        /* \"#utility.yul\":31963:31981   */\n      0xffffffffffffffff\n        /* \"#utility.yul\":31955:31961   */\n      dup2\n        /* \"#utility.yul\":31952:31982   */\n      gt\n        /* \"#utility.yul\":31949:32066   */\n      iszero\n      tag_567\n      jumpi\n        /* \"#utility.yul\":31985:32064   */\n      tag_568\n      tag_274\n      jump\t// in\n    tag_568:\n        /* \"#utility.yul\":31949:32066   */\n    tag_567:\n        /* \"#utility.yul\":32105:32164   */\n      tag_569\n        /* \"#utility.yul\":32160:32163   */\n      dup5\n        /* \"#utility.yul\":32151:32157   */\n      dup3\n        /* \"#utility.yul\":32140:32149   */\n      dup6\n        /* \"#utility.yul\":32136:32158   */\n      add\n        /* \"#utility.yul\":32105:32164   */\n      tag_272\n      jump\t// in\n    tag_569:\n        /* \"#utility.yul\":32098:32102   */\n      0x20\n        /* \"#utility.yul\":32091:32096   */\n      dup4\n        /* \"#utility.yul\":32087:32103   */\n      add\n        /* \"#utility.yul\":32080:32165   */\n      mstore\n        /* \"#utility.yul\":31855:32176   */\n      pop\n        /* \"#utility.yul\":32270:32272   */\n      0x40\n        /* \"#utility.yul\":32259:32268   */\n      dup3\n        /* \"#utility.yul\":32255:32273   */\n      add\n        /* \"#utility.yul\":32242:32274   */\n      calldataload\n        /* \"#utility.yul\":32301:32319   */\n      0xffffffffffffffff\n        /* \"#utility.yul\":32293:32299   */\n      dup2\n        /* \"#utility.yul\":32290:32320   */\n      gt\n        /* \"#utility.yul\":32287:32404   */\n      iszero\n      tag_570\n      jumpi\n        /* \"#utility.yul\":32323:32402   */\n      tag_571\n      tag_274\n      jump\t// in\n    tag_571:\n        /* \"#utility.yul\":32287:32404   */\n    tag_570:\n        /* \"#utility.yul\":32443:32502   */\n      tag_572\n        /* \"#utility.yul\":32498:32501   */\n      dup5\n        /* \"#utility.yul\":32489:32495   */\n      dup3\n        /* \"#utility.yul\":32478:32487   */\n      dup6\n        /* \"#utility.yul\":32474:32496   */\n      add\n        /* \"#utility.yul\":32443:32502   */\n      tag_272\n      jump\t// in\n    tag_572:\n        /* \"#utility.yul\":32436:32440   */\n      0x40\n        /* \"#utility.yul\":32429:32434   */\n      dup4\n        /* \"#utility.yul\":32425:32441   */\n      add\n        /* \"#utility.yul\":32418:32503   */\n      mstore\n        /* \"#utility.yul\":32186:32514   */\n      pop\n        /* \"#utility.yul\":31271:32521   */\n      swap3\n      swap2\n      pop\n      pop\n      jump\t// out\n        /* \"#utility.yul\":32555:33539   */\n    tag_286:\n        /* \"#utility.yul\":32674:32679   */\n      0x00\n        /* \"#utility.yul\":32699:32803   */\n      tag_574\n        /* \"#utility.yul\":32715:32802   */\n      tag_575\n        /* \"#utility.yul\":32795:32801   */\n      dup5\n        /* \"#utility.yul\":32715:32802   */\n      tag_284\n      jump\t// in\n    tag_575:\n        /* \"#utility.yul\":32699:32803   */\n      tag_268\n      jump\t// in\n    tag_574:\n        /* \"#utility.yul\":32690:32803   */\n      swap1\n      pop\n        /* \"#utility.yul\":32823:32828   */\n      dup1\n        /* \"#utility.yul\":32852:32858   */\n      dup4\n        /* \"#utility.yul\":32845:32850   */\n      dup3\n        /* \"#utility.yul\":32838:32859   */\n      mstore\n        /* \"#utility.yul\":32886:32890   */\n      0x20\n        /* \"#utility.yul\":32879:32884   */\n      dup3\n        /* \"#utility.yul\":32875:32891   */\n      add\n        /* \"#utility.yul\":32868:32891   */\n      swap1\n      pop\n        /* \"#utility.yul\":32939:32943   */\n      0x20\n        /* \"#utility.yul\":32931:32937   */\n      dup5\n        /* \"#utility.yul\":32927:32944   */\n      mul\n        /* \"#utility.yul\":32919:32925   */\n      dup4\n        /* \"#utility.yul\":32915:32945   */\n      add\n        /* \"#utility.yul\":32968:32971   */\n      dup6\n        /* \"#utility.yul\":32960:32966   */\n      dup2\n        /* \"#utility.yul\":32957:32972   */\n      gt\n        /* \"#utility.yul\":32954:33076   */\n      iszero\n      tag_576\n      jumpi\n        /* \"#utility.yul\":32987:33066   */\n      tag_577\n      tag_280\n      jump\t// in\n    tag_577:\n        /* \"#utility.yul\":32954:33076   */\n    tag_576:\n        /* \"#utility.yul\":33102:33108   */\n      dup4\n        /* \"#utility.yul\":33085:33533   */\n    tag_578:\n        /* \"#utility.yul\":33119:33125   */\n      dup2\n        /* \"#utility.yul\":33114:33117   */\n      dup2\n        /* \"#utility.yul\":33111:33126   */\n      lt\n        /* \"#utility.yul\":33085:33533   */\n      iszero\n      tag_580\n      jumpi\n        /* \"#utility.yul\":33208:33211   */\n      dup1\n        /* \"#utility.yul\":33195:33212   */\n      calldataload\n        /* \"#utility.yul\":33244:33262   */\n      0xffffffffffffffff\n        /* \"#utility.yul\":33231:33242   */\n      dup2\n        /* \"#utility.yul\":33228:33263   */\n      gt\n        /* \"#utility.yul\":33225:33347   */\n      iszero\n      tag_581\n      jumpi\n        /* \"#utility.yul\":33266:33345   */\n      tag_582\n      tag_264\n      jump\t// in\n    tag_582:\n        /* \"#utility.yul\":33225:33347   */\n    tag_581:\n        /* \"#utility.yul\":33390:33401   */\n      dup1\n        /* \"#utility.yul\":33382:33388   */\n      dup7\n        /* \"#utility.yul\":33378:33402   */\n      add\n        /* \"#utility.yul\":33428:33488   */\n      tag_583\n        /* \"#utility.yul\":33484:33487   */\n      dup10\n        /* \"#utility.yul\":33472:33482   */\n      dup3\n        /* \"#utility.yul\":33428:33488   */\n      tag_285\n      jump\t// in\n    tag_583:\n        /* \"#utility.yul\":33423:33426   */\n      dup6\n        /* \"#utility.yul\":33416:33489   */\n      mstore\n        /* \"#utility.yul\":33518:33522   */\n      0x20\n        /* \"#utility.yul\":33513:33516   */\n      dup6\n        /* \"#utility.yul\":33509:33523   */\n      add\n        /* \"#utility.yul\":33502:33523   */\n      swap5\n      pop\n        /* \"#utility.yul\":33161:33533   */\n      pop\n      pop\n        /* \"#utility.yul\":33145:33149   */\n      0x20\n        /* \"#utility.yul\":33140:33143   */\n      dup2\n        /* \"#utility.yul\":33136:33150   */\n      add\n        /* \"#utility.yul\":33129:33150   */\n      swap1\n      pop\n        /* \"#utility.yul\":33085:33533   */\n      jump(tag_578)\n    tag_580:\n        /* \"#utility.yul\":33089:33110   */\n      pop\n        /* \"#utility.yul\":32680:33539   */\n      pop\n      pop\n        /* \"#utility.yul\":32555:33539   */\n      swap4\n      swap3\n      pop\n      pop\n      pop\n      jump\t// out\n        /* \"#utility.yul\":33573:33989   */\n    tag_287:\n        /* \"#utility.yul\":33667:33672   */\n      0x00\n        /* \"#utility.yul\":33716:33719   */\n      dup3\n        /* \"#utility.yul\":33709:33713   */\n      0x1f\n        /* \"#utility.yul\":33701:33707   */\n      dup4\n        /* \"#utility.yul\":33697:33714   */\n      add\n        /* \"#utility.yul\":33693:33720   */\n      slt\n        /* \"#utility.yul\":33683:33805   */\n      tag_585\n      jumpi\n        /* \"#utility.yul\":33724:33803   */\n      tag_586\n      tag_264\n      jump\t// in\n    tag_586:\n        /* \"#utility.yul\":33683:33805   */\n    tag_585:\n        /* \"#utility.yul\":33841:33847   */\n      dup2\n        /* \"#utility.yul\":33828:33848   */\n      calldataload\n        /* \"#utility.yul\":33866:33983   */\n      tag_587\n        /* \"#utility.yul\":33979:33982   */\n      dup5\n        /* \"#utility.yul\":33971:33977   */\n      dup3\n        /* \"#utility.yul\":33964:33968   */\n      0x20\n        /* \"#utility.yul\":33956:33962   */\n      dup7\n        /* \"#utility.yul\":33952:33969   */\n      add\n        /* \"#utility.yul\":33866:33983   */\n      tag_286\n      jump\t// in\n    tag_587:\n        /* \"#utility.yul\":33857:33983   */\n      swap2\n      pop\n        /* \"#utility.yul\":33673:33989   */\n      pop\n        /* \"#utility.yul\":33573:33989   */\n      swap3\n      swap2\n      pop\n      pop\n      jump\t// out\n        /* \"#utility.yul\":33995:34316   */\n    tag_288:\n        /* \"#utility.yul\":34082:34086   */\n      0x00\n        /* \"#utility.yul\":34172:34190   */\n      0xffffffffffffffff\n        /* \"#utility.yul\":34164:34170   */\n      dup3\n        /* \"#utility.yul\":34161:34191   */\n      gt\n        /* \"#utility.yul\":34158:34214   */\n      iszero\n      tag_589\n      jumpi\n        /* \"#utility.yul\":34194:34212   */\n      tag_590\n      tag_266\n      jump\t// in\n    tag_590:\n        /* \"#utility.yul\":34158:34214   */\n    tag_589:\n        /* \"#utility.yul\":34244:34248   */\n      0x20\n        /* \"#utility.yul\":34236:34242   */\n      dup3\n        /* \"#utility.yul\":34232:34249   */\n      mul\n        /* \"#utility.yul\":34224:34249   */\n      swap1\n      pop\n        /* \"#utility.yul\":34304:34308   */\n      0x20\n        /* \"#utility.yul\":34298:34302   */\n      dup2\n        /* \"#utility.yul\":34294:34309   */\n      add\n        /* \"#utility.yul\":34286:34309   */\n      swap1\n      pop\n        /* \"#utility.yul\":33995:34316   */\n      swap2\n      swap1\n      pop\n      jump\t// out\n        /* \"#utility.yul\":34338:35283   */\n    tag_289:\n        /* \"#utility.yul\":34444:34449   */\n      0x00\n        /* \"#utility.yul\":34469:34560   */\n      tag_592\n        /* \"#utility.yul\":34485:34559   */\n      tag_593\n        /* \"#utility.yul\":34552:34558   */\n      dup5\n        /* \"#utility.yul\":34485:34559   */\n      tag_288\n      jump\t// in\n    tag_593:\n        /* \"#utility.yul\":34469:34560   */\n      tag_268\n      jump\t// in\n    tag_592:\n        /* \"#utility.yul\":34460:34560   */\n      swap1\n      pop\n        /* \"#utility.yul\":34580:34585   */\n      dup1\n        /* \"#utility.yul\":34609:34615   */\n      dup4\n        /* \"#utility.yul\":34602:34607   */\n      dup3\n        /* \"#utility.yul\":34595:34616   */\n      mstore\n        /* \"#utility.yul\":34643:34647   */\n      0x20\n        /* \"#utility.yul\":34636:34641   */\n      dup3\n        /* \"#utility.yul\":34632:34648   */\n      add\n        /* \"#utility.yul\":34625:34648   */\n      swap1\n      pop\n        /* \"#utility.yul\":34696:34700   */\n      0x20\n        /* \"#utility.yul\":34688:34694   */\n      dup5\n        /* \"#utility.yul\":34684:34701   */\n      mul\n        /* \"#utility.yul\":34676:34682   */\n      dup4\n        /* \"#utility.yul\":34672:34702   */\n      add\n        /* \"#utility.yul\":34725:34728   */\n      dup6\n        /* \"#utility.yul\":34717:34723   */\n      dup2\n        /* \"#utility.yul\":34714:34729   */\n      gt\n        /* \"#utility.yul\":34711:34833   */\n      iszero\n      tag_594\n      jumpi\n        /* \"#utility.yul\":34744:34823   */\n      tag_595\n      tag_280\n      jump\t// in\n    tag_595:\n        /* \"#utility.yul\":34711:34833   */\n    tag_594:\n        /* \"#utility.yul\":34859:34865   */\n      dup4\n        /* \"#utility.yul\":34842:35277   */\n    tag_596:\n        /* \"#utility.yul\":34876:34882   */\n      dup2\n        /* \"#utility.yul\":34871:34874   */\n      dup2\n        /* \"#utility.yul\":34868:34883   */\n      lt\n        /* \"#utility.yul\":34842:35277   */\n      iszero\n      tag_598\n      jumpi\n        /* \"#utility.yul\":34965:34968   */\n      dup1\n        /* \"#utility.yul\":34952:34969   */\n      calldataload\n        /* \"#utility.yul\":35001:35019   */\n      0xffffffffffffffff\n        /* \"#utility.yul\":34988:34999   */\n      dup2\n        /* \"#utility.yul\":34985:35020   */\n      gt\n        /* \"#utility.yul\":34982:35104   */\n      iszero\n      tag_599\n      jumpi\n        /* \"#utility.yul\":35023:35102   */\n      tag_600\n      tag_264\n      jump\t// in\n    tag_600:\n        /* \"#utility.yul\":34982:35104   */\n    tag_599:\n        /* \"#utility.yul\":35147:35158   */\n      dup1\n        /* \"#utility.yul\":35139:35145   */\n      dup7\n        /* \"#utility.yul\":35135:35159   */\n      add\n        /* \"#utility.yul\":35185:35232   */\n      tag_601\n        /* \"#utility.yul\":35228:35231   */\n      dup10\n        /* \"#utility.yul\":35216:35226   */\n      dup3\n        /* \"#utility.yul\":35185:35232   */\n      tag_272\n      jump\t// in\n    tag_601:\n        /* \"#utility.yul\":35180:35183   */\n      dup6\n        /* \"#utility.yul\":35173:35233   */\n      mstore\n        /* \"#utility.yul\":35262:35266   */\n      0x20\n        /* \"#utility.yul\":35257:35260   */\n      dup6\n        /* \"#utility.yul\":35253:35267   */\n      add\n        /* \"#utility.yul\":35246:35267   */\n      swap5\n      pop\n        /* \"#utility.yul\":34918:35277   */\n      pop\n      pop\n        /* \"#utility.yul\":34902:34906   */\n      0x20\n        /* \"#utility.yul\":34897:34900   */\n      dup2\n        /* \"#utility.yul\":34893:34907   */\n      add\n        /* \"#utility.yul\":34886:34907   */\n      swap1\n      pop\n        /* \"#utility.yul\":34842:35277   */\n      jump(tag_596)\n    tag_598:\n        /* \"#utility.yul\":34846:34867   */\n      pop\n        /* \"#utility.yul\":34450:35283   */\n      pop\n      pop\n        /* \"#utility.yul\":34338:35283   */\n      swap4\n      swap3\n      pop\n      pop\n      pop\n      jump\t// out\n        /* \"#utility.yul\":35305:35695   */\n    tag_290:\n        /* \"#utility.yul\":35386:35391   */\n      0x00\n        /* \"#utility.yul\":35435:35438   */\n      dup3\n        /* \"#utility.yul\":35428:35432   */\n      0x1f\n        /* \"#utility.yul\":35420:35426   */\n      dup4\n        /* \"#utility.yul\":35416:35433   */\n      add\n        /* \"#utility.yul\":35412:35439   */\n      slt\n        /* \"#utility.yul\":35402:35524   */\n      tag_603\n      jumpi\n        /* \"#utility.yul\":35443:35522   */\n      tag_604\n      tag_264\n      jump\t// in\n    tag_604:\n        /* \"#utility.yul\":35402:35524   */\n    tag_603:\n        /* \"#utility.yul\":35560:35566   */\n      dup2\n        /* \"#utility.yul\":35547:35567   */\n      calldataload\n        /* \"#utility.yul\":35585:35689   */\n      tag_605\n        /* \"#utility.yul\":35685:35688   */\n      dup5\n        /* \"#utility.yul\":35677:35683   */\n      dup3\n        /* \"#utility.yul\":35670:35674   */\n      0x20\n        /* \"#utility.yul\":35662:35668   */\n      dup7\n        /* \"#utility.yul\":35658:35675   */\n      add\n        /* \"#utility.yul\":35585:35689   */\n      tag_289\n      jump\t// in\n    tag_605:\n        /* \"#utility.yul\":35576:35689   */\n      swap2\n      pop\n        /* \"#utility.yul\":35392:35695   */\n      pop\n        /* \"#utility.yul\":35305:35695   */\n      swap3\n      swap2\n      pop\n      pop\n      jump\t// out\n        /* \"#utility.yul\":35728:37365   */\n    tag_291:\n        /* \"#utility.yul\":35801:35806   */\n      0x00\n        /* \"#utility.yul\":35845:35849   */\n      0x80\n        /* \"#utility.yul\":35833:35842   */\n      dup3\n        /* \"#utility.yul\":35828:35831   */\n      dup5\n        /* \"#utility.yul\":35824:35843   */\n      sub\n        /* \"#utility.yul\":35820:35850   */\n      slt\n        /* \"#utility.yul\":35817:35934   */\n      iszero\n      tag_607\n      jumpi\n        /* \"#utility.yul\":35853:35932   */\n      tag_608\n      tag_273\n      jump\t// in\n    tag_608:\n        /* \"#utility.yul\":35817:35934   */\n    tag_607:\n        /* \"#utility.yul\":35952:35973   */\n      tag_609\n        /* \"#utility.yul\":35968:35972   */\n      0x80\n        /* \"#utility.yul\":35952:35973   */\n      tag_268\n      jump\t// in\n    tag_609:\n        /* \"#utility.yul\":35943:35973   */\n      swap1\n      pop\n        /* \"#utility.yul\":36065:36066   */\n      0x00\n        /* \"#utility.yul\":36054:36063   */\n      dup3\n        /* \"#utility.yul\":36050:36067   */\n      add\n        /* \"#utility.yul\":36037:36068   */\n      calldataload\n        /* \"#utility.yul\":36095:36113   */\n      0xffffffffffffffff\n        /* \"#utility.yul\":36087:36093   */\n      dup2\n        /* \"#utility.yul\":36084:36114   */\n      gt\n        /* \"#utility.yul\":36081:36198   */\n      iszero\n      tag_610\n      jumpi\n        /* \"#utility.yul\":36117:36196   */\n      tag_611\n      tag_274\n      jump\t// in\n    tag_611:\n        /* \"#utility.yul\":36081:36198   */\n    tag_610:\n        /* \"#utility.yul\":36237:36321   */\n      tag_612\n        /* \"#utility.yul\":36317:36320   */\n      dup5\n        /* \"#utility.yul\":36308:36314   */\n      dup3\n        /* \"#utility.yul\":36297:36306   */\n      dup6\n        /* \"#utility.yul\":36293:36315   */\n      add\n        /* \"#utility.yul\":36237:36321   */\n      tag_290\n      jump\t// in\n    tag_612:\n        /* \"#utility.yul\":36230:36234   */\n      0x00\n        /* \"#utility.yul\":36223:36228   */\n      dup4\n        /* \"#utility.yul\":36219:36235   */\n      add\n        /* \"#utility.yul\":36212:36322   */\n      mstore\n        /* \"#utility.yul\":35983:36333   */\n      pop\n        /* \"#utility.yul\":36425:36427   */\n      0x20\n        /* \"#utility.yul\":36414:36423   */\n      dup3\n        /* \"#utility.yul\":36410:36428   */\n      add\n        /* \"#utility.yul\":36397:36429   */\n      calldataload\n        /* \"#utility.yul\":36456:36474   */\n      0xffffffffffffffff\n        /* \"#utility.yul\":36448:36454   */\n      dup2\n        /* \"#utility.yul\":36445:36475   */\n      gt\n        /* \"#utility.yul\":36442:36559   */\n      iszero\n      tag_613\n      jumpi\n        /* \"#utility.yul\":36478:36557   */\n      tag_614\n      tag_274\n      jump\t// in\n    tag_614:\n        /* \"#utility.yul\":36442:36559   */\n    tag_613:\n        /* \"#utility.yul\":36598:36657   */\n      tag_615\n        /* \"#utility.yul\":36653:36656   */\n      dup5\n        /* \"#utility.yul\":36644:36650   */\n      dup3\n        /* \"#utility.yul\":36633:36642   */\n      dup6\n        /* \"#utility.yul\":36629:36651   */\n      add\n        /* \"#utility.yul\":36598:36657   */\n      tag_272\n      jump\t// in\n    tag_615:\n        /* \"#utility.yul\":36591:36595   */\n      0x20\n        /* \"#utility.yul\":36584:36589   */\n      dup4\n        /* \"#utility.yul\":36580:36596   */\n      add\n        /* \"#utility.yul\":36573:36658   */\n      mstore\n        /* \"#utility.yul\":36343:36669   */\n      pop\n        /* \"#utility.yul\":36768:36770   */\n      0x40\n        /* \"#utility.yul\":36757:36766   */\n      dup3\n        /* \"#utility.yul\":36753:36771   */\n      add\n        /* \"#utility.yul\":36740:36772   */\n      calldataload\n        /* \"#utility.yul\":36799:36817   */\n      0xffffffffffffffff\n        /* \"#utility.yul\":36791:36797   */\n      dup2\n        /* \"#utility.yul\":36788:36818   */\n      gt\n        /* \"#utility.yul\":36785:36902   */\n      iszero\n      tag_616\n      jumpi\n        /* \"#utility.yul\":36821:36900   */\n      tag_617\n      tag_274\n      jump\t// in\n    tag_617:\n        /* \"#utility.yul\":36785:36902   */\n    tag_616:\n        /* \"#utility.yul\":36941:37000   */\n      tag_618\n        /* \"#utility.yul\":36996:36999   */\n      dup5\n        /* \"#utility.yul\":36987:36993   */\n      dup3\n        /* \"#utility.yul\":36976:36985   */\n      dup6\n        /* \"#utility.yul\":36972:36994   */\n      add\n        /* \"#utility.yul\":36941:37000   */\n      tag_272\n      jump\t// in\n    tag_618:\n        /* \"#utility.yul\":36934:36938   */\n      0x40\n        /* \"#utility.yul\":36927:36932   */\n      dup4\n        /* \"#utility.yul\":36923:36939   */\n      add\n        /* \"#utility.yul\":36916:37001   */\n      mstore\n        /* \"#utility.yul\":36679:37012   */\n      pop\n        /* \"#utility.yul\":37114:37116   */\n      0x60\n        /* \"#utility.yul\":37103:37112   */\n      dup3\n        /* \"#utility.yul\":37099:37117   */\n      add\n        /* \"#utility.yul\":37086:37118   */\n      calldataload\n        /* \"#utility.yul\":37145:37163   */\n      0xffffffffffffffff\n        /* \"#utility.yul\":37137:37143   */\n      dup2\n        /* \"#utility.yul\":37134:37164   */\n      gt\n        /* \"#utility.yul\":37131:37248   */\n      iszero\n      tag_619\n      jumpi\n        /* \"#utility.yul\":37167:37246   */\n      tag_620\n      tag_274\n      jump\t// in\n    tag_620:\n        /* \"#utility.yul\":37131:37248   */\n    tag_619:\n        /* \"#utility.yul\":37287:37346   */\n      tag_621\n        /* \"#utility.yul\":37342:37345   */\n      dup5\n        /* \"#utility.yul\":37333:37339   */\n      dup3\n        /* \"#utility.yul\":37322:37331   */\n      dup6\n        /* \"#utility.yul\":37318:37340   */\n      add\n        /* \"#utility.yul\":37287:37346   */\n      tag_272\n      jump\t// in\n    tag_621:\n        /* \"#utility.yul\":37280:37284   */\n      0x60\n        /* \"#utility.yul\":37273:37278   */\n      dup4\n        /* \"#utility.yul\":37269:37285   */\n      add\n        /* \"#utility.yul\":37262:37347   */\n      mstore\n        /* \"#utility.yul\":37022:37358   */\n      pop\n        /* \"#utility.yul\":35728:37365   */\n      swap3\n      swap2\n      pop\n      pop\n      jump\t// out\n        /* \"#utility.yul\":37371:37487   */\n    tag_292:\n        /* \"#utility.yul\":37441:37462   */\n      tag_623\n        /* \"#utility.yul\":37456:37461   */\n      dup2\n        /* \"#utility.yul\":37441:37462   */\n      tag_261\n      jump\t// in\n    tag_623:\n        /* \"#utility.yul\":37434:37439   */\n      dup2\n        /* \"#utility.yul\":37431:37463   */\n      eq\n        /* \"#utility.yul\":37421:37481   */\n      tag_624\n      jumpi\n        /* \"#utility.yul\":37477:37478   */\n      0x00\n        /* \"#utility.yul\":37474:37475   */\n      0x00\n        /* \"#utility.yul\":37467:37479   */\n      revert\n        /* \"#utility.yul\":37421:37481   */\n    tag_624:\n        /* \"#utility.yul\":37371:37487   */\n      pop\n      jump\t// out\n        /* \"#utility.yul\":37493:37626   */\n    tag_293:\n        /* \"#utility.yul\":37536:37541   */\n      0x00\n        /* \"#utility.yul\":37574:37580   */\n      dup2\n        /* \"#utility.yul\":37561:37581   */\n      calldataload\n        /* \"#utility.yul\":37552:37581   */\n      swap1\n      pop\n        /* \"#utility.yul\":37590:37620   */\n      tag_626\n        /* \"#utility.yul\":37614:37619   */\n      dup2\n        /* \"#utility.yul\":37590:37620   */\n      tag_292\n      jump\t// in\n    tag_626:\n        /* \"#utility.yul\":37493:37626   */\n      swap3\n      swap2\n      pop\n      pop\n      jump\t// out\n        /* \"#utility.yul\":37664:39427   */\n    tag_294:\n        /* \"#utility.yul\":37742:37747   */\n      0x00\n        /* \"#utility.yul\":37786:37790   */\n      0xa0\n        /* \"#utility.yul\":37774:37783   */\n      dup3\n        /* \"#utility.yul\":37769:37772   */\n      dup5\n        /* \"#utility.yul\":37765:37784   */\n      sub\n        /* \"#utility.yul\":37761:37791   */\n      slt\n        /* \"#utility.yul\":37758:37875   */\n      iszero\n      tag_628\n      jumpi\n        /* \"#utility.yul\":37794:37873   */\n      tag_629\n      tag_273\n      jump\t// in\n    tag_629:\n        /* \"#utility.yul\":37758:37875   */\n    tag_628:\n        /* \"#utility.yul\":37893:37914   */\n      tag_630\n        /* \"#utility.yul\":37909:37913   */\n      0xa0\n        /* \"#utility.yul\":37893:37914   */\n      tag_268\n      jump\t// in\n    tag_630:\n        /* \"#utility.yul\":37884:37914   */\n      swap1\n      pop\n        /* \"#utility.yul\":37976:37977   */\n      0x00\n        /* \"#utility.yul\":38016:38062   */\n      tag_631\n        /* \"#utility.yul\":38058:38061   */\n      dup5\n        /* \"#utility.yul\":38049:38055   */\n      dup3\n        /* \"#utility.yul\":38038:38047   */\n      dup6\n        /* \"#utility.yul\":38034:38056   */\n      add\n        /* \"#utility.yul\":38016:38062   */\n      tag_293\n      jump\t// in\n    tag_631:\n        /* \"#utility.yul\":38009:38013   */\n      0x00\n        /* \"#utility.yul\":38002:38007   */\n      dup4\n        /* \"#utility.yul\":37998:38014   */\n      add\n        /* \"#utility.yul\":37991:38063   */\n      mstore\n        /* \"#utility.yul\":37924:38074   */\n      pop\n        /* \"#utility.yul\":38163:38165   */\n      0x20\n        /* \"#utility.yul\":38152:38161   */\n      dup3\n        /* \"#utility.yul\":38148:38166   */\n      add\n        /* \"#utility.yul\":38135:38167   */\n      calldataload\n        /* \"#utility.yul\":38194:38212   */\n      0xffffffffffffffff\n        /* \"#utility.yul\":38186:38192   */\n      dup2\n        /* \"#utility.yul\":38183:38213   */\n      gt\n        /* \"#utility.yul\":38180:38297   */\n      iszero\n      tag_632\n      jumpi\n        /* \"#utility.yul\":38216:38295   */\n      tag_633\n      tag_274\n      jump\t// in\n    tag_633:\n        /* \"#utility.yul\":38180:38297   */\n    tag_632:\n        /* \"#utility.yul\":38336:38395   */\n      tag_634\n        /* \"#utility.yul\":38391:38394   */\n      dup5\n        /* \"#utility.yul\":38382:38388   */\n      dup3\n        /* \"#utility.yul\":38371:38380   */\n      dup6\n        /* \"#utility.yul\":38367:38389   */\n      add\n        /* \"#utility.yul\":38336:38395   */\n      tag_272\n      jump\t// in\n    tag_634:\n        /* \"#utility.yul\":38329:38333   */\n      0x20\n        /* \"#utility.yul\":38322:38327   */\n      dup4\n        /* \"#utility.yul\":38318:38334   */\n      add\n        /* \"#utility.yul\":38311:38396   */\n      mstore\n        /* \"#utility.yul\":38084:38407   */\n      pop\n        /* \"#utility.yul\":38496:38498   */\n      0x40\n        /* \"#utility.yul\":38485:38494   */\n      dup3\n        /* \"#utility.yul\":38481:38499   */\n      add\n        /* \"#utility.yul\":38468:38500   */\n      calldataload\n        /* \"#utility.yul\":38527:38545   */\n      0xffffffffffffffff\n        /* \"#utility.yul\":38519:38525   */\n      dup2\n        /* \"#utility.yul\":38516:38546   */\n      gt\n        /* \"#utility.yul\":38513:38630   */\n      iszero\n      tag_635\n      jumpi\n        /* \"#utility.yul\":38549:38628   */\n      tag_636\n      tag_274\n      jump\t// in\n    tag_636:\n        /* \"#utility.yul\":38513:38630   */\n    tag_635:\n        /* \"#utility.yul\":38669:38728   */\n      tag_637\n        /* \"#utility.yul\":38724:38727   */\n      dup5\n        /* \"#utility.yul\":38715:38721   */\n      dup3\n        /* \"#utility.yul\":38704:38713   */\n      dup6\n        /* \"#utility.yul\":38700:38722   */\n      add\n        /* \"#utility.yul\":38669:38728   */\n      tag_272\n      jump\t// in\n    tag_637:\n        /* \"#utility.yul\":38662:38666   */\n      0x40\n        /* \"#utility.yul\":38655:38660   */\n      dup4\n        /* \"#utility.yul\":38651:38667   */\n      add\n        /* \"#utility.yul\":38644:38729   */\n      mstore\n        /* \"#utility.yul\":38417:38740   */\n      pop\n        /* \"#utility.yul\":38836:38838   */\n      0x60\n        /* \"#utility.yul\":38825:38834   */\n      dup3\n        /* \"#utility.yul\":38821:38839   */\n      add\n        /* \"#utility.yul\":38808:38840   */\n      calldataload\n        /* \"#utility.yul\":38867:38885   */\n      0xffffffffffffffff\n        /* \"#utility.yul\":38859:38865   */\n      dup2\n        /* \"#utility.yul\":38856:38886   */\n      gt\n        /* \"#utility.yul\":38853:38970   */\n      iszero\n      tag_638\n      jumpi\n        /* \"#utility.yul\":38889:38968   */\n      tag_639\n      tag_274\n      jump\t// in\n    tag_639:\n        /* \"#utility.yul\":38853:38970   */\n    tag_638:\n        /* \"#utility.yul\":39009:39068   */\n      tag_640\n        /* \"#utility.yul\":39064:39067   */\n      dup5\n        /* \"#utility.yul\":39055:39061   */\n      dup3\n        /* \"#utility.yul\":39044:39053   */\n      dup6\n        /* \"#utility.yul\":39040:39062   */\n      add\n        /* \"#utility.yul\":39009:39068   */\n      tag_272\n      jump\t// in\n    tag_640:\n        /* \"#utility.yul\":39002:39006   */\n      0x60\n        /* \"#utility.yul\":38995:39000   */\n      dup4\n        /* \"#utility.yul\":38991:39007   */\n      add\n        /* \"#utility.yul\":38984:39069   */\n      mstore\n        /* \"#utility.yul\":38750:39080   */\n      pop\n        /* \"#utility.yul\":39175:39178   */\n      0x80\n        /* \"#utility.yul\":39164:39173   */\n      dup3\n        /* \"#utility.yul\":39160:39179   */\n      add\n        /* \"#utility.yul\":39147:39180   */\n      calldataload\n        /* \"#utility.yul\":39207:39225   */\n      0xffffffffffffffff\n        /* \"#utility.yul\":39199:39205   */\n      dup2\n        /* \"#utility.yul\":39196:39226   */\n      gt\n        /* \"#utility.yul\":39193:39310   */\n      iszero\n      tag_641\n      jumpi\n        /* \"#utility.yul\":39229:39308   */\n      tag_642\n      tag_274\n      jump\t// in\n    tag_642:\n        /* \"#utility.yul\":39193:39310   */\n    tag_641:\n        /* \"#utility.yul\":39349:39408   */\n      tag_643\n        /* \"#utility.yul\":39404:39407   */\n      dup5\n        /* \"#utility.yul\":39395:39401   */\n      dup3\n        /* \"#utility.yul\":39384:39393   */\n      dup6\n        /* \"#utility.yul\":39380:39402   */\n      add\n        /* \"#utility.yul\":39349:39408   */\n      tag_272\n      jump\t// in\n    tag_643:\n        /* \"#utility.yul\":39342:39346   */\n      0x80\n        /* \"#utility.yul\":39335:39340   */\n      dup4\n        /* \"#utility.yul\":39331:39347   */\n      add\n        /* \"#utility.yul\":39324:39409   */\n      mstore\n        /* \"#utility.yul\":39090:39420   */\n      pop\n        /* \"#utility.yul\":37664:39427   */\n      swap3\n      swap2\n      pop\n      pop\n      jump\t// out\n        /* \"#utility.yul\":39433:42540   */\n    tag_18:\n        /* \"#utility.yul\":39794:39800   */\n      0x00\n        /* \"#utility.yul\":39802:39808   */\n      0x00\n        /* \"#utility.yul\":39810:39816   */\n      0x00\n        /* \"#utility.yul\":39818:39824   */\n      0x00\n        /* \"#utility.yul\":39826:39832   */\n      0x00\n        /* \"#utility.yul\":39834:39840   */\n      0x00\n        /* \"#utility.yul\":39842:39848   */\n      0x00\n        /* \"#utility.yul\":39850:39856   */\n      0x00\n        /* \"#utility.yul\":39899:39902   */\n      0x0100\n        /* \"#utility.yul\":39887:39896   */\n      dup10\n        /* \"#utility.yul\":39878:39885   */\n      dup12\n        /* \"#utility.yul\":39874:39897   */\n      sub\n        /* \"#utility.yul\":39870:39903   */\n      slt\n        /* \"#utility.yul\":39867:39987   */\n      iszero\n      tag_645\n      jumpi\n        /* \"#utility.yul\":39906:39985   */\n      tag_646\n      tag_236\n      jump\t// in\n    tag_646:\n        /* \"#utility.yul\":39867:39987   */\n    tag_645:\n        /* \"#utility.yul\":40054:40055   */\n      0x00\n        /* \"#utility.yul\":40043:40052   */\n      dup10\n        /* \"#utility.yul\":40039:40056   */\n      add\n        /* \"#utility.yul\":40026:40057   */\n      calldataload\n        /* \"#utility.yul\":40084:40102   */\n      0xffffffffffffffff\n        /* \"#utility.yul\":40076:40082   */\n      dup2\n        /* \"#utility.yul\":40073:40103   */\n      gt\n        /* \"#utility.yul\":40070:40187   */\n      iszero\n      tag_647\n      jumpi\n        /* \"#utility.yul\":40106:40185   */\n      tag_648\n      tag_237\n      jump\t// in\n    tag_648:\n        /* \"#utility.yul\":40070:40187   */\n    tag_647:\n        /* \"#utility.yul\":40211:40274   */\n      tag_649\n        /* \"#utility.yul\":40266:40273   */\n      dup12\n        /* \"#utility.yul\":40257:40263   */\n      dup3\n        /* \"#utility.yul\":40246:40255   */\n      dup13\n        /* \"#utility.yul\":40242:40264   */\n      add\n        /* \"#utility.yul\":40211:40274   */\n      tag_272\n      jump\t// in\n    tag_649:\n        /* \"#utility.yul\":40201:40274   */\n      swap9\n      pop\n        /* \"#utility.yul\":39997:40284   */\n      pop\n        /* \"#utility.yul\":40351:40353   */\n      0x20\n        /* \"#utility.yul\":40340:40349   */\n      dup10\n        /* \"#utility.yul\":40336:40354   */\n      add\n        /* \"#utility.yul\":40323:40355   */\n      calldataload\n        /* \"#utility.yul\":40382:40400   */\n      0xffffffffffffffff\n        /* \"#utility.yul\":40374:40380   */\n      dup2\n        /* \"#utility.yul\":40371:40401   */\n      gt\n        /* \"#utility.yul\":40368:40485   */\n      iszero\n      tag_650\n      jumpi\n        /* \"#utility.yul\":40404:40483   */\n      tag_651\n      tag_237\n      jump\t// in\n    tag_651:\n        /* \"#utility.yul\":40368:40485   */\n    tag_650:\n        /* \"#utility.yul\":40509:40591   */\n      tag_652\n        /* \"#utility.yul\":40583:40590   */\n      dup12\n        /* \"#utility.yul\":40574:40580   */\n      dup3\n        /* \"#utility.yul\":40563:40572   */\n      dup13\n        /* \"#utility.yul\":40559:40581   */\n      add\n        /* \"#utility.yul\":40509:40591   */\n      tag_275\n      jump\t// in\n    tag_652:\n        /* \"#utility.yul\":40499:40591   */\n      swap8\n      pop\n        /* \"#utility.yul\":40294:40601   */\n      pop\n        /* \"#utility.yul\":40668:40670   */\n      0x40\n        /* \"#utility.yul\":40657:40666   */\n      dup10\n        /* \"#utility.yul\":40653:40671   */\n      add\n        /* \"#utility.yul\":40640:40672   */\n      calldataload\n        /* \"#utility.yul\":40699:40717   */\n      0xffffffffffffffff\n        /* \"#utility.yul\":40691:40697   */\n      dup2\n        /* \"#utility.yul\":40688:40718   */\n      gt\n        /* \"#utility.yul\":40685:40802   */\n      iszero\n      tag_653\n      jumpi\n        /* \"#utility.yul\":40721:40800   */\n      tag_654\n      tag_237\n      jump\t// in\n    tag_654:\n        /* \"#utility.yul\":40685:40802   */\n    tag_653:\n        /* \"#utility.yul\":40826:40906   */\n      tag_655\n        /* \"#utility.yul\":40898:40905   */\n      dup12\n        /* \"#utility.yul\":40889:40895   */\n      dup3\n        /* \"#utility.yul\":40878:40887   */\n      dup13\n        /* \"#utility.yul\":40874:40896   */\n      add\n        /* \"#utility.yul\":40826:40906   */\n      tag_277\n      jump\t// in\n    tag_655:\n        /* \"#utility.yul\":40816:40906   */\n      swap7\n      pop\n        /* \"#utility.yul\":40611:40916   */\n      pop\n        /* \"#utility.yul\":40983:40985   */\n      0x60\n        /* \"#utility.yul\":40972:40981   */\n      dup10\n        /* \"#utility.yul\":40968:40986   */\n      add\n        /* \"#utility.yul\":40955:40987   */\n      calldataload\n        /* \"#utility.yul\":41014:41032   */\n      0xffffffffffffffff\n        /* \"#utility.yul\":41006:41012   */\n      dup2\n        /* \"#utility.yul\":41003:41033   */\n      gt\n        /* \"#utility.yul\":41000:41117   */\n      iszero\n      tag_656\n      jumpi\n        /* \"#utility.yul\":41036:41115   */\n      tag_657\n      tag_237\n      jump\t// in\n    tag_657:\n        /* \"#utility.yul\":41000:41117   */\n    tag_656:\n        /* \"#utility.yul\":41141:41218   */\n      tag_658\n        /* \"#utility.yul\":41210:41217   */\n      dup12\n        /* \"#utility.yul\":41201:41207   */\n      dup3\n        /* \"#utility.yul\":41190:41199   */\n      dup13\n        /* \"#utility.yul\":41186:41208   */\n      add\n        /* \"#utility.yul\":41141:41218   */\n      tag_278\n      jump\t// in\n    tag_658:\n        /* \"#utility.yul\":41131:41218   */\n      swap6\n      pop\n        /* \"#utility.yul\":40926:41228   */\n      pop\n        /* \"#utility.yul\":41295:41298   */\n      0x80\n        /* \"#utility.yul\":41284:41293   */\n      dup10\n        /* \"#utility.yul\":41280:41299   */\n      add\n        /* \"#utility.yul\":41267:41300   */\n      calldataload\n        /* \"#utility.yul\":41327:41345   */\n      0xffffffffffffffff\n        /* \"#utility.yul\":41319:41325   */\n      dup2\n        /* \"#utility.yul\":41316:41346   */\n      gt\n        /* \"#utility.yul\":41313:41430   */\n      iszero\n      tag_659\n      jumpi\n        /* \"#utility.yul\":41349:41428   */\n      tag_660\n      tag_237\n      jump\t// in\n    tag_660:\n        /* \"#utility.yul\":41313:41430   */\n    tag_659:\n        /* \"#utility.yul\":41454:41555   */\n      tag_661\n        /* \"#utility.yul\":41547:41554   */\n      dup12\n        /* \"#utility.yul\":41538:41544   */\n      dup3\n        /* \"#utility.yul\":41527:41536   */\n      dup13\n        /* \"#utility.yul\":41523:41545   */\n      add\n        /* \"#utility.yul\":41454:41555   */\n      tag_283\n      jump\t// in\n    tag_661:\n        /* \"#utility.yul\":41444:41555   */\n      swap5\n      pop\n        /* \"#utility.yul\":41238:41565   */\n      pop\n        /* \"#utility.yul\":41632:41635   */\n      0xa0\n        /* \"#utility.yul\":41621:41630   */\n      dup10\n        /* \"#utility.yul\":41617:41636   */\n      add\n        /* \"#utility.yul\":41604:41637   */\n      calldataload\n        /* \"#utility.yul\":41664:41682   */\n      0xffffffffffffffff\n        /* \"#utility.yul\":41656:41662   */\n      dup2\n        /* \"#utility.yul\":41653:41683   */\n      gt\n        /* \"#utility.yul\":41650:41767   */\n      iszero\n      tag_662\n      jumpi\n        /* \"#utility.yul\":41686:41765   */\n      tag_663\n      tag_237\n      jump\t// in\n    tag_663:\n        /* \"#utility.yul\":41650:41767   */\n    tag_662:\n        /* \"#utility.yul\":41791:41892   */\n      tag_664\n        /* \"#utility.yul\":41884:41891   */\n      dup12\n        /* \"#utility.yul\":41875:41881   */\n      dup3\n        /* \"#utility.yul\":41864:41873   */\n      dup13\n        /* \"#utility.yul\":41860:41882   */\n      add\n        /* \"#utility.yul\":41791:41892   */\n      tag_287\n      jump\t// in\n    tag_664:\n        /* \"#utility.yul\":41781:41892   */\n      swap4\n      pop\n        /* \"#utility.yul\":41575:41902   */\n      pop\n        /* \"#utility.yul\":41969:41972   */\n      0xc0\n        /* \"#utility.yul\":41958:41967   */\n      dup10\n        /* \"#utility.yul\":41954:41973   */\n      add\n        /* \"#utility.yul\":41941:41974   */\n      calldataload\n        /* \"#utility.yul\":42001:42019   */\n      0xffffffffffffffff\n        /* \"#utility.yul\":41993:41999   */\n      dup2\n        /* \"#utility.yul\":41990:42020   */\n      gt\n        /* \"#utility.yul\":41987:42104   */\n      iszero\n      tag_665\n      jumpi\n        /* \"#utility.yul\":42023:42102   */\n      tag_666\n      tag_237\n      jump\t// in\n    tag_666:\n        /* \"#utility.yul\":41987:42104   */\n    tag_665:\n        /* \"#utility.yul\":42128:42205   */\n      tag_667\n        /* \"#utility.yul\":42197:42204   */\n      dup12\n        /* \"#utility.yul\":42188:42194   */\n      dup3\n        /* \"#utility.yul\":42177:42186   */\n      dup13\n        /* \"#utility.yul\":42173:42195   */\n      add\n        /* \"#utility.yul\":42128:42205   */\n      tag_291\n      jump\t// in\n    tag_667:\n        /* \"#utility.yul\":42118:42205   */\n      swap3\n      pop\n        /* \"#utility.yul\":41912:42215   */\n      pop\n        /* \"#utility.yul\":42282:42285   */\n      0xe0\n        /* \"#utility.yul\":42271:42280   */\n      dup10\n        /* \"#utility.yul\":42267:42286   */\n      add\n        /* \"#utility.yul\":42254:42287   */\n      calldataload\n        /* \"#utility.yul\":42314:42332   */\n      0xffffffffffffffff\n        /* \"#utility.yul\":42306:42312   */\n      dup2\n        /* \"#utility.yul\":42303:42333   */\n      gt\n        /* \"#utility.yul\":42300:42417   */\n      iszero\n      tag_668\n      jumpi\n        /* \"#utility.yul\":42336:42415   */\n      tag_669\n      tag_237\n      jump\t// in\n    tag_669:\n        /* \"#utility.yul\":42300:42417   */\n    tag_668:\n        /* \"#utility.yul\":42441:42523   */\n      tag_670\n        /* \"#utility.yul\":42515:42522   */\n      dup12\n        /* \"#utility.yul\":42506:42512   */\n      dup3\n        /* \"#utility.yul\":42495:42504   */\n      dup13\n        /* \"#utility.yul\":42491:42513   */\n      add\n        /* \"#utility.yul\":42441:42523   */\n      tag_294\n      jump\t// in\n    tag_670:\n        /* \"#utility.yul\":42431:42523   */\n      swap2\n      pop\n        /* \"#utility.yul\":42225:42533   */\n      pop\n        /* \"#utility.yul\":39433:42540   */\n      swap3\n      swap6\n      swap9\n      pop\n      swap3\n      swap6\n      swap9\n      swap1\n      swap4\n      swap7\n      pop\n      jump\t// out\n        /* \"#utility.yul\":42546:42726   */\n    tag_295:\n        /* \"#utility.yul\":42594:42671   */\n      0x4e487b7100000000000000000000000000000000000000000000000000000000\n        /* \"#utility.yul\":42591:42592   */\n      0x00\n        /* \"#utility.yul\":42584:42672   */\n      mstore\n        /* \"#utility.yul\":42691:42695   */\n      0x22\n        /* \"#utility.yul\":42688:42689   */\n      0x04\n        /* \"#utility.yul\":42681:42696   */\n      mstore\n        /* \"#utility.yul\":42715:42719   */\n      0x24\n        /* \"#utility.yul\":42712:42713   */\n      0x00\n        /* \"#utility.yul\":42705:42720   */\n      revert\n        /* \"#utility.yul\":42732:43052   */\n    tag_21:\n        /* \"#utility.yul\":42776:42782   */\n      0x00\n        /* \"#utility.yul\":42813:42814   */\n      0x02\n        /* \"#utility.yul\":42807:42811   */\n      dup3\n        /* \"#utility.yul\":42803:42815   */\n      div\n        /* \"#utility.yul\":42793:42815   */\n      swap1\n      pop\n        /* \"#utility.yul\":42860:42861   */\n      0x01\n        /* \"#utility.yul\":42854:42858   */\n      dup3\n        /* \"#utility.yul\":42850:42862   */\n      and\n        /* \"#utility.yul\":42881:42899   */\n      dup1\n        /* \"#utility.yul\":42871:42952   */\n      tag_673\n      jumpi\n        /* \"#utility.yul\":42937:42941   */\n      0x7f\n        /* \"#utility.yul\":42929:42935   */\n      dup3\n        /* \"#utility.yul\":42925:42942   */\n      and\n        /* \"#utility.yul\":42915:42942   */\n      swap2\n      pop\n        /* \"#utility.yul\":42871:42952   */\n    tag_673:\n        /* \"#utility.yul\":42999:43001   */\n      0x20\n        /* \"#utility.yul\":42991:42997   */\n      dup3\n        /* \"#utility.yul\":42988:43002   */\n      lt\n        /* \"#utility.yul\":42968:42986   */\n      dup2\n        /* \"#utility.yul\":42965:43003   */\n      sub\n        /* \"#utility.yul\":42962:43046   */\n      tag_674\n      jumpi\n        /* \"#utility.yul\":43018:43036   */\n      tag_675\n      tag_295\n      jump\t// in\n    tag_675:\n        /* \"#utility.yul\":42962:43046   */\n    tag_674:\n        /* \"#utility.yul\":42783:43052   */\n      pop\n        /* \"#utility.yul\":42732:43052   */\n      swap2\n      swap1\n      pop\n      jump\t// out\n        /* \"#utility.yul\":43058:43238   */\n    tag_296:\n        /* \"#utility.yul\":43106:43183   */\n      0x4e487b7100000000000000000000000000000000000000000000000000000000\n        /* \"#utility.yul\":43103:43104   */\n      0x00\n        /* \"#utility.yul\":43096:43184   */\n      mstore\n        /* \"#utility.yul\":43203:43207   */\n      0x11\n        /* \"#utility.yul\":43200:43201   */\n      0x04\n        /* \"#utility.yul\":43193:43208   */\n      mstore\n        /* \"#utility.yul\":43227:43231   */\n      0x24\n        /* \"#utility.yul\":43224:43225   */\n      0x00\n        /* \"#utility.yul\":43217:43232   */\n      revert\n        /* \"#utility.yul\":43244:43477   */\n    tag_166:\n        /* \"#utility.yul\":43283:43286   */\n      0x00\n        /* \"#utility.yul\":43306:43330   */\n      tag_678\n        /* \"#utility.yul\":43324:43329   */\n      dup3\n        /* \"#utility.yul\":43306:43330   */\n      tag_238\n      jump\t// in\n    tag_678:\n        /* \"#utility.yul\":43297:43330   */\n      swap2\n      pop\n        /* \"#utility.yul\":43352:43418   */\n      0xffffffffffffffffffffffffffffffffffffffffffffffffffffffffffffffff\n        /* \"#utility.yul\":43345:43350   */\n      dup3\n        /* \"#utility.yul\":43342:43419   */\n      sub\n        /* \"#utility.yul\":43339:43442   */\n      tag_679\n      jumpi\n        /* \"#utility.yul\":43422:43440   */\n      tag_680\n      tag_296\n      jump\t// in\n    tag_680:\n        /* \"#utility.yul\":43339:43442   */\n    tag_679:\n        /* \"#utility.yul\":43469:43470   */\n      0x01\n        /* \"#utility.yul\":43462:43467   */\n      dup3\n        /* \"#utility.yul\":43458:43471   */\n      add\n        /* \"#utility.yul\":43451:43471   */\n      swap1\n      pop\n        /* \"#utility.yul\":43244:43477   */\n      swap2\n      swap1\n      pop\n      jump\t// out\n        /* \"#utility.yul\":43483:43624   */\n    tag_297:\n        /* \"#utility.yul\":43532:43536   */\n      0x00\n        /* \"#utility.yul\":43555:43558   */\n      dup2\n        /* \"#utility.yul\":43547:43558   */\n      swap1\n      pop\n        /* \"#utility.yul\":43578:43581   */\n      dup2\n        /* \"#utility.yul\":43575:43576   */\n      0x00\n        /* \"#utility.yul\":43568:43582   */\n      mstore\n        /* \"#utility.yul\":43612:43616   */\n      0x20\n        /* \"#utility.yul\":43609:43610   */\n      0x00\n        /* \"#utility.yul\":43599:43617   */\n      keccak256\n        /* \"#utility.yul\":43591:43617   */\n      swap1\n      pop\n        /* \"#utility.yul\":43483:43624   */\n      swap2\n      swap1\n      pop\n      jump\t// out\n        /* \"#utility.yul\":43630:43723   */\n    tag_298:\n        /* \"#utility.yul\":43667:43673   */\n      0x00\n        /* \"#utility.yul\":43714:43716   */\n      0x20\n        /* \"#utility.yul\":43709:43711   */\n      0x1f\n        /* \"#utility.yul\":43702:43707   */\n      dup4\n        /* \"#utility.yul\":43698:43712   */\n      add\n        /* \"#utility.yul\":43694:43717   */\n      div\n        /* \"#utility.yul\":43684:43717   */\n      swap1\n      pop\n        /* \"#utility.yul\":43630:43723   */\n      swap2\n      swap1\n      pop\n      jump\t// out\n        /* \"#utility.yul\":43729:43836   */\n    tag_299:\n        /* \"#utility.yul\":43773:43781   */\n      0x00\n        /* \"#utility.yul\":43823:43828   */\n      dup3\n        /* \"#utility.yul\":43817:43821   */\n      dup3\n        /* \"#utility.yul\":43813:43829   */\n      shl\n        /* \"#utility.yul\":43792:43829   */\n      swap1\n      pop\n        /* \"#utility.yul\":43729:43836   */\n      swap3\n      swap2\n      pop\n      pop\n      jump\t// out\n        /* \"#utility.yul\":43842:44235   */\n    tag_300:\n        /* \"#utility.yul\":43911:43917   */\n      0x00\n        /* \"#utility.yul\":43961:43962   */\n      0x08\n        /* \"#utility.yul\":43949:43959   */\n      dup4\n        /* \"#utility.yul\":43945:43963   */\n      mul\n        /* \"#utility.yul\":43984:44081   */\n      tag_685\n        /* \"#utility.yul\":44014:44080   */\n      0xffffffffffffffffffffffffffffffffffffffffffffffffffffffffffffffff\n        /* \"#utility.yul\":44003:44012   */\n      dup3\n        /* \"#utility.yul\":43984:44081   */\n      tag_299\n      jump\t// in\n    tag_685:\n        /* \"#utility.yul\":44102:44141   */\n      tag_686\n        /* \"#utility.yul\":44132:44140   */\n      dup7\n        /* \"#utility.yul\":44121:44130   */\n      dup4\n        /* \"#utility.yul\":44102:44141   */\n      tag_299\n      jump\t// in\n    tag_686:\n        /* \"#utility.yul\":44090:44141   */\n      swap6\n      pop\n        /* \"#utility.yul\":44174:44178   */\n      dup1\n        /* \"#utility.yul\":44170:44179   */\n      not\n        /* \"#utility.yul\":44163:44168   */\n      dup5\n        /* \"#utility.yul\":44159:44180   */\n      and\n        /* \"#utility.yul\":44150:44180   */\n      swap4\n      pop\n        /* \"#utility.yul\":44223:44227   */\n      dup1\n        /* \"#utility.yul\":44213:44221   */\n      dup7\n        /* \"#utility.yul\":44209:44228   */\n      and\n        /* \"#utility.yul\":44202:44207   */\n      dup5\n        /* \"#utility.yul\":44199:44229   */\n      or\n        /* \"#utility.yul\":44189:44229   */\n      swap3\n      pop\n        /* \"#utility.yul\":43918:44235   */\n      pop\n      pop\n        /* \"#utility.yul\":43842:44235   */\n      swap4\n      swap3\n      pop\n      pop\n      pop\n      jump\t// out\n        /* \"#utility.yul\":44241:44301   */\n    tag_301:\n        /* \"#utility.yul\":44269:44272   */\n      0x00\n        /* \"#utility.yul\":44290:44295   */\n      dup2\n        /* \"#utility.yul\":44283:44295   */\n      swap1\n      pop\n        /* \"#utility.yul\":44241:44301   */\n      swap2\n      swap1\n      pop\n      jump\t// out\n        /* \"#utility.yul\":44307:44449   */\n    tag_302:\n        /* \"#utility.yul\":44357:44366   */\n      0x00\n        /* \"#utility.yul\":44390:44443   */\n      tag_689\n        /* \"#utility.yul\":44408:44442   */\n      tag_690\n        /* \"#utility.yul\":44417:44441   */\n      tag_691\n        /* \"#utility.yul\":44435:44440   */\n      dup5\n        /* \"#utility.yul\":44417:44441   */\n      tag_238\n      jump\t// in\n    tag_691:\n        /* \"#utility.yul\":44408:44442   */\n      tag_301\n      jump\t// in\n    tag_690:\n        /* \"#utility.yul\":44390:44443   */\n      tag_238\n      jump\t// in\n    tag_689:\n        /* \"#utility.yul\":44377:44443   */\n      swap1\n      pop\n        /* \"#utility.yul\":44307:44449   */\n      swap2\n      swap1\n      pop\n      jump\t// out\n        /* \"#utility.yul\":44455:44530   */\n    tag_303:\n        /* \"#utility.yul\":44498:44501   */\n      0x00\n        /* \"#utility.yul\":44519:44524   */\n      dup2\n        /* \"#utility.yul\":44512:44524   */\n      swap1\n      pop\n        /* \"#utility.yul\":44455:44530   */\n      swap2\n      swap1\n      pop\n      jump\t// out\n        /* \"#utility.yul\":44536:44805   */\n    tag_304:\n        /* \"#utility.yul\":44646:44685   */\n      tag_694\n        /* \"#utility.yul\":44677:44684   */\n      dup4\n        /* \"#utility.yul\":44646:44685   */\n      tag_302\n      jump\t// in\n    tag_694:\n        /* \"#utility.yul\":44707:44798   */\n      tag_695\n        /* \"#utility.yul\":44756:44797   */\n      tag_696\n        /* \"#utility.yul\":44780:44796   */\n      dup3\n        /* \"#utility.yul\":44756:44797   */\n      tag_303\n      jump\t// in\n    tag_696:\n        /* \"#utility.yul\":44748:44754   */\n      dup5\n        /* \"#utility.yul\":44741:44745   */\n      dup5\n        /* \"#utility.yul\":44735:44746   */\n      sload\n        /* \"#utility.yul\":44707:44798   */\n      tag_300\n      jump\t// in\n    tag_695:\n        /* \"#utility.yul\":44701:44705   */\n      dup3\n        /* \"#utility.yul\":44694:44799   */\n      sstore\n        /* \"#utility.yul\":44612:44805   */\n      pop\n        /* \"#utility.yul\":44536:44805   */\n      pop\n      pop\n      pop\n      jump\t// out\n        /* \"#utility.yul\":44811:44884   */\n    tag_305:\n        /* \"#utility.yul\":44856:44859   */\n      0x00\n        /* \"#utility.yul\":44877:44878   */\n      0x00\n        /* \"#utility.yul\":44870:44878   */\n      swap1\n      pop\n        /* \"#utility.yul\":44811:44884   */\n      swap1\n      jump\t// out\n        /* \"#utility.yul\":44890:45079   */\n    tag_306:\n        /* \"#utility.yul\":44967:44999   */\n      tag_699\n      tag_305\n      jump\t// in\n    tag_699:\n        /* \"#utility.yul\":45008:45073   */\n      tag_700\n        /* \"#utility.yul\":45066:45072   */\n      dup2\n        /* \"#utility.yul\":45058:45064   */\n      dup5\n        /* \"#utility.yul\":45052:45056   */\n      dup5\n        /* \"#utility.yul\":45008:45073   */\n      tag_304\n      jump\t// in\n    tag_700:\n        /* \"#utility.yul\":44943:45079   */\n      pop\n        /* \"#utility.yul\":44890:45079   */\n      pop\n      pop\n      jump\t// out\n        /* \"#utility.yul\":45085:45271   */\n    tag_307:\n        /* \"#utility.yul\":45145:45265   */\n    tag_702:\n        /* \"#utility.yul\":45162:45165   */\n      dup2\n        /* \"#utility.yul\":45155:45160   */\n      dup2\n        /* \"#utility.yul\":45152:45166   */\n      lt\n        /* \"#utility.yul\":45145:45265   */\n      iszero\n      tag_704\n      jumpi\n        /* \"#utility.yul\":45216:45255   */\n      tag_705\n        /* \"#utility.yul\":45253:45254   */\n      0x00\n        /* \"#utility.yul\":45246:45251   */\n      dup3\n        /* \"#utility.yul\":45216:45255   */\n      tag_306\n      jump\t// in\n    tag_705:\n        /* \"#utility.yul\":45189:45190   */\n      0x01\n        /* \"#utility.yul\":45182:45187   */\n      dup2\n        /* \"#utility.yul\":45178:45191   */\n      add\n        /* \"#utility.yul\":45169:45191   */\n      swap1\n      pop\n        /* \"#utility.yul\":45145:45265   */\n      jump(tag_702)\n    tag_704:\n        /* \"#utility.yul\":45085:45271   */\n      pop\n      pop\n      jump\t// out\n        /* \"#utility.yul\":45277:45820   */\n    tag_308:\n        /* \"#utility.yul\":45378:45380   */\n      0x1f\n        /* \"#utility.yul\":45373:45376   */\n      dup3\n        /* \"#utility.yul\":45370:45381   */\n      gt\n        /* \"#utility.yul\":45367:45813   */\n      iszero\n      tag_707\n      jumpi\n        /* \"#utility.yul\":45412:45450   */\n      tag_708\n        /* \"#utility.yul\":45444:45449   */\n      dup2\n        /* \"#utility.yul\":45412:45450   */\n      tag_297\n      jump\t// in\n    tag_708:\n        /* \"#utility.yul\":45496:45525   */\n      tag_709\n        /* \"#utility.yul\":45514:45524   */\n      dup5\n        /* \"#utility.yul\":45496:45525   */\n      tag_298\n      jump\t// in\n    tag_709:\n        /* \"#utility.yul\":45486:45494   */\n      dup2\n        /* \"#utility.yul\":45482:45526   */\n      add\n        /* \"#utility.yul\":45679:45681   */\n      0x20\n        /* \"#utility.yul\":45667:45677   */\n      dup6\n        /* \"#utility.yul\":45664:45682   */\n      lt\n        /* \"#utility.yul\":45661:45710   */\n      iszero\n      tag_710\n      jumpi\n        /* \"#utility.yul\":45700:45708   */\n      dup2\n        /* \"#utility.yul\":45685:45708   */\n      swap1\n      pop\n        /* \"#utility.yul\":45661:45710   */\n    tag_710:\n        /* \"#utility.yul\":45723:45803   */\n      tag_711\n        /* \"#utility.yul\":45779:45801   */\n      tag_712\n        /* \"#utility.yul\":45797:45800   */\n      dup6\n        /* \"#utility.yul\":45779:45801   */\n      tag_298\n      jump\t// in\n    tag_712:\n        /* \"#utility.yul\":45769:45777   */\n      dup4\n        /* \"#utility.yul\":45765:45802   */\n      add\n        /* \"#utility.yul\":45752:45763   */\n      dup3\n        /* \"#utility.yul\":45723:45803   */\n      tag_307\n      jump\t// in\n    tag_711:\n        /* \"#utility.yul\":45382:45813   */\n      pop\n      pop\n        /* \"#utility.yul\":45367:45813   */\n    tag_707:\n        /* \"#utility.yul\":45277:45820   */\n      pop\n      pop\n      pop\n      jump\t// out\n        /* \"#utility.yul\":45826:45943   */\n    tag_309:\n        /* \"#utility.yul\":45880:45888   */\n      0x00\n        /* \"#utility.yul\":45930:45935   */\n      dup3\n        /* \"#utility.yul\":45924:45928   */\n      dup3\n        /* \"#utility.yul\":45920:45936   */\n      shr\n        /* \"#utility.yul\":45899:45936   */\n      swap1\n      pop\n        /* \"#utility.yul\":45826:45943   */\n      swap3\n      swap2\n      pop\n      pop\n      jump\t// out\n        /* \"#utility.yul\":45949:46118   */\n    tag_310:\n        /* \"#utility.yul\":45993:45999   */\n      0x00\n        /* \"#utility.yul\":46026:46077   */\n      tag_715\n        /* \"#utility.yul\":46074:46075   */\n      0x00\n        /* \"#utility.yul\":46070:46076   */\n      not\n        /* \"#utility.yul\":46062:46067   */\n      dup5\n        /* \"#utility.yul\":46059:46060   */\n      0x08\n        /* \"#utility.yul\":46055:46068   */\n      mul\n        /* \"#utility.yul\":46026:46077   */\n      tag_309\n      jump\t// in\n    tag_715:\n        /* \"#utility.yul\":46022:46078   */\n      not\n        /* \"#utility.yul\":46107:46111   */\n      dup1\n        /* \"#utility.yul\":46101:46105   */\n      dup4\n        /* \"#utility.yul\":46097:46112   */\n      and\n        /* \"#utility.yul\":46087:46112   */\n      swap2\n      pop\n        /* \"#utility.yul\":46000:46118   */\n      pop\n        /* \"#utility.yul\":45949:46118   */\n      swap3\n      swap2\n      pop\n      pop\n      jump\t// out\n        /* \"#utility.yul\":46123:46418   */\n    tag_311:\n        /* \"#utility.yul\":46199:46203   */\n      0x00\n        /* \"#utility.yul\":46345:46374   */\n      tag_717\n        /* \"#utility.yul\":46370:46373   */\n      dup4\n        /* \"#utility.yul\":46364:46368   */\n      dup4\n        /* \"#utility.yul\":46345:46374   */\n      tag_310\n      jump\t// in\n    tag_717:\n        /* \"#utility.yul\":46337:46374   */\n      swap2\n      pop\n        /* \"#utility.yul\":46407:46410   */\n      dup3\n        /* \"#utility.yul\":46404:46405   */\n      0x02\n        /* \"#utility.yul\":46400:46411   */\n      mul\n        /* \"#utility.yul\":46394:46398   */\n      dup3\n        /* \"#utility.yul\":46391:46412   */\n      or\n        /* \"#utility.yul\":46383:46412   */\n      swap1\n      pop\n        /* \"#utility.yul\":46123:46418   */\n      swap3\n      swap2\n      pop\n      pop\n      jump\t// out\n        /* \"#utility.yul\":46423:47818   */\n    tag_168:\n        /* \"#utility.yul\":46540:46577   */\n      tag_719\n        /* \"#utility.yul\":46573:46576   */\n      dup3\n        /* \"#utility.yul\":46540:46577   */\n      tag_242\n      jump\t// in\n    tag_719:\n        /* \"#utility.yul\":46642:46660   */\n      0xffffffffffffffff\n        /* \"#utility.yul\":46634:46640   */\n      dup2\n        /* \"#utility.yul\":46631:46661   */\n      gt\n        /* \"#utility.yul\":46628:46684   */\n      iszero\n      tag_720\n      jumpi\n        /* \"#utility.yul\":46664:46682   */\n      tag_721\n      tag_266\n      jump\t// in\n    tag_721:\n        /* \"#utility.yul\":46628:46684   */\n    tag_720:\n        /* \"#utility.yul\":46708:46746   */\n      tag_722\n        /* \"#utility.yul\":46740:46744   */\n      dup3\n        /* \"#utility.yul\":46734:46745   */\n      sload\n        /* \"#utility.yul\":46708:46746   */\n      tag_21\n      jump\t// in\n    tag_722:\n        /* \"#utility.yul\":46793:46860   */\n      tag_723\n        /* \"#utility.yul\":46853:46859   */\n      dup3\n        /* \"#utility.yul\":46845:46851   */\n      dup3\n        /* \"#utility.yul\":46839:46843   */\n      dup6\n        /* \"#utility.yul\":46793:46860   */\n      tag_308\n      jump\t// in\n    tag_723:\n        /* \"#utility.yul\":46887:46888   */\n      0x00\n        /* \"#utility.yul\":46911:46915   */\n      0x20\n        /* \"#utility.yul\":46898:46915   */\n      swap1\n      pop\n        /* \"#utility.yul\":46943:46945   */\n      0x1f\n        /* \"#utility.yul\":46935:46941   */\n      dup4\n        /* \"#utility.yul\":46932:46946   */\n      gt\n        /* \"#utility.yul\":46960:46961   */\n      0x01\n        /* \"#utility.yul\":46955:47573   */\n      dup2\n      eq\n      tag_725\n      jumpi\n        /* \"#utility.yul\":47617:47618   */\n      0x00\n        /* \"#utility.yul\":47634:47640   */\n      dup5\n        /* \"#utility.yul\":47631:47708   */\n      iszero\n      tag_726\n      jumpi\n        /* \"#utility.yul\":47683:47692   */\n      dup3\n        /* \"#utility.yul\":47678:47681   */\n      dup8\n        /* \"#utility.yul\":47674:47693   */\n      add\n        /* \"#utility.yul\":47668:47694   */\n      mload\n        /* \"#utility.yul\":47659:47694   */\n      swap1\n      pop\n        /* \"#utility.yul\":47631:47708   */\n    tag_726:\n        /* \"#utility.yul\":47734:47801   */\n      tag_727\n        /* \"#utility.yul\":47794:47800   */\n      dup6\n        /* \"#utility.yul\":47787:47792   */\n      dup3\n        /* \"#utility.yul\":47734:47801   */\n      tag_311\n      jump\t// in\n    tag_727:\n        /* \"#utility.yul\":47728:47732   */\n      dup7\n        /* \"#utility.yul\":47721:47802   */\n      sstore\n        /* \"#utility.yul\":47590:47812   */\n      pop\n        /* \"#utility.yul\":46925:47812   */\n      jump(tag_724)\n        /* \"#utility.yul\":46955:47573   */\n    tag_725:\n        /* \"#utility.yul\":47007:47011   */\n      0x1f\n        /* \"#utility.yul\":47003:47012   */\n      not\n        /* \"#utility.yul\":46995:47001   */\n      dup5\n        /* \"#utility.yul\":46991:47013   */\n      and\n        /* \"#utility.yul\":47041:47078   */\n      tag_728\n        /* \"#utility.yul\":47073:47077   */\n      dup7\n        /* \"#utility.yul\":47041:47078   */\n      tag_297\n      jump\t// in\n    tag_728:\n        /* \"#utility.yul\":47100:47101   */\n      0x00\n        /* \"#utility.yul\":47114:47322   */\n    tag_729:\n        /* \"#utility.yul\":47128:47135   */\n      dup3\n        /* \"#utility.yul\":47125:47126   */\n      dup2\n        /* \"#utility.yul\":47122:47136   */\n      lt\n        /* \"#utility.yul\":47114:47322   */\n      iszero\n      tag_731\n      jumpi\n        /* \"#utility.yul\":47207:47216   */\n      dup5\n        /* \"#utility.yul\":47202:47205   */\n      dup10\n        /* \"#utility.yul\":47198:47217   */\n      add\n        /* \"#utility.yul\":47192:47218   */\n      mload\n        /* \"#utility.yul\":47184:47190   */\n      dup3\n        /* \"#utility.yul\":47177:47219   */\n      sstore\n        /* \"#utility.yul\":47258:47259   */\n      0x01\n        /* \"#utility.yul\":47250:47256   */\n      dup3\n        /* \"#utility.yul\":47246:47260   */\n      add\n        /* \"#utility.yul\":47236:47260   */\n      swap2\n      pop\n        /* \"#utility.yul\":47305:47307   */\n      0x20\n        /* \"#utility.yul\":47294:47303   */\n      dup6\n        /* \"#utility.yul\":47290:47308   */\n      add\n        /* \"#utility.yul\":47277:47308   */\n      swap5\n      pop\n        /* \"#utility.yul\":47151:47155   */\n      0x20\n        /* \"#utility.yul\":47148:47149   */\n      dup2\n        /* \"#utility.yul\":47144:47156   */\n      add\n        /* \"#utility.yul\":47139:47156   */\n      swap1\n      pop\n        /* \"#utility.yul\":47114:47322   */\n      jump(tag_729)\n    tag_731:\n        /* \"#utility.yul\":47350:47356   */\n      dup7\n        /* \"#utility.yul\":47341:47348   */\n      dup4\n        /* \"#utility.yul\":47338:47357   */\n      lt\n        /* \"#utility.yul\":47335:47514   */\n      iszero\n      tag_732\n      jumpi\n        /* \"#utility.yul\":47408:47417   */\n      dup5\n        /* \"#utility.yul\":47403:47406   */\n      dup10\n        /* \"#utility.yul\":47399:47418   */\n      add\n        /* \"#utility.yul\":47393:47419   */\n      mload\n        /* \"#utility.yul\":47451:47499   */\n      tag_733\n        /* \"#utility.yul\":47493:47497   */\n      0x1f\n        /* \"#utility.yul\":47485:47491   */\n      dup10\n        /* \"#utility.yul\":47481:47498   */\n      and\n        /* \"#utility.yul\":47470:47479   */\n      dup3\n        /* \"#utility.yul\":47451:47499   */\n      tag_310\n      jump\t// in\n    tag_733:\n        /* \"#utility.yul\":47443:47449   */\n      dup4\n        /* \"#utility.yul\":47436:47500   */\n      sstore\n        /* \"#utility.yul\":47358:47514   */\n      pop\n        /* \"#utility.yul\":47335:47514   */\n    tag_732:\n        /* \"#utility.yul\":47560:47561   */\n      0x01\n        /* \"#utility.yul\":47556:47557   */\n      0x02\n        /* \"#utility.yul\":47548:47554   */\n      dup9\n        /* \"#utility.yul\":47544:47558   */\n      mul\n        /* \"#utility.yul\":47540:47562   */\n      add\n        /* \"#utility.yul\":47534:47538   */\n      dup9\n        /* \"#utility.yul\":47527:47563   */\n      sstore\n        /* \"#utility.yul\":46962:47573   */\n      pop\n      pop\n      pop\n        /* \"#utility.yul\":46925:47812   */\n    tag_724:\n      pop\n        /* \"#utility.yul\":46515:47818   */\n      pop\n      pop\n      pop\n        /* \"#utility.yul\":46423:47818   */\n      pop\n      pop\n      jump\t// out\n        /* \"#utility.yul\":47824:48004   */\n    tag_193:\n        /* \"#utility.yul\":47872:47949   */\n      0x4e487b7100000000000000000000000000000000000000000000000000000000\n        /* \"#utility.yul\":47869:47870   */\n      0x00\n        /* \"#utility.yul\":47862:47950   */\n      mstore\n        /* \"#utility.yul\":47969:47973   */\n      0x32\n        /* \"#utility.yul\":47966:47967   */\n      0x04\n        /* \"#utility.yul\":47959:47974   */\n      mstore\n        /* \"#utility.yul\":47993:47997   */\n      0x24\n        /* \"#utility.yul\":47990:47991   */\n      0x00\n        /* \"#utility.yul\":47983:47998   */\n      revert\n\n    auxdata: 0xa264697066735822122082c2cded4d1e7cb8b605466644d6d8e617f1d692974bda5e6301785715679c4c64736f6c634300081c0033\n}\n",
				"bytecode": {
					"linkReferences": {},
					"object": "60806040525f5f553480156011575f5ffd5b50612e998061001f5f395ff3fe608060405234801561000f575f5ffd5b506004361061003f575f3560e01c8063a4de172d14610043578063d1c45a921461007a578063f5a4b1e714610098575b5f5ffd5b61005d60048036038101906100589190611707565b6100b4565b604051610071989796959493929190611c56565b60405180910390f35b61008261116b565b60405161008f9190611cfc565b60405180910390f35b6100b260048036038101906100ad9190612965565b611170565b005b6001602052805f5260405f205f91509050805f0154908060010180546100d990612b23565b80601f016020809104026020016040519081016040528092919081815260200182805461010590612b23565b80156101505780601f1061012757610100808354040283529160200191610150565b820191905f5260205f20905b81548152906001019060200180831161013357829003601f168201915b505050505090806002015490806003016040518060600160405290815f8201805461017a90612b23565b80601f01602080910402602001604051908101604052809291908181526020018280546101a690612b23565b80156101f15780601f106101c8576101008083540402835291602001916101f1565b820191905f5260205f20905b8154815290600101906020018083116101d457829003601f168201915b5050505050815260200160018201805461020a90612b23565b80601f016020809104026020016040519081016040528092919081815260200182805461023690612b23565b80156102815780601f1061025857610100808354040283529160200191610281565b820191905f5260205f20905b81548152906001019060200180831161026457829003601f168201915b5050505050815260200160028201805461029a90612b23565b80601f01602080910402602001604051908101604052809291908181526020018280546102c690612b23565b80156103115780601f106102e857610100808354040283529160200191610311565b820191905f5260205f20905b8154815290600101906020018083116102f457829003601f168201915b5050505050815250509080600601604051806101600160405290815f8201805461033a90612b23565b80601f016020809104026020016040519081016040528092919081815260200182805461036690612b23565b80156103b15780601f10610388576101008083540402835291602001916103b1565b820191905f5260205f20905b81548152906001019060200180831161039457829003601f168201915b505050505081526020016001820180546103ca90612b23565b80601f01602080910402602001604051908101604052809291908181526020018280546103f690612b23565b80156104415780601f1061041857610100808354040283529160200191610441565b820191905f5260205f20905b81548152906001019060200180831161042457829003601f168201915b505050505081526020016002820154815260200160038201805461046490612b23565b80601f016020809104026020016040519081016040528092919081815260200182805461049090612b23565b80156104db5780601f106104b2576101008083540402835291602001916104db565b820191905f5260205f20905b8154815290600101906020018083116104be57829003601f168201915b505050505081526020016004820180546104f490612b23565b80601f016020809104026020016040519081016040528092919081815260200182805461052090612b23565b801561056b5780601f106105425761010080835404028352916020019161056b565b820191905f5260205f20905b81548152906001019060200180831161054e57829003601f168201915b5050505050815260200160058201805461058490612b23565b80601f01602080910402602001604051908101604052809291908181526020018280546105b090612b23565b80156105fb5780601f106105d2576101008083540402835291602001916105fb565b820191905f5260205f20905b8154815290600101906020018083116105de57829003601f168201915b5050505050815260200160068201805461061490612b23565b80601f016020809104026020016040519081016040528092919081815260200182805461064090612b23565b801561068b5780601f106106625761010080835404028352916020019161068b565b820191905f5260205f20905b81548152906001019060200180831161066e57829003601f168201915b505050505081526020016007820180546106a490612b23565b80601f01602080910402602001604051908101604052809291908181526020018280546106d090612b23565b801561071b5780601f106106f25761010080835404028352916020019161071b565b820191905f5260205f20905b8154815290600101906020018083116106fe57829003601f168201915b5050505050815260200160088201805461073490612b23565b80601f016020809104026020016040519081016040528092919081815260200182805461076090612b23565b80156107ab5780601f10610782576101008083540402835291602001916107ab565b820191905f5260205f20905b81548152906001019060200180831161078e57829003601f168201915b505050505081526020016009820180546107c490612b23565b80601f01602080910402602001604051908101604052809291908181526020018280546107f090612b23565b801561083b5780601f106108125761010080835404028352916020019161083b565b820191905f5260205f20905b81548152906001019060200180831161081e57829003601f168201915b50505050508152602001600a82016040518060400160405290815f8201805461086390612b23565b80601f016020809104026020016040519081016040528092919081815260200182805461088f90612b23565b80156108da5780601f106108b1576101008083540402835291602001916108da565b820191905f5260205f20905b8154815290600101906020018083116108bd57829003601f168201915b505050505081526020016001820180546108f390612b23565b80601f016020809104026020016040519081016040528092919081815260200182805461091f90612b23565b801561096a5780601f106109415761010080835404028352916020019161096a565b820191905f5260205f20905b81548152906001019060200180831161094d57829003601f168201915b5050505050815250508152505090806012016040518060e00160405290815f8201548152602001600182015481526020016002820180546109aa90612b23565b80601f01602080910402602001604051908101604052809291908181526020018280546109d690612b23565b8015610a215780601f106109f857610100808354040283529160200191610a21565b820191905f5260205f20905b815481529060010190602001808311610a0457829003601f168201915b50505050508152602001600382018054610a3a90612b23565b80601f0160208091040260200160405190810160405280929190818152602001828054610a6690612b23565b8015610ab15780601f10610a8857610100808354040283529160200191610ab1565b820191905f5260205f20905b815481529060010190602001808311610a9457829003601f168201915b50505050508152602001600482018054610aca90612b23565b80601f0160208091040260200160405190810160405280929190818152602001828054610af690612b23565b8015610b415780601f10610b1857610100808354040283529160200191610b41565b820191905f5260205f20905b815481529060010190602001808311610b2457829003601f168201915b50505050508152602001600582018054610b5a90612b23565b80601f0160208091040260200160405190810160405280929190818152602001828054610b8690612b23565b8015610bd15780601f10610ba857610100808354040283529160200191610bd1565b820191905f5260205f20905b815481529060010190602001808311610bb457829003601f168201915b50505050508152602001600682018054610bea90612b23565b80601f0160208091040260200160405190810160405280929190818152602001828054610c1690612b23565b8015610c615780601f10610c3857610100808354040283529160200191610c61565b820191905f5260205f20905b815481529060010190602001808311610c4457829003601f168201915b5050505050815250509080601b016040518060800160405290815f8201805480602002602001604051908101604052809291908181526020015f905b82821015610d45578382905f5260205f20018054610cba90612b23565b80601f0160208091040260200160405190810160405280929190818152602001828054610ce690612b23565b8015610d315780601f10610d0857610100808354040283529160200191610d31565b820191905f5260205f20905b815481529060010190602001808311610d1457829003601f168201915b505050505081526020019060010190610c9d565b505050508152602001600182018054610d5d90612b23565b80601f0160208091040260200160405190810160405280929190818152602001828054610d8990612b23565b8015610dd45780601f10610dab57610100808354040283529160200191610dd4565b820191905f5260205f20905b815481529060010190602001808311610db757829003601f168201915b50505050508152602001600282018054610ded90612b23565b80601f0160208091040260200160405190810160405280929190818152602001828054610e1990612b23565b8015610e645780601f10610e3b57610100808354040283529160200191610e64565b820191905f5260205f20905b815481529060010190602001808311610e4757829003601f168201915b50505050508152602001600382018054610e7d90612b23565b80601f0160208091040260200160405190810160405280929190818152602001828054610ea990612b23565b8015610ef45780601f10610ecb57610100808354040283529160200191610ef4565b820191905f5260205f20905b815481529060010190602001808311610ed757829003601f168201915b5050505050815250509080601f016040518060a00160405290815f82015f9054906101000a900460ff16151515158152602001600182018054610f3690612b23565b80601f0160208091040260200160405190810160405280929190818152602001828054610f6290612b23565b8015610fad5780601f10610f8457610100808354040283529160200191610fad565b820191905f5260205f20905b815481529060010190602001808311610f9057829003601f168201915b50505050508152602001600282018054610fc690612b23565b80601f0160208091040260200160405190810160405280929190818152602001828054610ff290612b23565b801561103d5780601f106110145761010080835404028352916020019161103d565b820191905f5260205f20905b81548152906001019060200180831161102057829003601f168201915b5050505050815260200160038201805461105690612b23565b80601f016020809104026020016040519081016040528092919081815260200182805461108290612b23565b80156110cd5780601f106110a4576101008083540402835291602001916110cd565b820191905f5260205f20905b8154815290600101906020018083116110b057829003601f168201915b505050505081526020016004820180546110e690612b23565b80601f016020809104026020016040519081016040528092919081815260200182805461111290612b23565b801561115d5780601f106111345761010080835404028352916020019161115d565b820191905f5260205f20905b81548152906001019060200180831161114057829003601f168201915b505050505081525050905088565b5f5481565b5f60015f5f5f81548092919061118590612b80565b9190505581526020019081526020015f209050888160010190816111a99190612d67565b5087816003015f820151815f0190816111c29190612d67565b5060208201518160010190816111d89190612d67565b5060408201518160020190816111ee9190612d67565b5090505086816006015f820151815f01908161120a9190612d67565b5060208201518160010190816112209190612d67565b506040820151816002015560608201518160030190816112409190612d67565b5060808201518160040190816112569190612d67565b5060a082015181600501908161126c9190612d67565b5060c08201518160060190816112829190612d67565b5060e08201518160070190816112989190612d67565b506101008201518160080190816112af9190612d67565b506101208201518160090190816112c69190612d67565b5061014082015181600a015f820151815f0190816112e49190612d67565b5060208201518160010190816112fa9190612d67565b50505090505085816012015f820151815f015560208201518160010155604082015181600201908161132c9190612d67565b5060608201518160030190816113429190612d67565b5060808201518160040190816113589190612d67565b5060a082015181600501908161136e9190612d67565b5060c08201518160060190816113849190612d67565b509050505f5f90505b855181101561146057816019018682815181106113ad576113ac612e36565b5b6020026020010151908060018154018082558091505060019003905f5260205f2090600602015f909190919091505f820151815f0190816113ee9190612d67565b5060208201518160010190816114049190612d67565b50604082015181600201908161141a9190612d67565b5060608201518160030155608082015181600401908161143a9190612d67565b5060a08201518160050190816114509190612d67565b505050808060010191505061138d565b505f5f90505b84518110156115035781601a0185828151811061148657611485612e36565b5b6020026020010151908060018154018082558091505060019003905f5260205f2090600302015f909190919091505f820151815f0190816114c79190612d67565b5060208201518160010190816114dd9190612d67565b5060408201518160020190816114f39190612d67565b5050508080600101915050611466565b508281601b015f820151815f0190805190602001906115239291906115f1565b5060208201518160010190816115399190612d67565b50604082015181600201908161154f9190612d67565b5060608201518160030190816115659190612d67565b509050508181601f015f820151815f015f6101000a81548160ff02191690831515021790555060208201518160010190816115a09190612d67565b5060408201518160020190816115b69190612d67565b5060608201518160030190816115cc9190612d67565b5060808201518160040190816115e29190612d67565b50905050505050505050505050565b828054828255905f5260205f20908101928215611637579160200282015b828111156116365782518290816116269190612d67565b509160200191906001019061160f565b5b5090506116449190611648565b5090565b5b80821115611667575f818161165e919061166b565b50600101611649565b5090565b50805461167790612b23565b5f825580601f1061168857506116a5565b601f0160209004905f5260205f20908101906116a491906116a8565b5b50565b5b808211156116bf575f815f9055506001016116a9565b5090565b5f604051905090565b5f5ffd5b5f5ffd5b5f819050919050565b6116e6816116d4565b81146116f0575f5ffd5b50565b5f81359050611701816116dd565b92915050565b5f6020828403121561171c5761171b6116cc565b5b5f611729848285016116f3565b91505092915050565b61173b816116d4565b82525050565b5f81519050919050565b5f82825260208201905092915050565b8281835e5f83830152505050565b5f601f19601f8301169050919050565b5f61178382611741565b61178d818561174b565b935061179d81856020860161175b565b6117a681611769565b840191505092915050565b5f82825260208201905092915050565b5f6117cb82611741565b6117d581856117b1565b93506117e581856020860161175b565b6117ee81611769565b840191505092915050565b5f606083015f8301518482035f86015261181382826117c1565b9150506020830151848203602086015261182d82826117c1565b9150506040830151848203604086015261184782826117c1565b9150508091505092915050565b61185d816116d4565b82525050565b5f604083015f8301518482035f86015261187d82826117c1565b9150506020830151848203602086015261189782826117c1565b9150508091505092915050565b5f61016083015f8301518482035f8601526118bf82826117c1565b915050602083015184820360208601526118d982826117c1565b91505060408301516118ee6040860182611854565b506060830151848203606086015261190682826117c1565b9150506080830151848203608086015261192082826117c1565b91505060a083015184820360a086015261193a82826117c1565b91505060c083015184820360c086015261195482826117c1565b91505060e083015184820360e086015261196e82826117c1565b91505061010083015184820361010086015261198a82826117c1565b9150506101208301518482036101208601526119a682826117c1565b9150506101408301518482036101408601526119c28282611863565b9150508091505092915050565b5f60e083015f8301516119e45f860182611854565b5060208301516119f76020860182611854565b5060408301518482036040860152611a0f82826117c1565b91505060608301518482036060860152611a2982826117c1565b91505060808301518482036080860152611a4382826117c1565b91505060a083015184820360a0860152611a5d82826117c1565b91505060c083015184820360c0860152611a7782826117c1565b9150508091505092915050565b5f81519050919050565b5f82825260208201905092915050565b5f819050602082019050919050565b5f611ab883836117c1565b905092915050565b5f602082019050919050565b5f611ad682611a84565b611ae08185611a8e565b935083602082028501611af285611a9e565b805f5b85811015611b2d5784840389528151611b0e8582611aad565b9450611b1983611ac0565b925060208a01995050600181019050611af5565b50829750879550505050505092915050565b5f608083015f8301518482035f860152611b598282611acc565b91505060208301518482036020860152611b7382826117c1565b91505060408301518482036040860152611b8d82826117c1565b91505060608301518482036060860152611ba782826117c1565b9150508091505092915050565b5f8115159050919050565b611bc881611bb4565b82525050565b5f60a083015f830151611be35f860182611bbf565b5060208301518482036020860152611bfb82826117c1565b91505060408301518482036040860152611c1582826117c1565b91505060608301518482036060860152611c2f82826117c1565b91505060808301518482036080860152611c4982826117c1565b9150508091505092915050565b5f61010082019050611c6a5f83018b611732565b8181036020830152611c7c818a611779565b9050611c8b6040830189611732565b8181036060830152611c9d81886117f9565b90508181036080830152611cb181876118a4565b905081810360a0830152611cc581866119cf565b905081810360c0830152611cd98185611b3f565b905081810360e0830152611ced8184611bce565b90509998505050505050505050565b5f602082019050611d0f5f830184611732565b92915050565b5f5ffd5b5f5ffd5b7f4e487b71000000000000000000000000000000000000000000000000000000005f52604160045260245ffd5b611d5382611769565b810181811067ffffffffffffffff82111715611d7257611d71611d1d565b5b80604052505050565b5f611d846116c3565b9050611d908282611d4a565b919050565b5f67ffffffffffffffff821115611daf57611dae611d1d565b5b611db882611769565b9050602081019050919050565b828183375f83830152505050565b5f611de5611de084611d95565b611d7b565b905082815260208101848484011115611e0157611e00611d19565b5b611e0c848285611dc5565b509392505050565b5f82601f830112611e2857611e27611d15565b5b8135611e38848260208601611dd3565b91505092915050565b5f5ffd5b5f5ffd5b5f60608284031215611e5e57611e5d611e41565b5b611e686060611d7b565b90505f82013567ffffffffffffffff811115611e8757611e86611e45565b5b611e9384828501611e14565b5f83015250602082013567ffffffffffffffff811115611eb657611eb5611e45565b5b611ec284828501611e14565b602083015250604082013567ffffffffffffffff811115611ee657611ee5611e45565b5b611ef284828501611e14565b60408301525092915050565b5f60408284031215611f1357611f12611e41565b5b611f1d6040611d7b565b90505f82013567ffffffffffffffff811115611f3c57611f3b611e45565b5b611f4884828501611e14565b5f83015250602082013567ffffffffffffffff811115611f6b57611f6a611e45565b5b611f7784828501611e14565b60208301525092915050565b5f6101608284031215611f9957611f98611e41565b5b611fa4610160611d7b565b90505f82013567ffffffffffffffff811115611fc357611fc2611e45565b5b611fcf84828501611e14565b5f83015250602082013567ffffffffffffffff811115611ff257611ff1611e45565b5b611ffe84828501611e14565b6020830152506040612012848285016116f3565b604083015250606082013567ffffffffffffffff81111561203657612035611e45565b5b61204284828501611e14565b606083015250608082013567ffffffffffffffff81111561206657612065611e45565b5b61207284828501611e14565b60808301525060a082013567ffffffffffffffff81111561209657612095611e45565b5b6120a284828501611e14565b60a08301525060c082013567ffffffffffffffff8111156120c6576120c5611e45565b5b6120d284828501611e14565b60c08301525060e082013567ffffffffffffffff8111156120f6576120f5611e45565b5b61210284828501611e14565b60e08301525061010082013567ffffffffffffffff81111561212757612126611e45565b5b61213384828501611e14565b6101008301525061012082013567ffffffffffffffff81111561215957612158611e45565b5b61216584828501611e14565b6101208301525061014082013567ffffffffffffffff81111561218b5761218a611e45565b5b61219784828501611efe565b6101408301525092915050565b5f60e082840312156121b9576121b8611e41565b5b6121c360e0611d7b565b90505f6121d2848285016116f3565b5f8301525060206121e5848285016116f3565b602083015250604082013567ffffffffffffffff81111561220957612208611e45565b5b61221584828501611e14565b604083015250606082013567ffffffffffffffff81111561223957612238611e45565b5b61224584828501611e14565b606083015250608082013567ffffffffffffffff81111561226957612268611e45565b5b61227584828501611e14565b60808301525060a082013567ffffffffffffffff81111561229957612298611e45565b5b6122a584828501611e14565b60a08301525060c082013567ffffffffffffffff8111156122c9576122c8611e45565b5b6122d584828501611e14565b60c08301525092915050565b5f67ffffffffffffffff8211156122fb576122fa611d1d565b5b602082029050602081019050919050565b5f5ffd5b5f60c0828403121561232557612324611e41565b5b61232f60c0611d7b565b90505f82013567ffffffffffffffff81111561234e5761234d611e45565b5b61235a84828501611e14565b5f83015250602082013567ffffffffffffffff81111561237d5761237c611e45565b5b61238984828501611e14565b602083015250604082013567ffffffffffffffff8111156123ad576123ac611e45565b5b6123b984828501611e14565b60408301525060606123cd848285016116f3565b606083015250608082013567ffffffffffffffff8111156123f1576123f0611e45565b5b6123fd84828501611e14565b60808301525060a082013567ffffffffffffffff81111561242157612420611e45565b5b61242d84828501611e14565b60a08301525092915050565b5f61244b612446846122e1565b611d7b565b9050808382526020820190506020840283018581111561246e5761246d61230c565b5b835b818110156124b557803567ffffffffffffffff81111561249357612492611d15565b5b8086016124a08982612310565b85526020850194505050602081019050612470565b5050509392505050565b5f82601f8301126124d3576124d2611d15565b5b81356124e3848260208601612439565b91505092915050565b5f67ffffffffffffffff82111561250657612505611d1d565b5b602082029050602081019050919050565b5f6060828403121561252c5761252b611e41565b5b6125366060611d7b565b90505f82013567ffffffffffffffff81111561255557612554611e45565b5b61256184828501611e14565b5f83015250602082013567ffffffffffffffff81111561258457612583611e45565b5b61259084828501611e14565b602083015250604082013567ffffffffffffffff8111156125b4576125b3611e45565b5b6125c084828501611e14565b60408301525092915050565b5f6125de6125d9846124ec565b611d7b565b905080838252602082019050602084028301858111156126015761260061230c565b5b835b8181101561264857803567ffffffffffffffff81111561262657612625611d15565b5b8086016126338982612517565b85526020850194505050602081019050612603565b5050509392505050565b5f82601f83011261266657612665611d15565b5b81356126768482602086016125cc565b91505092915050565b5f67ffffffffffffffff82111561269957612698611d1d565b5b602082029050602081019050919050565b5f6126bc6126b78461267f565b611d7b565b905080838252602082019050602084028301858111156126df576126de61230c565b5b835b8181101561272657803567ffffffffffffffff81111561270457612703611d15565b5b8086016127118982611e14565b855260208501945050506020810190506126e1565b5050509392505050565b5f82601f83011261274457612743611d15565b5b81356127548482602086016126aa565b91505092915050565b5f6080828403121561277257612771611e41565b5b61277c6080611d7b565b90505f82013567ffffffffffffffff81111561279b5761279a611e45565b5b6127a784828501612730565b5f83015250602082013567ffffffffffffffff8111156127ca576127c9611e45565b5b6127d684828501611e14565b602083015250604082013567ffffffffffffffff8111156127fa576127f9611e45565b5b61280684828501611e14565b604083015250606082013567ffffffffffffffff81111561282a57612829611e45565b5b61283684828501611e14565b60608301525092915050565b61284b81611bb4565b8114612855575f5ffd5b50565b5f8135905061286681612842565b92915050565b5f60a0828403121561288157612880611e41565b5b61288b60a0611d7b565b90505f61289a84828501612858565b5f83015250602082013567ffffffffffffffff8111156128bd576128bc611e45565b5b6128c984828501611e14565b602083015250604082013567ffffffffffffffff8111156128ed576128ec611e45565b5b6128f984828501611e14565b604083015250606082013567ffffffffffffffff81111561291d5761291c611e45565b5b61292984828501611e14565b606083015250608082013567ffffffffffffffff81111561294d5761294c611e45565b5b61295984828501611e14565b60808301525092915050565b5f5f5f5f5f5f5f5f610100898b031215612982576129816116cc565b5b5f89013567ffffffffffffffff81111561299f5761299e6116d0565b5b6129ab8b828c01611e14565b985050602089013567ffffffffffffffff8111156129cc576129cb6116d0565b5b6129d88b828c01611e49565b975050604089013567ffffffffffffffff8111156129f9576129f86116d0565b5b612a058b828c01611f83565b965050606089013567ffffffffffffffff811115612a2657612a256116d0565b5b612a328b828c016121a4565b955050608089013567ffffffffffffffff811115612a5357612a526116d0565b5b612a5f8b828c016124bf565b94505060a089013567ffffffffffffffff811115612a8057612a7f6116d0565b5b612a8c8b828c01612652565b93505060c089013567ffffffffffffffff811115612aad57612aac6116d0565b5b612ab98b828c0161275d565b92505060e089013567ffffffffffffffff811115612ada57612ad96116d0565b5b612ae68b828c0161286c565b9150509295985092959890939650565b7f4e487b71000000000000000000000000000000000000000000000000000000005f52602260045260245ffd5b5f6002820490506001821680612b3a57607f821691505b602082108103612b4d57612b4c612af6565b5b50919050565b7f4e487b71000000000000000000000000000000000000000000000000000000005f52601160045260245ffd5b5f612b8a826116d4565b91507fffffffffffffffffffffffffffffffffffffffffffffffffffffffffffffffff8203612bbc57612bbb612b53565b5b600182019050919050565b5f819050815f5260205f209050919050565b5f6020601f8301049050919050565b5f82821b905092915050565b5f60088302612c237fffffffffffffffffffffffffffffffffffffffffffffffffffffffffffffffff82612be8565b612c2d8683612be8565b95508019841693508086168417925050509392505050565b5f819050919050565b5f612c68612c63612c5e846116d4565b612c45565b6116d4565b9050919050565b5f819050919050565b612c8183612c4e565b612c95612c8d82612c6f565b848454612bf4565b825550505050565b5f5f905090565b612cac612c9d565b612cb7818484612c78565b505050565b5b81811015612cda57612ccf5f82612ca4565b600181019050612cbd565b5050565b601f821115612d1f57612cf081612bc7565b612cf984612bd9565b81016020851015612d08578190505b612d1c612d1485612bd9565b830182612cbc565b50505b505050565b5f82821c905092915050565b5f612d3f5f1984600802612d24565b1980831691505092915050565b5f612d578383612d30565b9150826002028217905092915050565b612d7082611741565b67ffffffffffffffff811115612d8957612d88611d1d565b5b612d938254612b23565b612d9e828285612cde565b5f60209050601f831160018114612dcf575f8415612dbd578287015190505b612dc78582612d4c565b865550612e2e565b601f198416612ddd86612bc7565b5f5b82811015612e0457848901518255600182019150602085019450602081019050612ddf565b86831015612e215784890151612e1d601f891682612d30565b8355505b6001600288020188555050505b505050505050565b7f4e487b71000000000000000000000000000000000000000000000000000000005f52603260045260245ffdfea264697066735822122082c2cded4d1e7cb8b605466644d6d8e617f1d692974bda5e6301785715679c4c64736f6c634300081c0033",
					"opcodes": "PUSH1 0x80 PUSH1 0x40 MSTORE PUSH0 PUSH0 SSTORE CALLVALUE DUP1 ISZERO PUSH1 0x11 JUMPI PUSH0 PUSH0 REVERT JUMPDEST POP PUSH2 0x2E99 DUP1 PUSH2 0x1F PUSH0 CODECOPY PUSH0 RETURN INVALID PUSH1 0x80 PUSH1 0x40 MSTORE CALLVALUE DUP1 ISZERO PUSH2 0xF JUMPI PUSH0 PUSH0 REVERT JUMPDEST POP PUSH1 0x4 CALLDATASIZE LT PUSH2 0x3F JUMPI PUSH0 CALLDATALOAD PUSH1 0xE0 SHR DUP1 PUSH4 0xA4DE172D EQ PUSH2 0x43 JUMPI DUP1 PUSH4 0xD1C45A92 EQ PUSH2 0x7A JUMPI DUP1 PUSH4 0xF5A4B1E7 EQ PUSH2 0x98 JUMPI JUMPDEST PUSH0 PUSH0 REVERT JUMPDEST PUSH2 0x5D PUSH1 0x4 DUP1 CALLDATASIZE SUB DUP2 ADD SWAP1 PUSH2 0x58 SWAP2 SWAP1 PUSH2 0x1707 JUMP JUMPDEST PUSH2 0xB4 JUMP JUMPDEST PUSH1 0x40 MLOAD PUSH2 0x71 SWAP9 SWAP8 SWAP7 SWAP6 SWAP5 SWAP4 SWAP3 SWAP2 SWAP1 PUSH2 0x1C56 JUMP JUMPDEST PUSH1 0x40 MLOAD DUP1 SWAP2 SUB SWAP1 RETURN JUMPDEST PUSH2 0x82 PUSH2 0x116B JUMP JUMPDEST PUSH1 0x40 MLOAD PUSH2 0x8F SWAP2 SWAP1 PUSH2 0x1CFC JUMP JUMPDEST PUSH1 0x40 MLOAD DUP1 SWAP2 SUB SWAP1 RETURN JUMPDEST PUSH2 0xB2 PUSH1 0x4 DUP1 CALLDATASIZE SUB DUP2 ADD SWAP1 PUSH2 0xAD SWAP2 SWAP1 PUSH2 0x2965 JUMP JUMPDEST PUSH2 0x1170 JUMP JUMPDEST STOP JUMPDEST PUSH1 0x1 PUSH1 0x20 MSTORE DUP1 PUSH0 MSTORE PUSH1 0x40 PUSH0 KECCAK256 PUSH0 SWAP2 POP SWAP1 POP DUP1 PUSH0 ADD SLOAD SWAP1 DUP1 PUSH1 0x1 ADD DUP1 SLOAD PUSH2 0xD9 SWAP1 PUSH2 0x2B23 JUMP JUMPDEST DUP1 PUSH1 0x1F ADD PUSH1 0x20 DUP1 SWAP2 DIV MUL PUSH1 0x20 ADD PUSH1 0x40 MLOAD SWAP1 DUP2 ADD PUSH1 0x40 MSTORE DUP1 SWAP3 SWAP2 SWAP1 DUP2 DUP2 MSTORE PUSH1 0x20 ADD DUP3 DUP1 SLOAD PUSH2 0x105 SWAP1 PUSH2 0x2B23 JUMP JUMPDEST DUP1 ISZERO PUSH2 0x150 JUMPI DUP1 PUSH1 0x1F LT PUSH2 0x127 JUMPI PUSH2 0x100 DUP1 DUP4 SLOAD DIV MUL DUP4 MSTORE SWAP2 PUSH1 0x20 ADD SWAP2 PUSH2 0x150 JUMP JUMPDEST DUP3 ADD SWAP2 SWAP1 PUSH0 MSTORE PUSH1 0x20 PUSH0 KECCAK256 SWAP1 JUMPDEST DUP2 SLOAD DUP2 MSTORE SWAP1 PUSH1 0x1 ADD SWAP1 PUSH1 0x20 ADD DUP1 DUP4 GT PUSH2 0x133 JUMPI DUP3 SWAP1 SUB PUSH1 0x1F AND DUP3 ADD SWAP2 JUMPDEST POP POP POP POP POP SWAP1 DUP1 PUSH1 0x2 ADD SLOAD SWAP1 DUP1 PUSH1 0x3 ADD PUSH1 0x40 MLOAD DUP1 PUSH1 0x60 ADD PUSH1 0x40 MSTORE SWAP1 DUP2 PUSH0 DUP3 ADD DUP1 SLOAD PUSH2 0x17A SWAP1 PUSH2 0x2B23 JUMP JUMPDEST DUP1 PUSH1 0x1F ADD PUSH1 0x20 DUP1 SWAP2 DIV MUL PUSH1 0x20 ADD PUSH1 0x40 MLOAD SWAP1 DUP2 ADD PUSH1 0x40 MSTORE DUP1 SWAP3 SWAP2 SWAP1 DUP2 DUP2 MSTORE PUSH1 0x20 ADD DUP3 DUP1 SLOAD PUSH2 0x1A6 SWAP1 PUSH2 0x2B23 JUMP JUMPDEST DUP1 ISZERO PUSH2 0x1F1 JUMPI DUP1 PUSH1 0x1F LT PUSH2 0x1C8 JUMPI PUSH2 0x100 DUP1 DUP4 SLOAD DIV MUL DUP4 MSTORE SWAP2 PUSH1 0x20 ADD SWAP2 PUSH2 0x1F1 JUMP JUMPDEST DUP3 ADD SWAP2 SWAP1 PUSH0 MSTORE PUSH1 0x20 PUSH0 KECCAK256 SWAP1 JUMPDEST DUP2 SLOAD DUP2 MSTORE SWAP1 PUSH1 0x1 ADD SWAP1 PUSH1 0x20 ADD DUP1 DUP4 GT PUSH2 0x1D4 JUMPI DUP3 SWAP1 SUB PUSH1 0x1F AND DUP3 ADD SWAP2 JUMPDEST POP POP POP POP POP DUP2 MSTORE PUSH1 0x20 ADD PUSH1 0x1 DUP3 ADD DUP1 SLOAD PUSH2 0x20A SWAP1 PUSH2 0x2B23 JUMP JUMPDEST DUP1 PUSH1 0x1F ADD PUSH1 0x20 DUP1 SWAP2 DIV MUL PUSH1 0x20 ADD PUSH1 0x40 MLOAD SWAP1 DUP2 ADD PUSH1 0x40 MSTORE DUP1 SWAP3 SWAP2 SWAP1 DUP2 DUP2 MSTORE PUSH1 0x20 ADD DUP3 DUP1 SLOAD PUSH2 0x236 SWAP1 PUSH2 0x2B23 JUMP JUMPDEST DUP1 ISZERO PUSH2 0x281 JUMPI DUP1 PUSH1 0x1F LT PUSH2 0x258 JUMPI PUSH2 0x100 DUP1 DUP4 SLOAD DIV MUL DUP4 MSTORE SWAP2 PUSH1 0x20 ADD SWAP2 PUSH2 0x281 JUMP JUMPDEST DUP3 ADD SWAP2 SWAP1 PUSH0 MSTORE PUSH1 0x20 PUSH0 KECCAK256 SWAP1 JUMPDEST DUP2 SLOAD DUP2 MSTORE SWAP1 PUSH1 0x1 ADD SWAP1 PUSH1 0x20 ADD DUP1 DUP4 GT PUSH2 0x264 JUMPI DUP3 SWAP1 SUB PUSH1 0x1F AND DUP3 ADD SWAP2 JUMPDEST POP POP POP POP POP DUP2 MSTORE PUSH1 0x20 ADD PUSH1 0x2 DUP3 ADD DUP1 SLOAD PUSH2 0x29A SWAP1 PUSH2 0x2B23 JUMP JUMPDEST DUP1 PUSH1 0x1F ADD PUSH1 0x20 DUP1 SWAP2 DIV MUL PUSH1 0x20 ADD PUSH1 0x40 MLOAD SWAP1 DUP2 ADD PUSH1 0x40 MSTORE DUP1 SWAP3 SWAP2 SWAP1 DUP2 DUP2 MSTORE PUSH1 0x20 ADD DUP3 DUP1 SLOAD PUSH2 0x2C6 SWAP1 PUSH2 0x2B23 JUMP JUMPDEST DUP1 ISZERO PUSH2 0x311 JUMPI DUP1 PUSH1 0x1F LT PUSH2 0x2E8 JUMPI PUSH2 0x100 DUP1 DUP4 SLOAD DIV MUL DUP4 MSTORE SWAP2 PUSH1 0x20 ADD SWAP2 PUSH2 0x311 JUMP JUMPDEST DUP3 ADD SWAP2 SWAP1 PUSH0 MSTORE PUSH1 0x20 PUSH0 KECCAK256 SWAP1 JUMPDEST DUP2 SLOAD DUP2 MSTORE SWAP1 PUSH1 0x1 ADD SWAP1 PUSH1 0x20 ADD DUP1 DUP4 GT PUSH2 0x2F4 JUMPI DUP3 SWAP1 SUB PUSH1 0x1F AND DUP3 ADD SWAP2 JUMPDEST POP POP POP POP POP DUP2 MSTORE POP POP SWAP1 DUP1 PUSH1 0x6 ADD PUSH1 0x40 MLOAD DUP1 PUSH2 0x160 ADD PUSH1 0x40 MSTORE SWAP1 DUP2 PUSH0 DUP3 ADD DUP1 SLOAD PUSH2 0x33A SWAP1 PUSH2 0x2B23 JUMP JUMPDEST DUP1 PUSH1 0x1F ADD PUSH1 0x20 DUP1 SWAP2 DIV MUL PUSH1 0x20 ADD PUSH1 0x40 MLOAD SWAP1 DUP2 ADD PUSH1 0x40 MSTORE DUP1 SWAP3 SWAP2 SWAP1 DUP2 DUP2 MSTORE PUSH1 0x20 ADD DUP3 DUP1 SLOAD PUSH2 0x366 SWAP1 PUSH2 0x2B23 JUMP JUMPDEST DUP1 ISZERO PUSH2 0x3B1 JUMPI DUP1 PUSH1 0x1F LT PUSH2 0x388 JUMPI PUSH2 0x100 DUP1 DUP4 SLOAD DIV MUL DUP4 MSTORE SWAP2 PUSH1 0x20 ADD SWAP2 PUSH2 0x3B1 JUMP JUMPDEST DUP3 ADD SWAP2 SWAP1 PUSH0 MSTORE PUSH1 0x20 PUSH0 KECCAK256 SWAP1 JUMPDEST DUP2 SLOAD DUP2 MSTORE SWAP1 PUSH1 0x1 ADD SWAP1 PUSH1 0x20 ADD DUP1 DUP4 GT PUSH2 0x394 JUMPI DUP3 SWAP1 SUB PUSH1 0x1F AND DUP3 ADD SWAP2 JUMPDEST POP POP POP POP POP DUP2 MSTORE PUSH1 0x20 ADD PUSH1 0x1 DUP3 ADD DUP1 SLOAD PUSH2 0x3CA SWAP1 PUSH2 0x2B23 JUMP JUMPDEST DUP1 PUSH1 0x1F ADD PUSH1 0x20 DUP1 SWAP2 DIV MUL PUSH1 0x20 ADD PUSH1 0x40 MLOAD SWAP1 DUP2 ADD PUSH1 0x40 MSTORE DUP1 SWAP3 SWAP2 SWAP1 DUP2 DUP2 MSTORE PUSH1 0x20 ADD DUP3 DUP1 SLOAD PUSH2 0x3F6 SWAP1 PUSH2 0x2B23 JUMP JUMPDEST DUP1 ISZERO PUSH2 0x441 JUMPI DUP1 PUSH1 0x1F LT PUSH2 0x418 JUMPI PUSH2 0x100 DUP1 DUP4 SLOAD DIV MUL DUP4 MSTORE SWAP2 PUSH1 0x20 ADD SWAP2 PUSH2 0x441 JUMP JUMPDEST DUP3 ADD SWAP2 SWAP1 PUSH0 MSTORE PUSH1 0x20 PUSH0 KECCAK256 SWAP1 JUMPDEST DUP2 SLOAD DUP2 MSTORE SWAP1 PUSH1 0x1 ADD SWAP1 PUSH1 0x20 ADD DUP1 DUP4 GT PUSH2 0x424 JUMPI DUP3 SWAP1 SUB PUSH1 0x1F AND DUP3 ADD SWAP2 JUMPDEST POP POP POP POP POP DUP2 MSTORE PUSH1 0x20 ADD PUSH1 0x2 DUP3 ADD SLOAD DUP2 MSTORE PUSH1 0x20 ADD PUSH1 0x3 DUP3 ADD DUP1 SLOAD PUSH2 0x464 SWAP1 PUSH2 0x2B23 JUMP JUMPDEST DUP1 PUSH1 0x1F ADD PUSH1 0x20 DUP1 SWAP2 DIV MUL PUSH1 0x20 ADD PUSH1 0x40 MLOAD SWAP1 DUP2 ADD PUSH1 0x40 MSTORE DUP1 SWAP3 SWAP2 SWAP1 DUP2 DUP2 MSTORE PUSH1 0x20 ADD DUP3 DUP1 SLOAD PUSH2 0x490 SWAP1 PUSH2 0x2B23 JUMP JUMPDEST DUP1 ISZERO PUSH2 0x4DB JUMPI DUP1 PUSH1 0x1F LT PUSH2 0x4B2 JUMPI PUSH2 0x100 DUP1 DUP4 SLOAD DIV MUL DUP4 MSTORE SWAP2 PUSH1 0x20 ADD SWAP2 PUSH2 0x4DB JUMP JUMPDEST DUP3 ADD SWAP2 SWAP1 PUSH0 MSTORE PUSH1 0x20 PUSH0 KECCAK256 SWAP1 JUMPDEST DUP2 SLOAD DUP2 MSTORE SWAP1 PUSH1 0x1 ADD SWAP1 PUSH1 0x20 ADD DUP1 DUP4 GT PUSH2 0x4BE JUMPI DUP3 SWAP1 SUB PUSH1 0x1F AND DUP3 ADD SWAP2 JUMPDEST POP POP POP POP POP DUP2 MSTORE PUSH1 0x20 ADD PUSH1 0x4 DUP3 ADD DUP1 SLOAD PUSH2 0x4F4 SWAP1 PUSH2 0x2B23 JUMP JUMPDEST DUP1 PUSH1 0x1F ADD PUSH1 0x20 DUP1 SWAP2 DIV MUL PUSH1 0x20 ADD PUSH1 0x40 MLOAD SWAP1 DUP2 ADD PUSH1 0x40 MSTORE DUP1 SWAP3 SWAP2 SWAP1 DUP2 DUP2 MSTORE PUSH1 0x20 ADD DUP3 DUP1 SLOAD PUSH2 0x520 SWAP1 PUSH2 0x2B23 JUMP JUMPDEST DUP1 ISZERO PUSH2 0x56B JUMPI DUP1 PUSH1 0x1F LT PUSH2 0x542 JUMPI PUSH2 0x100 DUP1 DUP4 SLOAD DIV MUL DUP4 MSTORE SWAP2 PUSH1 0x20 ADD SWAP2 PUSH2 0x56B JUMP JUMPDEST DUP3 ADD SWAP2 SWAP1 PUSH0 MSTORE PUSH1 0x20 PUSH0 KECCAK256 SWAP1 JUMPDEST DUP2 SLOAD DUP2 MSTORE SWAP1 PUSH1 0x1 ADD SWAP1 PUSH1 0x20 ADD DUP1 DUP4 GT PUSH2 0x54E JUMPI DUP3 SWAP1 SUB PUSH1 0x1F AND DUP3 ADD SWAP2 JUMPDEST POP POP POP POP POP DUP2 MSTORE PUSH1 0x20 ADD PUSH1 0x5 DUP3 ADD DUP1 SLOAD PUSH2 0x584 SWAP1 PUSH2 0x2B23 JUMP JUMPDEST DUP1 PUSH1 0x1F ADD PUSH1 0x20 DUP1 SWAP2 DIV MUL PUSH1 0x20 ADD PUSH1 0x40 MLOAD SWAP1 DUP2 ADD PUSH1 0x40 MSTORE DUP1 SWAP3 SWAP2 SWAP1 DUP2 DUP2 MSTORE PUSH1 0x20 ADD DUP3 DUP1 SLOAD PUSH2 0x5B0 SWAP1 PUSH2 0x2B23 JUMP JUMPDEST DUP1 ISZERO PUSH2 0x5FB JUMPI DUP1 PUSH1 0x1F LT PUSH2 0x5D2 JUMPI PUSH2 0x100 DUP1 DUP4 SLOAD DIV MUL DUP4 MSTORE SWAP2 PUSH1 0x20 ADD SWAP2 PUSH2 0x5FB JUMP JUMPDEST DUP3 ADD SWAP2 SWAP1 PUSH0 MSTORE PUSH1 0x20 PUSH0 KECCAK256 SWAP1 JUMPDEST DUP2 SLOAD DUP2 MSTORE SWAP1 PUSH1 0x1 ADD SWAP1 PUSH1 0x20 ADD DUP1 DUP4 GT PUSH2 0x5DE JUMPI DUP3 SWAP1 SUB PUSH1 0x1F AND DUP3 ADD SWAP2 JUMPDEST POP POP POP POP POP DUP2 MSTORE PUSH1 0x20 ADD PUSH1 0x6 DUP3 ADD DUP1 SLOAD PUSH2 0x614 SWAP1 PUSH2 0x2B23 JUMP JUMPDEST DUP1 PUSH1 0x1F ADD PUSH1 0x20 DUP1 SWAP2 DIV MUL PUSH1 0x20 ADD PUSH1 0x40 MLOAD SWAP1 DUP2 ADD PUSH1 0x40 MSTORE DUP1 SWAP3 SWAP2 SWAP1 DUP2 DUP2 MSTORE PUSH1 0x20 ADD DUP3 DUP1 SLOAD PUSH2 0x640 SWAP1 PUSH2 0x2B23 JUMP JUMPDEST DUP1 ISZERO PUSH2 0x68B JUMPI DUP1 PUSH1 0x1F LT PUSH2 0x662 JUMPI PUSH2 0x100 DUP1 DUP4 SLOAD DIV MUL DUP4 MSTORE SWAP2 PUSH1 0x20 ADD SWAP2 PUSH2 0x68B JUMP JUMPDEST DUP3 ADD SWAP2 SWAP1 PUSH0 MSTORE PUSH1 0x20 PUSH0 KECCAK256 SWAP1 JUMPDEST DUP2 SLOAD DUP2 MSTORE SWAP1 PUSH1 0x1 ADD SWAP1 PUSH1 0x20 ADD DUP1 DUP4 GT PUSH2 0x66E JUMPI DUP3 SWAP1 SUB PUSH1 0x1F AND DUP3 ADD SWAP2 JUMPDEST POP POP POP POP POP DUP2 MSTORE PUSH1 0x20 ADD PUSH1 0x7 DUP3 ADD DUP1 SLOAD PUSH2 0x6A4 SWAP1 PUSH2 0x2B23 JUMP JUMPDEST DUP1 PUSH1 0x1F ADD PUSH1 0x20 DUP1 SWAP2 DIV MUL PUSH1 0x20 ADD PUSH1 0x40 MLOAD SWAP1 DUP2 ADD PUSH1 0x40 MSTORE DUP1 SWAP3 SWAP2 SWAP1 DUP2 DUP2 MSTORE PUSH1 0x20 ADD DUP3 DUP1 SLOAD PUSH2 0x6D0 SWAP1 PUSH2 0x2B23 JUMP JUMPDEST DUP1 ISZERO PUSH2 0x71B JUMPI DUP1 PUSH1 0x1F LT PUSH2 0x6F2 JUMPI PUSH2 0x100 DUP1 DUP4 SLOAD DIV MUL DUP4 MSTORE SWAP2 PUSH1 0x20 ADD SWAP2 PUSH2 0x71B JUMP JUMPDEST DUP3 ADD SWAP2 SWAP1 PUSH0 MSTORE PUSH1 0x20 PUSH0 KECCAK256 SWAP1 JUMPDEST DUP2 SLOAD DUP2 MSTORE SWAP1 PUSH1 0x1 ADD SWAP1 PUSH1 0x20 ADD DUP1 DUP4 GT PUSH2 0x6FE JUMPI DUP3 SWAP1 SUB PUSH1 0x1F AND DUP3 ADD SWAP2 JUMPDEST POP POP POP POP POP DUP2 MSTORE PUSH1 0x20 ADD PUSH1 0x8 DUP3 ADD DUP1 SLOAD PUSH2 0x734 SWAP1 PUSH2 0x2B23 JUMP JUMPDEST DUP1 PUSH1 0x1F ADD PUSH1 0x20 DUP1 SWAP2 DIV MUL PUSH1 0x20 ADD PUSH1 0x40 MLOAD SWAP1 DUP2 ADD PUSH1 0x40 MSTORE DUP1 SWAP3 SWAP2 SWAP1 DUP2 DUP2 MSTORE PUSH1 0x20 ADD DUP3 DUP1 SLOAD PUSH2 0x760 SWAP1 PUSH2 0x2B23 JUMP JUMPDEST DUP1 ISZERO PUSH2 0x7AB JUMPI DUP1 PUSH1 0x1F LT PUSH2 0x782 JUMPI PUSH2 0x100 DUP1 DUP4 SLOAD DIV MUL DUP4 MSTORE SWAP2 PUSH1 0x20 ADD SWAP2 PUSH2 0x7AB JUMP JUMPDEST DUP3 ADD SWAP2 SWAP1 PUSH0 MSTORE PUSH1 0x20 PUSH0 KECCAK256 SWAP1 JUMPDEST DUP2 SLOAD DUP2 MSTORE SWAP1 PUSH1 0x1 ADD SWAP1 PUSH1 0x20 ADD DUP1 DUP4 GT PUSH2 0x78E JUMPI DUP3 SWAP1 SUB PUSH1 0x1F AND DUP3 ADD SWAP2 JUMPDEST POP POP POP POP POP DUP2 MSTORE PUSH1 0x20 ADD PUSH1 0x9 DUP3 ADD DUP1 SLOAD PUSH2 0x7C4 SWAP1 PUSH2 0x2B23 JUMP JUMPDEST DUP1 PUSH1 0x1F ADD PUSH1 0x20 DUP1 SWAP2 DIV MUL PUSH1 0x20 ADD PUSH1 0x40 MLOAD SWAP1 DUP2 ADD PUSH1 0x40 MSTORE DUP1 SWAP3 SWAP2 SWAP1 DUP2 DUP2 MSTORE PUSH1 0x20 ADD DUP3 DUP1 SLOAD PUSH2 0x7F0 SWAP1 PUSH2 0x2B23 JUMP JUMPDEST DUP1 ISZERO PUSH2 0x83B JUMPI DUP1 PUSH1 0x1F LT PUSH2 0x812 JUMPI PUSH2 0x100 DUP1 DUP4 SLOAD DIV MUL DUP4 MSTORE SWAP2 PUSH1 0x20 ADD SWAP2 PUSH2 0x83B JUMP JUMPDEST DUP3 ADD SWAP2 SWAP1 PUSH0 MSTORE PUSH1 0x20 PUSH0 KECCAK256 SWAP1 JUMPDEST DUP2 SLOAD DUP2 MSTORE SWAP1 PUSH1 0x1 ADD SWAP1 PUSH1 0x20 ADD DUP1 DUP4 GT PUSH2 0x81E JUMPI DUP3 SWAP1 SUB PUSH1 0x1F AND DUP3 ADD SWAP2 JUMPDEST POP POP POP POP POP DUP2 MSTORE PUSH1 0x20 ADD PUSH1 0xA DUP3 ADD PUSH1 0x40 MLOAD DUP1 PUSH1 0x40 ADD PUSH1 0x40 MSTORE SWAP1 DUP2 PUSH0 DUP3 ADD DUP1 SLOAD PUSH2 0x863 SWAP1 PUSH2 0x2B23 JUMP JUMPDEST DUP1 PUSH1 0x1F ADD PUSH1 0x20 DUP1 SWAP2 DIV MUL PUSH1 0x20 ADD PUSH1 0x40 MLOAD SWAP1 DUP2 ADD PUSH1 0x40 MSTORE DUP1 SWAP3 SWAP2 SWAP1 DUP2 DUP2 MSTORE PUSH1 0x20 ADD DUP3 DUP1 SLOAD PUSH2 0x88F SWAP1 PUSH2 0x2B23 JUMP JUMPDEST DUP1 ISZERO PUSH2 0x8DA JUMPI DUP1 PUSH1 0x1F LT PUSH2 0x8B1 JUMPI PUSH2 0x100 DUP1 DUP4 SLOAD DIV MUL DUP4 MSTORE SWAP2 PUSH1 0x20 ADD SWAP2 PUSH2 0x8DA JUMP JUMPDEST DUP3 ADD SWAP2 SWAP1 PUSH0 MSTORE PUSH1 0x20 PUSH0 KECCAK256 SWAP1 JUMPDEST DUP2 SLOAD DUP2 MSTORE SWAP1 PUSH1 0x1 ADD SWAP1 PUSH1 0x20 ADD DUP1 DUP4 GT PUSH2 0x8BD JUMPI DUP3 SWAP1 SUB PUSH1 0x1F AND DUP3 ADD SWAP2 JUMPDEST POP POP POP POP POP DUP2 MSTORE PUSH1 0x20 ADD PUSH1 0x1 DUP3 ADD DUP1 SLOAD PUSH2 0x8F3 SWAP1 PUSH2 0x2B23 JUMP JUMPDEST DUP1 PUSH1 0x1F ADD PUSH1 0x20 DUP1 SWAP2 DIV MUL PUSH1 0x20 ADD PUSH1 0x40 MLOAD SWAP1 DUP2 ADD PUSH1 0x40 MSTORE DUP1 SWAP3 SWAP2 SWAP1 DUP2 DUP2 MSTORE PUSH1 0x20 ADD DUP3 DUP1 SLOAD PUSH2 0x91F SWAP1 PUSH2 0x2B23 JUMP JUMPDEST DUP1 ISZERO PUSH2 0x96A JUMPI DUP1 PUSH1 0x1F LT PUSH2 0x941 JUMPI PUSH2 0x100 DUP1 DUP4 SLOAD DIV MUL DUP4 MSTORE SWAP2 PUSH1 0x20 ADD SWAP2 PUSH2 0x96A JUMP JUMPDEST DUP3 ADD SWAP2 SWAP1 PUSH0 MSTORE PUSH1 0x20 PUSH0 KECCAK256 SWAP1 JUMPDEST DUP2 SLOAD DUP2 MSTORE SWAP1 PUSH1 0x1 ADD SWAP1 PUSH1 0x20 ADD DUP1 DUP4 GT PUSH2 0x94D JUMPI DUP3 SWAP1 SUB PUSH1 0x1F AND DUP3 ADD SWAP2 JUMPDEST POP POP POP POP POP DUP2 MSTORE POP POP DUP2 MSTORE POP POP SWAP1 DUP1 PUSH1 0x12 ADD PUSH1 0x40 MLOAD DUP1 PUSH1 0xE0 ADD PUSH1 0x40 MSTORE SWAP1 DUP2 PUSH0 DUP3 ADD SLOAD DUP2 MSTORE PUSH1 0x20 ADD PUSH1 0x1 DUP3 ADD SLOAD DUP2 MSTORE PUSH1 0x20 ADD PUSH1 0x2 DUP3 ADD DUP1 SLOAD PUSH2 0x9AA SWAP1 PUSH2 0x2B23 JUMP JUMPDEST DUP1 PUSH1 0x1F ADD PUSH1 0x20 DUP1 SWAP2 DIV MUL PUSH1 0x20 ADD PUSH1 0x40 MLOAD SWAP1 DUP2 ADD PUSH1 0x40 MSTORE DUP1 SWAP3 SWAP2 SWAP1 DUP2 DUP2 MSTORE PUSH1 0x20 ADD DUP3 DUP1 SLOAD PUSH2 0x9D6 SWAP1 PUSH2 0x2B23 JUMP JUMPDEST DUP1 ISZERO PUSH2 0xA21 JUMPI DUP1 PUSH1 0x1F LT PUSH2 0x9F8 JUMPI PUSH2 0x100 DUP1 DUP4 SLOAD DIV MUL DUP4 MSTORE SWAP2 PUSH1 0x20 ADD SWAP2 PUSH2 0xA21 JUMP JUMPDEST DUP3 ADD SWAP2 SWAP1 PUSH0 MSTORE PUSH1 0x20 PUSH0 KECCAK256 SWAP1 JUMPDEST DUP2 SLOAD DUP2 MSTORE SWAP1 PUSH1 0x1 ADD SWAP1 PUSH1 0x20 ADD DUP1 DUP4 GT PUSH2 0xA04 JUMPI DUP3 SWAP1 SUB PUSH1 0x1F AND DUP3 ADD SWAP2 JUMPDEST POP POP POP POP POP DUP2 MSTORE PUSH1 0x20 ADD PUSH1 0x3 DUP3 ADD DUP1 SLOAD PUSH2 0xA3A SWAP1 PUSH2 0x2B23 JUMP JUMPDEST DUP1 PUSH1 0x1F ADD PUSH1 0x20 DUP1 SWAP2 DIV MUL PUSH1 0x20 ADD PUSH1 0x40 MLOAD SWAP1 DUP2 ADD PUSH1 0x40 MSTORE DUP1 SWAP3 SWAP2 SWAP1 DUP2 DUP2 MSTORE PUSH1 0x20 ADD DUP3 DUP1 SLOAD PUSH2 0xA66 SWAP1 PUSH2 0x2B23 JUMP JUMPDEST DUP1 ISZERO PUSH2 0xAB1 JUMPI DUP1 PUSH1 0x1F LT PUSH2 0xA88 JUMPI PUSH2 0x100 DUP1 DUP4 SLOAD DIV MUL DUP4 MSTORE SWAP2 PUSH1 0x20 ADD SWAP2 PUSH2 0xAB1 JUMP JUMPDEST DUP3 ADD SWAP2 SWAP1 PUSH0 MSTORE PUSH1 0x20 PUSH0 KECCAK256 SWAP1 JUMPDEST DUP2 SLOAD DUP2 MSTORE SWAP1 PUSH1 0x1 ADD SWAP1 PUSH1 0x20 ADD DUP1 DUP4 GT PUSH2 0xA94 JUMPI DUP3 SWAP1 SUB PUSH1 0x1F AND DUP3 ADD SWAP2 JUMPDEST POP POP POP POP POP DUP2 MSTORE PUSH1 0x20 ADD PUSH1 0x4 DUP3 ADD DUP1 SLOAD PUSH2 0xACA SWAP1 PUSH2 0x2B23 JUMP JUMPDEST DUP1 PUSH1 0x1F ADD PUSH1 0x20 DUP1 SWAP2 DIV MUL PUSH1 0x20 ADD PUSH1 0x40 MLOAD SWAP1 DUP2 ADD PUSH1 0x40 MSTORE DUP1 SWAP3 SWAP2 SWAP1 DUP2 DUP2 MSTORE PUSH1 0x20 ADD DUP3 DUP1 SLOAD PUSH2 0xAF6 SWAP1 PUSH2 0x2B23 JUMP JUMPDEST DUP1 ISZERO PUSH2 0xB41 JUMPI DUP1 PUSH1 0x1F LT PUSH2 0xB18 JUMPI PUSH2 0x100 DUP1 DUP4 SLOAD DIV MUL DUP4 MSTORE SWAP2 PUSH1 0x20 ADD SWAP2 PUSH2 0xB41 JUMP JUMPDEST DUP3 ADD SWAP2 SWAP1 PUSH0 MSTORE PUSH1 0x20 PUSH0 KECCAK256 SWAP1 JUMPDEST DUP2 SLOAD DUP2 MSTORE SWAP1 PUSH1 0x1 ADD SWAP1 PUSH1 0x20 ADD DUP1 DUP4 GT PUSH2 0xB24 JUMPI DUP3 SWAP1 SUB PUSH1 0x1F AND DUP3 ADD SWAP2 JUMPDEST POP POP POP POP POP DUP2 MSTORE PUSH1 0x20 ADD PUSH1 0x5 DUP3 ADD DUP1 SLOAD PUSH2 0xB5A SWAP1 PUSH2 0x2B23 JUMP JUMPDEST DUP1 PUSH1 0x1F ADD PUSH1 0x20 DUP1 SWAP2 DIV MUL PUSH1 0x20 ADD PUSH1 0x40 MLOAD SWAP1 DUP2 ADD PUSH1 0x40 MSTORE DUP1 SWAP3 SWAP2 SWAP1 DUP2 DUP2 MSTORE PUSH1 0x20 ADD DUP3 DUP1 SLOAD PUSH2 0xB86 SWAP1 PUSH2 0x2B23 JUMP JUMPDEST DUP1 ISZERO PUSH2 0xBD1 JUMPI DUP1 PUSH1 0x1F LT PUSH2 0xBA8 JUMPI PUSH2 0x100 DUP1 DUP4 SLOAD DIV MUL DUP4 MSTORE SWAP2 PUSH1 0x20 ADD SWAP2 PUSH2 0xBD1 JUMP JUMPDEST DUP3 ADD SWAP2 SWAP1 PUSH0 MSTORE PUSH1 0x20 PUSH0 KECCAK256 SWAP1 JUMPDEST DUP2 SLOAD DUP2 MSTORE SWAP1 PUSH1 0x1 ADD SWAP1 PUSH1 0x20 ADD DUP1 DUP4 GT PUSH2 0xBB4 JUMPI DUP3 SWAP1 SUB PUSH1 0x1F AND DUP3 ADD SWAP2 JUMPDEST POP POP POP POP POP DUP2 MSTORE PUSH1 0x20 ADD PUSH1 0x6 DUP3 ADD DUP1 SLOAD PUSH2 0xBEA SWAP1 PUSH2 0x2B23 JUMP JUMPDEST DUP1 PUSH1 0x1F ADD PUSH1 0x20 DUP1 SWAP2 DIV MUL PUSH1 0x20 ADD PUSH1 0x40 MLOAD SWAP1 DUP2 ADD PUSH1 0x40 MSTORE DUP1 SWAP3 SWAP2 SWAP1 DUP2 DUP2 MSTORE PUSH1 0x20 ADD DUP3 DUP1 SLOAD PUSH2 0xC16 SWAP1 PUSH2 0x2B23 JUMP JUMPDEST DUP1 ISZERO PUSH2 0xC61 JUMPI DUP1 PUSH1 0x1F LT PUSH2 0xC38 JUMPI PUSH2 0x100 DUP1 DUP4 SLOAD DIV MUL DUP4 MSTORE SWAP2 PUSH1 0x20 ADD SWAP2 PUSH2 0xC61 JUMP JUMPDEST DUP3 ADD SWAP2 SWAP1 PUSH0 MSTORE PUSH1 0x20 PUSH0 KECCAK256 SWAP1 JUMPDEST DUP2 SLOAD DUP2 MSTORE SWAP1 PUSH1 0x1 ADD SWAP1 PUSH1 0x20 ADD DUP1 DUP4 GT PUSH2 0xC44 JUMPI DUP3 SWAP1 SUB PUSH1 0x1F AND DUP3 ADD SWAP2 JUMPDEST POP POP POP POP POP DUP2 MSTORE POP POP SWAP1 DUP1 PUSH1 0x1B ADD PUSH1 0x40 MLOAD DUP1 PUSH1 0x80 ADD PUSH1 0x40 MSTORE SWAP1 DUP2 PUSH0 DUP3 ADD DUP1 SLOAD DUP1 PUSH1 0x20 MUL PUSH1 0x20 ADD PUSH1 0x40 MLOAD SWAP1 DUP2 ADD PUSH1 0x40 MSTORE DUP1 SWAP3 SWAP2 SWAP1 DUP2 DUP2 MSTORE PUSH1 0x20 ADD PUSH0 SWAP1 JUMPDEST DUP3 DUP3 LT ISZERO PUSH2 0xD45 JUMPI DUP4 DUP3 SWAP1 PUSH0 MSTORE PUSH1 0x20 PUSH0 KECCAK256 ADD DUP1 SLOAD PUSH2 0xCBA SWAP1 PUSH2 0x2B23 JUMP JUMPDEST DUP1 PUSH1 0x1F ADD PUSH1 0x20 DUP1 SWAP2 DIV MUL PUSH1 0x20 ADD PUSH1 0x40 MLOAD SWAP1 DUP2 ADD PUSH1 0x40 MSTORE DUP1 SWAP3 SWAP2 SWAP1 DUP2 DUP2 MSTORE PUSH1 0x20 ADD DUP3 DUP1 SLOAD PUSH2 0xCE6 SWAP1 PUSH2 0x2B23 JUMP JUMPDEST DUP1 ISZERO PUSH2 0xD31 JUMPI DUP1 PUSH1 0x1F LT PUSH2 0xD08 JUMPI PUSH2 0x100 DUP1 DUP4 SLOAD DIV MUL DUP4 MSTORE SWAP2 PUSH1 0x20 ADD SWAP2 PUSH2 0xD31 JUMP JUMPDEST DUP3 ADD SWAP2 SWAP1 PUSH0 MSTORE PUSH1 0x20 PUSH0 KECCAK256 SWAP1 JUMPDEST DUP2 SLOAD DUP2 MSTORE SWAP1 PUSH1 0x1 ADD SWAP1 PUSH1 0x20 ADD DUP1 DUP4 GT PUSH2 0xD14 JUMPI DUP3 SWAP1 SUB PUSH1 0x1F AND DUP3 ADD SWAP2 JUMPDEST POP POP POP POP POP DUP2 MSTORE PUSH1 0x20 ADD SWAP1 PUSH1 0x1 ADD SWAP1 PUSH2 0xC9D JUMP JUMPDEST POP POP POP POP DUP2 MSTORE PUSH1 0x20 ADD PUSH1 0x1 DUP3 ADD DUP1 SLOAD PUSH2 0xD5D SWAP1 PUSH2 0x2B23 JUMP JUMPDEST DUP1 PUSH1 0x1F ADD PUSH1 0x20 DUP1 SWAP2 DIV MUL PUSH1 0x20 ADD PUSH1 0x40 MLOAD SWAP1 DUP2 ADD PUSH1 0x40 MSTORE DUP1 SWAP3 SWAP2 SWAP1 DUP2 DUP2 MSTORE PUSH1 0x20 ADD DUP3 DUP1 SLOAD PUSH2 0xD89 SWAP1 PUSH2 0x2B23 JUMP JUMPDEST DUP1 ISZERO PUSH2 0xDD4 JUMPI DUP1 PUSH1 0x1F LT PUSH2 0xDAB JUMPI PUSH2 0x100 DUP1 DUP4 SLOAD DIV MUL DUP4 MSTORE SWAP2 PUSH1 0x20 ADD SWAP2 PUSH2 0xDD4 JUMP JUMPDEST DUP3 ADD SWAP2 SWAP1 PUSH0 MSTORE PUSH1 0x20 PUSH0 KECCAK256 SWAP1 JUMPDEST DUP2 SLOAD DUP2 MSTORE SWAP1 PUSH1 0x1 ADD SWAP1 PUSH1 0x20 ADD DUP1 DUP4 GT PUSH2 0xDB7 JUMPI DUP3 SWAP1 SUB PUSH1 0x1F AND DUP3 ADD SWAP2 JUMPDEST POP POP POP POP POP DUP2 MSTORE PUSH1 0x20 ADD PUSH1 0x2 DUP3 ADD DUP1 SLOAD PUSH2 0xDED SWAP1 PUSH2 0x2B23 JUMP JUMPDEST DUP1 PUSH1 0x1F ADD PUSH1 0x20 DUP1 SWAP2 DIV MUL PUSH1 0x20 ADD PUSH1 0x40 MLOAD SWAP1 DUP2 ADD PUSH1 0x40 MSTORE DUP1 SWAP3 SWAP2 SWAP1 DUP2 DUP2 MSTORE PUSH1 0x20 ADD DUP3 DUP1 SLOAD PUSH2 0xE19 SWAP1 PUSH2 0x2B23 JUMP JUMPDEST DUP1 ISZERO PUSH2 0xE64 JUMPI DUP1 PUSH1 0x1F LT PUSH2 0xE3B JUMPI PUSH2 0x100 DUP1 DUP4 SLOAD DIV MUL DUP4 MSTORE SWAP2 PUSH1 0x20 ADD SWAP2 PUSH2 0xE64 JUMP JUMPDEST DUP3 ADD SWAP2 SWAP1 PUSH0 MSTORE PUSH1 0x20 PUSH0 KECCAK256 SWAP1 JUMPDEST DUP2 SLOAD DUP2 MSTORE SWAP1 PUSH1 0x1 ADD SWAP1 PUSH1 0x20 ADD DUP1 DUP4 GT PUSH2 0xE47 JUMPI DUP3 SWAP1 SUB PUSH1 0x1F AND DUP3 ADD SWAP2 JUMPDEST POP POP POP POP POP DUP2 MSTORE PUSH1 0x20 ADD PUSH1 0x3 DUP3 ADD DUP1 SLOAD PUSH2 0xE7D SWAP1 PUSH2 0x2B23 JUMP JUMPDEST DUP1 PUSH1 0x1F ADD PUSH1 0x20 DUP1 SWAP2 DIV MUL PUSH1 0x20 ADD PUSH1 0x40 MLOAD SWAP1 DUP2 ADD PUSH1 0x40 MSTORE DUP1 SWAP3 SWAP2 SWAP1 DUP2 DUP2 MSTORE PUSH1 0x20 ADD DUP3 DUP1 SLOAD PUSH2 0xEA9 SWAP1 PUSH2 0x2B23 JUMP JUMPDEST DUP1 ISZERO PUSH2 0xEF4 JUMPI DUP1 PUSH1 0x1F LT PUSH2 0xECB JUMPI PUSH2 0x100 DUP1 DUP4 SLOAD DIV MUL DUP4 MSTORE SWAP2 PUSH1 0x20 ADD SWAP2 PUSH2 0xEF4 JUMP JUMPDEST DUP3 ADD SWAP2 SWAP1 PUSH0 MSTORE PUSH1 0x20 PUSH0 KECCAK256 SWAP1 JUMPDEST DUP2 SLOAD DUP2 MSTORE SWAP1 PUSH1 0x1 ADD SWAP1 PUSH1 0x20 ADD DUP1 DUP4 GT PUSH2 0xED7 JUMPI DUP3 SWAP1 SUB PUSH1 0x1F AND DUP3 ADD SWAP2 JUMPDEST POP POP POP POP POP DUP2 MSTORE POP POP SWAP1 DUP1 PUSH1 0x1F ADD PUSH1 0x40 MLOAD DUP1 PUSH1 0xA0 ADD PUSH1 0x40 MSTORE SWAP1 DUP2 PUSH0 DUP3 ADD PUSH0 SWAP1 SLOAD SWAP1 PUSH2 0x100 EXP SWAP1 DIV PUSH1 0xFF AND ISZERO ISZERO ISZERO ISZERO DUP2 MSTORE PUSH1 0x20 ADD PUSH1 0x1 DUP3 ADD DUP1 SLOAD PUSH2 0xF36 SWAP1 PUSH2 0x2B23 JUMP JUMPDEST DUP1 PUSH1 0x1F ADD PUSH1 0x20 DUP1 SWAP2 DIV MUL PUSH1 0x20 ADD PUSH1 0x40 MLOAD SWAP1 DUP2 ADD PUSH1 0x40 MSTORE DUP1 SWAP3 SWAP2 SWAP1 DUP2 DUP2 MSTORE PUSH1 0x20 ADD DUP3 DUP1 SLOAD PUSH2 0xF62 SWAP1 PUSH2 0x2B23 JUMP JUMPDEST DUP1 ISZERO PUSH2 0xFAD JUMPI DUP1 PUSH1 0x1F LT PUSH2 0xF84 JUMPI PUSH2 0x100 DUP1 DUP4 SLOAD DIV MUL DUP4 MSTORE SWAP2 PUSH1 0x20 ADD SWAP2 PUSH2 0xFAD JUMP JUMPDEST DUP3 ADD SWAP2 SWAP1 PUSH0 MSTORE PUSH1 0x20 PUSH0 KECCAK256 SWAP1 JUMPDEST DUP2 SLOAD DUP2 MSTORE SWAP1 PUSH1 0x1 ADD SWAP1 PUSH1 0x20 ADD DUP1 DUP4 GT PUSH2 0xF90 JUMPI DUP3 SWAP1 SUB PUSH1 0x1F AND DUP3 ADD SWAP2 JUMPDEST POP POP POP POP POP DUP2 MSTORE PUSH1 0x20 ADD PUSH1 0x2 DUP3 ADD DUP1 SLOAD PUSH2 0xFC6 SWAP1 PUSH2 0x2B23 JUMP JUMPDEST DUP1 PUSH1 0x1F ADD PUSH1 0x20 DUP1 SWAP2 DIV MUL PUSH1 0x20 ADD PUSH1 0x40 MLOAD SWAP1 DUP2 ADD PUSH1 0x40 MSTORE DUP1 SWAP3 SWAP2 SWAP1 DUP2 DUP2 MSTORE PUSH1 0x20 ADD DUP3 DUP1 SLOAD PUSH2 0xFF2 SWAP1 PUSH2 0x2B23 JUMP JUMPDEST DUP1 ISZERO PUSH2 0x103D JUMPI DUP1 PUSH1 0x1F LT PUSH2 0x1014 JUMPI PUSH2 0x100 DUP1 DUP4 SLOAD DIV MUL DUP4 MSTORE SWAP2 PUSH1 0x20 ADD SWAP2 PUSH2 0x103D JUMP JUMPDEST DUP3 ADD SWAP2 SWAP1 PUSH0 MSTORE PUSH1 0x20 PUSH0 KECCAK256 SWAP1 JUMPDEST DUP2 SLOAD DUP2 MSTORE SWAP1 PUSH1 0x1 ADD SWAP1 PUSH1 0x20 ADD DUP1 DUP4 GT PUSH2 0x1020 JUMPI DUP3 SWAP1 SUB PUSH1 0x1F AND DUP3 ADD SWAP2 JUMPDEST POP POP POP POP POP DUP2 MSTORE PUSH1 0x20 ADD PUSH1 0x3 DUP3 ADD DUP1 SLOAD PUSH2 0x1056 SWAP1 PUSH2 0x2B23 JUMP JUMPDEST DUP1 PUSH1 0x1F ADD PUSH1 0x20 DUP1 SWAP2 DIV MUL PUSH1 0x20 ADD PUSH1 0x40 MLOAD SWAP1 DUP2 ADD PUSH1 0x40 MSTORE DUP1 SWAP3 SWAP2 SWAP1 DUP2 DUP2 MSTORE PUSH1 0x20 ADD DUP3 DUP1 SLOAD PUSH2 0x1082 SWAP1 PUSH2 0x2B23 JUMP JUMPDEST DUP1 ISZERO PUSH2 0x10CD JUMPI DUP1 PUSH1 0x1F LT PUSH2 0x10A4 JUMPI PUSH2 0x100 DUP1 DUP4 SLOAD DIV MUL DUP4 MSTORE SWAP2 PUSH1 0x20 ADD SWAP2 PUSH2 0x10CD JUMP JUMPDEST DUP3 ADD SWAP2 SWAP1 PUSH0 MSTORE PUSH1 0x20 PUSH0 KECCAK256 SWAP1 JUMPDEST DUP2 SLOAD DUP2 MSTORE SWAP1 PUSH1 0x1 ADD SWAP1 PUSH1 0x20 ADD DUP1 DUP4 GT PUSH2 0x10B0 JUMPI DUP3 SWAP1 SUB PUSH1 0x1F AND DUP3 ADD SWAP2 JUMPDEST POP POP POP POP POP DUP2 MSTORE PUSH1 0x20 ADD PUSH1 0x4 DUP3 ADD DUP1 SLOAD PUSH2 0x10E6 SWAP1 PUSH2 0x2B23 JUMP JUMPDEST DUP1 PUSH1 0x1F ADD PUSH1 0x20 DUP1 SWAP2 DIV MUL PUSH1 0x20 ADD PUSH1 0x40 MLOAD SWAP1 DUP2 ADD PUSH1 0x40 MSTORE DUP1 SWAP3 SWAP2 SWAP1 DUP2 DUP2 MSTORE PUSH1 0x20 ADD DUP3 DUP1 SLOAD PUSH2 0x1112 SWAP1 PUSH2 0x2B23 JUMP JUMPDEST DUP1 ISZERO PUSH2 0x115D JUMPI DUP1 PUSH1 0x1F LT PUSH2 0x1134 JUMPI PUSH2 0x100 DUP1 DUP4 SLOAD DIV MUL DUP4 MSTORE SWAP2 PUSH1 0x20 ADD SWAP2 PUSH2 0x115D JUMP JUMPDEST DUP3 ADD SWAP2 SWAP1 PUSH0 MSTORE PUSH1 0x20 PUSH0 KECCAK256 SWAP1 JUMPDEST DUP2 SLOAD DUP2 MSTORE SWAP1 PUSH1 0x1 ADD SWAP1 PUSH1 0x20 ADD DUP1 DUP4 GT PUSH2 0x1140 JUMPI DUP3 SWAP1 SUB PUSH1 0x1F AND DUP3 ADD SWAP2 JUMPDEST POP POP POP POP POP DUP2 MSTORE POP POP SWAP1 POP DUP9 JUMP JUMPDEST PUSH0 SLOAD DUP2 JUMP JUMPDEST PUSH0 PUSH1 0x1 PUSH0 PUSH0 PUSH0 DUP2 SLOAD DUP1 SWAP3 SWAP2 SWAP1 PUSH2 0x1185 SWAP1 PUSH2 0x2B80 JUMP JUMPDEST SWAP2 SWAP1 POP SSTORE DUP2 MSTORE PUSH1 0x20 ADD SWAP1 DUP2 MSTORE PUSH1 0x20 ADD PUSH0 KECCAK256 SWAP1 POP DUP9 DUP2 PUSH1 0x1 ADD SWAP1 DUP2 PUSH2 0x11A9 SWAP2 SWAP1 PUSH2 0x2D67 JUMP JUMPDEST POP DUP8 DUP2 PUSH1 0x3 ADD PUSH0 DUP3 ADD MLOAD DUP2 PUSH0 ADD SWAP1 DUP2 PUSH2 0x11C2 SWAP2 SWAP1 PUSH2 0x2D67 JUMP JUMPDEST POP PUSH1 0x20 DUP3 ADD MLOAD DUP2 PUSH1 0x1 ADD SWAP1 DUP2 PUSH2 0x11D8 SWAP2 SWAP1 PUSH2 0x2D67 JUMP JUMPDEST POP PUSH1 0x40 DUP3 ADD MLOAD DUP2 PUSH1 0x2 ADD SWAP1 DUP2 PUSH2 0x11EE SWAP2 SWAP1 PUSH2 0x2D67 JUMP JUMPDEST POP SWAP1 POP POP DUP7 DUP2 PUSH1 0x6 ADD PUSH0 DUP3 ADD MLOAD DUP2 PUSH0 ADD SWAP1 DUP2 PUSH2 0x120A SWAP2 SWAP1 PUSH2 0x2D67 JUMP JUMPDEST POP PUSH1 0x20 DUP3 ADD MLOAD DUP2 PUSH1 0x1 ADD SWAP1 DUP2 PUSH2 0x1220 SWAP2 SWAP1 PUSH2 0x2D67 JUMP JUMPDEST POP PUSH1 0x40 DUP3 ADD MLOAD DUP2 PUSH1 0x2 ADD SSTORE PUSH1 0x60 DUP3 ADD MLOAD DUP2 PUSH1 0x3 ADD SWAP1 DUP2 PUSH2 0x1240 SWAP2 SWAP1 PUSH2 0x2D67 JUMP JUMPDEST POP PUSH1 0x80 DUP3 ADD MLOAD DUP2 PUSH1 0x4 ADD SWAP1 DUP2 PUSH2 0x1256 SWAP2 SWAP1 PUSH2 0x2D67 JUMP JUMPDEST POP PUSH1 0xA0 DUP3 ADD MLOAD DUP2 PUSH1 0x5 ADD SWAP1 DUP2 PUSH2 0x126C SWAP2 SWAP1 PUSH2 0x2D67 JUMP JUMPDEST POP PUSH1 0xC0 DUP3 ADD MLOAD DUP2 PUSH1 0x6 ADD SWAP1 DUP2 PUSH2 0x1282 SWAP2 SWAP1 PUSH2 0x2D67 JUMP JUMPDEST POP PUSH1 0xE0 DUP3 ADD MLOAD DUP2 PUSH1 0x7 ADD SWAP1 DUP2 PUSH2 0x1298 SWAP2 SWAP1 PUSH2 0x2D67 JUMP JUMPDEST POP PUSH2 0x100 DUP3 ADD MLOAD DUP2 PUSH1 0x8 ADD SWAP1 DUP2 PUSH2 0x12AF SWAP2 SWAP1 PUSH2 0x2D67 JUMP JUMPDEST POP PUSH2 0x120 DUP3 ADD MLOAD DUP2 PUSH1 0x9 ADD SWAP1 DUP2 PUSH2 0x12C6 SWAP2 SWAP1 PUSH2 0x2D67 JUMP JUMPDEST POP PUSH2 0x140 DUP3 ADD MLOAD DUP2 PUSH1 0xA ADD PUSH0 DUP3 ADD MLOAD DUP2 PUSH0 ADD SWAP1 DUP2 PUSH2 0x12E4 SWAP2 SWAP1 PUSH2 0x2D67 JUMP JUMPDEST POP PUSH1 0x20 DUP3 ADD MLOAD DUP2 PUSH1 0x1 ADD SWAP1 DUP2 PUSH2 0x12FA SWAP2 SWAP1 PUSH2 0x2D67 JUMP JUMPDEST POP POP POP SWAP1 POP POP DUP6 DUP2 PUSH1 0x12 ADD PUSH0 DUP3 ADD MLOAD DUP2 PUSH0 ADD SSTORE PUSH1 0x20 DUP3 ADD MLOAD DUP2 PUSH1 0x1 ADD SSTORE PUSH1 0x40 DUP3 ADD MLOAD DUP2 PUSH1 0x2 ADD SWAP1 DUP2 PUSH2 0x132C SWAP2 SWAP1 PUSH2 0x2D67 JUMP JUMPDEST POP PUSH1 0x60 DUP3 ADD MLOAD DUP2 PUSH1 0x3 ADD SWAP1 DUP2 PUSH2 0x1342 SWAP2 SWAP1 PUSH2 0x2D67 JUMP JUMPDEST POP PUSH1 0x80 DUP3 ADD MLOAD DUP2 PUSH1 0x4 ADD SWAP1 DUP2 PUSH2 0x1358 SWAP2 SWAP1 PUSH2 0x2D67 JUMP JUMPDEST POP PUSH1 0xA0 DUP3 ADD MLOAD DUP2 PUSH1 0x5 ADD SWAP1 DUP2 PUSH2 0x136E SWAP2 SWAP1 PUSH2 0x2D67 JUMP JUMPDEST POP PUSH1 0xC0 DUP3 ADD MLOAD DUP2 PUSH1 0x6 ADD SWAP1 DUP2 PUSH2 0x1384 SWAP2 SWAP1 PUSH2 0x2D67 JUMP JUMPDEST POP SWAP1 POP POP PUSH0 PUSH0 SWAP1 POP JUMPDEST DUP6 MLOAD DUP2 LT ISZERO PUSH2 0x1460 JUMPI DUP2 PUSH1 0x19 ADD DUP7 DUP3 DUP2 MLOAD DUP2 LT PUSH2 0x13AD JUMPI PUSH2 0x13AC PUSH2 0x2E36 JUMP JUMPDEST JUMPDEST PUSH1 0x20 MUL PUSH1 0x20 ADD ADD MLOAD SWAP1 DUP1 PUSH1 0x1 DUP2 SLOAD ADD DUP1 DUP3 SSTORE DUP1 SWAP2 POP POP PUSH1 0x1 SWAP1 SUB SWAP1 PUSH0 MSTORE PUSH1 0x20 PUSH0 KECCAK256 SWAP1 PUSH1 0x6 MUL ADD PUSH0 SWAP1 SWAP2 SWAP1 SWAP2 SWAP1 SWAP2 POP PUSH0 DUP3 ADD MLOAD DUP2 PUSH0 ADD SWAP1 DUP2 PUSH2 0x13EE SWAP2 SWAP1 PUSH2 0x2D67 JUMP JUMPDEST POP PUSH1 0x20 DUP3 ADD MLOAD DUP2 PUSH1 0x1 ADD SWAP1 DUP2 PUSH2 0x1404 SWAP2 SWAP1 PUSH2 0x2D67 JUMP JUMPDEST POP PUSH1 0x40 DUP3 ADD MLOAD DUP2 PUSH1 0x2 ADD SWAP1 DUP2 PUSH2 0x141A SWAP2 SWAP1 PUSH2 0x2D67 JUMP JUMPDEST POP PUSH1 0x60 DUP3 ADD MLOAD DUP2 PUSH1 0x3 ADD SSTORE PUSH1 0x80 DUP3 ADD MLOAD DUP2 PUSH1 0x4 ADD SWAP1 DUP2 PUSH2 0x143A SWAP2 SWAP1 PUSH2 0x2D67 JUMP JUMPDEST POP PUSH1 0xA0 DUP3 ADD MLOAD DUP2 PUSH1 0x5 ADD SWAP1 DUP2 PUSH2 0x1450 SWAP2 SWAP1 PUSH2 0x2D67 JUMP JUMPDEST POP POP POP DUP1 DUP1 PUSH1 0x1 ADD SWAP2 POP POP PUSH2 0x138D JUMP JUMPDEST POP PUSH0 PUSH0 SWAP1 POP JUMPDEST DUP5 MLOAD DUP2 LT ISZERO PUSH2 0x1503 JUMPI DUP2 PUSH1 0x1A ADD DUP6 DUP3 DUP2 MLOAD DUP2 LT PUSH2 0x1486 JUMPI PUSH2 0x1485 PUSH2 0x2E36 JUMP JUMPDEST JUMPDEST PUSH1 0x20 MUL PUSH1 0x20 ADD ADD MLOAD SWAP1 DUP1 PUSH1 0x1 DUP2 SLOAD ADD DUP1 DUP3 SSTORE DUP1 SWAP2 POP POP PUSH1 0x1 SWAP1 SUB SWAP1 PUSH0 MSTORE PUSH1 0x20 PUSH0 KECCAK256 SWAP1 PUSH1 0x3 MUL ADD PUSH0 SWAP1 SWAP2 SWAP1 SWAP2 SWAP1 SWAP2 POP PUSH0 DUP3 ADD MLOAD DUP2 PUSH0 ADD SWAP1 DUP2 PUSH2 0x14C7 SWAP2 SWAP1 PUSH2 0x2D67 JUMP JUMPDEST POP PUSH1 0x20 DUP3 ADD MLOAD DUP2 PUSH1 0x1 ADD SWAP1 DUP2 PUSH2 0x14DD SWAP2 SWAP1 PUSH2 0x2D67 JUMP JUMPDEST POP PUSH1 0x40 DUP3 ADD MLOAD DUP2 PUSH1 0x2 ADD SWAP1 DUP2 PUSH2 0x14F3 SWAP2 SWAP1 PUSH2 0x2D67 JUMP JUMPDEST POP POP POP DUP1 DUP1 PUSH1 0x1 ADD SWAP2 POP POP PUSH2 0x1466 JUMP JUMPDEST POP DUP3 DUP2 PUSH1 0x1B ADD PUSH0 DUP3 ADD MLOAD DUP2 PUSH0 ADD SWAP1 DUP1 MLOAD SWAP1 PUSH1 0x20 ADD SWAP1 PUSH2 0x1523 SWAP3 SWAP2 SWAP1 PUSH2 0x15F1 JUMP JUMPDEST POP PUSH1 0x20 DUP3 ADD MLOAD DUP2 PUSH1 0x1 ADD SWAP1 DUP2 PUSH2 0x1539 SWAP2 SWAP1 PUSH2 0x2D67 JUMP JUMPDEST POP PUSH1 0x40 DUP3 ADD MLOAD DUP2 PUSH1 0x2 ADD SWAP1 DUP2 PUSH2 0x154F SWAP2 SWAP1 PUSH2 0x2D67 JUMP JUMPDEST POP PUSH1 0x60 DUP3 ADD MLOAD DUP2 PUSH1 0x3 ADD SWAP1 DUP2 PUSH2 0x1565 SWAP2 SWAP1 PUSH2 0x2D67 JUMP JUMPDEST POP SWAP1 POP POP DUP2 DUP2 PUSH1 0x1F ADD PUSH0 DUP3 ADD MLOAD DUP2 PUSH0 ADD PUSH0 PUSH2 0x100 EXP DUP2 SLOAD DUP2 PUSH1 0xFF MUL NOT AND SWAP1 DUP4 ISZERO ISZERO MUL OR SWAP1 SSTORE POP PUSH1 0x20 DUP3 ADD MLOAD DUP2 PUSH1 0x1 ADD SWAP1 DUP2 PUSH2 0x15A0 SWAP2 SWAP1 PUSH2 0x2D67 JUMP JUMPDEST POP PUSH1 0x40 DUP3 ADD MLOAD DUP2 PUSH1 0x2 ADD SWAP1 DUP2 PUSH2 0x15B6 SWAP2 SWAP1 PUSH2 0x2D67 JUMP JUMPDEST POP PUSH1 0x60 DUP3 ADD MLOAD DUP2 PUSH1 0x3 ADD SWAP1 DUP2 PUSH2 0x15CC SWAP2 SWAP1 PUSH2 0x2D67 JUMP JUMPDEST POP PUSH1 0x80 DUP3 ADD MLOAD DUP2 PUSH1 0x4 ADD SWAP1 DUP2 PUSH2 0x15E2 SWAP2 SWAP1 PUSH2 0x2D67 JUMP JUMPDEST POP SWAP1 POP POP POP POP POP POP POP POP POP POP POP JUMP JUMPDEST DUP3 DUP1 SLOAD DUP3 DUP3 SSTORE SWAP1 PUSH0 MSTORE PUSH1 0x20 PUSH0 KECCAK256 SWAP1 DUP2 ADD SWAP3 DUP3 ISZERO PUSH2 0x1637 JUMPI SWAP2 PUSH1 0x20 MUL DUP3 ADD JUMPDEST DUP3 DUP2 GT ISZERO PUSH2 0x1636 JUMPI DUP3 MLOAD DUP3 SWAP1 DUP2 PUSH2 0x1626 SWAP2 SWAP1 PUSH2 0x2D67 JUMP JUMPDEST POP SWAP2 PUSH1 0x20 ADD SWAP2 SWAP1 PUSH1 0x1 ADD SWAP1 PUSH2 0x160F JUMP JUMPDEST JUMPDEST POP SWAP1 POP PUSH2 0x1644 SWAP2 SWAP1 PUSH2 0x1648 JUMP JUMPDEST POP SWAP1 JUMP JUMPDEST JUMPDEST DUP1 DUP3 GT ISZERO PUSH2 0x1667 JUMPI PUSH0 DUP2 DUP2 PUSH2 0x165E SWAP2 SWAP1 PUSH2 0x166B JUMP JUMPDEST POP PUSH1 0x1 ADD PUSH2 0x1649 JUMP JUMPDEST POP SWAP1 JUMP JUMPDEST POP DUP1 SLOAD PUSH2 0x1677 SWAP1 PUSH2 0x2B23 JUMP JUMPDEST PUSH0 DUP3 SSTORE DUP1 PUSH1 0x1F LT PUSH2 0x1688 JUMPI POP PUSH2 0x16A5 JUMP JUMPDEST PUSH1 0x1F ADD PUSH1 0x20 SWAP1 DIV SWAP1 PUSH0 MSTORE PUSH1 0x20 PUSH0 KECCAK256 SWAP1 DUP2 ADD SWAP1 PUSH2 0x16A4 SWAP2 SWAP1 PUSH2 0x16A8 JUMP JUMPDEST JUMPDEST POP JUMP JUMPDEST JUMPDEST DUP1 DUP3 GT ISZERO PUSH2 0x16BF JUMPI PUSH0 DUP2 PUSH0 SWAP1 SSTORE POP PUSH1 0x1 ADD PUSH2 0x16A9 JUMP JUMPDEST POP SWAP1 JUMP JUMPDEST PUSH0 PUSH1 0x40 MLOAD SWAP1 POP SWAP1 JUMP JUMPDEST PUSH0 PUSH0 REVERT JUMPDEST PUSH0 PUSH0 REVERT JUMPDEST PUSH0 DUP2 SWAP1 POP SWAP2 SWAP1 POP JUMP JUMPDEST PUSH2 0x16E6 DUP2 PUSH2 0x16D4 JUMP JUMPDEST DUP2 EQ PUSH2 0x16F0 JUMPI PUSH0 PUSH0 REVERT JUMPDEST POP JUMP JUMPDEST PUSH0 DUP2 CALLDATALOAD SWAP1 POP PUSH2 0x1701 DUP2 PUSH2 0x16DD JUMP JUMPDEST SWAP3 SWAP2 POP POP JUMP JUMPDEST PUSH0 PUSH1 0x20 DUP3 DUP5 SUB SLT ISZERO PUSH2 0x171C JUMPI PUSH2 0x171B PUSH2 0x16CC JUMP JUMPDEST JUMPDEST PUSH0 PUSH2 0x1729 DUP5 DUP3 DUP6 ADD PUSH2 0x16F3 JUMP JUMPDEST SWAP2 POP POP SWAP3 SWAP2 POP POP JUMP JUMPDEST PUSH2 0x173B DUP2 PUSH2 0x16D4 JUMP JUMPDEST DUP3 MSTORE POP POP JUMP JUMPDEST PUSH0 DUP2 MLOAD SWAP1 POP SWAP2 SWAP1 POP JUMP JUMPDEST PUSH0 DUP3 DUP3 MSTORE PUSH1 0x20 DUP3 ADD SWAP1 POP SWAP3 SWAP2 POP POP JUMP JUMPDEST DUP3 DUP2 DUP4 MCOPY PUSH0 DUP4 DUP4 ADD MSTORE POP POP POP JUMP JUMPDEST PUSH0 PUSH1 0x1F NOT PUSH1 0x1F DUP4 ADD AND SWAP1 POP SWAP2 SWAP1 POP JUMP JUMPDEST PUSH0 PUSH2 0x1783 DUP3 PUSH2 0x1741 JUMP JUMPDEST PUSH2 0x178D DUP2 DUP6 PUSH2 0x174B JUMP JUMPDEST SWAP4 POP PUSH2 0x179D DUP2 DUP6 PUSH1 0x20 DUP7 ADD PUSH2 0x175B JUMP JUMPDEST PUSH2 0x17A6 DUP2 PUSH2 0x1769 JUMP JUMPDEST DUP5 ADD SWAP2 POP POP SWAP3 SWAP2 POP POP JUMP JUMPDEST PUSH0 DUP3 DUP3 MSTORE PUSH1 0x20 DUP3 ADD SWAP1 POP SWAP3 SWAP2 POP POP JUMP JUMPDEST PUSH0 PUSH2 0x17CB DUP3 PUSH2 0x1741 JUMP JUMPDEST PUSH2 0x17D5 DUP2 DUP6 PUSH2 0x17B1 JUMP JUMPDEST SWAP4 POP PUSH2 0x17E5 DUP2 DUP6 PUSH1 0x20 DUP7 ADD PUSH2 0x175B JUMP JUMPDEST PUSH2 0x17EE DUP2 PUSH2 0x1769 JUMP JUMPDEST DUP5 ADD SWAP2 POP POP SWAP3 SWAP2 POP POP JUMP JUMPDEST PUSH0 PUSH1 0x60 DUP4 ADD PUSH0 DUP4 ADD MLOAD DUP5 DUP3 SUB PUSH0 DUP7 ADD MSTORE PUSH2 0x1813 DUP3 DUP3 PUSH2 0x17C1 JUMP JUMPDEST SWAP2 POP POP PUSH1 0x20 DUP4 ADD MLOAD DUP5 DUP3 SUB PUSH1 0x20 DUP7 ADD MSTORE PUSH2 0x182D DUP3 DUP3 PUSH2 0x17C1 JUMP JUMPDEST SWAP2 POP POP PUSH1 0x40 DUP4 ADD MLOAD DUP5 DUP3 SUB PUSH1 0x40 DUP7 ADD MSTORE PUSH2 0x1847 DUP3 DUP3 PUSH2 0x17C1 JUMP JUMPDEST SWAP2 POP POP DUP1 SWAP2 POP POP SWAP3 SWAP2 POP POP JUMP JUMPDEST PUSH2 0x185D DUP2 PUSH2 0x16D4 JUMP JUMPDEST DUP3 MSTORE POP POP JUMP JUMPDEST PUSH0 PUSH1 0x40 DUP4 ADD PUSH0 DUP4 ADD MLOAD DUP5 DUP3 SUB PUSH0 DUP7 ADD MSTORE PUSH2 0x187D DUP3 DUP3 PUSH2 0x17C1 JUMP JUMPDEST SWAP2 POP POP PUSH1 0x20 DUP4 ADD MLOAD DUP5 DUP3 SUB PUSH1 0x20 DUP7 ADD MSTORE PUSH2 0x1897 DUP3 DUP3 PUSH2 0x17C1 JUMP JUMPDEST SWAP2 POP POP DUP1 SWAP2 POP POP SWAP3 SWAP2 POP POP JUMP JUMPDEST PUSH0 PUSH2 0x160 DUP4 ADD PUSH0 DUP4 ADD MLOAD DUP5 DUP3 SUB PUSH0 DUP7 ADD MSTORE PUSH2 0x18BF DUP3 DUP3 PUSH2 0x17C1 JUMP JUMPDEST SWAP2 POP POP PUSH1 0x20 DUP4 ADD MLOAD DUP5 DUP3 SUB PUSH1 0x20 DUP7 ADD MSTORE PUSH2 0x18D9 DUP3 DUP3 PUSH2 0x17C1 JUMP JUMPDEST SWAP2 POP POP PUSH1 0x40 DUP4 ADD MLOAD PUSH2 0x18EE PUSH1 0x40 DUP7 ADD DUP3 PUSH2 0x1854 JUMP JUMPDEST POP PUSH1 0x60 DUP4 ADD MLOAD DUP5 DUP3 SUB PUSH1 0x60 DUP7 ADD MSTORE PUSH2 0x1906 DUP3 DUP3 PUSH2 0x17C1 JUMP JUMPDEST SWAP2 POP POP PUSH1 0x80 DUP4 ADD MLOAD DUP5 DUP3 SUB PUSH1 0x80 DUP7 ADD MSTORE PUSH2 0x1920 DUP3 DUP3 PUSH2 0x17C1 JUMP JUMPDEST SWAP2 POP POP PUSH1 0xA0 DUP4 ADD MLOAD DUP5 DUP3 SUB PUSH1 0xA0 DUP7 ADD MSTORE PUSH2 0x193A DUP3 DUP3 PUSH2 0x17C1 JUMP JUMPDEST SWAP2 POP POP PUSH1 0xC0 DUP4 ADD MLOAD DUP5 DUP3 SUB PUSH1 0xC0 DUP7 ADD MSTORE PUSH2 0x1954 DUP3 DUP3 PUSH2 0x17C1 JUMP JUMPDEST SWAP2 POP POP PUSH1 0xE0 DUP4 ADD MLOAD DUP5 DUP3 SUB PUSH1 0xE0 DUP7 ADD MSTORE PUSH2 0x196E DUP3 DUP3 PUSH2 0x17C1 JUMP JUMPDEST SWAP2 POP POP PUSH2 0x100 DUP4 ADD MLOAD DUP5 DUP3 SUB PUSH2 0x100 DUP7 ADD MSTORE PUSH2 0x198A DUP3 DUP3 PUSH2 0x17C1 JUMP JUMPDEST SWAP2 POP POP PUSH2 0x120 DUP4 ADD MLOAD DUP5 DUP3 SUB PUSH2 0x120 DUP7 ADD MSTORE PUSH2 0x19A6 DUP3 DUP3 PUSH2 0x17C1 JUMP JUMPDEST SWAP2 POP POP PUSH2 0x140 DUP4 ADD MLOAD DUP5 DUP3 SUB PUSH2 0x140 DUP7 ADD MSTORE PUSH2 0x19C2 DUP3 DUP3 PUSH2 0x1863 JUMP JUMPDEST SWAP2 POP POP DUP1 SWAP2 POP POP SWAP3 SWAP2 POP POP JUMP JUMPDEST PUSH0 PUSH1 0xE0 DUP4 ADD PUSH0 DUP4 ADD MLOAD PUSH2 0x19E4 PUSH0 DUP7 ADD DUP3 PUSH2 0x1854 JUMP JUMPDEST POP PUSH1 0x20 DUP4 ADD MLOAD PUSH2 0x19F7 PUSH1 0x20 DUP7 ADD DUP3 PUSH2 0x1854 JUMP JUMPDEST POP PUSH1 0x40 DUP4 ADD MLOAD DUP5 DUP3 SUB PUSH1 0x40 DUP7 ADD MSTORE PUSH2 0x1A0F DUP3 DUP3 PUSH2 0x17C1 JUMP JUMPDEST SWAP2 POP POP PUSH1 0x60 DUP4 ADD MLOAD DUP5 DUP3 SUB PUSH1 0x60 DUP7 ADD MSTORE PUSH2 0x1A29 DUP3 DUP3 PUSH2 0x17C1 JUMP JUMPDEST SWAP2 POP POP PUSH1 0x80 DUP4 ADD MLOAD DUP5 DUP3 SUB PUSH1 0x80 DUP7 ADD MSTORE PUSH2 0x1A43 DUP3 DUP3 PUSH2 0x17C1 JUMP JUMPDEST SWAP2 POP POP PUSH1 0xA0 DUP4 ADD MLOAD DUP5 DUP3 SUB PUSH1 0xA0 DUP7 ADD MSTORE PUSH2 0x1A5D DUP3 DUP3 PUSH2 0x17C1 JUMP JUMPDEST SWAP2 POP POP PUSH1 0xC0 DUP4 ADD MLOAD DUP5 DUP3 SUB PUSH1 0xC0 DUP7 ADD MSTORE PUSH2 0x1A77 DUP3 DUP3 PUSH2 0x17C1 JUMP JUMPDEST SWAP2 POP POP DUP1 SWAP2 POP POP SWAP3 SWAP2 POP POP JUMP JUMPDEST PUSH0 DUP2 MLOAD SWAP1 POP SWAP2 SWAP1 POP JUMP JUMPDEST PUSH0 DUP3 DUP3 MSTORE PUSH1 0x20 DUP3 ADD SWAP1 POP SWAP3 SWAP2 POP POP JUMP JUMPDEST PUSH0 DUP2 SWAP1 POP PUSH1 0x20 DUP3 ADD SWAP1 POP SWAP2 SWAP1 POP JUMP JUMPDEST PUSH0 PUSH2 0x1AB8 DUP4 DUP4 PUSH2 0x17C1 JUMP JUMPDEST SWAP1 POP SWAP3 SWAP2 POP POP JUMP JUMPDEST PUSH0 PUSH1 0x20 DUP3 ADD SWAP1 POP SWAP2 SWAP1 POP JUMP JUMPDEST PUSH0 PUSH2 0x1AD6 DUP3 PUSH2 0x1A84 JUMP JUMPDEST PUSH2 0x1AE0 DUP2 DUP6 PUSH2 0x1A8E JUMP JUMPDEST SWAP4 POP DUP4 PUSH1 0x20 DUP3 MUL DUP6 ADD PUSH2 0x1AF2 DUP6 PUSH2 0x1A9E JUMP JUMPDEST DUP1 PUSH0 JUMPDEST DUP6 DUP2 LT ISZERO PUSH2 0x1B2D JUMPI DUP5 DUP5 SUB DUP10 MSTORE DUP2 MLOAD PUSH2 0x1B0E DUP6 DUP3 PUSH2 0x1AAD JUMP JUMPDEST SWAP5 POP PUSH2 0x1B19 DUP4 PUSH2 0x1AC0 JUMP JUMPDEST SWAP3 POP PUSH1 0x20 DUP11 ADD SWAP10 POP POP PUSH1 0x1 DUP2 ADD SWAP1 POP PUSH2 0x1AF5 JUMP JUMPDEST POP DUP3 SWAP8 POP DUP8 SWAP6 POP POP POP POP POP POP SWAP3 SWAP2 POP POP JUMP JUMPDEST PUSH0 PUSH1 0x80 DUP4 ADD PUSH0 DUP4 ADD MLOAD DUP5 DUP3 SUB PUSH0 DUP7 ADD MSTORE PUSH2 0x1B59 DUP3 DUP3 PUSH2 0x1ACC JUMP JUMPDEST SWAP2 POP POP PUSH1 0x20 DUP4 ADD MLOAD DUP5 DUP3 SUB PUSH1 0x20 DUP7 ADD MSTORE PUSH2 0x1B73 DUP3 DUP3 PUSH2 0x17C1 JUMP JUMPDEST SWAP2 POP POP PUSH1 0x40 DUP4 ADD MLOAD DUP5 DUP3 SUB PUSH1 0x40 DUP7 ADD MSTORE PUSH2 0x1B8D DUP3 DUP3 PUSH2 0x17C1 JUMP JUMPDEST SWAP2 POP POP PUSH1 0x60 DUP4 ADD MLOAD DUP5 DUP3 SUB PUSH1 0x60 DUP7 ADD MSTORE PUSH2 0x1BA7 DUP3 DUP3 PUSH2 0x17C1 JUMP JUMPDEST SWAP2 POP POP DUP1 SWAP2 POP POP SWAP3 SWAP2 POP POP JUMP JUMPDEST PUSH0 DUP2 ISZERO ISZERO SWAP1 POP SWAP2 SWAP1 POP JUMP JUMPDEST PUSH2 0x1BC8 DUP2 PUSH2 0x1BB4 JUMP JUMPDEST DUP3 MSTORE POP POP JUMP JUMPDEST PUSH0 PUSH1 0xA0 DUP4 ADD PUSH0 DUP4 ADD MLOAD PUSH2 0x1BE3 PUSH0 DUP7 ADD DUP3 PUSH2 0x1BBF JUMP JUMPDEST POP PUSH1 0x20 DUP4 ADD MLOAD DUP5 DUP3 SUB PUSH1 0x20 DUP7 ADD MSTORE PUSH2 0x1BFB DUP3 DUP3 PUSH2 0x17C1 JUMP JUMPDEST SWAP2 POP POP PUSH1 0x40 DUP4 ADD MLOAD DUP5 DUP3 SUB PUSH1 0x40 DUP7 ADD MSTORE PUSH2 0x1C15 DUP3 DUP3 PUSH2 0x17C1 JUMP JUMPDEST SWAP2 POP POP PUSH1 0x60 DUP4 ADD MLOAD DUP5 DUP3 SUB PUSH1 0x60 DUP7 ADD MSTORE PUSH2 0x1C2F DUP3 DUP3 PUSH2 0x17C1 JUMP JUMPDEST SWAP2 POP POP PUSH1 0x80 DUP4 ADD MLOAD DUP5 DUP3 SUB PUSH1 0x80 DUP7 ADD MSTORE PUSH2 0x1C49 DUP3 DUP3 PUSH2 0x17C1 JUMP JUMPDEST SWAP2 POP POP DUP1 SWAP2 POP POP SWAP3 SWAP2 POP POP JUMP JUMPDEST PUSH0 PUSH2 0x100 DUP3 ADD SWAP1 POP PUSH2 0x1C6A PUSH0 DUP4 ADD DUP12 PUSH2 0x1732 JUMP JUMPDEST DUP2 DUP2 SUB PUSH1 0x20 DUP4 ADD MSTORE PUSH2 0x1C7C DUP2 DUP11 PUSH2 0x1779 JUMP JUMPDEST SWAP1 POP PUSH2 0x1C8B PUSH1 0x40 DUP4 ADD DUP10 PUSH2 0x1732 JUMP JUMPDEST DUP2 DUP2 SUB PUSH1 0x60 DUP4 ADD MSTORE PUSH2 0x1C9D DUP2 DUP9 PUSH2 0x17F9 JUMP JUMPDEST SWAP1 POP DUP2 DUP2 SUB PUSH1 0x80 DUP4 ADD MSTORE PUSH2 0x1CB1 DUP2 DUP8 PUSH2 0x18A4 JUMP JUMPDEST SWAP1 POP DUP2 DUP2 SUB PUSH1 0xA0 DUP4 ADD MSTORE PUSH2 0x1CC5 DUP2 DUP7 PUSH2 0x19CF JUMP JUMPDEST SWAP1 POP DUP2 DUP2 SUB PUSH1 0xC0 DUP4 ADD MSTORE PUSH2 0x1CD9 DUP2 DUP6 PUSH2 0x1B3F JUMP JUMPDEST SWAP1 POP DUP2 DUP2 SUB PUSH1 0xE0 DUP4 ADD MSTORE PUSH2 0x1CED DUP2 DUP5 PUSH2 0x1BCE JUMP JUMPDEST SWAP1 POP SWAP10 SWAP9 POP POP POP POP POP POP POP POP POP JUMP JUMPDEST PUSH0 PUSH1 0x20 DUP3 ADD SWAP1 POP PUSH2 0x1D0F PUSH0 DUP4 ADD DUP5 PUSH2 0x1732 JUMP JUMPDEST SWAP3 SWAP2 POP POP JUMP JUMPDEST PUSH0 PUSH0 REVERT JUMPDEST PUSH0 PUSH0 REVERT JUMPDEST PUSH32 0x4E487B7100000000000000000000000000000000000000000000000000000000 PUSH0 MSTORE PUSH1 0x41 PUSH1 0x4 MSTORE PUSH1 0x24 PUSH0 REVERT JUMPDEST PUSH2 0x1D53 DUP3 PUSH2 0x1769 JUMP JUMPDEST DUP2 ADD DUP2 DUP2 LT PUSH8 0xFFFFFFFFFFFFFFFF DUP3 GT OR ISZERO PUSH2 0x1D72 JUMPI PUSH2 0x1D71 PUSH2 0x1D1D JUMP JUMPDEST JUMPDEST DUP1 PUSH1 0x40 MSTORE POP POP POP JUMP JUMPDEST PUSH0 PUSH2 0x1D84 PUSH2 0x16C3 JUMP JUMPDEST SWAP1 POP PUSH2 0x1D90 DUP3 DUP3 PUSH2 0x1D4A JUMP JUMPDEST SWAP2 SWAP1 POP JUMP JUMPDEST PUSH0 PUSH8 0xFFFFFFFFFFFFFFFF DUP3 GT ISZERO PUSH2 0x1DAF JUMPI PUSH2 0x1DAE PUSH2 0x1D1D JUMP JUMPDEST JUMPDEST PUSH2 0x1DB8 DUP3 PUSH2 0x1769 JUMP JUMPDEST SWAP1 POP PUSH1 0x20 DUP2 ADD SWAP1 POP SWAP2 SWAP1 POP JUMP JUMPDEST DUP3 DUP2 DUP4 CALLDATACOPY PUSH0 DUP4 DUP4 ADD MSTORE POP POP POP JUMP JUMPDEST PUSH0 PUSH2 0x1DE5 PUSH2 0x1DE0 DUP5 PUSH2 0x1D95 JUMP JUMPDEST PUSH2 0x1D7B JUMP JUMPDEST SWAP1 POP DUP3 DUP2 MSTORE PUSH1 0x20 DUP2 ADD DUP5 DUP5 DUP5 ADD GT ISZERO PUSH2 0x1E01 JUMPI PUSH2 0x1E00 PUSH2 0x1D19 JUMP JUMPDEST JUMPDEST PUSH2 0x1E0C DUP5 DUP3 DUP6 PUSH2 0x1DC5 JUMP JUMPDEST POP SWAP4 SWAP3 POP POP POP JUMP JUMPDEST PUSH0 DUP3 PUSH1 0x1F DUP4 ADD SLT PUSH2 0x1E28 JUMPI PUSH2 0x1E27 PUSH2 0x1D15 JUMP JUMPDEST JUMPDEST DUP2 CALLDATALOAD PUSH2 0x1E38 DUP5 DUP3 PUSH1 0x20 DUP7 ADD PUSH2 0x1DD3 JUMP JUMPDEST SWAP2 POP POP SWAP3 SWAP2 POP POP JUMP JUMPDEST PUSH0 PUSH0 REVERT JUMPDEST PUSH0 PUSH0 REVERT JUMPDEST PUSH0 PUSH1 0x60 DUP3 DUP5 SUB SLT ISZERO PUSH2 0x1E5E JUMPI PUSH2 0x1E5D PUSH2 0x1E41 JUMP JUMPDEST JUMPDEST PUSH2 0x1E68 PUSH1 0x60 PUSH2 0x1D7B JUMP JUMPDEST SWAP1 POP PUSH0 DUP3 ADD CALLDATALOAD PUSH8 0xFFFFFFFFFFFFFFFF DUP2 GT ISZERO PUSH2 0x1E87 JUMPI PUSH2 0x1E86 PUSH2 0x1E45 JUMP JUMPDEST JUMPDEST PUSH2 0x1E93 DUP5 DUP3 DUP6 ADD PUSH2 0x1E14 JUMP JUMPDEST PUSH0 DUP4 ADD MSTORE POP PUSH1 0x20 DUP3 ADD CALLDATALOAD PUSH8 0xFFFFFFFFFFFFFFFF DUP2 GT ISZERO PUSH2 0x1EB6 JUMPI PUSH2 0x1EB5 PUSH2 0x1E45 JUMP JUMPDEST JUMPDEST PUSH2 0x1EC2 DUP5 DUP3 DUP6 ADD PUSH2 0x1E14 JUMP JUMPDEST PUSH1 0x20 DUP4 ADD MSTORE POP PUSH1 0x40 DUP3 ADD CALLDATALOAD PUSH8 0xFFFFFFFFFFFFFFFF DUP2 GT ISZERO PUSH2 0x1EE6 JUMPI PUSH2 0x1EE5 PUSH2 0x1E45 JUMP JUMPDEST JUMPDEST PUSH2 0x1EF2 DUP5 DUP3 DUP6 ADD PUSH2 0x1E14 JUMP JUMPDEST PUSH1 0x40 DUP4 ADD MSTORE POP SWAP3 SWAP2 POP POP JUMP JUMPDEST PUSH0 PUSH1 0x40 DUP3 DUP5 SUB SLT ISZERO PUSH2 0x1F13 JUMPI PUSH2 0x1F12 PUSH2 0x1E41 JUMP JUMPDEST JUMPDEST PUSH2 0x1F1D PUSH1 0x40 PUSH2 0x1D7B JUMP JUMPDEST SWAP1 POP PUSH0 DUP3 ADD CALLDATALOAD PUSH8 0xFFFFFFFFFFFFFFFF DUP2 GT ISZERO PUSH2 0x1F3C JUMPI PUSH2 0x1F3B PUSH2 0x1E45 JUMP JUMPDEST JUMPDEST PUSH2 0x1F48 DUP5 DUP3 DUP6 ADD PUSH2 0x1E14 JUMP JUMPDEST PUSH0 DUP4 ADD MSTORE POP PUSH1 0x20 DUP3 ADD CALLDATALOAD PUSH8 0xFFFFFFFFFFFFFFFF DUP2 GT ISZERO PUSH2 0x1F6B JUMPI PUSH2 0x1F6A PUSH2 0x1E45 JUMP JUMPDEST JUMPDEST PUSH2 0x1F77 DUP5 DUP3 DUP6 ADD PUSH2 0x1E14 JUMP JUMPDEST PUSH1 0x20 DUP4 ADD MSTORE POP SWAP3 SWAP2 POP POP JUMP JUMPDEST PUSH0 PUSH2 0x160 DUP3 DUP5 SUB SLT ISZERO PUSH2 0x1F99 JUMPI PUSH2 0x1F98 PUSH2 0x1E41 JUMP JUMPDEST JUMPDEST PUSH2 0x1FA4 PUSH2 0x160 PUSH2 0x1D7B JUMP JUMPDEST SWAP1 POP PUSH0 DUP3 ADD CALLDATALOAD PUSH8 0xFFFFFFFFFFFFFFFF DUP2 GT ISZERO PUSH2 0x1FC3 JUMPI PUSH2 0x1FC2 PUSH2 0x1E45 JUMP JUMPDEST JUMPDEST PUSH2 0x1FCF DUP5 DUP3 DUP6 ADD PUSH2 0x1E14 JUMP JUMPDEST PUSH0 DUP4 ADD MSTORE POP PUSH1 0x20 DUP3 ADD CALLDATALOAD PUSH8 0xFFFFFFFFFFFFFFFF DUP2 GT ISZERO PUSH2 0x1FF2 JUMPI PUSH2 0x1FF1 PUSH2 0x1E45 JUMP JUMPDEST JUMPDEST PUSH2 0x1FFE DUP5 DUP3 DUP6 ADD PUSH2 0x1E14 JUMP JUMPDEST PUSH1 0x20 DUP4 ADD MSTORE POP PUSH1 0x40 PUSH2 0x2012 DUP5 DUP3 DUP6 ADD PUSH2 0x16F3 JUMP JUMPDEST PUSH1 0x40 DUP4 ADD MSTORE POP PUSH1 0x60 DUP3 ADD CALLDATALOAD PUSH8 0xFFFFFFFFFFFFFFFF DUP2 GT ISZERO PUSH2 0x2036 JUMPI PUSH2 0x2035 PUSH2 0x1E45 JUMP JUMPDEST JUMPDEST PUSH2 0x2042 DUP5 DUP3 DUP6 ADD PUSH2 0x1E14 JUMP JUMPDEST PUSH1 0x60 DUP4 ADD MSTORE POP PUSH1 0x80 DUP3 ADD CALLDATALOAD PUSH8 0xFFFFFFFFFFFFFFFF DUP2 GT ISZERO PUSH2 0x2066 JUMPI PUSH2 0x2065 PUSH2 0x1E45 JUMP JUMPDEST JUMPDEST PUSH2 0x2072 DUP5 DUP3 DUP6 ADD PUSH2 0x1E14 JUMP JUMPDEST PUSH1 0x80 DUP4 ADD MSTORE POP PUSH1 0xA0 DUP3 ADD CALLDATALOAD PUSH8 0xFFFFFFFFFFFFFFFF DUP2 GT ISZERO PUSH2 0x2096 JUMPI PUSH2 0x2095 PUSH2 0x1E45 JUMP JUMPDEST JUMPDEST PUSH2 0x20A2 DUP5 DUP3 DUP6 ADD PUSH2 0x1E14 JUMP JUMPDEST PUSH1 0xA0 DUP4 ADD MSTORE POP PUSH1 0xC0 DUP3 ADD CALLDATALOAD PUSH8 0xFFFFFFFFFFFFFFFF DUP2 GT ISZERO PUSH2 0x20C6 JUMPI PUSH2 0x20C5 PUSH2 0x1E45 JUMP JUMPDEST JUMPDEST PUSH2 0x20D2 DUP5 DUP3 DUP6 ADD PUSH2 0x1E14 JUMP JUMPDEST PUSH1 0xC0 DUP4 ADD MSTORE POP PUSH1 0xE0 DUP3 ADD CALLDATALOAD PUSH8 0xFFFFFFFFFFFFFFFF DUP2 GT ISZERO PUSH2 0x20F6 JUMPI PUSH2 0x20F5 PUSH2 0x1E45 JUMP JUMPDEST JUMPDEST PUSH2 0x2102 DUP5 DUP3 DUP6 ADD PUSH2 0x1E14 JUMP JUMPDEST PUSH1 0xE0 DUP4 ADD MSTORE POP PUSH2 0x100 DUP3 ADD CALLDATALOAD PUSH8 0xFFFFFFFFFFFFFFFF DUP2 GT ISZERO PUSH2 0x2127 JUMPI PUSH2 0x2126 PUSH2 0x1E45 JUMP JUMPDEST JUMPDEST PUSH2 0x2133 DUP5 DUP3 DUP6 ADD PUSH2 0x1E14 JUMP JUMPDEST PUSH2 0x100 DUP4 ADD MSTORE POP PUSH2 0x120 DUP3 ADD CALLDATALOAD PUSH8 0xFFFFFFFFFFFFFFFF DUP2 GT ISZERO PUSH2 0x2159 JUMPI PUSH2 0x2158 PUSH2 0x1E45 JUMP JUMPDEST JUMPDEST PUSH2 0x2165 DUP5 DUP3 DUP6 ADD PUSH2 0x1E14 JUMP JUMPDEST PUSH2 0x120 DUP4 ADD MSTORE POP PUSH2 0x140 DUP3 ADD CALLDATALOAD PUSH8 0xFFFFFFFFFFFFFFFF DUP2 GT ISZERO PUSH2 0x218B JUMPI PUSH2 0x218A PUSH2 0x1E45 JUMP JUMPDEST JUMPDEST PUSH2 0x2197 DUP5 DUP3 DUP6 ADD PUSH2 0x1EFE JUMP JUMPDEST PUSH2 0x140 DUP4 ADD MSTORE POP SWAP3 SWAP2 POP POP JUMP JUMPDEST PUSH0 PUSH1 0xE0 DUP3 DUP5 SUB SLT ISZERO PUSH2 0x21B9 JUMPI PUSH2 0x21B8 PUSH2 0x1E41 JUMP JUMPDEST JUMPDEST PUSH2 0x21C3 PUSH1 0xE0 PUSH2 0x1D7B JUMP JUMPDEST SWAP1 POP PUSH0 PUSH2 0x21D2 DUP5 DUP3 DUP6 ADD PUSH2 0x16F3 JUMP JUMPDEST PUSH0 DUP4 ADD MSTORE POP PUSH1 0x20 PUSH2 0x21E5 DUP5 DUP3 DUP6 ADD PUSH2 0x16F3 JUMP JUMPDEST PUSH1 0x20 DUP4 ADD MSTORE POP PUSH1 0x40 DUP3 ADD CALLDATALOAD PUSH8 0xFFFFFFFFFFFFFFFF DUP2 GT ISZERO PUSH2 0x2209 JUMPI PUSH2 0x2208 PUSH2 0x1E45 JUMP JUMPDEST JUMPDEST PUSH2 0x2215 DUP5 DUP3 DUP6 ADD PUSH2 0x1E14 JUMP JUMPDEST PUSH1 0x40 DUP4 ADD MSTORE POP PUSH1 0x60 DUP3 ADD CALLDATALOAD PUSH8 0xFFFFFFFFFFFFFFFF DUP2 GT ISZERO PUSH2 0x2239 JUMPI PUSH2 0x2238 PUSH2 0x1E45 JUMP JUMPDEST JUMPDEST PUSH2 0x2245 DUP5 DUP3 DUP6 ADD PUSH2 0x1E14 JUMP JUMPDEST PUSH1 0x60 DUP4 ADD MSTORE POP PUSH1 0x80 DUP3 ADD CALLDATALOAD PUSH8 0xFFFFFFFFFFFFFFFF DUP2 GT ISZERO PUSH2 0x2269 JUMPI PUSH2 0x2268 PUSH2 0x1E45 JUMP JUMPDEST JUMPDEST PUSH2 0x2275 DUP5 DUP3 DUP6 ADD PUSH2 0x1E14 JUMP JUMPDEST PUSH1 0x80 DUP4 ADD MSTORE POP PUSH1 0xA0 DUP3 ADD CALLDATALOAD PUSH8 0xFFFFFFFFFFFFFFFF DUP2 GT ISZERO PUSH2 0x2299 JUMPI PUSH2 0x2298 PUSH2 0x1E45 JUMP JUMPDEST JUMPDEST PUSH2 0x22A5 DUP5 DUP3 DUP6 ADD PUSH2 0x1E14 JUMP JUMPDEST PUSH1 0xA0 DUP4 ADD MSTORE POP PUSH1 0xC0 DUP3 ADD CALLDATALOAD PUSH8 0xFFFFFFFFFFFFFFFF DUP2 GT ISZERO PUSH2 0x22C9 JUMPI PUSH2 0x22C8 PUSH2 0x1E45 JUMP JUMPDEST JUMPDEST PUSH2 0x22D5 DUP5 DUP3 DUP6 ADD PUSH2 0x1E14 JUMP JUMPDEST PUSH1 0xC0 DUP4 ADD MSTORE POP SWAP3 SWAP2 POP POP JUMP JUMPDEST PUSH0 PUSH8 0xFFFFFFFFFFFFFFFF DUP3 GT ISZERO PUSH2 0x22FB JUMPI PUSH2 0x22FA PUSH2 0x1D1D JUMP JUMPDEST JUMPDEST PUSH1 0x20 DUP3 MUL SWAP1 POP PUSH1 0x20 DUP2 ADD SWAP1 POP SWAP2 SWAP1 POP JUMP JUMPDEST PUSH0 PUSH0 REVERT JUMPDEST PUSH0 PUSH1 0xC0 DUP3 DUP5 SUB SLT ISZERO PUSH2 0x2325 JUMPI PUSH2 0x2324 PUSH2 0x1E41 JUMP JUMPDEST JUMPDEST PUSH2 0x232F PUSH1 0xC0 PUSH2 0x1D7B JUMP JUMPDEST SWAP1 POP PUSH0 DUP3 ADD CALLDATALOAD PUSH8 0xFFFFFFFFFFFFFFFF DUP2 GT ISZERO PUSH2 0x234E JUMPI PUSH2 0x234D PUSH2 0x1E45 JUMP JUMPDEST JUMPDEST PUSH2 0x235A DUP5 DUP3 DUP6 ADD PUSH2 0x1E14 JUMP JUMPDEST PUSH0 DUP4 ADD MSTORE POP PUSH1 0x20 DUP3 ADD CALLDATALOAD PUSH8 0xFFFFFFFFFFFFFFFF DUP2 GT ISZERO PUSH2 0x237D JUMPI PUSH2 0x237C PUSH2 0x1E45 JUMP JUMPDEST JUMPDEST PUSH2 0x2389 DUP5 DUP3 DUP6 ADD PUSH2 0x1E14 JUMP JUMPDEST PUSH1 0x20 DUP4 ADD MSTORE POP PUSH1 0x40 DUP3 ADD CALLDATALOAD PUSH8 0xFFFFFFFFFFFFFFFF DUP2 GT ISZERO PUSH2 0x23AD JUMPI PUSH2 0x23AC PUSH2 0x1E45 JUMP JUMPDEST JUMPDEST PUSH2 0x23B9 DUP5 DUP3 DUP6 ADD PUSH2 0x1E14 JUMP JUMPDEST PUSH1 0x40 DUP4 ADD MSTORE POP PUSH1 0x60 PUSH2 0x23CD DUP5 DUP3 DUP6 ADD PUSH2 0x16F3 JUMP JUMPDEST PUSH1 0x60 DUP4 ADD MSTORE POP PUSH1 0x80 DUP3 ADD CALLDATALOAD PUSH8 0xFFFFFFFFFFFFFFFF DUP2 GT ISZERO PUSH2 0x23F1 JUMPI PUSH2 0x23F0 PUSH2 0x1E45 JUMP JUMPDEST JUMPDEST PUSH2 0x23FD DUP5 DUP3 DUP6 ADD PUSH2 0x1E14 JUMP JUMPDEST PUSH1 0x80 DUP4 ADD MSTORE POP PUSH1 0xA0 DUP3 ADD CALLDATALOAD PUSH8 0xFFFFFFFFFFFFFFFF DUP2 GT ISZERO PUSH2 0x2421 JUMPI PUSH2 0x2420 PUSH2 0x1E45 JUMP JUMPDEST JUMPDEST PUSH2 0x242D DUP5 DUP3 DUP6 ADD PUSH2 0x1E14 JUMP JUMPDEST PUSH1 0xA0 DUP4 ADD MSTORE POP SWAP3 SWAP2 POP POP JUMP JUMPDEST PUSH0 PUSH2 0x244B PUSH2 0x2446 DUP5 PUSH2 0x22E1 JUMP JUMPDEST PUSH2 0x1D7B JUMP JUMPDEST SWAP1 POP DUP1 DUP4 DUP3 MSTORE PUSH1 0x20 DUP3 ADD SWAP1 POP PUSH1 0x20 DUP5 MUL DUP4 ADD DUP6 DUP2 GT ISZERO PUSH2 0x246E JUMPI PUSH2 0x246D PUSH2 0x230C JUMP JUMPDEST JUMPDEST DUP4 JUMPDEST DUP2 DUP2 LT ISZERO PUSH2 0x24B5 JUMPI DUP1 CALLDATALOAD PUSH8 0xFFFFFFFFFFFFFFFF DUP2 GT ISZERO PUSH2 0x2493 JUMPI PUSH2 0x2492 PUSH2 0x1D15 JUMP JUMPDEST JUMPDEST DUP1 DUP7 ADD PUSH2 0x24A0 DUP10 DUP3 PUSH2 0x2310 JUMP JUMPDEST DUP6 MSTORE PUSH1 0x20 DUP6 ADD SWAP5 POP POP POP PUSH1 0x20 DUP2 ADD SWAP1 POP PUSH2 0x2470 JUMP JUMPDEST POP POP POP SWAP4 SWAP3 POP POP POP JUMP JUMPDEST PUSH0 DUP3 PUSH1 0x1F DUP4 ADD SLT PUSH2 0x24D3 JUMPI PUSH2 0x24D2 PUSH2 0x1D15 JUMP JUMPDEST JUMPDEST DUP2 CALLDATALOAD PUSH2 0x24E3 DUP5 DUP3 PUSH1 0x20 DUP7 ADD PUSH2 0x2439 JUMP JUMPDEST SWAP2 POP POP SWAP3 SWAP2 POP POP JUMP JUMPDEST PUSH0 PUSH8 0xFFFFFFFFFFFFFFFF DUP3 GT ISZERO PUSH2 0x2506 JUMPI PUSH2 0x2505 PUSH2 0x1D1D JUMP JUMPDEST JUMPDEST PUSH1 0x20 DUP3 MUL SWAP1 POP PUSH1 0x20 DUP2 ADD SWAP1 POP SWAP2 SWAP1 POP JUMP JUMPDEST PUSH0 PUSH1 0x60 DUP3 DUP5 SUB SLT ISZERO PUSH2 0x252C JUMPI PUSH2 0x252B PUSH2 0x1E41 JUMP JUMPDEST JUMPDEST PUSH2 0x2536 PUSH1 0x60 PUSH2 0x1D7B JUMP JUMPDEST SWAP1 POP PUSH0 DUP3 ADD CALLDATALOAD PUSH8 0xFFFFFFFFFFFFFFFF DUP2 GT ISZERO PUSH2 0x2555 JUMPI PUSH2 0x2554 PUSH2 0x1E45 JUMP JUMPDEST JUMPDEST PUSH2 0x2561 DUP5 DUP3 DUP6 ADD PUSH2 0x1E14 JUMP JUMPDEST PUSH0 DUP4 ADD MSTORE POP PUSH1 0x20 DUP3 ADD CALLDATALOAD PUSH8 0xFFFFFFFFFFFFFFFF DUP2 GT ISZERO PUSH2 0x2584 JUMPI PUSH2 0x2583 PUSH2 0x1E45 JUMP JUMPDEST JUMPDEST PUSH2 0x2590 DUP5 DUP3 DUP6 ADD PUSH2 0x1E14 JUMP JUMPDEST PUSH1 0x20 DUP4 ADD MSTORE POP PUSH1 0x40 DUP3 ADD CALLDATALOAD PUSH8 0xFFFFFFFFFFFFFFFF DUP2 GT ISZERO PUSH2 0x25B4 JUMPI PUSH2 0x25B3 PUSH2 0x1E45 JUMP JUMPDEST JUMPDEST PUSH2 0x25C0 DUP5 DUP3 DUP6 ADD PUSH2 0x1E14 JUMP JUMPDEST PUSH1 0x40 DUP4 ADD MSTORE POP SWAP3 SWAP2 POP POP JUMP JUMPDEST PUSH0 PUSH2 0x25DE PUSH2 0x25D9 DUP5 PUSH2 0x24EC JUMP JUMPDEST PUSH2 0x1D7B JUMP JUMPDEST SWAP1 POP DUP1 DUP4 DUP3 MSTORE PUSH1 0x20 DUP3 ADD SWAP1 POP PUSH1 0x20 DUP5 MUL DUP4 ADD DUP6 DUP2 GT ISZERO PUSH2 0x2601 JUMPI PUSH2 0x2600 PUSH2 0x230C JUMP JUMPDEST JUMPDEST DUP4 JUMPDEST DUP2 DUP2 LT ISZERO PUSH2 0x2648 JUMPI DUP1 CALLDATALOAD PUSH8 0xFFFFFFFFFFFFFFFF DUP2 GT ISZERO PUSH2 0x2626 JUMPI PUSH2 0x2625 PUSH2 0x1D15 JUMP JUMPDEST JUMPDEST DUP1 DUP7 ADD PUSH2 0x2633 DUP10 DUP3 PUSH2 0x2517 JUMP JUMPDEST DUP6 MSTORE PUSH1 0x20 DUP6 ADD SWAP5 POP POP POP PUSH1 0x20 DUP2 ADD SWAP1 POP PUSH2 0x2603 JUMP JUMPDEST POP POP POP SWAP4 SWAP3 POP POP POP JUMP JUMPDEST PUSH0 DUP3 PUSH1 0x1F DUP4 ADD SLT PUSH2 0x2666 JUMPI PUSH2 0x2665 PUSH2 0x1D15 JUMP JUMPDEST JUMPDEST DUP2 CALLDATALOAD PUSH2 0x2676 DUP5 DUP3 PUSH1 0x20 DUP7 ADD PUSH2 0x25CC JUMP JUMPDEST SWAP2 POP POP SWAP3 SWAP2 POP POP JUMP JUMPDEST PUSH0 PUSH8 0xFFFFFFFFFFFFFFFF DUP3 GT ISZERO PUSH2 0x2699 JUMPI PUSH2 0x2698 PUSH2 0x1D1D JUMP JUMPDEST JUMPDEST PUSH1 0x20 DUP3 MUL SWAP1 POP PUSH1 0x20 DUP2 ADD SWAP1 POP SWAP2 SWAP1 POP JUMP JUMPDEST PUSH0 PUSH2 0x26BC PUSH2 0x26B7 DUP5 PUSH2 0x267F JUMP JUMPDEST PUSH2 0x1D7B JUMP JUMPDEST SWAP1 POP DUP1 DUP4 DUP3 MSTORE PUSH1 0x20 DUP3 ADD SWAP1 POP PUSH1 0x20 DUP5 MUL DUP4 ADD DUP6 DUP2 GT ISZERO PUSH2 0x26DF JUMPI PUSH2 0x26DE PUSH2 0x230C JUMP JUMPDEST JUMPDEST DUP4 JUMPDEST DUP2 DUP2 LT ISZERO PUSH2 0x2726 JUMPI DUP1 CALLDATALOAD PUSH8 0xFFFFFFFFFFFFFFFF DUP2 GT ISZERO PUSH2 0x2704 JUMPI PUSH2 0x2703 PUSH2 0x1D15 JUMP JUMPDEST JUMPDEST DUP1 DUP7 ADD PUSH2 0x2711 DUP10 DUP3 PUSH2 0x1E14 JUMP JUMPDEST DUP6 MSTORE PUSH1 0x20 DUP6 ADD SWAP5 POP POP POP PUSH1 0x20 DUP2 ADD SWAP1 POP PUSH2 0x26E1 JUMP JUMPDEST POP POP POP SWAP4 SWAP3 POP POP POP JUMP JUMPDEST PUSH0 DUP3 PUSH1 0x1F DUP4 ADD SLT PUSH2 0x2744 JUMPI PUSH2 0x2743 PUSH2 0x1D15 JUMP JUMPDEST JUMPDEST DUP2 CALLDATALOAD PUSH2 0x2754 DUP5 DUP3 PUSH1 0x20 DUP7 ADD PUSH2 0x26AA JUMP JUMPDEST SWAP2 POP POP SWAP3 SWAP2 POP POP JUMP JUMPDEST PUSH0 PUSH1 0x80 DUP3 DUP5 SUB SLT ISZERO PUSH2 0x2772 JUMPI PUSH2 0x2771 PUSH2 0x1E41 JUMP JUMPDEST JUMPDEST PUSH2 0x277C PUSH1 0x80 PUSH2 0x1D7B JUMP JUMPDEST SWAP1 POP PUSH0 DUP3 ADD CALLDATALOAD PUSH8 0xFFFFFFFFFFFFFFFF DUP2 GT ISZERO PUSH2 0x279B JUMPI PUSH2 0x279A PUSH2 0x1E45 JUMP JUMPDEST JUMPDEST PUSH2 0x27A7 DUP5 DUP3 DUP6 ADD PUSH2 0x2730 JUMP JUMPDEST PUSH0 DUP4 ADD MSTORE POP PUSH1 0x20 DUP3 ADD CALLDATALOAD PUSH8 0xFFFFFFFFFFFFFFFF DUP2 GT ISZERO PUSH2 0x27CA JUMPI PUSH2 0x27C9 PUSH2 0x1E45 JUMP JUMPDEST JUMPDEST PUSH2 0x27D6 DUP5 DUP3 DUP6 ADD PUSH2 0x1E14 JUMP JUMPDEST PUSH1 0x20 DUP4 ADD MSTORE POP PUSH1 0x40 DUP3 ADD CALLDATALOAD PUSH8 0xFFFFFFFFFFFFFFFF DUP2 GT ISZERO PUSH2 0x27FA JUMPI PUSH2 0x27F9 PUSH2 0x1E45 JUMP JUMPDEST JUMPDEST PUSH2 0x2806 DUP5 DUP3 DUP6 ADD PUSH2 0x1E14 JUMP JUMPDEST PUSH1 0x40 DUP4 ADD MSTORE POP PUSH1 0x60 DUP3 ADD CALLDATALOAD PUSH8 0xFFFFFFFFFFFFFFFF DUP2 GT ISZERO PUSH2 0x282A JUMPI PUSH2 0x2829 PUSH2 0x1E45 JUMP JUMPDEST JUMPDEST PUSH2 0x2836 DUP5 DUP3 DUP6 ADD PUSH2 0x1E14 JUMP JUMPDEST PUSH1 0x60 DUP4 ADD MSTORE POP SWAP3 SWAP2 POP POP JUMP JUMPDEST PUSH2 0x284B DUP2 PUSH2 0x1BB4 JUMP JUMPDEST DUP2 EQ PUSH2 0x2855 JUMPI PUSH0 PUSH0 REVERT JUMPDEST POP JUMP JUMPDEST PUSH0 DUP2 CALLDATALOAD SWAP1 POP PUSH2 0x2866 DUP2 PUSH2 0x2842 JUMP JUMPDEST SWAP3 SWAP2 POP POP JUMP JUMPDEST PUSH0 PUSH1 0xA0 DUP3 DUP5 SUB SLT ISZERO PUSH2 0x2881 JUMPI PUSH2 0x2880 PUSH2 0x1E41 JUMP JUMPDEST JUMPDEST PUSH2 0x288B PUSH1 0xA0 PUSH2 0x1D7B JUMP JUMPDEST SWAP1 POP PUSH0 PUSH2 0x289A DUP5 DUP3 DUP6 ADD PUSH2 0x2858 JUMP JUMPDEST PUSH0 DUP4 ADD MSTORE POP PUSH1 0x20 DUP3 ADD CALLDATALOAD PUSH8 0xFFFFFFFFFFFFFFFF DUP2 GT ISZERO PUSH2 0x28BD JUMPI PUSH2 0x28BC PUSH2 0x1E45 JUMP JUMPDEST JUMPDEST PUSH2 0x28C9 DUP5 DUP3 DUP6 ADD PUSH2 0x1E14 JUMP JUMPDEST PUSH1 0x20 DUP4 ADD MSTORE POP PUSH1 0x40 DUP3 ADD CALLDATALOAD PUSH8 0xFFFFFFFFFFFFFFFF DUP2 GT ISZERO PUSH2 0x28ED JUMPI PUSH2 0x28EC PUSH2 0x1E45 JUMP JUMPDEST JUMPDEST PUSH2 0x28F9 DUP5 DUP3 DUP6 ADD PUSH2 0x1E14 JUMP JUMPDEST PUSH1 0x40 DUP4 ADD MSTORE POP PUSH1 0x60 DUP3 ADD CALLDATALOAD PUSH8 0xFFFFFFFFFFFFFFFF DUP2 GT ISZERO PUSH2 0x291D JUMPI PUSH2 0x291C PUSH2 0x1E45 JUMP JUMPDEST JUMPDEST PUSH2 0x2929 DUP5 DUP3 DUP6 ADD PUSH2 0x1E14 JUMP JUMPDEST PUSH1 0x60 DUP4 ADD MSTORE POP PUSH1 0x80 DUP3 ADD CALLDATALOAD PUSH8 0xFFFFFFFFFFFFFFFF DUP2 GT ISZERO PUSH2 0x294D JUMPI PUSH2 0x294C PUSH2 0x1E45 JUMP JUMPDEST JUMPDEST PUSH2 0x2959 DUP5 DUP3 DUP6 ADD PUSH2 0x1E14 JUMP JUMPDEST PUSH1 0x80 DUP4 ADD MSTORE POP SWAP3 SWAP2 POP POP JUMP JUMPDEST PUSH0 PUSH0 PUSH0 PUSH0 PUSH0 PUSH0 PUSH0 PUSH0 PUSH2 0x100 DUP10 DUP12 SUB SLT ISZERO PUSH2 0x2982 JUMPI PUSH2 0x2981 PUSH2 0x16CC JUMP JUMPDEST JUMPDEST PUSH0 DUP10 ADD CALLDATALOAD PUSH8 0xFFFFFFFFFFFFFFFF DUP2 GT ISZERO PUSH2 0x299F JUMPI PUSH2 0x299E PUSH2 0x16D0 JUMP JUMPDEST JUMPDEST PUSH2 0x29AB DUP12 DUP3 DUP13 ADD PUSH2 0x1E14 JUMP JUMPDEST SWAP9 POP POP PUSH1 0x20 DUP10 ADD CALLDATALOAD PUSH8 0xFFFFFFFFFFFFFFFF DUP2 GT ISZERO PUSH2 0x29CC JUMPI PUSH2 0x29CB PUSH2 0x16D0 JUMP JUMPDEST JUMPDEST PUSH2 0x29D8 DUP12 DUP3 DUP13 ADD PUSH2 0x1E49 JUMP JUMPDEST SWAP8 POP POP PUSH1 0x40 DUP10 ADD CALLDATALOAD PUSH8 0xFFFFFFFFFFFFFFFF DUP2 GT ISZERO PUSH2 0x29F9 JUMPI PUSH2 0x29F8 PUSH2 0x16D0 JUMP JUMPDEST JUMPDEST PUSH2 0x2A05 DUP12 DUP3 DUP13 ADD PUSH2 0x1F83 JUMP JUMPDEST SWAP7 POP POP PUSH1 0x60 DUP10 ADD CALLDATALOAD PUSH8 0xFFFFFFFFFFFFFFFF DUP2 GT ISZERO PUSH2 0x2A26 JUMPI PUSH2 0x2A25 PUSH2 0x16D0 JUMP JUMPDEST JUMPDEST PUSH2 0x2A32 DUP12 DUP3 DUP13 ADD PUSH2 0x21A4 JUMP JUMPDEST SWAP6 POP POP PUSH1 0x80 DUP10 ADD CALLDATALOAD PUSH8 0xFFFFFFFFFFFFFFFF DUP2 GT ISZERO PUSH2 0x2A53 JUMPI PUSH2 0x2A52 PUSH2 0x16D0 JUMP JUMPDEST JUMPDEST PUSH2 0x2A5F DUP12 DUP3 DUP13 ADD PUSH2 0x24BF JUMP JUMPDEST SWAP5 POP POP PUSH1 0xA0 DUP10 ADD CALLDATALOAD PUSH8 0xFFFFFFFFFFFFFFFF DUP2 GT ISZERO PUSH2 0x2A80 JUMPI PUSH2 0x2A7F PUSH2 0x16D0 JUMP JUMPDEST JUMPDEST PUSH2 0x2A8C DUP12 DUP3 DUP13 ADD PUSH2 0x2652 JUMP JUMPDEST SWAP4 POP POP PUSH1 0xC0 DUP10 ADD CALLDATALOAD PUSH8 0xFFFFFFFFFFFFFFFF DUP2 GT ISZERO PUSH2 0x2AAD JUMPI PUSH2 0x2AAC PUSH2 0x16D0 JUMP JUMPDEST JUMPDEST PUSH2 0x2AB9 DUP12 DUP3 DUP13 ADD PUSH2 0x275D JUMP JUMPDEST SWAP3 POP POP PUSH1 0xE0 DUP10 ADD CALLDATALOAD PUSH8 0xFFFFFFFFFFFFFFFF DUP2 GT ISZERO PUSH2 0x2ADA JUMPI PUSH2 0x2AD9 PUSH2 0x16D0 JUMP JUMPDEST JUMPDEST PUSH2 0x2AE6 DUP12 DUP3 DUP13 ADD PUSH2 0x286C JUMP JUMPDEST SWAP2 POP POP SWAP3 SWAP6 SWAP9 POP SWAP3 SWAP6 SWAP9 SWAP1 SWAP4 SWAP7 POP JUMP JUMPDEST PUSH32 0x4E487B7100000000000000000000000000000000000000000000000000000000 PUSH0 MSTORE PUSH1 0x22 PUSH1 0x4 MSTORE PUSH1 0x24 PUSH0 REVERT JUMPDEST PUSH0 PUSH1 0x2 DUP3 DIV SWAP1 POP PUSH1 0x1 DUP3 AND DUP1 PUSH2 0x2B3A JUMPI PUSH1 0x7F DUP3 AND SWAP2 POP JUMPDEST PUSH1 0x20 DUP3 LT DUP2 SUB PUSH2 0x2B4D JUMPI PUSH2 0x2B4C PUSH2 0x2AF6 JUMP JUMPDEST JUMPDEST POP SWAP2 SWAP1 POP JUMP JUMPDEST PUSH32 0x4E487B7100000000000000000000000000000000000000000000000000000000 PUSH0 MSTORE PUSH1 0x11 PUSH1 0x4 MSTORE PUSH1 0x24 PUSH0 REVERT JUMPDEST PUSH0 PUSH2 0x2B8A DUP3 PUSH2 0x16D4 JUMP JUMPDEST SWAP2 POP PUSH32 0xFFFFFFFFFFFFFFFFFFFFFFFFFFFFFFFFFFFFFFFFFFFFFFFFFFFFFFFFFFFFFFFF DUP3 SUB PUSH2 0x2BBC JUMPI PUSH2 0x2BBB PUSH2 0x2B53 JUMP JUMPDEST JUMPDEST PUSH1 0x1 DUP3 ADD SWAP1 POP SWAP2 SWAP1 POP JUMP JUMPDEST PUSH0 DUP2 SWAP1 POP DUP2 PUSH0 MSTORE PUSH1 0x20 PUSH0 KECCAK256 SWAP1 POP SWAP2 SWAP1 POP JUMP JUMPDEST PUSH0 PUSH1 0x20 PUSH1 0x1F DUP4 ADD DIV SWAP1 POP SWAP2 SWAP1 POP JUMP JUMPDEST PUSH0 DUP3 DUP3 SHL SWAP1 POP SWAP3 SWAP2 POP POP JUMP JUMPDEST PUSH0 PUSH1 0x8 DUP4 MUL PUSH2 0x2C23 PUSH32 0xFFFFFFFFFFFFFFFFFFFFFFFFFFFFFFFFFFFFFFFFFFFFFFFFFFFFFFFFFFFFFFFF DUP3 PUSH2 0x2BE8 JUMP JUMPDEST PUSH2 0x2C2D DUP7 DUP4 PUSH2 0x2BE8 JUMP JUMPDEST SWAP6 POP DUP1 NOT DUP5 AND SWAP4 POP DUP1 DUP7 AND DUP5 OR SWAP3 POP POP POP SWAP4 SWAP3 POP POP POP JUMP JUMPDEST PUSH0 DUP2 SWAP1 POP SWAP2 SWAP1 POP JUMP JUMPDEST PUSH0 PUSH2 0x2C68 PUSH2 0x2C63 PUSH2 0x2C5E DUP5 PUSH2 0x16D4 JUMP JUMPDEST PUSH2 0x2C45 JUMP JUMPDEST PUSH2 0x16D4 JUMP JUMPDEST SWAP1 POP SWAP2 SWAP1 POP JUMP JUMPDEST PUSH0 DUP2 SWAP1 POP SWAP2 SWAP1 POP JUMP JUMPDEST PUSH2 0x2C81 DUP4 PUSH2 0x2C4E JUMP JUMPDEST PUSH2 0x2C95 PUSH2 0x2C8D DUP3 PUSH2 0x2C6F JUMP JUMPDEST DUP5 DUP5 SLOAD PUSH2 0x2BF4 JUMP JUMPDEST DUP3 SSTORE POP POP POP POP JUMP JUMPDEST PUSH0 PUSH0 SWAP1 POP SWAP1 JUMP JUMPDEST PUSH2 0x2CAC PUSH2 0x2C9D JUMP JUMPDEST PUSH2 0x2CB7 DUP2 DUP5 DUP5 PUSH2 0x2C78 JUMP JUMPDEST POP POP POP JUMP JUMPDEST JUMPDEST DUP2 DUP2 LT ISZERO PUSH2 0x2CDA JUMPI PUSH2 0x2CCF PUSH0 DUP3 PUSH2 0x2CA4 JUMP JUMPDEST PUSH1 0x1 DUP2 ADD SWAP1 POP PUSH2 0x2CBD JUMP JUMPDEST POP POP JUMP JUMPDEST PUSH1 0x1F DUP3 GT ISZERO PUSH2 0x2D1F JUMPI PUSH2 0x2CF0 DUP2 PUSH2 0x2BC7 JUMP JUMPDEST PUSH2 0x2CF9 DUP5 PUSH2 0x2BD9 JUMP JUMPDEST DUP2 ADD PUSH1 0x20 DUP6 LT ISZERO PUSH2 0x2D08 JUMPI DUP2 SWAP1 POP JUMPDEST PUSH2 0x2D1C PUSH2 0x2D14 DUP6 PUSH2 0x2BD9 JUMP JUMPDEST DUP4 ADD DUP3 PUSH2 0x2CBC JUMP JUMPDEST POP POP JUMPDEST POP POP POP JUMP JUMPDEST PUSH0 DUP3 DUP3 SHR SWAP1 POP SWAP3 SWAP2 POP POP JUMP JUMPDEST PUSH0 PUSH2 0x2D3F PUSH0 NOT DUP5 PUSH1 0x8 MUL PUSH2 0x2D24 JUMP JUMPDEST NOT DUP1 DUP4 AND SWAP2 POP POP SWAP3 SWAP2 POP POP JUMP JUMPDEST PUSH0 PUSH2 0x2D57 DUP4 DUP4 PUSH2 0x2D30 JUMP JUMPDEST SWAP2 POP DUP3 PUSH1 0x2 MUL DUP3 OR SWAP1 POP SWAP3 SWAP2 POP POP JUMP JUMPDEST PUSH2 0x2D70 DUP3 PUSH2 0x1741 JUMP JUMPDEST PUSH8 0xFFFFFFFFFFFFFFFF DUP2 GT ISZERO PUSH2 0x2D89 JUMPI PUSH2 0x2D88 PUSH2 0x1D1D JUMP JUMPDEST JUMPDEST PUSH2 0x2D93 DUP3 SLOAD PUSH2 0x2B23 JUMP JUMPDEST PUSH2 0x2D9E DUP3 DUP3 DUP6 PUSH2 0x2CDE JUMP JUMPDEST PUSH0 PUSH1 0x20 SWAP1 POP PUSH1 0x1F DUP4 GT PUSH1 0x1 DUP2 EQ PUSH2 0x2DCF JUMPI PUSH0 DUP5 ISZERO PUSH2 0x2DBD JUMPI DUP3 DUP8 ADD MLOAD SWAP1 POP JUMPDEST PUSH2 0x2DC7 DUP6 DUP3 PUSH2 0x2D4C JUMP JUMPDEST DUP7 SSTORE POP PUSH2 0x2E2E JUMP JUMPDEST PUSH1 0x1F NOT DUP5 AND PUSH2 0x2DDD DUP7 PUSH2 0x2BC7 JUMP JUMPDEST PUSH0 JUMPDEST DUP3 DUP2 LT ISZERO PUSH2 0x2E04 JUMPI DUP5 DUP10 ADD MLOAD DUP3 SSTORE PUSH1 0x1 DUP3 ADD SWAP2 POP PUSH1 0x20 DUP6 ADD SWAP5 POP PUSH1 0x20 DUP2 ADD SWAP1 POP PUSH2 0x2DDF JUMP JUMPDEST DUP7 DUP4 LT ISZERO PUSH2 0x2E21 JUMPI DUP5 DUP10 ADD MLOAD PUSH2 0x2E1D PUSH1 0x1F DUP10 AND DUP3 PUSH2 0x2D30 JUMP JUMPDEST DUP4 SSTORE POP JUMPDEST PUSH1 0x1 PUSH1 0x2 DUP9 MUL ADD DUP9 SSTORE POP POP POP JUMPDEST POP POP POP POP POP POP JUMP JUMPDEST PUSH32 0x4E487B7100000000000000000000000000000000000000000000000000000000 PUSH0 MSTORE PUSH1 0x32 PUSH1 0x4 MSTORE PUSH1 0x24 PUSH0 REVERT INVALID LOG2 PUSH5 0x6970667358 0x22 SLT KECCAK256 DUP3 0xC2 0xCD 0xED 0x4D 0x1E PUSH29 0xB8B605466644D6D8E617F1D692974BDA5E6301785715679C4C64736F6C PUSH4 0x4300081C STOP CALLER "
				},
				"gasEstimates": {
					"creation": {
						"codeDepositCost": "2385800",
						"executionCost": "7562",
						"totalCost": "2393362"
					},
					"external": {
						"fileFIR(string,(string,string,string),(string,string,uint256,string,string,string,string,string,string,string,(string,string)),(uint256,uint256,string,string,string,string,string),(string,string,string,uint256,string,string)[],(string,string,string)[],(string[],string,string,string),(bool,string,string,string,string))": "infinite",
						"firCount()": "2424",
						"firs(uint256)": "infinite"
					}
				},
				"methodIdentifiers": {
					"fileFIR(string,(string,string,string),(string,string,uint256,string,string,string,string,string,string,string,(string,string)),(uint256,uint256,string,string,string,string,string),(string,string,string,uint256,string,string)[],(string,string,string)[],(string[],string,string,string),(bool,string,string,string,string))": "f5a4b1e7",
					"firCount()": "d1c45a92",
					"firs(uint256)": "a4de172d"
				}
			},
			"storageLayout": {
				"storage": [
					{
						"astId": 126,
						"contract": "contracts/FIR.sol:Fir",
						"label": "firCount",
						"offset": 0,
						"slot": "0",
						"type": "t_uint256"
					},
					{
						"astId": 131,
						"contract": "contracts/FIR.sol:Fir",
						"label": "firs",
						"offset": 0,
						"slot": "1",
						"type": "t_mapping(t_uint256,t_struct(FIR)123_storage)"
					}
				],
				"types": {
					"t_array(t_string_storage)dyn_storage": {
						"base": "t_string_storage",
						"encoding": "dynamic_array",
						"label": "string[]",
						"numberOfBytes": "32"
					},
					"t_array(t_struct(Accused)65_storage)dyn_storage": {
						"base": "t_struct(Accused)65_storage",
						"encoding": "dynamic_array",
						"label": "struct Fir.Accused[]",
						"numberOfBytes": "32"
					},
					"t_array(t_struct(Witness)72_storage)dyn_storage": {
						"base": "t_struct(Witness)72_storage",
						"encoding": "dynamic_array",
						"label": "struct Fir.Witness[]",
						"numberOfBytes": "32"
					},
					"t_bool": {
						"encoding": "inplace",
						"label": "bool",
						"numberOfBytes": "1"
					},
					"t_mapping(t_uint256,t_struct(FIR)123_storage)": {
						"encoding": "mapping",
						"key": "t_uint256",
						"label": "mapping(uint256 => struct Fir.FIR)",
						"numberOfBytes": "32",
						"value": "t_struct(FIR)123_storage"
					},
					"t_string_storage": {
						"encoding": "bytes",
						"label": "string",
						"numberOfBytes": "32"
					},
					"t_struct(Accused)65_storage": {
						"encoding": "inplace",
						"label": "struct Fir.Accused",
						"members": [
							{
								"astId": 54,
								"contract": "contracts/FIR.sol:Fir",
								"label": "name",
								"offset": 0,
								"slot": "0",
								"type": "t_string_storage"
							},
							{
								"astId": 56,
								"contract": "contracts/FIR.sol:Fir",
								"label": "aliasName",
								"offset": 0,
								"slot": "1",
								"type": "t_string_storage"
							},
							{
								"astId": 58,
								"contract": "contracts/FIR.sol:Fir",
								"label": "addr",
								"offset": 0,
								"slot": "2",
								"type": "t_string_storage"
							},
							{
								"astId": 60,
								"contract": "contracts/FIR.sol:Fir",
								"label": "age",
								"offset": 0,
								"slot": "3",
								"type": "t_uint256"
							},
							{
								"astId": 62,
								"contract": "contracts/FIR.sol:Fir",
								"label": "gender",
								"offset": 0,
								"slot": "4",
								"type": "t_string_storage"
							},
							{
								"astId": 64,
								"contract": "contracts/FIR.sol:Fir",
								"label": "relationWithComplainant",
								"offset": 0,
								"slot": "5",
								"type": "t_string_storage"
							}
						],
						"numberOfBytes": "192"
					},
					"t_struct(Complainant)30_storage": {
						"encoding": "inplace",
						"label": "struct Fir.Complainant",
						"members": [
							{
								"astId": 8,
								"contract": "contracts/FIR.sol:Fir",
								"label": "fullName",
								"offset": 0,
								"slot": "0",
								"type": "t_string_storage"
							},
							{
								"astId": 10,
								"contract": "contracts/FIR.sol:Fir",
								"label": "parentName",
								"offset": 0,
								"slot": "1",
								"type": "t_string_storage"
							},
							{
								"astId": 12,
								"contract": "contracts/FIR.sol:Fir",
								"label": "age",
								"offset": 0,
								"slot": "2",
								"type": "t_uint256"
							},
							{
								"astId": 14,
								"contract": "contracts/FIR.sol:Fir",
								"label": "gender",
								"offset": 0,
								"slot": "3",
								"type": "t_string_storage"
							},
							{
								"astId": 16,
								"contract": "contracts/FIR.sol:Fir",
								"label": "dob",
								"offset": 0,
								"slot": "4",
								"type": "t_string_storage"
							},
							{
								"astId": 18,
								"contract": "contracts/FIR.sol:Fir",
								"label": "nationality",
								"offset": 0,
								"slot": "5",
								"type": "t_string_storage"
							},
							{
								"astId": 20,
								"contract": "contracts/FIR.sol:Fir",
								"label": "occupation",
								"offset": 0,
								"slot": "6",
								"type": "t_string_storage"
							},
							{
								"astId": 22,
								"contract": "contracts/FIR.sol:Fir",
								"label": "addr",
								"offset": 0,
								"slot": "7",
								"type": "t_string_storage"
							},
							{
								"astId": 24,
								"contract": "contracts/FIR.sol:Fir",
								"label": "phoneNumber",
								"offset": 0,
								"slot": "8",
								"type": "t_string_storage"
							},
							{
								"astId": 26,
								"contract": "contracts/FIR.sol:Fir",
								"label": "email",
								"offset": 0,
								"slot": "9",
								"type": "t_string_storage"
							},
							{
								"astId": 29,
								"contract": "contracts/FIR.sol:Fir",
								"label": "idProof",
								"offset": 0,
								"slot": "10",
								"type": "t_struct(IDProof)6_storage"
							}
						],
						"numberOfBytes": "384"
					},
					"t_struct(Evidence)82_storage": {
						"encoding": "inplace",
						"label": "struct Fir.Evidence",
						"members": [
							{
								"astId": 75,
								"contract": "contracts/FIR.sol:Fir",
								"label": "documents",
								"offset": 0,
								"slot": "0",
								"type": "t_array(t_string_storage)dyn_storage"
							},
							{
								"astId": 77,
								"contract": "contracts/FIR.sol:Fir",
								"label": "mediaType",
								"offset": 0,
								"slot": "1",
								"type": "t_string_storage"
							},
							{
								"astId": 79,
								"contract": "contracts/FIR.sol:Fir",
								"label": "mediaDescription",
								"offset": 0,
								"slot": "2",
								"type": "t_string_storage"
							},
							{
								"astId": 81,
								"contract": "contracts/FIR.sol:Fir",
								"label": "physicalDescription",
								"offset": 0,
								"slot": "3",
								"type": "t_string_storage"
							}
						],
						"numberOfBytes": "128"
					},
					"t_struct(FIR)123_storage": {
						"encoding": "inplace",
						"label": "struct Fir.FIR",
						"members": [
							{
								"astId": 95,
								"contract": "contracts/FIR.sol:Fir",
								"label": "firId",
								"offset": 0,
								"slot": "0",
								"type": "t_uint256"
							},
							{
								"astId": 97,
								"contract": "contracts/FIR.sol:Fir",
								"label": "firNumber",
								"offset": 0,
								"slot": "1",
								"type": "t_string_storage"
							},
							{
								"astId": 99,
								"contract": "contracts/FIR.sol:Fir",
								"label": "filingDateTime",
								"offset": 0,
								"slot": "2",
								"type": "t_uint256"
							},
							{
								"astId": 102,
								"contract": "contracts/FIR.sol:Fir",
								"label": "station",
								"offset": 0,
								"slot": "3",
								"type": "t_struct(PoliceStation)37_storage"
							},
							{
								"astId": 105,
								"contract": "contracts/FIR.sol:Fir",
								"label": "complainant",
								"offset": 0,
								"slot": "6",
								"type": "t_struct(Complainant)30_storage"
							},
							{
								"astId": 108,
								"contract": "contracts/FIR.sol:Fir",
								"label": "incident",
								"offset": 0,
								"slot": "18",
								"type": "t_struct(Incident)52_storage"
							},
							{
								"astId": 112,
								"contract": "contracts/FIR.sol:Fir",
								"label": "accused",
								"offset": 0,
								"slot": "25",
								"type": "t_array(t_struct(Accused)65_storage)dyn_storage"
							},
							{
								"astId": 116,
								"contract": "contracts/FIR.sol:Fir",
								"label": "witnesses",
								"offset": 0,
								"slot": "26",
								"type": "t_array(t_struct(Witness)72_storage)dyn_storage"
							},
							{
								"astId": 119,
								"contract": "contracts/FIR.sol:Fir",
								"label": "evidence",
								"offset": 0,
								"slot": "27",
								"type": "t_struct(Evidence)82_storage"
							},
							{
								"astId": 122,
								"contract": "contracts/FIR.sol:Fir",
								"label": "investigation",
								"offset": 0,
								"slot": "31",
								"type": "t_struct(Investigation)93_storage"
							}
						],
						"numberOfBytes": "1152"
					},
					"t_struct(IDProof)6_storage": {
						"encoding": "inplace",
						"label": "struct Fir.IDProof",
						"members": [
							{
								"astId": 3,
								"contract": "contracts/FIR.sol:Fir",
								"label": "idType",
								"offset": 0,
								"slot": "0",
								"type": "t_string_storage"
							},
							{
								"astId": 5,
								"contract": "contracts/FIR.sol:Fir",
								"label": "idNumber",
								"offset": 0,
								"slot": "1",
								"type": "t_string_storage"
							}
						],
						"numberOfBytes": "64"
					},
					"t_struct(Incident)52_storage": {
						"encoding": "inplace",
						"label": "struct Fir.Incident",
						"members": [
							{
								"astId": 39,
								"contract": "contracts/FIR.sol:Fir",
								"label": "occurrenceStart",
								"offset": 0,
								"slot": "0",
								"type": "t_uint256"
							},
							{
								"astId": 41,
								"contract": "contracts/FIR.sol:Fir",
								"label": "occurrenceEnd",
								"offset": 0,
								"slot": "1",
								"type": "t_uint256"
							},
							{
								"astId": 43,
								"contract": "contracts/FIR.sol:Fir",
								"label": "place",
								"offset": 0,
								"slot": "2",
								"type": "t_string_storage"
							},
							{
								"astId": 45,
								"contract": "contracts/FIR.sol:Fir",
								"label": "distanceFromStation",
								"offset": 0,
								"slot": "3",
								"type": "t_string_storage"
							},
							{
								"astId": 47,
								"contract": "contracts/FIR.sol:Fir",
								"label": "offenceType",
								"offset": 0,
								"slot": "4",
								"type": "t_string_storage"
							},
							{
								"astId": 49,
								"contract": "contracts/FIR.sol:Fir",
								"label": "description",
								"offset": 0,
								"slot": "5",
								"type": "t_string_storage"
							},
							{
								"astId": 51,
								"contract": "contracts/FIR.sol:Fir",
								"label": "actSections",
								"offset": 0,
								"slot": "6",
								"type": "t_string_storage"
							}
						],
						"numberOfBytes": "224"
					},
					"t_struct(Investigation)93_storage": {
						"encoding": "inplace",
						"label": "struct Fir.Investigation",
						"members": [
							{
								"astId": 84,
								"contract": "contracts/FIR.sol:Fir",
								"label": "started",
								"offset": 0,
								"slot": "0",
								"type": "t_bool"
							},
							{
								"astId": 86,
								"contract": "contracts/FIR.sol:Fir",
								"label": "ioName",
								"offset": 0,
								"slot": "1",
								"type": "t_string_storage"
							},
							{
								"astId": 88,
								"contract": "contracts/FIR.sol:Fir",
								"label": "ioRank",
								"offset": 0,
								"slot": "2",
								"type": "t_string_storage"
							},
							{
								"astId": 90,
								"contract": "contracts/FIR.sol:Fir",
								"label": "ioBadgeNumber",
								"offset": 0,
								"slot": "3",
								"type": "t_string_storage"
							},
							{
								"astId": 92,
								"contract": "contracts/FIR.sol:Fir",
								"label": "dispatchDate",
								"offset": 0,
								"slot": "4",
								"type": "t_string_storage"
							}
						],
						"numberOfBytes": "160"
					},
					"t_struct(PoliceStation)37_storage": {
						"encoding": "inplace",
						"label": "struct Fir.PoliceStation",
						"members": [
							{
								"astId": 32,
								"contract": "contracts/FIR.sol:Fir",
								"label": "name",
								"offset": 0,
								"slot": "0",
								"type": "t_string_storage"
							},
							{
								"astId": 34,
								"contract": "contracts/FIR.sol:Fir",
								"label": "district",
								"offset": 0,
								"slot": "1",
								"type": "t_string_storage"
							},
							{
								"astId": 36,
								"contract": "contracts/FIR.sol:Fir",
								"label": "state",
								"offset": 0,
								"slot": "2",
								"type": "t_string_storage"
							}
						],
						"numberOfBytes": "96"
					},
					"t_struct(Witness)72_storage": {
						"encoding": "inplace",
						"label": "struct Fir.Witness",
						"members": [
							{
								"astId": 67,
								"contract": "contracts/FIR.sol:Fir",
								"label": "name",
								"offset": 0,
								"slot": "0",
								"type": "t_string_storage"
							},
							{
								"astId": 69,
								"contract": "contracts/FIR.sol:Fir",
								"label": "addr",
								"offset": 0,
								"slot": "1",
								"type": "t_string_storage"
							},
							{
								"astId": 71,
								"contract": "contracts/FIR.sol:Fir",
								"label": "contactInfo",
								"offset": 0,
								"slot": "2",
								"type": "t_string_storage"
							}
						],
						"numberOfBytes": "96"
					},
					"t_uint256": {
						"encoding": "inplace",
						"label": "uint256",
						"numberOfBytes": "32"
					}
				}
			},
			"userdoc": {
				"kind": "user",
				"methods": {},
				"version": 1
			}
		}
	}
}