{
  "_format": "hh-sol-artifact-1",
  "contractName": "Fir",
  "sourceName": "contracts/FIR.sol",
  "abi": [
    {
      "inputs": [
        {
          "internalType": "address",
          "name": "government",
          "type": "address"
        }
      ],
      "stateMutability": "nonpayable",
      "type": "constructor"
    },
    {
      "inputs": [],
      "name": "AccessControlBadConfirmation",
      "type": "error"
    },
    {
      "inputs": [
        {
          "internalType": "address",
          "name": "account",
          "type": "address"
        },
        {
          "internalType": "bytes32",
          "name": "neededRole",
          "type": "bytes32"
        }
      ],
      "name": "AccessControlUnauthorizedAccount",
      "type": "error"
    },
    {
      "anonymous": false,
      "inputs": [
        {
          "indexed": true,
          "internalType": "bytes32",
          "name": "role",
          "type": "bytes32"
        },
        {
          "indexed": true,
          "internalType": "bytes32",
          "name": "previousAdminRole",
          "type": "bytes32"
        },
        {
          "indexed": true,
          "internalType": "bytes32",
          "name": "newAdminRole",
          "type": "bytes32"
        }
      ],
      "name": "RoleAdminChanged",
      "type": "event"
    },
    {
      "anonymous": false,
      "inputs": [
        {
          "indexed": true,
          "internalType": "bytes32",
          "name": "role",
          "type": "bytes32"
        },
        {
          "indexed": true,
          "internalType": "address",
          "name": "account",
          "type": "address"
        },
        {
          "indexed": true,
          "internalType": "address",
          "name": "sender",
          "type": "address"
        }
      ],
      "name": "RoleGranted",
      "type": "event"
    },
    {
      "anonymous": false,
      "inputs": [
        {
          "indexed": true,
          "internalType": "bytes32",
          "name": "role",
          "type": "bytes32"
        },
        {
          "indexed": true,
          "internalType": "address",
          "name": "account",
          "type": "address"
        },
        {
          "indexed": true,
          "internalType": "address",
          "name": "sender",
          "type": "address"
        }
      ],
      "name": "RoleRevoked",
      "type": "event"
    },
    {
      "inputs": [],
      "name": "DEFAULT_ADMIN_ROLE",
      "outputs": [
        {
          "internalType": "bytes32",
          "name": "",
          "type": "bytes32"
        }
      ],
      "stateMutability": "view",
      "type": "function"
    },
    {
      "inputs": [],
      "name": "POLICE_ROLE",
      "outputs": [
        {
          "internalType": "bytes32",
          "name": "",
          "type": "bytes32"
        }
      ],
      "stateMutability": "view",
      "type": "function"
    },
    {
      "inputs": [
        {
          "internalType": "address",
          "name": "police",
          "type": "address"
        }
      ],
      "name": "addPolice",
      "outputs": [],
      "stateMutability": "nonpayable",
      "type": "function"
    },
    {
      "inputs": [
        {
          "internalType": "string",
          "name": "complaiantName",
          "type": "string"
        },
        {
          "internalType": "string",
          "name": "ipfsHash",
          "type": "string"
        }
      ],
      "name": "fileFIR",
      "outputs": [],
      "stateMutability": "nonpayable",
      "type": "function"
    },
    {
      "inputs": [],
      "name": "firCount",
      "outputs": [
        {
          "internalType": "uint256",
          "name": "",
          "type": "uint256"
        }
      ],
      "stateMutability": "view",
      "type": "function"
    },
    {
      "inputs": [
        {
          "internalType": "string",
          "name": "",
          "type": "string"
        }
      ],
      "name": "firIpfsHash",
      "outputs": [
        {
          "internalType": "bool",
          "name": "",
          "type": "bool"
        }
      ],
      "stateMutability": "view",
      "type": "function"
    },
    {
      "inputs": [
        {
          "internalType": "uint256",
          "name": "",
          "type": "uint256"
        }
      ],
      "name": "firs",
      "outputs": [
        {
          "internalType": "string",
          "name": "complaiantName",
          "type": "string"
        },
        {
          "internalType": "string",
          "name": "ipfsHash",
          "type": "string"
        },
        {
          "internalType": "address",
          "name": "filedBy",
          "type": "address"
        },
        {
          "internalType": "uint256",
          "name": "timestamp",
          "type": "uint256"
        }
      ],
      "stateMutability": "view",
      "type": "function"
    },
    {
      "inputs": [],
      "name": "getAllFirs",
      "outputs": [
        {
          "components": [
            {
              "internalType": "string",
              "name": "complaiantName",
              "type": "string"
            },
            {
              "internalType": "string",
              "name": "ipfsHash",
              "type": "string"
            },
            {
              "internalType": "address",
              "name": "filedBy",
              "type": "address"
            },
            {
              "internalType": "uint256",
              "name": "timestamp",
              "type": "uint256"
            }
          ],
          "internalType": "struct Fir.FIR[]",
          "name": "",
          "type": "tuple[]"
        }
      ],
      "stateMutability": "view",
      "type": "function"
    },
    {
      "inputs": [
        {
          "internalType": "uint256",
          "name": "index",
          "type": "uint256"
        }
      ],
      "name": "getFIRByIndex",
      "outputs": [
        {
          "internalType": "string",
          "name": "complaiantName",
          "type": "string"
        },
        {
          "internalType": "string",
          "name": "ipfsHash",
          "type": "string"
        },
        {
          "internalType": "address",
          "name": "filedBy",
          "type": "address"
        },
        {
          "internalType": "uint256",
          "name": "timestamp",
          "type": "uint256"
        }
      ],
      "stateMutability": "view",
      "type": "function"
    },
    {
      "inputs": [
        {
          "internalType": "string",
          "name": "ipfsHash",
          "type": "string"
        }
      ],
      "name": "getFIRByIpfsHash",
      "outputs": [
        {
          "components": [
            {
              "internalType": "string",
              "name": "complaiantName",
              "type": "string"
            },
            {
              "internalType": "string",
              "name": "ipfsHash",
              "type": "string"
            },
            {
              "internalType": "address",
              "name": "filedBy",
              "type": "address"
            },
            {
              "internalType": "uint256",
              "name": "timestamp",
              "type": "uint256"
            }
          ],
          "internalType": "struct Fir.FIR",
          "name": "",
          "type": "tuple"
        }
      ],
      "stateMutability": "view",
      "type": "function"
    },
    {
      "inputs": [],
      "name": "getFIRCount",
      "outputs": [
        {
          "internalType": "uint256",
          "name": "",
          "type": "uint256"
        }
      ],
      "stateMutability": "view",
      "type": "function"
    },
    {
      "inputs": [
        {
          "internalType": "bytes32",
          "name": "role",
          "type": "bytes32"
        }
      ],
      "name": "getRoleAdmin",
      "outputs": [
        {
          "internalType": "bytes32",
          "name": "",
          "type": "bytes32"
        }
      ],
      "stateMutability": "view",
      "type": "function"
    },
    {
      "inputs": [
        {
          "internalType": "bytes32",
          "name": "role",
          "type": "bytes32"
        },
        {
          "internalType": "address",
          "name": "account",
          "type": "address"
        }
      ],
      "name": "grantRole",
      "outputs": [],
      "stateMutability": "nonpayable",
      "type": "function"
    },
    {
      "inputs": [
        {
          "internalType": "bytes32",
          "name": "role",
          "type": "bytes32"
        },
        {
          "internalType": "address",
          "name": "account",
          "type": "address"
        }
      ],
      "name": "hasRole",
      "outputs": [
        {
          "internalType": "bool",
          "name": "",
          "type": "bool"
        }
      ],
      "stateMutability": "view",
      "type": "function"
    },
    {
      "inputs": [
        {
          "internalType": "address",
          "name": "police",
          "type": "address"
        }
      ],
      "name": "isPolice",
      "outputs": [
        {
          "internalType": "bool",
          "name": "",
          "type": "bool"
        }
      ],
      "stateMutability": "view",
      "type": "function"
    },
    {
      "inputs": [
        {
          "internalType": "address",
          "name": "police",
          "type": "address"
        }
      ],
      "name": "removePolice",
      "outputs": [],
      "stateMutability": "nonpayable",
      "type": "function"
    },
    {
      "inputs": [
        {
          "internalType": "bytes32",
          "name": "role",
          "type": "bytes32"
        },
        {
          "internalType": "address",
          "name": "callerConfirmation",
          "type": "address"
        }
      ],
      "name": "renounceRole",
      "outputs": [],
      "stateMutability": "nonpayable",
      "type": "function"
    },
    {
      "inputs": [
        {
          "internalType": "bytes32",
          "name": "role",
          "type": "bytes32"
        },
        {
          "internalType": "address",
          "name": "account",
          "type": "address"
        }
      ],
      "name": "revokeRole",
      "outputs": [],
      "stateMutability": "nonpayable",
      "type": "function"
    },
    {
      "inputs": [
        {
          "internalType": "bytes4",
          "name": "interfaceId",
          "type": "bytes4"
        }
      ],
      "name": "supportsInterface",
      "outputs": [
        {
          "internalType": "bool",
          "name": "",
          "type": "bool"
        }
      ],
      "stateMutability": "view",
      "type": "function"
    }
  ],
  "bytecode": "0x6080604052600060015534801561001557600080fd5b506040516124fe3803806124fe83398181016040528101906100379190610223565b61004a6000801b8261005160201b60201c565b5050610250565b6000610063838361014e60201b60201c565b61014357600160008085815260200190815260200160002060000160008473ffffffffffffffffffffffffffffffffffffffff1673ffffffffffffffffffffffffffffffffffffffff16815260200190815260200160002060006101000a81548160ff0219169083151502179055506100e06101b860201b60201c565b73ffffffffffffffffffffffffffffffffffffffff168273ffffffffffffffffffffffffffffffffffffffff16847f2f8788117e7eff1d82e926ec794901d17c78024a50270940304540a733656f0d60405160405180910390a460019050610148565b600090505b92915050565b600080600084815260200190815260200160002060000160008373ffffffffffffffffffffffffffffffffffffffff1673ffffffffffffffffffffffffffffffffffffffff16815260200190815260200160002060009054906101000a900460ff16905092915050565b600033905090565b600080fd5b600073ffffffffffffffffffffffffffffffffffffffff82169050919050565b60006101f0826101c5565b9050919050565b610200816101e5565b811461020b57600080fd5b50565b60008151905061021d816101f7565b92915050565b600060208284031215610239576102386101c0565b5b60006102478482850161020e565b91505092915050565b61229f8061025f6000396000f3fe608060405234801561001057600080fd5b50600436106101215760003560e01c806391d14854116100ad578063d547741f11610071578063d547741f14610334578063e3ad31be14610350578063e6c525d214610380578063f205950c146103b0578063ff8491de146103ce57610121565b806391d1485414610262578063a217fddf14610292578063a4de172d146102b0578063cf0da4ed146102e3578063d1c45a921461031657610121565b8063248a9ca3116100f4578063248a9ca3146101c25780632f2ff15d146101f257806331e5ecaa1461020e57806336568abe1461022a57806378ac0caf1461024657610121565b806301ffc9a71461012657806306533a601461015657806317e106e4146101745780632087a00e146101a4575b600080fd5b610140600480360381019061013b91906114ad565b6103ea565b60405161014d91906114f5565b60405180910390f35b61015e610464565b60405161016b9190611529565b60405180910390f35b61018e6004803603810190610189919061168a565b61046e565b60405161019b919061180c565b60405180910390f35b6101ac61074e565b6040516101b99190611847565b60405180910390f35b6101dc60048036038101906101d7919061188e565b610772565b6040516101e99190611847565b60405180910390f35b61020c600480360381019061020791906118e7565b610791565b005b61022860048036038101906102239190611927565b6107b3565b005b610244600480360381019061023f91906118e7565b6107ef565b005b610260600480360381019061025b9190611954565b61086a565b005b61027c600480360381019061027791906118e7565b610a6e565b60405161028991906114f5565b60405180910390f35b61029a610ad8565b6040516102a79190611847565b60405180910390f35b6102ca60048036038101906102c591906119f8565b610adf565b6040516102da9493929190611a7e565b60405180910390f35b6102fd60048036038101906102f891906119f8565b610c3f565b60405161030d9493929190611a7e565b60405180910390f35b61031e610e2a565b60405161032b9190611529565b60405180910390f35b61034e600480360381019061034991906118e7565b610e30565b005b61036a6004803603810190610365919061168a565b610e52565b60405161037791906114f5565b60405180910390f35b61039a60048036038101906103959190611927565b610e88565b6040516103a791906114f5565b60405180910390f35b6103b8610ecf565b6040516103c59190611bfd565b60405180910390f35b6103e860048036038101906103e39190611927565b61110d565b005b60007f7965db0b000000000000000000000000000000000000000000000000000000007bffffffffffffffffffffffffffffffffffffffffffffffffffffffff1916827bffffffffffffffffffffffffffffffffffffffffffffffffffffffff1916148061045d575061045c82611149565b5b9050919050565b6000600154905090565b610476611403565b6003826040516104869190611c5b565b908152602001604051809103902060009054906101000a900460ff166104e1576040517f08c379a00000000000000000000000000000000000000000000000000000000081526004016104d890611cbe565b60405180910390fd5b60005b60015481101561070d57826040516020016104ff9190611c5b565b604051602081830303815290604052805190602001206002600083815260200190815260200160002060010160405160200161053b9190611dd6565b6040516020818303038152906040528051906020012003610700576002600082815260200190815260200160002060405180608001604052908160008201805461058490611d0d565b80601f01602080910402602001604051908101604052809291908181526020018280546105b090611d0d565b80156105fd5780601f106105d2576101008083540402835291602001916105fd565b820191906000526020600020905b8154815290600101906020018083116105e057829003601f168201915b5050505050815260200160018201805461061690611d0d565b80601f016020809104026020016040519081016040528092919081815260200182805461064290611d0d565b801561068f5780601f106106645761010080835404028352916020019161068f565b820191906000526020600020905b81548152906001019060200180831161067257829003601f168201915b505050505081526020016002820160009054906101000a900473ffffffffffffffffffffffffffffffffffffffff1673ffffffffffffffffffffffffffffffffffffffff1673ffffffffffffffffffffffffffffffffffffffff168152602001600382015481525050915050610749565b80806001019150506104e4565b506040517f08c379a000000000000000000000000000000000000000000000000000000000815260040161074090611cbe565b60405180910390fd5b919050565b7f3c897272fb756004d8a8588422a9ce6e04768b2d705bbde7a87ceb35e9b9c5d981565b6000806000838152602001908152602001600020600101549050919050565b61079a82610772565b6107a3816111b3565b6107ad83836111c7565b50505050565b6000801b6107c0816111b3565b6107ea7f3c897272fb756004d8a8588422a9ce6e04768b2d705bbde7a87ceb35e9b9c5d9836112b8565b505050565b6107f76113aa565b73ffffffffffffffffffffffffffffffffffffffff168173ffffffffffffffffffffffffffffffffffffffff161461085b576040517f6697b23200000000000000000000000000000000000000000000000000000000815260040160405180910390fd5b61086582826112b8565b505050565b6108947f3c897272fb756004d8a8588422a9ce6e04768b2d705bbde7a87ceb35e9b9c5d933610a6e565b806108a857506108a76000801b33610a6e565b5b6108e7576040517f08c379a00000000000000000000000000000000000000000000000000000000081526004016108de90611e39565b60405180910390fd5b6003816040516108f79190611c5b565b908152602001604051809103902060009054906101000a900460ff1615610953576040517f08c379a000000000000000000000000000000000000000000000000000000000815260040161094a90611ea5565b60405180910390fd5b60405180608001604052808381526020018281526020013373ffffffffffffffffffffffffffffffffffffffff1681526020014281525060026000600160008154809291906109a190611ef4565b91905055815260200190815260200160002060008201518160000190816109c891906120d3565b5060208201518160010190816109de91906120d3565b5060408201518160020160006101000a81548173ffffffffffffffffffffffffffffffffffffffff021916908373ffffffffffffffffffffffffffffffffffffffff160217905550606082015181600301559050506001600382604051610a459190611c5b565b908152602001604051809103902060006101000a81548160ff0219169083151502179055505050565b600080600084815260200190815260200160002060000160008373ffffffffffffffffffffffffffffffffffffffff1673ffffffffffffffffffffffffffffffffffffffff16815260200190815260200160002060009054906101000a900460ff16905092915050565b6000801b81565b6002602052806000526040600020600091509050806000018054610b0290611d0d565b80601f0160208091040260200160405190810160405280929190818152602001828054610b2e90611d0d565b8015610b7b5780601f10610b5057610100808354040283529160200191610b7b565b820191906000526020600020905b815481529060010190602001808311610b5e57829003601f168201915b505050505090806001018054610b9090611d0d565b80601f0160208091040260200160405190810160405280929190818152602001828054610bbc90611d0d565b8015610c095780601f10610bde57610100808354040283529160200191610c09565b820191906000526020600020905b815481529060010190602001808311610bec57829003601f168201915b5050505050908060020160009054906101000a900473ffffffffffffffffffffffffffffffffffffffff16908060030154905084565b6060806000806001548510610c89576040517f08c379a0000000000000000000000000000000000000000000000000000000008152600401610c80906121f1565b60405180910390fd5b60026000868152602001908152602001600020600001600260008781526020019081526020016000206001016002600088815260200190815260200160002060020160009054906101000a900473ffffffffffffffffffffffffffffffffffffffff166002600089815260200190815260200160002060030154838054610d0f90611d0d565b80601f0160208091040260200160405190810160405280929190818152602001828054610d3b90611d0d565b8015610d885780601f10610d5d57610100808354040283529160200191610d88565b820191906000526020600020905b815481529060010190602001808311610d6b57829003601f168201915b50505050509350828054610d9b90611d0d565b80601f0160208091040260200160405190810160405280929190818152602001828054610dc790611d0d565b8015610e145780601f10610de957610100808354040283529160200191610e14565b820191906000526020600020905b815481529060010190602001808311610df757829003601f168201915b5050505050925093509350935093509193509193565b60015481565b610e3982610772565b610e42816111b3565b610e4c83836112b8565b50505050565b6003818051602081018201805184825260208301602085012081835280955050505050506000915054906101000a900460ff1681565b6000610eb47f3c897272fb756004d8a8588422a9ce6e04768b2d705bbde7a87ceb35e9b9c5d983610a6e565b80610ec85750610ec76000801b83610a6e565b5b9050919050565b6060600060015467ffffffffffffffff811115610eef57610eee61155f565b5b604051908082528060200260200182016040528015610f2857816020015b610f15611403565b815260200190600190039081610f0d5790505b50905060005b6001548110156111055760026000828152602001908152602001600020604051806080016040529081600082018054610f6690611d0d565b80601f0160208091040260200160405190810160405280929190818152602001828054610f9290611d0d565b8015610fdf5780601f10610fb457610100808354040283529160200191610fdf565b820191906000526020600020905b815481529060010190602001808311610fc257829003601f168201915b50505050508152602001600182018054610ff890611d0d565b80601f016020809104026020016040519081016040528092919081815260200182805461102490611d0d565b80156110715780601f1061104657610100808354040283529160200191611071565b820191906000526020600020905b81548152906001019060200180831161105457829003601f168201915b505050505081526020016002820160009054906101000a900473ffffffffffffffffffffffffffffffffffffffff1673ffffffffffffffffffffffffffffffffffffffff1673ffffffffffffffffffffffffffffffffffffffff1681526020016003820154815250508282815181106110ed576110ec612211565b5b60200260200101819052508080600101915050610f2e565b508091505090565b6000801b61111a816111b3565b6111447f3c897272fb756004d8a8588422a9ce6e04768b2d705bbde7a87ceb35e9b9c5d9836111c7565b505050565b60007f01ffc9a7000000000000000000000000000000000000000000000000000000007bffffffffffffffffffffffffffffffffffffffffffffffffffffffff1916827bffffffffffffffffffffffffffffffffffffffffffffffffffffffff1916149050919050565b6111c4816111bf6113aa565b6113b2565b50565b60006111d38383610a6e565b6112ad57600160008085815260200190815260200160002060000160008473ffffffffffffffffffffffffffffffffffffffff1673ffffffffffffffffffffffffffffffffffffffff16815260200190815260200160002060006101000a81548160ff02191690831515021790555061124a6113aa565b73ffffffffffffffffffffffffffffffffffffffff168273ffffffffffffffffffffffffffffffffffffffff16847f2f8788117e7eff1d82e926ec794901d17c78024a50270940304540a733656f0d60405160405180910390a4600190506112b2565b600090505b92915050565b60006112c48383610a6e565b1561139f57600080600085815260200190815260200160002060000160008473ffffffffffffffffffffffffffffffffffffffff1673ffffffffffffffffffffffffffffffffffffffff16815260200190815260200160002060006101000a81548160ff02191690831515021790555061133c6113aa565b73ffffffffffffffffffffffffffffffffffffffff168273ffffffffffffffffffffffffffffffffffffffff16847ff6391f5c32d9c69d2a47ea670b442974b53935d1edc7fd64eb21e047a839171b60405160405180910390a4600190506113a4565b600090505b92915050565b600033905090565b6113bc8282610a6e565b6113ff5780826040517fe2517d3f0000000000000000000000000000000000000000000000000000000081526004016113f6929190612240565b60405180910390fd5b5050565b60405180608001604052806060815260200160608152602001600073ffffffffffffffffffffffffffffffffffffffff168152602001600081525090565b6000604051905090565b600080fd5b600080fd5b60007fffffffff0000000000000000000000000000000000000000000000000000000082169050919050565b61148a81611455565b811461149557600080fd5b50565b6000813590506114a781611481565b92915050565b6000602082840312156114c3576114c261144b565b5b60006114d184828501611498565b91505092915050565b60008115159050919050565b6114ef816114da565b82525050565b600060208201905061150a60008301846114e6565b92915050565b6000819050919050565b61152381611510565b82525050565b600060208201905061153e600083018461151a565b92915050565b600080fd5b600080fd5b6000601f19601f8301169050919050565b7f4e487b7100000000000000000000000000000000000000000000000000000000600052604160045260246000fd5b6115978261154e565b810181811067ffffffffffffffff821117156115b6576115b561155f565b5b80604052505050565b60006115c9611441565b90506115d5828261158e565b919050565b600067ffffffffffffffff8211156115f5576115f461155f565b5b6115fe8261154e565b9050602081019050919050565b82818337600083830152505050565b600061162d611628846115da565b6115bf565b90508281526020810184848401111561164957611648611549565b5b61165484828561160b565b509392505050565b600082601f83011261167157611670611544565b5b813561168184826020860161161a565b91505092915050565b6000602082840312156116a05761169f61144b565b5b600082013567ffffffffffffffff8111156116be576116bd611450565b5b6116ca8482850161165c565b91505092915050565b600081519050919050565b600082825260208201905092915050565b60005b8381101561170d5780820151818401526020810190506116f2565b60008484015250505050565b6000611724826116d3565b61172e81856116de565b935061173e8185602086016116ef565b6117478161154e565b840191505092915050565b600073ffffffffffffffffffffffffffffffffffffffff82169050919050565b600061177d82611752565b9050919050565b61178d81611772565b82525050565b61179c81611510565b82525050565b600060808301600083015184820360008601526117bf8282611719565b915050602083015184820360208601526117d98282611719565b91505060408301516117ee6040860182611784565b5060608301516118016060860182611793565b508091505092915050565b6000602082019050818103600083015261182681846117a2565b905092915050565b6000819050919050565b6118418161182e565b82525050565b600060208201905061185c6000830184611838565b92915050565b61186b8161182e565b811461187657600080fd5b50565b60008135905061188881611862565b92915050565b6000602082840312156118a4576118a361144b565b5b60006118b284828501611879565b91505092915050565b6118c481611772565b81146118cf57600080fd5b50565b6000813590506118e1816118bb565b92915050565b600080604083850312156118fe576118fd61144b565b5b600061190c85828601611879565b925050602061191d858286016118d2565b9150509250929050565b60006020828403121561193d5761193c61144b565b5b600061194b848285016118d2565b91505092915050565b6000806040838503121561196b5761196a61144b565b5b600083013567ffffffffffffffff81111561198957611988611450565b5b6119958582860161165c565b925050602083013567ffffffffffffffff8111156119b6576119b5611450565b5b6119c28582860161165c565b9150509250929050565b6119d581611510565b81146119e057600080fd5b50565b6000813590506119f2816119cc565b92915050565b600060208284031215611a0e57611a0d61144b565b5b6000611a1c848285016119e3565b91505092915050565b600082825260208201905092915050565b6000611a41826116d3565b611a4b8185611a25565b9350611a5b8185602086016116ef565b611a648161154e565b840191505092915050565b611a7881611772565b82525050565b60006080820190508181036000830152611a988187611a36565b90508181036020830152611aac8186611a36565b9050611abb6040830185611a6f565b611ac8606083018461151a565b95945050505050565b600081519050919050565b600082825260208201905092915050565b6000819050602082019050919050565b60006080830160008301518482036000860152611b1a8282611719565b91505060208301518482036020860152611b348282611719565b9150506040830151611b496040860182611784565b506060830151611b5c6060860182611793565b508091505092915050565b6000611b738383611afd565b905092915050565b6000602082019050919050565b6000611b9382611ad1565b611b9d8185611adc565b935083602082028501611baf85611aed565b8060005b85811015611beb5784840389528151611bcc8582611b67565b9450611bd783611b7b565b925060208a01995050600181019050611bb3565b50829750879550505050505092915050565b60006020820190508181036000830152611c178184611b88565b905092915050565b600081905092915050565b6000611c35826116d3565b611c3f8185611c1f565b9350611c4f8185602086016116ef565b80840191505092915050565b6000611c678284611c2a565b915081905092915050565b7f464952206e6f7420666f756e6400000000000000000000000000000000000000600082015250565b6000611ca8600d83611a25565b9150611cb382611c72565b602082019050919050565b60006020820190508181036000830152611cd781611c9b565b9050919050565b7f4e487b7100000000000000000000000000000000000000000000000000000000600052602260045260246000fd5b60006002820490506001821680611d2557607f821691505b602082108103611d3857611d37611cde565b5b50919050565b60008190508160005260206000209050919050565b60008154611d6081611d0d565b611d6a8186611c1f565b94506001821660008114611d855760018114611d9a57611dcd565b60ff1983168652811515820286019350611dcd565b611da385611d3e565b60005b83811015611dc557815481890152600182019150602081019050611da6565b838801955050505b50505092915050565b6000611de28284611d53565b915081905092915050565b7f43616c6c6572206973206e6f74206120706f6c696365206f6666696365720000600082015250565b6000611e23601e83611a25565b9150611e2e82611ded565b602082019050919050565b60006020820190508181036000830152611e5281611e16565b9050919050565b7f46495220616c72656164792066696c6564000000000000000000000000000000600082015250565b6000611e8f601183611a25565b9150611e9a82611e59565b602082019050919050565b60006020820190508181036000830152611ebe81611e82565b9050919050565b7f4e487b7100000000000000000000000000000000000000000000000000000000600052601160045260246000fd5b6000611eff82611510565b91507fffffffffffffffffffffffffffffffffffffffffffffffffffffffffffffffff8203611f3157611f30611ec5565b5b600182019050919050565b60006020601f8301049050919050565b600082821b905092915050565b600060088302611f897fffffffffffffffffffffffffffffffffffffffffffffffffffffffffffffffff82611f4c565b611f938683611f4c565b95508019841693508086168417925050509392505050565b6000819050919050565b6000611fd0611fcb611fc684611510565b611fab565b611510565b9050919050565b6000819050919050565b611fea83611fb5565b611ffe611ff682611fd7565b848454611f59565b825550505050565b600090565b612013612006565b61201e818484611fe1565b505050565b5b818110156120425761203760008261200b565b600181019050612024565b5050565b601f8211156120875761205881611d3e565b61206184611f3c565b81016020851015612070578190505b61208461207c85611f3c565b830182612023565b50505b505050565b600082821c905092915050565b60006120aa6000198460080261208c565b1980831691505092915050565b60006120c38383612099565b9150826002028217905092915050565b6120dc826116d3565b67ffffffffffffffff8111156120f5576120f461155f565b5b6120ff8254611d0d565b61210a828285612046565b600060209050601f83116001811461213d576000841561212b578287015190505b61213585826120b7565b86555061219d565b601f19841661214b86611d3e565b60005b828110156121735784890151825560018201915060208501945060208101905061214e565b86831015612190578489015161218c601f891682612099565b8355505b6001600288020188555050505b505050505050565b7f496e646578206f7574206f6620626f756e647300000000000000000000000000600082015250565b60006121db601383611a25565b91506121e6826121a5565b602082019050919050565b6000602082019050818103600083015261220a816121ce565b9050919050565b7f4e487b7100000000000000000000000000000000000000000000000000000000600052603260045260246000fd5b60006040820190506122556000830185611a6f565b6122626020830184611838565b939250505056fea264697066735822122068630051ec7b44f8ceef293382cda7f816571d76ec3bc6c68b7d820cae7fc52e64736f6c634300081c0033",
  "linkReferences": {},
  "deployedLinkReferences": {}
}