{
	"_format": "hh-sol-artifact-1",
	"contractName": "Fir",
	"sourceName": "contracts/FIR.sol",
	"abi": [
		{
			"inputs": [
				{
					"internalType": "address",
					"name": "government",
					"type": "address"
				}
			],
			"stateMutability": "nonpayable",
			"type": "constructor"
		},
		{
			"inputs": [],
			"name": "AccessControlBadConfirmation",
			"type": "error"
		},
		{
			"inputs": [
				{
					"internalType": "address",
					"name": "account",
					"type": "address"
				},
				{
					"internalType": "bytes32",
					"name": "neededRole",
					"type": "bytes32"
				}
			],
			"name": "AccessControlUnauthorizedAccount",
			"type": "error"
		},
		{
			"anonymous": false,
			"inputs": [
				{
					"indexed": true,
					"internalType": "bytes32",
					"name": "role",
					"type": "bytes32"
				},
				{
					"indexed": true,
					"internalType": "bytes32",
					"name": "previousAdminRole",
					"type": "bytes32"
				},
				{
					"indexed": true,
					"internalType": "bytes32",
					"name": "newAdminRole",
					"type": "bytes32"
				}
			],
			"name": "RoleAdminChanged",
			"type": "event"
		},
		{
			"anonymous": false,
			"inputs": [
				{
					"indexed": true,
					"internalType": "bytes32",
					"name": "role",
					"type": "bytes32"
				},
				{
					"indexed": true,
					"internalType": "address",
					"name": "account",
					"type": "address"
				},
				{
					"indexed": true,
					"internalType": "address",
					"name": "sender",
					"type": "address"
				}
			],
			"name": "RoleGranted",
			"type": "event"
		},
		{
			"anonymous": false,
			"inputs": [
				{
					"indexed": true,
					"internalType": "bytes32",
					"name": "role",
					"type": "bytes32"
				},
				{
					"indexed": true,
					"internalType": "address",
					"name": "account",
					"type": "address"
				},
				{
					"indexed": true,
					"internalType": "address",
					"name": "sender",
					"type": "address"
				}
			],
			"name": "RoleRevoked",
			"type": "event"
		},
		{
			"inputs": [],
			"name": "DEFAULT_ADMIN_ROLE",
			"outputs": [
				{
					"internalType": "bytes32",
					"name": "",
					"type": "bytes32"
				}
			],
			"stateMutability": "view",
			"type": "function"
		},
		{
			"inputs": [],
			"name": "POLICE_ROLE",
			"outputs": [
				{
					"internalType": "bytes32",
					"name": "",
					"type": "bytes32"
				}
			],
			"stateMutability": "view",
			"type": "function"
		},
		{
			"inputs": [
				{
					"internalType": "address",
					"name": "police",
					"type": "address"
				}
			],
			"name": "addPolice",
			"outputs": [],
			"stateMutability": "nonpayable",
			"type": "function"
		},
		{
			"inputs": [
				{
					"internalType": "string",
					"name": "ipfsHash",
					"type": "string"
				}
			],
			"name": "fileFIR",
			"outputs": [],
			"stateMutability": "nonpayable",
			"type": "function"
		},
		{
			"inputs": [],
			"name": "firCount",
			"outputs": [
				{
					"internalType": "uint256",
					"name": "",
					"type": "uint256"
				}
			],
			"stateMutability": "view",
			"type": "function"
		},
		{
			"inputs": [
				{
					"internalType": "uint256",
					"name": "",
					"type": "uint256"
				}
			],
			"name": "firHashes",
			"outputs": [
				{
					"internalType": "string",
					"name": "",
					"type": "string"
				}
			],
			"stateMutability": "view",
			"type": "function"
		},
		{
			"inputs": [
				{
					"internalType": "string",
					"name": "",
					"type": "string"
				}
			],
			"name": "firIpfsHash",
			"outputs": [
				{
					"internalType": "bool",
					"name": "",
					"type": "bool"
				}
			],
			"stateMutability": "view",
			"type": "function"
		},
		{
			"inputs": [
				{
					"internalType": "uint256",
					"name": "_firId",
					"type": "uint256"
				}
			],
			"name": "getFIR",
			"outputs": [
				{
					"internalType": "string",
					"name": "",
					"type": "string"
				}
			],
			"stateMutability": "view",
			"type": "function"
		},
		{
			"inputs": [
				{
					"internalType": "bytes32",
					"name": "role",
					"type": "bytes32"
				}
			],
			"name": "getRoleAdmin",
			"outputs": [
				{
					"internalType": "bytes32",
					"name": "",
					"type": "bytes32"
				}
			],
			"stateMutability": "view",
			"type": "function"
		},
		{
			"inputs": [
				{
					"internalType": "bytes32",
					"name": "role",
					"type": "bytes32"
				},
				{
					"internalType": "address",
					"name": "account",
					"type": "address"
				}
			],
			"name": "grantRole",
			"outputs": [],
			"stateMutability": "nonpayable",
			"type": "function"
		},
		{
			"inputs": [
				{
					"internalType": "bytes32",
					"name": "role",
					"type": "bytes32"
				},
				{
					"internalType": "address",
					"name": "account",
					"type": "address"
				}
			],
			"name": "hasRole",
			"outputs": [
				{
					"internalType": "bool",
					"name": "",
					"type": "bool"
				}
			],
			"stateMutability": "view",
			"type": "function"
		},
		{
			"inputs": [
				{
					"internalType": "address",
					"name": "police",
					"type": "address"
				}
			],
			"name": "isPolice",
			"outputs": [
				{
					"internalType": "bool",
					"name": "",
					"type": "bool"
				}
			],
			"stateMutability": "view",
			"type": "function"
		},
		{
			"inputs": [
				{
					"internalType": "address",
					"name": "police",
					"type": "address"
				}
			],
			"name": "removePolice",
			"outputs": [],
			"stateMutability": "nonpayable",
			"type": "function"
		},
		{
			"inputs": [
				{
					"internalType": "bytes32",
					"name": "role",
					"type": "bytes32"
				},
				{
					"internalType": "address",
					"name": "callerConfirmation",
					"type": "address"
				}
			],
			"name": "renounceRole",
			"outputs": [],
			"stateMutability": "nonpayable",
			"type": "function"
		},
		{
			"inputs": [
				{
					"internalType": "bytes32",
					"name": "role",
					"type": "bytes32"
				},
				{
					"internalType": "address",
					"name": "account",
					"type": "address"
				}
			],
			"name": "revokeRole",
			"outputs": [],
			"stateMutability": "nonpayable",
			"type": "function"
		},
		{
			"inputs": [
				{
					"internalType": "bytes4",
					"name": "interfaceId",
					"type": "bytes4"
				}
			],
			"name": "supportsInterface",
			"outputs": [
				{
					"internalType": "bool",
					"name": "",
					"type": "bool"
				}
			],
			"stateMutability": "view",
			"type": "function"
		}
	],
	"bytecode": "0x6080604052600060015534801561001557600080fd5b506040516117a13803806117a183398181016040528101906100379190610223565b61004a6000801b8261005160201b60201c565b5050610250565b6000610063838361014e60201b60201c565b61014357600160008085815260200190815260200160002060000160008473ffffffffffffffffffffffffffffffffffffffff1673ffffffffffffffffffffffffffffffffffffffff16815260200190815260200160002060006101000a81548160ff0219169083151502179055506100e06101b860201b60201c565b73ffffffffffffffffffffffffffffffffffffffff168273ffffffffffffffffffffffffffffffffffffffff16847f2f8788117e7eff1d82e926ec794901d17c78024a50270940304540a733656f0d60405160405180910390a460019050610148565b600090505b92915050565b600080600084815260200190815260200160002060000160008373ffffffffffffffffffffffffffffffffffffffff1673ffffffffffffffffffffffffffffffffffffffff16815260200190815260200160002060009054906101000a900460ff16905092915050565b600033905090565b600080fd5b600073ffffffffffffffffffffffffffffffffffffffff82169050919050565b60006101f0826101c5565b9050919050565b610200816101e5565b811461020b57600080fd5b50565b60008151905061021d816101f7565b92915050565b600060208284031215610239576102386101c0565b5b60006102478482850161020e565b91505092915050565b6115428061025f6000396000f3fe608060405234801561001057600080fd5b50600436106101005760003560e01c8063c3737e2311610097578063e3ad31be11610066578063e3ad31be146102ab578063e6c525d2146102db578063f1a5c4181461030b578063ff8491de1461033b57610100565b8063c3737e2314610225578063d1c45a9214610241578063d547741f1461025f578063db8ceb091461027b57610100565b806331e5ecaa116100d357806331e5ecaa1461019f57806336568abe146101bb57806391d14854146101d7578063a217fddf1461020757610100565b806301ffc9a7146101055780632087a00e14610135578063248a9ca3146101535780632f2ff15d14610183575b600080fd5b61011f600480360381019061011a9190610bdc565b610357565b60405161012c9190610c24565b60405180910390f35b61013d6103d1565b60405161014a9190610c58565b60405180910390f35b61016d60048036038101906101689190610c9f565b6103f5565b60405161017a9190610c58565b60405180910390f35b61019d60048036038101906101989190610d2a565b610414565b005b6101b960048036038101906101b49190610d6a565b610436565b005b6101d560048036038101906101d09190610d2a565b610472565b005b6101f160048036038101906101ec9190610d2a565b6104ed565b6040516101fe9190610c24565b60405180910390f35b61020f610557565b60405161021c9190610c58565b60405180910390f35b61023f600480360381019061023a9190610edd565b61055e565b005b6102496106a4565b6040516102569190610f3f565b60405180910390f35b61027960048036038101906102749190610d2a565b6106aa565b005b61029560048036038101906102909190610f86565b6106cc565b6040516102a29190611032565b60405180910390f35b6102c560048036038101906102c09190610edd565b61076c565b6040516102d29190610c24565b60405180910390f35b6102f560048036038101906102f09190610d6a565b6107a2565b6040516103029190610c24565b60405180910390f35b61032560048036038101906103209190610f86565b6107d5565b6040516103329190611032565b60405180910390f35b61035560048036038101906103509190610d6a565b61087a565b005b60007f7965db0b000000000000000000000000000000000000000000000000000000007bffffffffffffffffffffffffffffffffffffffffffffffffffffffff1916827bffffffffffffffffffffffffffffffffffffffffffffffffffffffff191614806103ca57506103c9826108b6565b5b9050919050565b7f3c897272fb756004d8a8588422a9ce6e04768b2d705bbde7a87ceb35e9b9c5d981565b6000806000838152602001908152602001600020600101549050919050565b61041d826103f5565b61042681610920565b6104308383610934565b50505050565b6000801b61044381610920565b61046d7f3c897272fb756004d8a8588422a9ce6e04768b2d705bbde7a87ceb35e9b9c5d983610a25565b505050565b61047a610b17565b73ffffffffffffffffffffffffffffffffffffffff168173ffffffffffffffffffffffffffffffffffffffff16146104de576040517f6697b23200000000000000000000000000000000000000000000000000000000815260040160405180910390fd5b6104e88282610a25565b505050565b600080600084815260200190815260200160002060000160008373ffffffffffffffffffffffffffffffffffffffff1673ffffffffffffffffffffffffffffffffffffffff16815260200190815260200160002060009054906101000a900460ff16905092915050565b6000801b81565b6105887f3c897272fb756004d8a8588422a9ce6e04768b2d705bbde7a87ceb35e9b9c5d9336104ed565b6105c7576040517f08c379a00000000000000000000000000000000000000000000000000000000081526004016105be906110a0565b60405180910390fd5b6003816040516105d791906110fc565b908152602001604051809103902060009054906101000a900460ff1615610633576040517f08c379a000000000000000000000000000000000000000000000000000000000815260040161062a9061115f565b60405180910390fd5b80600260006001600081548092919061064b906111ae565b91905055815260200190815260200160002090816106699190611402565b50600160038260405161067c91906110fc565b908152602001604051809103902060006101000a81548160ff02191690831515021790555050565b60015481565b6106b3826103f5565b6106bc81610920565b6106c68383610a25565b50505050565b600260205280600052604060002060009150905080546106eb90611225565b80601f016020809104026020016040519081016040528092919081815260200182805461071790611225565b80156107645780601f1061073957610100808354040283529160200191610764565b820191906000526020600020905b81548152906001019060200180831161074757829003601f168201915b505050505081565b6003818051602081018201805184825260208301602085012081835280955050505050506000915054906101000a900460ff1681565b60006107ce7f3c897272fb756004d8a8588422a9ce6e04768b2d705bbde7a87ceb35e9b9c5d9836104ed565b9050919050565b60606002600083815260200190815260200160002080546107f590611225565b80601f016020809104026020016040519081016040528092919081815260200182805461082190611225565b801561086e5780601f106108435761010080835404028352916020019161086e565b820191906000526020600020905b81548152906001019060200180831161085157829003601f168201915b50505050509050919050565b6000801b61088781610920565b6108b17f3c897272fb756004d8a8588422a9ce6e04768b2d705bbde7a87ceb35e9b9c5d983610934565b505050565b60007f01ffc9a7000000000000000000000000000000000000000000000000000000007bffffffffffffffffffffffffffffffffffffffffffffffffffffffff1916827bffffffffffffffffffffffffffffffffffffffffffffffffffffffff1916149050919050565b6109318161092c610b17565b610b1f565b50565b600061094083836104ed565b610a1a57600160008085815260200190815260200160002060000160008473ffffffffffffffffffffffffffffffffffffffff1673ffffffffffffffffffffffffffffffffffffffff16815260200190815260200160002060006101000a81548160ff0219169083151502179055506109b7610b17565b73ffffffffffffffffffffffffffffffffffffffff168273ffffffffffffffffffffffffffffffffffffffff16847f2f8788117e7eff1d82e926ec794901d17c78024a50270940304540a733656f0d60405160405180910390a460019050610a1f565b600090505b92915050565b6000610a3183836104ed565b15610b0c57600080600085815260200190815260200160002060000160008473ffffffffffffffffffffffffffffffffffffffff1673ffffffffffffffffffffffffffffffffffffffff16815260200190815260200160002060006101000a81548160ff021916908315150217905550610aa9610b17565b73ffffffffffffffffffffffffffffffffffffffff168273ffffffffffffffffffffffffffffffffffffffff16847ff6391f5c32d9c69d2a47ea670b442974b53935d1edc7fd64eb21e047a839171b60405160405180910390a460019050610b11565b600090505b92915050565b600033905090565b610b2982826104ed565b610b6c5780826040517fe2517d3f000000000000000000000000000000000000000000000000000000008152600401610b639291906114e3565b60405180910390fd5b5050565b6000604051905090565b600080fd5b600080fd5b60007fffffffff0000000000000000000000000000000000000000000000000000000082169050919050565b610bb981610b84565b8114610bc457600080fd5b50565b600081359050610bd681610bb0565b92915050565b600060208284031215610bf257610bf1610b7a565b5b6000610c0084828501610bc7565b91505092915050565b60008115159050919050565b610c1e81610c09565b82525050565b6000602082019050610c396000830184610c15565b92915050565b6000819050919050565b610c5281610c3f565b82525050565b6000602082019050610c6d6000830184610c49565b92915050565b610c7c81610c3f565b8114610c8757600080fd5b50565b600081359050610c9981610c73565b92915050565b600060208284031215610cb557610cb4610b7a565b5b6000610cc384828501610c8a565b91505092915050565b600073ffffffffffffffffffffffffffffffffffffffff82169050919050565b6000610cf782610ccc565b9050919050565b610d0781610cec565b8114610d1257600080fd5b50565b600081359050610d2481610cfe565b92915050565b60008060408385031215610d4157610d40610b7a565b5b6000610d4f85828601610c8a565b9250506020610d6085828601610d15565b9150509250929050565b600060208284031215610d8057610d7f610b7a565b5b6000610d8e84828501610d15565b91505092915050565b600080fd5b600080fd5b6000601f19601f8301169050919050565b7f4e487b7100000000000000000000000000000000000000000000000000000000600052604160045260246000fd5b610dea82610da1565b810181811067ffffffffffffffff82111715610e0957610e08610db2565b5b80604052505050565b6000610e1c610b70565b9050610e288282610de1565b919050565b600067ffffffffffffffff821115610e4857610e47610db2565b5b610e5182610da1565b9050602081019050919050565b82818337600083830152505050565b6000610e80610e7b84610e2d565b610e12565b905082815260208101848484011115610e9c57610e9b610d9c565b5b610ea7848285610e5e565b509392505050565b600082601f830112610ec457610ec3610d97565b5b8135610ed4848260208601610e6d565b91505092915050565b600060208284031215610ef357610ef2610b7a565b5b600082013567ffffffffffffffff811115610f1157610f10610b7f565b5b610f1d84828501610eaf565b91505092915050565b6000819050919050565b610f3981610f26565b82525050565b6000602082019050610f546000830184610f30565b92915050565b610f6381610f26565b8114610f6e57600080fd5b50565b600081359050610f8081610f5a565b92915050565b600060208284031215610f9c57610f9b610b7a565b5b6000610faa84828501610f71565b91505092915050565b600081519050919050565b600082825260208201905092915050565b60005b83811015610fed578082015181840152602081019050610fd2565b60008484015250505050565b600061100482610fb3565b61100e8185610fbe565b935061101e818560208601610fcf565b61102781610da1565b840191505092915050565b6000602082019050818103600083015261104c8184610ff9565b905092915050565b7f43616c6c6572206973206e6f74206120706f6c696365206f6666696365720000600082015250565b600061108a601e83610fbe565b915061109582611054565b602082019050919050565b600060208201905081810360008301526110b98161107d565b9050919050565b600081905092915050565b60006110d682610fb3565b6110e081856110c0565b93506110f0818560208601610fcf565b80840191505092915050565b600061110882846110cb565b915081905092915050565b7f46495220616c72656164792066696c6564000000000000000000000000000000600082015250565b6000611149601183610fbe565b915061115482611113565b602082019050919050565b600060208201905081810360008301526111788161113c565b9050919050565b7f4e487b7100000000000000000000000000000000000000000000000000000000600052601160045260246000fd5b60006111b982610f26565b91507fffffffffffffffffffffffffffffffffffffffffffffffffffffffffffffffff82036111eb576111ea61117f565b5b600182019050919050565b7f4e487b7100000000000000000000000000000000000000000000000000000000600052602260045260246000fd5b6000600282049050600182168061123d57607f821691505b6020821081036112505761124f6111f6565b5b50919050565b60008190508160005260206000209050919050565b60006020601f8301049050919050565b600082821b905092915050565b6000600883026112b87fffffffffffffffffffffffffffffffffffffffffffffffffffffffffffffffff8261127b565b6112c2868361127b565b95508019841693508086168417925050509392505050565b6000819050919050565b60006112ff6112fa6112f584610f26565b6112da565b610f26565b9050919050565b6000819050919050565b611319836112e4565b61132d61132582611306565b848454611288565b825550505050565b600090565b611342611335565b61134d818484611310565b505050565b5b818110156113715761136660008261133a565b600181019050611353565b5050565b601f8211156113b65761138781611256565b6113908461126b565b8101602085101561139f578190505b6113b36113ab8561126b565b830182611352565b50505b505050565b600082821c905092915050565b60006113d9600019846008026113bb565b1980831691505092915050565b60006113f283836113c8565b9150826002028217905092915050565b61140b82610fb3565b67ffffffffffffffff81111561142457611423610db2565b5b61142e8254611225565b611439828285611375565b600060209050601f83116001811461146c576000841561145a578287015190505b61146485826113e6565b8655506114cc565b601f19841661147a86611256565b60005b828110156114a25784890151825560018201915060208501945060208101905061147d565b868310156114bf57848901516114bb601f8916826113c8565b8355505b6001600288020188555050505b505050505050565b6114dd81610cec565b82525050565b60006040820190506114f860008301856114d4565b6115056020830184610c49565b939250505056fea264697066735822122078ad881b365354eed81d289a6583f0687f4b8461160f5f50c639a4fd00accfaa64736f6c634300081c0033",
	"linkReferences": {},
	"deployedLinkReferences": {}
}